{
  "_format": "hh3-artifact-1",
  "contractName": "NoteDeployerFactory",
  "sourceName": "contracts/smart-account/NoteDeployerFactory.sol",
  "abi": [
    {
      "inputs": [
        {
          "internalType": "address",
          "name": "initialOwner",
          "type": "address"
        }
      ],
      "stateMutability": "nonpayable",
      "type": "constructor"
    },
    {
      "inputs": [
        {
          "internalType": "address",
          "name": "owner",
          "type": "address"
        }
      ],
      "name": "OwnableInvalidOwner",
      "type": "error"
    },
    {
      "inputs": [
        {
          "internalType": "address",
          "name": "account",
          "type": "address"
        }
      ],
      "name": "OwnableUnauthorizedAccount",
      "type": "error"
    },
    {
      "anonymous": false,
      "inputs": [
        {
          "indexed": true,
          "internalType": "address",
          "name": "previousOwner",
          "type": "address"
        },
        {
          "indexed": true,
          "internalType": "address",
          "name": "newOwner",
          "type": "address"
        }
      ],
      "name": "OwnershipTransferred",
      "type": "event"
    },
    {
      "inputs": [
        {
          "internalType": "bytes",
          "name": "bridgeData",
          "type": "bytes"
        },
        {
          "components": [
            {
              "internalType": "uint256",
              "name": "ownerHash",
              "type": "uint256"
            },
            {
              "internalType": "uint256",
              "name": "token",
              "type": "uint256"
            },
            {
              "internalType": "uint256",
              "name": "amount",
              "type": "uint256"
            }
          ],
          "internalType": "struct CurvyTypes.Note",
          "name": "note",
          "type": "tuple"
        },
        {
          "internalType": "address",
          "name": "tokenAddress",
          "type": "address"
        }
      ],
      "name": "deployAndBridge",
      "outputs": [],
      "stateMutability": "payable",
      "type": "function"
    },
    {
      "inputs": [
        {
          "components": [
            {
              "internalType": "uint256",
              "name": "ownerHash",
              "type": "uint256"
            },
            {
              "internalType": "uint256",
              "name": "token",
              "type": "uint256"
            },
            {
              "internalType": "uint256",
              "name": "amount",
              "type": "uint256"
            }
          ],
          "internalType": "struct CurvyTypes.Note",
          "name": "note",
          "type": "tuple"
        }
      ],
      "name": "deployAndShield",
      "outputs": [],
      "stateMutability": "payable",
      "type": "function"
    },
    {
      "inputs": [
        {
          "internalType": "uint256",
          "name": "ownerHash",
          "type": "uint256"
        }
      ],
      "name": "getContractAddress",
      "outputs": [
        {
          "internalType": "address",
          "name": "",
          "type": "address"
        }
      ],
      "stateMutability": "view",
      "type": "function"
    },
    {
      "inputs": [
        {
          "internalType": "uint256",
          "name": "ownerHash",
          "type": "uint256"
        }
      ],
      "name": "getCreationCode",
      "outputs": [
        {
          "internalType": "bytes",
          "name": "",
          "type": "bytes"
        }
      ],
      "stateMutability": "pure",
      "type": "function"
    },
    {
      "inputs": [],
      "name": "noteDeployer",
      "outputs": [
        {
          "internalType": "contract INoteDeployer",
          "name": "",
          "type": "address"
        }
      ],
      "stateMutability": "view",
      "type": "function"
    },
    {
      "inputs": [],
      "name": "owner",
      "outputs": [
        {
          "internalType": "address",
          "name": "",
          "type": "address"
        }
      ],
      "stateMutability": "view",
      "type": "function"
    },
    {
      "inputs": [],
      "name": "renounceOwnership",
      "outputs": [],
      "stateMutability": "nonpayable",
      "type": "function"
    },
    {
      "inputs": [
        {
          "internalType": "address",
          "name": "newOwner",
          "type": "address"
        }
      ],
      "name": "transferOwnership",
      "outputs": [],
      "stateMutability": "nonpayable",
      "type": "function"
    },
    {
      "inputs": [
        {
          "components": [
            {
              "internalType": "address",
              "name": "curvyVaultProxyAddress",
              "type": "address"
            },
            {
              "internalType": "address",
              "name": "curvyAggregatorAlphaProxyAddress",
              "type": "address"
            },
            {
              "internalType": "address",
              "name": "lifiDiamondAddress",
              "type": "address"
            }
          ],
          "internalType": "struct CurvyTypes.NoteDeployerFactoryConfigurationUpdate",
          "name": "_update",
          "type": "tuple"
        }
      ],
      "name": "updateConfig",
      "outputs": [
        {
          "internalType": "bool",
          "name": "",
          "type": "bool"
        }
      ],
      "stateMutability": "nonpayable",
      "type": "function"
    }
  ],
  "bytecode": "0x7f63757276792d6e6f74652d6465706c6f7965722d666163746f72792d73616c7460a052602060805260c06040527f0474ce058b75227b7221ed7620b851a44a104328e39b4e04edd36d684cc859dd60015534801561005c575f5ffd5b506040516112ee3803806112ee83398101604081905261007b91610108565b806001600160a01b0381166100a957604051631e4fbdf760e01b81525f600482015260240160405180910390fd5b6100b2816100b9565b5050610135565b5f80546001600160a01b038381166001600160a01b0319831681178455604051919092169283917f8be0079c531659141344cd1fd0a4f28419497f9722a3daafe3b4186f6b6457e09190a35050565b5f60208284031215610118575f5ffd5b81516001600160a01b038116811461012e575f5ffd5b9392505050565b6111ac806101425f395ff3fe608060405260043610610084575f3560e01c80637377bbb4116100575780637377bbb4146101005780638da5cb5b1461012c578063aefa7d9814610148578063bc482b6c14610167578063f2fde38b14610196575f5ffd5b80631d29b1831461008857806347ade1731461009d578063715018a6146100d9578063735f399d146100ed575b5f5ffd5b61009b61009636600461077a565b6101b5565b005b3480156100a8575f5ffd5b506002546100bc906001600160a01b031681565b6040516001600160a01b0390911681526020015b60405180910390f35b3480156100e4575f5ffd5b5061009b61030e565b61009b6100fb366004610809565b610321565b34801561010b575f5ffd5b5061011f61011a36600461082a565b6104a4565b6040516100d09190610841565b348015610137575f5ffd5b505f546001600160a01b03166100bc565b348015610153575f5ffd5b506100bc61016236600461082a565b61050f565b348015610172575f5ffd5b50610186610181366004610876565b61057d565b60405190151581526020016100d0565b3480156101a1575f5ffd5b5061009b6101b03660046108c4565b610631565b6005546001600160a01b031661021e5760405162461bcd60e51b8152602060048201526024808201527f4272696467696e67206e6f7420737570706f72746564206f6e207468697320636044820152633430b4b760e11b60648201526084015b60405180910390fd5b5f61022b835f01516104a4565b90505f5f60015490508083516020850134f591506001600160a01b0382166102895760405162461bcd60e51b815260206004820152601160248201527011195c1b1bde5b595b9d0819985a5b1959607a1b6044820152606401610215565b600280546001600160a01b0319166001600160a01b03848116918217909255600554604051632f35b11d60e21b8152919263bcd6c474926102d892909116908b908b908b908b906004016108dd565b5f604051808303815f87803b1580156102ef575f5ffd5b505af1158015610301573d5f5f3e3d5ffd5b5050505050505050505050565b61031661066e565b61031f5f61069a565b565b6003546001600160a01b0316158061034257506004546001600160a01b0316155b1561039d5760405162461bcd60e51b815260206004820152602560248201527f536869656c64696e67206e6f7420737570706f72746564206f6e20746869732060448201526431b430b4b760d91b6064820152608401610215565b5f6103aa825f01516104a4565b90505f5f60015490508083516020850134f591506001600160a01b0382166104085760405162461bcd60e51b815260206004820152601160248201527011195c1b1bde5b595b9d0819985a5b1959607a1b6044820152606401610215565b600280546001600160a01b0319166001600160a01b038481169182179092556004805460035460408051631329a1a760e31b81528a519481019490945260208a015160248501528901516044840152908416606483015290921660848301529063994d0d389060a4015f604051808303815f87803b158015610488575f5ffd5b505af115801561049a573d5f5f3e3d5ffd5b5050505050505050565b60605f604051806020016104b7906106e9565b601f1982820381018352601f9091011660408181526020808301879052815180840390910181528183019091529192506104f79083908390606001610969565b60405160208183030381529060405292505050919050565b5f5f61051a836104a4565b6001548151602092830120604080516001600160f81b0319818601523060601b6bffffffffffffffffffffffff19166021820152603581019390935260558084019290925280518084039092018252607590920190915280519101209392505050565b5f61058661066e565b81516001600160a01b0316156105b8578151600380546001600160a01b0319166001600160a01b039092169190911790555b60208201516001600160a01b0316156105f0576020820151600480546001600160a01b0319166001600160a01b039092169190911790555b60408201516001600160a01b031615610628576040820151600580546001600160a01b0319166001600160a01b039092169190911790555b5060015b919050565b61063961066e565b6001600160a01b03811661066257604051631e4fbdf760e01b81525f6004820152602401610215565b61066b8161069a565b50565b5f546001600160a01b0316331461031f5760405163118cdaa760e01b8152336004820152602401610215565b5f80546001600160a01b038381166001600160a01b0319831681178455604051919092169283917f8be0079c531659141344cd1fd0a4f28419497f9722a3daafe3b4186f6b6457e09190a35050565b6107f18061098683390190565b6040516060810167ffffffffffffffff8111828210171561072557634e487b7160e01b5f52604160045260245ffd5b60405290565b5f6060828403121561073b575f5ffd5b6107436106f6565b82358152602080840135908201526040928301359281019290925250919050565b80356001600160a01b038116811461062c575f5ffd5b5f5f5f5f60a0858703121561078d575f5ffd5b843567ffffffffffffffff8111156107a3575f5ffd5b8501601f810187136107b3575f5ffd5b803567ffffffffffffffff8111156107c9575f5ffd5b8760208284010111156107da575f5ffd5b6020918201955093506107f0908790870161072b565b91506107fe60808601610764565b905092959194509250565b5f60608284031215610819575f5ffd5b610823838361072b565b9392505050565b5f6020828403121561083a575f5ffd5b5035919050565b602081525f82518060208401528060208501604085015e5f604082850101526040601f19601f83011684010191505092915050565b5f6060828403128015610887575f5ffd5b506108906106f6565b61089983610764565b81526108a760208401610764565b60208201526108b860408401610764565b60408201529392505050565b5f602082840312156108d4575f5ffd5b61082382610764565b6001600160a01b038616815260c0602082018190528101849052838560e08301375f60e085830101525f60e0601f19601f870116830101905061093760408301858051825260208082015190830152604090810151910152565b6001600160a01b039290921660a09190910152949350505050565b5f81518060208401855e5f93019283525090919050565b5f61097d6109778386610952565b84610952565b94935050505056fe6080604052348015600e575f5ffd5b506040516107f13803806107f1833981016040819052602b916031565b5f556047565b5f602082840312156040575f5ffd5b5051919050565b61079d806100545f395ff3fe608060405234801561000f575f5ffd5b506004361061004a575f3560e01c80633fb070271461004e5780635dc24ee31461007d578063994d0d3814610090578063bcd6c474146100a5575b5f5ffd5b600254610061906001600160a01b031681565b6040516001600160a01b03909116815260200160405180910390f35b600154610061906001600160a01b031681565b6100a361009e366004610649565b6100b8565b005b6100a36100b3366004610690565b6102f3565b5f548351146101035760405162461bcd60e51b8152602060048201526012602482015271092dcecc2d8d2c840deeedccae440d0c2e6d60731b60448201526064015b60405180910390fd5b600180546001600160a01b038085166001600160a01b0319928316179092556002805492841692909116821790556020840151604051630cf99be760e31b81525f92916367ccdf389161015d919060040190815260200190565b602060405180830381865afa158015610178573d5f5f3e3d5ffd5b505050506040513d601f19601f8201168201806040525081019061019c9190610736565b90506001600160a01b038116158015906101d357506001600160a01b03811673eeeeeeeeeeeeeeeeeeeeeeeeeeeeeeeeeeeeeeee14155b156102725760015460408501516101f8916001600160a01b0384811692911690610467565b600154604080516347107fdb60e01b815286516004820152602087015160248201529086015160448201526001600160a01b038381166064830152909116906347107fdb906084015f604051808303815f87803b158015610257575f5ffd5b505af1158015610269573d5f5f3e3d5ffd5b505050506102ed565b6001546040858101805191516347107fdb60e01b81528751600482015260208801516024820152905160448201526001600160a01b038481166064830152909216916347107fdb91906084015f604051808303818588803b1580156102d5575f5ffd5b505af11580156102e7573d5f5f3e3d5ffd5b50505050505b50505050565b6001600160a01b0385166103555760405162461bcd60e51b815260206004820152602360248201527f4e6f74654465706c6f7965723a20496e76616c6964204c492e4649206164647260448201526265737360e81b60648201526084016100fa565b60408201516001600160a01b0382161580159061038f57506001600160a01b03821673eeeeeeeeeeeeeeeeeeeeeeeeeeeeeeeeeeeeeeee14155b156103b25760408301516103af906001600160a01b038416908890610467565b505f5b5f866001600160a01b03168287876040516103ce929190610758565b5f6040518083038185875af1925050503d805f8114610408576040519150601f19603f3d011682016040523d82523d5f602084013e61040d565b606091505b505090508061045e5760405162461bcd60e51b815260206004820181905260248201527f4e6f74654465706c6f7965723a204272696467652063616c6c206661696c656460448201526064016100fa565b50505050505050565b604080516001600160a01b038416602482015260448082018490528251808303909101815260649091019091526020810180516001600160e01b031663095ea7b360e01b1790526104b8848261051a565b6102ed57604080516001600160a01b03851660248201525f6044808301919091528251808303909101815260649091019091526020810180516001600160e01b031663095ea7b360e01b179052610510908590610563565b6102ed8482610563565b5f5f5f5f60205f8651602088015f8a5af192503d91505f5190508280156105595750811561054b5780600114610559565b5f866001600160a01b03163b115b9695505050505050565b5f5f60205f8451602086015f885af180610582576040513d5f823e3d81fd5b50505f513d915081156105995780600114156105a6565b6001600160a01b0384163b155b156102ed57604051635274afe760e01b81526001600160a01b03851660048201526024016100fa565b5f606082840312156105df575f5ffd5b6040516060810181811067ffffffffffffffff8211171561060e57634e487b7160e01b5f52604160045260245ffd5b60409081528335825260208085013590830152928301359281019290925250919050565b6001600160a01b0381168114610646575f5ffd5b50565b5f5f5f60a0848603121561065b575f5ffd5b61066585856105cf565b9250606084013561067581610632565b9150608084013561068581610632565b809150509250925092565b5f5f5f5f5f60c086880312156106a4575f5ffd5b85356106af81610632565b9450602086013567ffffffffffffffff8111156106ca575f5ffd5b8601601f810188136106da575f5ffd5b803567ffffffffffffffff8111156106f0575f5ffd5b886020828401011115610701575f5ffd5b6020919091019450925061071887604088016105cf565b915060a086013561072881610632565b809150509295509295909350565b5f60208284031215610746575f5ffd5b815161075181610632565b9392505050565b818382375f910190815291905056fea264697066735822122088311920a5a5c484935fe3f124baf2a5c4085584f420abe12743f8d55b1b132964736f6c634300081c0033a26469706673582212209e06c0671c22298229c3dfb8ab3fbaa0385ec1f15c86edf65668d2bd2b7858b764736f6c634300081c0033",
  "linkReferences": {},
  "deployedLinkReferences": {},
  "immutableReferences": {},
  "inputSourceName": "project/contracts/smart-account/NoteDeployerFactory.sol",
  "buildInfoId": "solc-0_8_28-4640dd9b1f0511ba6005ceb15bfef90394d13c76"
}