{
  "_format": "hh3-artifact-1",
  "contractName": "CurvyAggregator",
  "sourceName": "contracts/aggregator/CurvyAggregator.sol",
  "abi": [
    {
      "inputs": [
        {
          "internalType": "address payable",
          "name": "tokenWrapperAddress",
          "type": "address"
        }
      ],
      "stateMutability": "nonpayable",
      "type": "constructor"
    },
    {
      "anonymous": false,
      "inputs": [
        {
          "indexed": false,
          "internalType": "uint256",
          "name": "noteId",
          "type": "uint256"
        }
      ],
      "name": "DepositedNote",
      "type": "event"
    },
    {
      "anonymous": false,
      "inputs": [
        {
          "indexed": false,
          "internalType": "uint256",
          "name": "notesHash",
          "type": "uint256"
        }
      ],
      "name": "DepositedNotesHash",
      "type": "event"
    },
    {
      "inputs": [],
      "name": "aggregationVerifier",
      "outputs": [
        {
          "internalType": "contract ICurvyAggregationVerifier",
          "name": "",
          "type": "address"
        }
      ],
      "stateMutability": "view",
      "type": "function"
    },
    {
      "inputs": [
        {
          "internalType": "uint256[2]",
          "name": "proof_a",
          "type": "uint256[2]"
        },
        {
          "internalType": "uint256[2][2]",
          "name": "proof_b",
          "type": "uint256[2][2]"
        },
        {
          "internalType": "uint256[2]",
          "name": "proof_c",
          "type": "uint256[2]"
        },
        {
          "internalType": "uint256[14]",
          "name": "publicInputs",
          "type": "uint256[14]"
        }
      ],
      "name": "commitAggregationBatch",
      "outputs": [
        {
          "internalType": "bool",
          "name": "success",
          "type": "bool"
        }
      ],
      "stateMutability": "nonpayable",
      "type": "function"
    },
    {
      "inputs": [
        {
          "internalType": "uint256[2]",
          "name": "proof_a",
          "type": "uint256[2]"
        },
        {
          "internalType": "uint256[2][2]",
          "name": "proof_b",
          "type": "uint256[2][2]"
        },
        {
          "internalType": "uint256[2]",
          "name": "proof_c",
          "type": "uint256[2]"
        },
        {
          "internalType": "uint256[4]",
          "name": "publicInputs",
          "type": "uint256[4]"
        }
      ],
      "name": "commitDepositBatch",
      "outputs": [
        {
          "internalType": "bool",
          "name": "success",
          "type": "bool"
        }
      ],
      "stateMutability": "nonpayable",
      "type": "function"
    },
    {
      "inputs": [
        {
          "internalType": "uint256[2]",
          "name": "proof_a",
          "type": "uint256[2]"
        },
        {
          "internalType": "uint256[2][2]",
          "name": "proof_b",
          "type": "uint256[2][2]"
        },
        {
          "internalType": "uint256[2]",
          "name": "proof_c",
          "type": "uint256[2]"
        },
        {
          "internalType": "uint256[10]",
          "name": "publicInputs",
          "type": "uint256[10]"
        }
      ],
      "name": "commitWithdrawalBatch",
      "outputs": [
        {
          "internalType": "bool",
          "name": "success",
          "type": "bool"
        }
      ],
      "stateMutability": "nonpayable",
      "type": "function"
    },
    {
      "inputs": [
        {
          "internalType": "address",
          "name": "fromAddress",
          "type": "address"
        },
        {
          "components": [
            {
              "internalType": "uint256",
              "name": "ownerHash",
              "type": "uint256"
            },
            {
              "internalType": "uint256",
              "name": "token",
              "type": "uint256"
            },
            {
              "internalType": "uint256",
              "name": "amount",
              "type": "uint256"
            }
          ],
          "internalType": "struct CurvyAggregator_Types.Note",
          "name": "note",
          "type": "tuple"
        }
      ],
      "name": "depositNote",
      "outputs": [],
      "stateMutability": "nonpayable",
      "type": "function"
    },
    {
      "inputs": [],
      "name": "feeCollector",
      "outputs": [
        {
          "internalType": "address",
          "name": "",
          "type": "address"
        }
      ],
      "stateMutability": "view",
      "type": "function"
    },
    {
      "inputs": [],
      "name": "insertionVerifier",
      "outputs": [
        {
          "internalType": "contract ICurvyInsertionVerifier",
          "name": "",
          "type": "address"
        }
      ],
      "stateMutability": "view",
      "type": "function"
    },
    {
      "inputs": [],
      "name": "noteTree",
      "outputs": [
        {
          "internalType": "uint256",
          "name": "_root",
          "type": "uint256"
        }
      ],
      "stateMutability": "view",
      "type": "function"
    },
    {
      "inputs": [],
      "name": "nullifierTree",
      "outputs": [
        {
          "internalType": "uint256",
          "name": "_root",
          "type": "uint256"
        }
      ],
      "stateMutability": "view",
      "type": "function"
    },
    {
      "inputs": [
        {
          "internalType": "address",
          "name": "_operator",
          "type": "address"
        },
        {
          "internalType": "address",
          "name": "_from",
          "type": "address"
        },
        {
          "internalType": "uint256[]",
          "name": "_ids",
          "type": "uint256[]"
        },
        {
          "internalType": "uint256[]",
          "name": "_amounts",
          "type": "uint256[]"
        },
        {
          "internalType": "bytes",
          "name": "_data",
          "type": "bytes"
        }
      ],
      "name": "onERC1155BatchReceived",
      "outputs": [
        {
          "internalType": "bytes4",
          "name": "",
          "type": "bytes4"
        }
      ],
      "stateMutability": "pure",
      "type": "function"
    },
    {
      "inputs": [
        {
          "internalType": "address",
          "name": "_operator",
          "type": "address"
        },
        {
          "internalType": "address",
          "name": "_from",
          "type": "address"
        },
        {
          "internalType": "uint256",
          "name": "_id",
          "type": "uint256"
        },
        {
          "internalType": "uint256",
          "name": "_amount",
          "type": "uint256"
        },
        {
          "internalType": "bytes",
          "name": "_data",
          "type": "bytes"
        }
      ],
      "name": "onERC1155Received",
      "outputs": [
        {
          "internalType": "bytes4",
          "name": "",
          "type": "bytes4"
        }
      ],
      "stateMutability": "pure",
      "type": "function"
    },
    {
      "inputs": [],
      "name": "operator",
      "outputs": [
        {
          "internalType": "address",
          "name": "",
          "type": "address"
        }
      ],
      "stateMutability": "view",
      "type": "function"
    },
    {
      "inputs": [
        {
          "internalType": "uint256",
          "name": "",
          "type": "uint256"
        }
      ],
      "name": "pendingIdsQueue",
      "outputs": [
        {
          "internalType": "bool",
          "name": "",
          "type": "bool"
        }
      ],
      "stateMutability": "view",
      "type": "function"
    },
    {
      "inputs": [
        {
          "internalType": "uint256",
          "name": "newNotesTreeRoot",
          "type": "uint256"
        },
        {
          "internalType": "uint256",
          "name": "newNullifiersTreeRoot",
          "type": "uint256"
        }
      ],
      "name": "reset",
      "outputs": [],
      "stateMutability": "nonpayable",
      "type": "function"
    },
    {
      "inputs": [],
      "name": "tokenWrapper",
      "outputs": [
        {
          "internalType": "contract MetaERC20Wrapper",
          "name": "",
          "type": "address"
        }
      ],
      "stateMutability": "view",
      "type": "function"
    },
    {
      "inputs": [
        {
          "components": [
            {
              "internalType": "address",
              "name": "insertionVerifier",
              "type": "address"
            },
            {
              "internalType": "address",
              "name": "aggregationVerifier",
              "type": "address"
            },
            {
              "internalType": "address",
              "name": "withdrawVerifier",
              "type": "address"
            },
            {
              "internalType": "address",
              "name": "operator",
              "type": "address"
            },
            {
              "internalType": "address",
              "name": "feeCollector",
              "type": "address"
            }
          ],
          "internalType": "struct CurvyAggregator_Types.ConfigurationUpdate",
          "name": "_update",
          "type": "tuple"
        }
      ],
      "name": "updateConfig",
      "outputs": [
        {
          "internalType": "bool",
          "name": "_success",
          "type": "bool"
        }
      ],
      "stateMutability": "nonpayable",
      "type": "function"
    },
    {
      "inputs": [],
      "name": "withdrawVerifier",
      "outputs": [
        {
          "internalType": "contract ICurvyWithdrawVerifier",
          "name": "",
          "type": "address"
        }
      ],
      "stateMutability": "view",
      "type": "function"
    }
  ],
  "bytecode": "0x6080604052348015600e575f5ffd5b50604051611542380380611542833981016040819052602b916063565b5f80546001600160a01b039092166001600160a01b03199283161790556007805482163390811790915560088054909216179055608e565b5f602082840312156072575f5ffd5b81516001600160a01b03811681146087575f5ffd5b9392505050565b6114a78061009b5f395ff3fe608060405234801561000f575f5ffd5b5060043610610105575f3560e01c8063abed77901161009e578063c415b95c1161006e578063c415b95c14610238578063c5e3dfd81461024b578063d158dd6d1461025d578063d72084d71461027f578063f23a6e6114610292575f5ffd5b8063abed7790146101c4578063b974158a146101d7578063bc197c81146101ea578063bfbfb9a914610225575f5ffd5b8063570ca735116100d9578063570ca7351461016b5780636a085b501461019657806383b3bac0146101a9578063864eb164146101b1575f5ffd5b80629259a7146101095780631a82739b146101205780631dc4363714610143578063456aa4f414610158575b5f5ffd5b6003545b6040519081526020015b60405180910390f35b61013361012e366004610ca1565b6102b2565b6040519015158152602001610117565b610156610151366004610d43565b610400565b005b610133610166366004610d63565b610484565b60075461017e906001600160a01b031681565b6040516001600160a01b039091168152602001610117565b6101336101a4366004610dd7565b610714565b60025461010d565b60065461017e906001600160a01b031681565b60055461017e906001600160a01b031681565b60045461017e906001600160a01b031681565b61020c6101f8366004610ee9565b63bc197c8160e01b98975050505050505050565b6040516001600160e01b03199091168152602001610117565b610156610233366004610fa8565b610931565b60085461017e906001600160a01b031681565b5f5461017e906001600160a01b031681565b61013361026b366004611023565b60016020525f908152604090205460ff1681565b61013361028d36600461103a565b610a94565b61020c6102a03660046110c8565b63f23a6e6160e01b9695505050505050565b60a081015160c082015160e08301516101008401516002545f949392919082146102f75760405162461bcd60e51b81526004016102ee9061114f565b60405180910390fd5b83600354146103185760405162461bcd60e51b81526004016102ee906111a0565b600554604051638d15f88f60e01b81526001600160a01b0390911690638d15f88f9061034e908c908c908c908c90600401611267565b602060405180830381865afa158015610369573d5f5f3e3d5ffd5b505050506040513d601f19601f8201168201806040525081019061038d91906112c3565b6103ed5760405162461bcd60e51b815260206004820152602b60248201527f437572767941676772656761746f723a20696e76616c6964206167677265676160448201526a74696f6e2070726f6f662160a81b60648201526084016102ee565b6002555060035550600195945050505050565b6007546001600160a01b031633146104795760405162461bcd60e51b815260206004820152603660248201527f437572767941676772656761746f723a206f6e6c79206f70657261746f722063604482015275616e2063616c6c20746869732066756e6374696f6e2160501b60648201526084016102ee565b600291909155600355565b60035460608201515f91146104ab5760405162461bcd60e51b81526004016102ee906111a0565b6002546040830151146104d05760405162461bcd60e51b81526004016102ee9061114f565b6006546040516379ddb87b60e11b81526001600160a01b039091169063f3bb70f6906105069088908890889088906004016112e9565b602060405180830381865afa158015610521573d5f5f3e3d5ffd5b505050506040513d601f19601f8201168201806040525081019061054591906112c3565b6105a25760405162461bcd60e51b815260206004820152602860248201527f437572767941676772656761746f723a20696e76616c69642077697468647261604482015267772070726f6f662160c01b60648201526084016102ee565b81516003555f5b600281101561068a575f836105bf83600461134d565b600a81106105cf576105cf61113b565b602002015190505f846105e384600661134d565b600a81106105f3576105f361113b565b602002015190508115610675575f8054610120870151604080519384526020840190819052637921219560e11b90526001600160a01b039091169163f242432a916106479130918691889060248101611366565b5f604051808303815f87803b15801561065e575f5ffd5b505af1158015610670573d5f5f3e3d5ffd5b505050505b50610683905060018261134d565b90506105a9565b505f80546008546101208501516020808701516040805196875291860191829052637921219560e11b9091526001600160a01b039384169463f242432a946106dc943094911692909160248101611366565b5f604051808303815f87803b1580156106f3575f5ffd5b505af1158015610705573d5f5f3e3d5ffd5b50600198975050505050505050565b5f805b60028110156107c6575f8382600481106107335761073361113b565b6020020151905080156107b3575f8181526001602052604090205460ff1661079d5760405162461bcd60e51b815260206004820152601f60248201527f4e6f7465206e6f74207363686564756c656420666f72206465706f736974210060448201526064016102ee565b5f818152600160205260409020805460ff191690555b506107bf60018261134d565b9050610717565b506004826107d56002836113c7565b600481106107e5576107e561113b565b60200201516002541461082f5760405162461bcd60e51b8152602060048201526012602482015271125b9d985b1a59081b9bdd195cc81c9bdbdd60721b60448201526064016102ee565b60048054604051635fe8c13b60e01b81526001600160a01b0390911691635fe8c13b91610864918a918a918a918a91016113da565b602060405180830381865afa15801561087f573d5f5f3e3d5ffd5b505050506040513d601f19601f820116820180604052508101906108a391906112c3565b6109015760405162461bcd60e51b815260206004820152602960248201527f437572767941676772656761746f723a20696e76616c696420696e73657274696044820152686f6e2070726f6f662160b81b60648201526084016102ee565b8261090d6001836113c7565b6004811061091d5761091d61113b565b602002015160025550600195945050505050565b5f8054602083810151604080860151815195865292850190819052637921219560e11b90526001600160a01b039092169263f242432a9261097b9287923092919060248101611366565b5f604051808303815f87803b158015610992575f5ffd5b505af11580156109a4573d5f5f3e3d5ffd5b50506040805160608101825284518152848201516020808301919091528501518183015290516320cf0a3760e01b81525f935073__$9f53ae1556ef22ecff086f9027657e31be$__92506320cf0a3791610a009160040161142a565b602060405180830381865af4158015610a1b573d5f5f3e3d5ffd5b505050506040513d601f19601f82011682018060405250810190610a3f919061145a565b5f81815260016020818152604092839020805460ff191690921790915590518281529192507f085eb711e9033934898875f6926d3a98c49bae62c73a015160bc22993aae4bee910160405180910390a1505050565b80515f906001600160a01b031615610ac8578151600480546001600160a01b0319166001600160a01b039092169190911790555b60208201516001600160a01b031615610b00576020820151600580546001600160a01b0319166001600160a01b039092169190911790555b60408201516001600160a01b031615610b38576040820151600680546001600160a01b0319166001600160a01b039092169190911790555b60608201516001600160a01b031615610b70576060820151600780546001600160a01b0319166001600160a01b039092169190911790555b60808201516001600160a01b031615610ba8576080820151600880546001600160a01b0319166001600160a01b039092169190911790555b506001919050565b634e487b7160e01b5f52604160045260245ffd5b604051601f8201601f1916810167ffffffffffffffff81118282101715610bed57610bed610bb0565b604052919050565b5f82601f830112610c04575f5ffd5b5f610c0f6040610bc4565b9050806040840185811115610c22575f5ffd5b845b81811015610c3c578035835260209283019201610c24565b509195945050505050565b5f82601f830112610c56575f5ffd5b6040610c6181610bc4565b806080850186811115610c72575f5ffd5b855b81811015610c9557610c868882610bf5565b84526020909301928401610c74565b50909695505050505050565b5f5f5f5f6102c08587031215610cb5575f5ffd5b610cbf8686610bf5565b9350610cce8660408701610c47565b9250610cdd8660c08701610bf5565b91505f8661011f870112610cef575f5ffd5b505f806101c0610cfe81610bc4565b9150508091506102c0870188811115610d15575f5ffd5b61010088015b81811015610d33578035845260209384019301610d1b565b5050809250505092959194509250565b5f5f60408385031215610d54575f5ffd5b50508035926020909101359150565b5f5f5f5f6102408587031215610d77575f5ffd5b610d818686610bf5565b9350610d908660408701610c47565b9250610d9f8660c08701610bf5565b91505f8661011f870112610db1575f5ffd5b505f80610140610dc081610bc4565b915050809150610240870188811115610d15575f5ffd5b5f5f5f5f6101808587031215610deb575f5ffd5b610df58686610bf5565b9350610e048660408701610c47565b9250610e138660c08701610bf5565b91505f8661011f870112610e25575f5ffd5b505f80610e326080610bc4565b9050809150610180870188811115610d15575f5ffd5b80356001600160a01b0381168114610e5e575f5ffd5b919050565b5f5f83601f840112610e73575f5ffd5b50813567ffffffffffffffff811115610e8a575f5ffd5b6020830191508360208260051b8501011115610ea4575f5ffd5b9250929050565b5f5f83601f840112610ebb575f5ffd5b50813567ffffffffffffffff811115610ed2575f5ffd5b602083019150836020828501011115610ea4575f5ffd5b5f5f5f5f5f5f5f5f60a0898b031215610f00575f5ffd5b610f0989610e48565b9750610f1760208a01610e48565b9650604089013567ffffffffffffffff811115610f32575f5ffd5b610f3e8b828c01610e63565b909750955050606089013567ffffffffffffffff811115610f5d575f5ffd5b610f698b828c01610e63565b909550935050608089013567ffffffffffffffff811115610f88575f5ffd5b610f948b828c01610eab565b999c989b5096995094979396929594505050565b5f5f8284036080811215610fba575f5ffd5b610fc384610e48565b92506060601f1982011215610fd6575f5ffd5b506040516060810167ffffffffffffffff81118282101715610ffa57610ffa610bb0565b604090815260208581013583528582013590830152606090940135938101939093525092909150565b5f60208284031215611033575f5ffd5b5035919050565b5f60a082840312801561104b575f5ffd5b5060405160a0810167ffffffffffffffff8111828210171561106f5761106f610bb0565b60405261107b83610e48565b815261108960208401610e48565b602082015261109a60408401610e48565b60408201526110ab60608401610e48565b60608201526110bc60808401610e48565b60808201529392505050565b5f5f5f5f5f5f60a087890312156110dd575f5ffd5b6110e687610e48565b95506110f460208801610e48565b94506040870135935060608701359250608087013567ffffffffffffffff81111561111d575f5ffd5b61112989828a01610eab565b979a9699509497509295939492505050565b634e487b7160e01b5f52603260045260245ffd5b60208082526031908201527f437572767941676772656761746f723a2063757272656e74206e6f7465207472604082015270656520726f6f74206d69736d617463682160781b606082015260800190565b60208082526036908201527f437572767941676772656761746f723a2063757272656e74206e756c6c6966696040820152756572207472656520726f6f74206d69736d617463682160501b606082015260800190565b805f5b60028110156112185781518452602093840193909101906001016111f9565b50505050565b805f5b6002811015611218578151845f5b600281101561124e57825182526020928301929091019060010161122f565b5050506040939093019260209190910190600101611221565b6102c0810161127682876111f6565b611283604083018661121e565b61129060c08301856111f6565b6101008201835f5b600e8110156112b7578151835260209283019290910190600101611298565b50505095945050505050565b5f602082840312156112d3575f5ffd5b815180151581146112e2575f5ffd5b9392505050565b61024081016112f882876111f6565b611305604083018661121e565b61131260c08301856111f6565b6101008201835f5b600a8110156112b757815183526020928301929091019060010161131a565b634e487b7160e01b5f52601160045260245ffd5b8082018082111561136057611360611339565b92915050565b60018060a01b038616815260018060a01b038516602082015283604082015282606082015260a060808201525f82518060a0840152806020850160c085015e5f60c0828501015260c0601f19601f8301168401019150509695505050505050565b8181038181111561136057611360611339565b61018081016113e982876111f6565b6113f6604083018661121e565b61140360c08301856111f6565b6101008201835f5b60048110156112b757815183526020928301929091019060010161140b565b6060810181835f5b6003811015611451578151835260209283019290910190600101611432565b50505092915050565b5f6020828403121561146a575f5ffd5b505191905056fea26469706673582212200ba0a5008843da0e96c79708d4778f23e652db9fe43dc50ddd7b5d94abad643e64736f6c634300081c0033",
  "linkReferences": {
    "project/contracts/aggregator/utils/PoseidonT4.sol": {
      "PoseidonT4": [
        {
          "length": 20,
          "start": 2676
        }
      ]
    }
  },
  "deployedLinkReferences": {
    "project/contracts/aggregator/utils/PoseidonT4.sol": {
      "PoseidonT4": [
        {
          "length": 20,
          "start": 2521
        }
      ]
    }
  },
  "immutableReferences": {},
  "inputSourceName": "project/contracts/aggregator/CurvyAggregator.sol",
  "buildInfoId": "solc-0_8_28-484b413d48e0497bffc72458cab12d40b484255a"
}