{
  "_format": "hh3-artifact-1",
  "contractName": "CurvyWithdrawVerifier",
  "sourceName": "contracts/aggregator/verifiers/CurvyWithdrawVerifier.sol",
  "abi": [
    {
      "inputs": [
        {
          "internalType": "uint256[2]",
          "name": "a",
          "type": "uint256[2]"
        },
        {
          "internalType": "uint256[2][2]",
          "name": "b",
          "type": "uint256[2][2]"
        },
        {
          "internalType": "uint256[2]",
          "name": "c",
          "type": "uint256[2]"
        },
        {
          "internalType": "uint256[10]",
          "name": "input",
          "type": "uint256[10]"
        }
      ],
      "name": "verifyProof",
      "outputs": [
        {
          "internalType": "bool",
          "name": "r",
          "type": "bool"
        }
      ],
      "stateMutability": "view",
      "type": "function"
    }
  ],
  "bytecode": "0x6080604052348015600e575f5ffd5b506115138061001c5f395ff3fe608060405234801561000f575f5ffd5b5060043610610029575f3560e01c8063f3bb70f61461002d575b5f5ffd5b61004061003b366004611379565b610054565b604051901515815260200160405180910390f35b5f61005d6111a0565b604080518082018252875181526020808901518183015290835281516080810183528751518184019081528851830151606083015281528251808401845288830180515182525183015181840152818301528382015281518083018352865181528682015181830152838301528151600a80825261016082019093525f9290918201610140803683370190505090505f5b600a811015610133578481600a811061010957610109611459565b602002015182828151811061012057610120611459565b60209081029190910101526001016100ee565b5061013e818361015d565b5f0361014f57600192505050610155565b5f925050505b949350505050565b5f7f30644e72e131a029b85045b68181585d2833e84879b9709143e1f593f000000181610188610344565b90508060800151518551600161019e9190611481565b146101e55760405162461bcd60e51b81526020600482015260126024820152711d995c9a599a595c8b5898590b5a5b9c1d5d60721b60448201526064015b60405180910390fd5b604080518082019091525f808252602082018190525b86518110156102cb578387828151811061021757610217611459565b60200260200101511061026c5760405162461bcd60e51b815260206004820152601f60248201527f76657269666965722d6774652d736e61726b2d7363616c61722d6669656c640060448201526064016101dc565b6102c1826102bc85608001518460016102859190611481565b8151811061029557610295611459565b60200260200101518a85815181106102af576102af611459565b6020026020010151610b0d565b610ba1565b91506001016101fb565b506102f38183608001515f815181106102e6576102e6611459565b6020026020010151610ba1565b9050610327610304865f0151610c38565b8660200151845f015185602001518587604001518b604001518960600151610cd4565b610337576001935050505061033e565b5f93505050505b92915050565b61034c6111ee565b6040805180820182527f245229d9b076b3c0e8a4d70bde8c1cccffa08a9fae7557b165b3b0dbd653e2c781527f253ec85988dbb84e46e94b5efa3373b47a000b4ac6c86b2d4b798d274a1823026020808301919091529083528151608080820184527f07090a82e8fabbd39299be24705b92cf208ee8b3487f6f2b39ff27978a29a1db8285019081527f2424bcc1f60a5472685fd50705b2809626e170120acaf441e133a2bd5e61d244606080850191909152908352845180860186527f0ae1135cffdaf227c5dc266740607aa930bc3bd92ddc2b135086d9da2dfd3e2a81527f2b86859fd3d55c9d150fb3f0aeba798826493dd73d357ab0f9fdaced9fc81829818601528385015285840192909252835180820185527f198e9393920d483a7260bfb731fb5d25f1aa493335a9e71297e485b7aef312c28186019081527f1800deef121f1e76426a00665e5c4479674322d4f75edadd46debd5cd992f6ed828501528152845180860186527f090689d0585ff075ec9e99ad690c3395bc4b313370b38ef355acdadcd122975b81527f12c85ea5db8c6deb4aab71808dcb408fe3d1e7690c43d37b4ce6cc0166fa7daa818601528185015285850152835190810184527f1f4de665b04f91805ea4c7953c6344166fab93b58d63bed2bd5ada605786e4278185019081527f22714bf8dcc545cd2a906d737daac668e86c4800c99aa52bb83ec670315b1a3f828401528152835180850185527f08010a63827b3ad845b08af726d4345a96daad3c8eb43ebc8d4e50720f6bd83081527f1849e0af583eede2a4fc62bfaf830c68b9441a7867c85ab9b5ff41c8e13029788185015281840152908401528151600b8082526101808201909352919082015b604080518082019091525f80825260208201528152602001906001900390816105c857505060808201908152604080518082019091527f074180af36c84835c00387165eedba7aaf9ad64a65ef681cd2a02a3946aa17c681527f20d684b0214bc7d12a789bf1fbae19d1bcc4a83ccdb43873bf6801f272318e7e6020820152905180515f9061065957610659611459565b602002602001018190525060405180604001604052807f1f7c07296160a09db161f1caf4d1d1d40f0379fb146e3659f73de0c7884d897481526020017f1133e267e81ee25fc090196ea0045f14ef8eac3d73ba571145ba68d3697bc4ed81525081608001516001815181106106d0576106d0611459565b602002602001018190525060405180604001604052807f254c7997179d8ed4a5f94c8c4c07b7761f2e70904cc7ac273271a6cac3bf336981526020017f042dce46e0b13adb4975ce00047b193ee6c1f920137896f6a1e6e6bd4b1bf2b1815250816080015160028151811061074757610747611459565b602002602001018190525060405180604001604052807f1c8c769a9d239b885e4a56629221070212c3108536dbff21b89a7cb7ca25429481526020017f2c398adf21b18ea338c0ac6bf3dd63d4cb771e401d850a02f44f8ab43b666fbc81525081608001516003815181106107be576107be611459565b602002602001018190525060405180604001604052807f254b568e11fe6b304bc1e512cbd8ccbcd5fe8c8c97e3fdbcf7a93a8bf83455c381526020017f2590d279df9b15d752ca13332bfe0500b0492d9d52314b2e277d17abcdd2add8815250816080015160048151811061083557610835611459565b602002602001018190525060405180604001604052807f08a82cd9a3f38504e4864c259bd7a398500a44c268e8a35e6c442a0c51151eac81526020017f0cd4acd32ba8b5d81d8e13e7d5e6e148abf5614d0d60effeacc5198692a59c7f81525081608001516005815181106108ac576108ac611459565b602002602001018190525060405180604001604052807f1e45bdfdbfd0db80d2a233b7b649cd1f55e08598b923d324fa8a2b2e0ce8e68a81526020017f0bb3da48245f2eaa3d6f654ef2c6588ddbc09aa874140cf17183a15e9dabc162815250816080015160068151811061092357610923611459565b602002602001018190525060405180604001604052807f2c17f13c261d0f69d70eed12ed09b045ea3754888548ee53c30289be8ee8783f81526020017f06a5742e304254e560fcd52d81cd0f2365bdcb146e7c75402407ae21f49fe89b815250816080015160078151811061099a5761099a611459565b602002602001018190525060405180604001604052807f1c5d142b6ea4b7400841ee8232e9a8ab0501522c98ae11fbb5296f424ede6c5d81526020017f236ce985b2cf033c6a0e434008f83c2ac30ebe72a08b5079c7778902f5466eac8152508160800151600881518110610a1157610a11611459565b602002602001018190525060405180604001604052807f2c0caaee89279a957c45e0a2af700cd85eeb835e336cb59a7ba945cd29ff699781526020017f0924cc8420cdad4477a855bd4d2f1517ea5ec52b1713799d5e00d2e76c1578f88152508160800151600981518110610a8857610a88611459565b602002602001018190525060405180604001604052807f282ec67dd3b106ca424243d112c64a5cd8fe9a0eaee72e717be5ae317cbc12d881526020017f041ab45472b501223a5bc4cec15dd344aaf71844065e2acc7c751b0c2ddd63b58152508160800151600a81518110610aff57610aff611459565b602002602001018190525090565b604080518082019091525f8082526020820152610b2861123e565b8351815260208085015190820152604081018390525f60608360808460076107d05a03fa90508080610b5657fe5b5080610b995760405162461bcd60e51b81526020600482015260126024820152711c185a5c9a5b99cb5b5d5b0b59985a5b195960721b60448201526064016101dc565b505092915050565b604080518082019091525f8082526020820152610bbc61125c565b8351815260208085015181830152835160408301528301516060808301919091525f908360c08460066107d05a03fa90508080610bf557fe5b5080610b995760405162461bcd60e51b81526020600482015260126024820152711c185a5c9a5b99cb5859190b59985a5b195960721b60448201526064016101dc565b604080518082019091525f808252602082015281517f30644e72e131a029b85045b68181585d97816a916871ca8d3c208c16d87cfd4790158015610c7e57506020830151155b15610c9d575050604080518082019091525f8082526020820152919050565b6040518060400160405280845f01518152602001828560200151610cc19190611494565b610ccb90846114b3565b90529392505050565b60408051600480825260a082019092525f91829190816020015b604080518082019091525f8082526020820152815260200190600190039081610cee57505060408051600480825260a082019092529192505f9190602082015b610d3661127a565b815260200190600190039081610d2e5790505090508a825f81518110610d5e57610d5e611459565b60200260200101819052508882600181518110610d7d57610d7d611459565b60200260200101819052508682600281518110610d9c57610d9c611459565b60200260200101819052508482600381518110610dbb57610dbb611459565b602002602001018190525089815f81518110610dd957610dd9611459565b60200260200101819052508781600181518110610df857610df8611459565b60200260200101819052508581600281518110610e1757610e17611459565b60200260200101819052508381600381518110610e3657610e36611459565b6020026020010181905250610e4b8282610e5a565b9b9a5050505050505050505050565b5f8151835114610ea55760405162461bcd60e51b81526020600482015260166024820152751c185a5c9a5b99cb5b195b99dd1a1ccb59985a5b195960521b60448201526064016101dc565b82515f610eb38260066114c6565b90505f8167ffffffffffffffff811115610ecf57610ecf6112d6565b604051908082528060200260200182016040528015610ef8578160200160208202803683370190505b5090505f5b8381101561112557868181518110610f1757610f17611459565b60200260200101515f015182826006610f3091906114c6565b610f3a905f611481565b81518110610f4a57610f4a611459565b602002602001018181525050868181518110610f6857610f68611459565b60200260200101516020015182826006610f8291906114c6565b610f8d906001611481565b81518110610f9d57610f9d611459565b602002602001018181525050858181518110610fbb57610fbb611459565b6020908102919091010151515182610fd48360066114c6565b610fdf906002611481565b81518110610fef57610fef611459565b60200260200101818152505085818151811061100d5761100d611459565b602090810291909101810151510151826110288360066114c6565b611033906003611481565b8151811061104357611043611459565b60200260200101818152505085818151811061106157611061611459565b6020026020010151602001515f6002811061107e5761107e611459565b60200201518261108f8360066114c6565b61109a906004611481565b815181106110aa576110aa611459565b6020026020010181815250508581815181106110c8576110c8611459565b6020026020010151602001516001600281106110e6576110e6611459565b6020020151826110f78360066114c6565b611102906005611481565b8151811061111257611112611459565b6020908102919091010152600101610efd565b5061112e61129a565b5f602082602086026020860160086107d05a03fa9050808061114c57fe5b50806111925760405162461bcd60e51b81526020600482015260156024820152741c185a5c9a5b99cb5bdc18dbd9194b59985a5b1959605a1b60448201526064016101dc565b505115159695505050505050565b6040805160a081019091525f6060820181815260808301919091528152602081016111c961127a565b81526020016111e960405180604001604052805f81526020015f81525090565b905290565b6040805160e081019091525f60a0820181815260c083019190915281526020810161121761127a565b815260200161122461127a565b815260200161123161127a565b8152602001606081525090565b60405180606001604052806003906020820280368337509192915050565b60405180608001604052806004906020820280368337509192915050565b604051806040016040528061128d6112b8565b81526020016111e96112b8565b60405180602001604052806001906020820280368337509192915050565b60405180604001604052806002906020820280368337509192915050565b634e487b7160e01b5f52604160045260245ffd5b604051601f8201601f1916810167ffffffffffffffff8111828210171561131f57634e487b7160e01b5f52604160045260245ffd5b604052919050565b5f82601f830112611336575f5ffd5b5f61134160406112ea565b9050806040840185811115611354575f5ffd5b845b8181101561136e578035835260209283019201611356565b509195945050505050565b5f5f5f5f610240858703121561138d575f5ffd5b6113978686611327565b935085605f8601126113a7575f5ffd5b60406113b2816112ea565b8060c08801898111156113c3575f5ffd5b604089015b818110156113e9576113da8b82611327565b845260209093019284016113c8565b508196506113f78a82611327565b95505050505061010085015f87601f830112611411575f5ffd5b5f61014061141e816112ea565b91508301818a82111561142f575f5ffd5b5b81851015611448578435815260209485019401611430565b509699959850939650929450505050565b634e487b7160e01b5f52603260045260245ffd5b634e487b7160e01b5f52601160045260245ffd5b8082018082111561033e5761033e61146d565b5f826114ae57634e487b7160e01b5f52601260045260245ffd5b500690565b8181038181111561033e5761033e61146d565b808202811582820484141761033e5761033e61146d56fea2646970667358221220ef7dd8b73ee399384082582afaa042cca7c3f125f9e18c9cb9a47d5ef665921f64736f6c634300081c0033",
  "linkReferences": {},
  "deployedLinkReferences": {},
  "immutableReferences": {},
  "inputSourceName": "project/contracts/aggregator/verifiers/CurvyWithdrawVerifier.sol",
  "buildInfoId": "solc-0_8_28-1905285cef920833c11d836415490e6d876fd989"
}