{
  "_format": "hh3-artifact-1",
  "contractName": "CurvyAggregationVerifier",
  "sourceName": "contracts/aggregator/verifiers/CurvyAggregationVerifier.sol",
  "abi": [
    {
      "inputs": [
        {
          "internalType": "uint256[2]",
          "name": "a",
          "type": "uint256[2]"
        },
        {
          "internalType": "uint256[2][2]",
          "name": "b",
          "type": "uint256[2][2]"
        },
        {
          "internalType": "uint256[2]",
          "name": "c",
          "type": "uint256[2]"
        },
        {
          "internalType": "uint256[14]",
          "name": "input",
          "type": "uint256[14]"
        }
      ],
      "name": "verifyProof",
      "outputs": [
        {
          "internalType": "bool",
          "name": "r",
          "type": "bool"
        }
      ],
      "stateMutability": "view",
      "type": "function"
    }
  ],
  "bytecode": "0x6080604052348015600e575f5ffd5b506116ef8061001c5f395ff3fe608060405234801561000f575f5ffd5b5060043610610029575f3560e01c80638d15f88f1461002d575b5f5ffd5b61004061003b366004611555565b610054565b604051901515815260200160405180910390f35b5f61005d61137c565b604080518082018252875181526020808901518183015290835281516080810183528751518184019081528851830151606083015281528251808401845288830180515182525183015181840152818301528382015281518083018352865181528682015181830152838301528151600e8082526101e082019093525f92909182016101c0803683370190505090505f5b600e811015610133578481600e811061010957610109611635565b602002015182828151811061012057610120611635565b60209081029190910101526001016100ee565b5061013e818361015d565b5f0361014f57600192505050610155565b5f925050505b949350505050565b5f7f30644e72e131a029b85045b68181585d2833e84879b9709143e1f593f000000181610188610344565b90508060800151518551600161019e919061165d565b146101e55760405162461bcd60e51b81526020600482015260126024820152711d995c9a599a595c8b5898590b5a5b9c1d5d60721b60448201526064015b60405180910390fd5b604080518082019091525f808252602082018190525b86518110156102cb578387828151811061021757610217611635565b60200260200101511061026c5760405162461bcd60e51b815260206004820152601f60248201527f76657269666965722d6774652d736e61726b2d7363616c61722d6669656c640060448201526064016101dc565b6102c1826102bc8560800151846001610285919061165d565b8151811061029557610295611635565b60200260200101518a85815181106102af576102af611635565b6020026020010151610ce9565b610d7d565b91506001016101fb565b506102f38183608001515f815181106102e6576102e6611635565b6020026020010151610d7d565b9050610327610304865f0151610e14565b8660200151845f015185602001518587604001518b604001518960600151610eb0565b610337576001935050505061033e565b5f93505050505b92915050565b61034c6113ca565b6040805180820182527f245229d9b076b3c0e8a4d70bde8c1cccffa08a9fae7557b165b3b0dbd653e2c781527f253ec85988dbb84e46e94b5efa3373b47a000b4ac6c86b2d4b798d274a1823026020808301919091529083528151608080820184527f07090a82e8fabbd39299be24705b92cf208ee8b3487f6f2b39ff27978a29a1db8285019081527f2424bcc1f60a5472685fd50705b2809626e170120acaf441e133a2bd5e61d244606080850191909152908352845180860186527f0ae1135cffdaf227c5dc266740607aa930bc3bd92ddc2b135086d9da2dfd3e2a81527f2b86859fd3d55c9d150fb3f0aeba798826493dd73d357ab0f9fdaced9fc81829818601528385015285840192909252835180820185527f198e9393920d483a7260bfb731fb5d25f1aa493335a9e71297e485b7aef312c28186019081527f1800deef121f1e76426a00665e5c4479674322d4f75edadd46debd5cd992f6ed828501528152845180860186527f090689d0585ff075ec9e99ad690c3395bc4b313370b38ef355acdadcd122975b81527f12c85ea5db8c6deb4aab71808dcb408fe3d1e7690c43d37b4ce6cc0166fa7daa818601528185015285850152835190810184527f280b276f3466694f47a0385aea6fa58878442152d6bc1d12eef3547fcd0f7cb88185019081527f0501f52603856e9cd61a3515c60567f519a5cd80a96309f04febbcea2940c1ec828401528152835180850185527f14b896c72fcdb133d5e52b500f4a516d290cd966e2c118ae74cd7c5b17f9567681527f288d52ab2ead02db0eeb1064fff136bc260d71df4ee63daef5e63cf0a00bee268185015281840152908401528151600f8082526102008201909352919082015b604080518082019091525f80825260208201528152602001906001900390816105c857505060808201908152604080518082019091527f2492d3d02a0dd1dc99dd3e1c7e83ba49a91bdd15601cd5f934c8885cc7f8051a81527f1ea08dd7d673556a26ea118bcaa4ed6be68d27b98826ced42b374be976ed53a36020820152905180515f9061065957610659611635565b602002602001018190525060405180604001604052807f1e840f7f92bca4a9a8c5bada454c8854842e1f9be91e620342f22fcb7338805581526020017f202000299f7c89a38217595040555035277b566660e8c6bc495aa663d7f4a1b781525081608001516001815181106106d0576106d0611635565b602002602001018190525060405180604001604052807f2a38735b5ad3d30ccc67915157e76f1a936374bc7cab4057210aabbec5d72cb281526020017f15322bb0afa249eb043b2d06a6d0c6a2e6b389ea7eedeacbcc31d2142274fd5d815250816080015160028151811061074757610747611635565b602002602001018190525060405180604001604052807f1ec3b06cd6b81ca1445a0a6bb721df3de19b27a825115eae535cb2cd61a8e7c781526020017f1480e1628b97be09422b9bee6820da21be828d4bb470ae9d824f99dc0271aa0681525081608001516003815181106107be576107be611635565b602002602001018190525060405180604001604052807f10cb47b8ece5929656bb15eb8edd9fccffb946be3b02b32661a5f576b511260981526020017f2b7ee6a4340ad836bc178f704948bec13f887d7d45e040ff08e52987989efe80815250816080015160048151811061083557610835611635565b602002602001018190525060405180604001604052807f0c5aa6d265a5a2cde6f4edd2dc18ff923473cacb351c438ad87baa804a2ac99981526020017f2b59b71ed90dd2e17c41cffd7213c0c339da4a089911291ebf2f6cc5732ff8cf81525081608001516005815181106108ac576108ac611635565b602002602001018190525060405180604001604052807f1982966a9fc5aa4f74f0f61d83179bfd40ca080017dc2b2c9d1575d3ae16735e81526020017f03ca55b6733e5f7455baaf5f9044e151d47c39fcafd582359901f682a32cbb14815250816080015160068151811061092357610923611635565b602002602001018190525060405180604001604052807f06dd5638a7f1b4878e6ffb50c583fcb6b19cdeef5f57159662eadb2a6f67b37b81526020017f1404bf59f517406ccb4e8ad47ad0f8ee995cbbbd081f9d84ff33ae795f9a9ae5815250816080015160078151811061099a5761099a611635565b602002602001018190525060405180604001604052807f15994b046cac79d0e73d86a51754989e7fa850e911ecc7710282527a027a67c481526020017f23dc239594f29bf6a607768a2ef3c5d1f33e3057d81bf1b30550af2cc9b7c0678152508160800151600881518110610a1157610a11611635565b602002602001018190525060405180604001604052807f0e47902d33d7a6abb70e645831a82595f0ec118d49ad7dafa18809400a4c9c5d81526020017f2b591c476857bbb366a9845d875945b6b1888365c92f2382fb9f60c97ab646de8152508160800151600981518110610a8857610a88611635565b602002602001018190525060405180604001604052807f0259e517191f5268b987e30105dfa16369a4e8c39f24b79daf3dc967bd7d413281526020017f305e6d21d83c5d3f978f40790e9c468a3b6b78459a7ff321d841b351172a740d8152508160800151600a81518110610aff57610aff611635565b602002602001018190525060405180604001604052807f081e4765b24e4bd10141397c06e9a2e2ab9f34bc80748d4cae888e70f5f98fa981526020017f1e144111ee8218f547b8738ba6adb0efd72f2d4bd97598ba423a39a1230c5aba8152508160800151600b81518110610b7657610b76611635565b602002602001018190525060405180604001604052807f0491c587c43969bfeed13c9b3fa1d8e87a80c4cde119369fd74a2185649418da81526020017f0193696b5fcd2a415f79bbf1af809d2121b66e39097c4c62246050c94576e1778152508160800151600c81518110610bed57610bed611635565b602002602001018190525060405180604001604052807f11cb68887becff48e7050054531d1b9b312eaa6b88c716c92739244c0f5b047d81526020017f02804bbb287cb2e4c082e8a018d87b24b58b919cc5d6a542624e4940a184f7358152508160800151600d81518110610c6457610c64611635565b602002602001018190525060405180604001604052807f185f8e6f00fa15dcdae7b9a5fb8d8341c066b6efb0c56a2e10baa49d0107856d81526020017f2d5be526396d7956d43b3b279346d088277f10ede857bf119b32d89328b67a0e8152508160800151600e81518110610cdb57610cdb611635565b602002602001018190525090565b604080518082019091525f8082526020820152610d0461141a565b8351815260208085015190820152604081018390525f60608360808460076107d05a03fa90508080610d3257fe5b5080610d755760405162461bcd60e51b81526020600482015260126024820152711c185a5c9a5b99cb5b5d5b0b59985a5b195960721b60448201526064016101dc565b505092915050565b604080518082019091525f8082526020820152610d98611438565b8351815260208085015181830152835160408301528301516060808301919091525f908360c08460066107d05a03fa90508080610dd157fe5b5080610d755760405162461bcd60e51b81526020600482015260126024820152711c185a5c9a5b99cb5859190b59985a5b195960721b60448201526064016101dc565b604080518082019091525f808252602082015281517f30644e72e131a029b85045b68181585d97816a916871ca8d3c208c16d87cfd4790158015610e5a57506020830151155b15610e79575050604080518082019091525f8082526020820152919050565b6040518060400160405280845f01518152602001828560200151610e9d9190611670565b610ea7908461168f565b90529392505050565b60408051600480825260a082019092525f91829190816020015b604080518082019091525f8082526020820152815260200190600190039081610eca57505060408051600480825260a082019092529192505f9190602082015b610f12611456565b815260200190600190039081610f0a5790505090508a825f81518110610f3a57610f3a611635565b60200260200101819052508882600181518110610f5957610f59611635565b60200260200101819052508682600281518110610f7857610f78611635565b60200260200101819052508482600381518110610f9757610f97611635565b602002602001018190525089815f81518110610fb557610fb5611635565b60200260200101819052508781600181518110610fd457610fd4611635565b60200260200101819052508581600281518110610ff357610ff3611635565b6020026020010181905250838160038151811061101257611012611635565b60200260200101819052506110278282611036565b9b9a5050505050505050505050565b5f81518351146110815760405162461bcd60e51b81526020600482015260166024820152751c185a5c9a5b99cb5b195b99dd1a1ccb59985a5b195960521b60448201526064016101dc565b82515f61108f8260066116a2565b90505f8167ffffffffffffffff8111156110ab576110ab6114b2565b6040519080825280602002602001820160405280156110d4578160200160208202803683370190505b5090505f5b83811015611301578681815181106110f3576110f3611635565b60200260200101515f01518282600661110c91906116a2565b611116905f61165d565b8151811061112657611126611635565b60200260200101818152505086818151811061114457611144611635565b6020026020010151602001518282600661115e91906116a2565b61116990600161165d565b8151811061117957611179611635565b60200260200101818152505085818151811061119757611197611635565b60209081029190910101515151826111b08360066116a2565b6111bb90600261165d565b815181106111cb576111cb611635565b6020026020010181815250508581815181106111e9576111e9611635565b602090810291909101810151510151826112048360066116a2565b61120f90600361165d565b8151811061121f5761121f611635565b60200260200101818152505085818151811061123d5761123d611635565b6020026020010151602001515f6002811061125a5761125a611635565b60200201518261126b8360066116a2565b61127690600461165d565b8151811061128657611286611635565b6020026020010181815250508581815181106112a4576112a4611635565b6020026020010151602001516001600281106112c2576112c2611635565b6020020151826112d38360066116a2565b6112de90600561165d565b815181106112ee576112ee611635565b60209081029190910101526001016110d9565b5061130a611476565b5f602082602086026020860160086107d05a03fa9050808061132857fe5b508061136e5760405162461bcd60e51b81526020600482015260156024820152741c185a5c9a5b99cb5bdc18dbd9194b59985a5b1959605a1b60448201526064016101dc565b505115159695505050505050565b6040805160a081019091525f6060820181815260808301919091528152602081016113a5611456565b81526020016113c560405180604001604052805f81526020015f81525090565b905290565b6040805160e081019091525f60a0820181815260c08301919091528152602081016113f3611456565b8152602001611400611456565b815260200161140d611456565b8152602001606081525090565b60405180606001604052806003906020820280368337509192915050565b60405180608001604052806004906020820280368337509192915050565b6040518060400160405280611469611494565b81526020016113c5611494565b60405180602001604052806001906020820280368337509192915050565b60405180604001604052806002906020820280368337509192915050565b634e487b7160e01b5f52604160045260245ffd5b604051601f8201601f1916810167ffffffffffffffff811182821017156114fb57634e487b7160e01b5f52604160045260245ffd5b604052919050565b5f82601f830112611512575f5ffd5b5f61151d60406114c6565b9050806040840185811115611530575f5ffd5b845b8181101561154a578035835260209283019201611532565b509195945050505050565b5f5f5f5f6102c08587031215611569575f5ffd5b6115738686611503565b935085605f860112611583575f5ffd5b604061158e816114c6565b8060c088018981111561159f575f5ffd5b604089015b818110156115c5576115b68b82611503565b845260209093019284016115a4565b508196506115d38a82611503565b95505050505061010085015f87601f8301126115ed575f5ffd5b5f6101c06115fa816114c6565b91508301818a82111561160b575f5ffd5b5b8185101561162457843581526020948501940161160c565b509699959850939650929450505050565b634e487b7160e01b5f52603260045260245ffd5b634e487b7160e01b5f52601160045260245ffd5b8082018082111561033e5761033e611649565b5f8261168a57634e487b7160e01b5f52601260045260245ffd5b500690565b8181038181111561033e5761033e611649565b808202811582820484141761033e5761033e61164956fea2646970667358221220831111a31aaff74c25f9f24335f9eedea886c05411b526faa7ca801ba084ab0364736f6c634300081c0033",
  "linkReferences": {},
  "deployedLinkReferences": {},
  "immutableReferences": {},
  "inputSourceName": "project/contracts/aggregator/verifiers/CurvyAggregationVerifier.sol",
  "buildInfoId": "solc-0_8_28-8eac887a519b974b503ee63fb3b07a9dcdfff55c"
}