{
  "_format": "hh3-artifact-1",
  "contractName": "MetaERC20Wrapper",
  "sourceName": "contracts/wrapper/MetaERC20Wrapper.sol",
  "abi": [
    {
      "inputs": [],
      "stateMutability": "nonpayable",
      "type": "constructor"
    },
    {
      "anonymous": false,
      "inputs": [
        {
          "indexed": true,
          "internalType": "address",
          "name": "_owner",
          "type": "address"
        },
        {
          "indexed": true,
          "internalType": "address",
          "name": "_operator",
          "type": "address"
        },
        {
          "indexed": false,
          "internalType": "bool",
          "name": "_approved",
          "type": "bool"
        }
      ],
      "name": "ApprovalForAll",
      "type": "event"
    },
    {
      "anonymous": false,
      "inputs": [
        {
          "indexed": true,
          "internalType": "address",
          "name": "signer",
          "type": "address"
        },
        {
          "indexed": false,
          "internalType": "uint256",
          "name": "newNonce",
          "type": "uint256"
        }
      ],
      "name": "NonceChange",
      "type": "event"
    },
    {
      "anonymous": false,
      "inputs": [
        {
          "indexed": false,
          "internalType": "address",
          "name": "token_address",
          "type": "address"
        },
        {
          "indexed": false,
          "internalType": "uint256",
          "name": "token_id",
          "type": "uint256"
        }
      ],
      "name": "TokenRegistration",
      "type": "event"
    },
    {
      "anonymous": false,
      "inputs": [
        {
          "indexed": true,
          "internalType": "address",
          "name": "_operator",
          "type": "address"
        },
        {
          "indexed": true,
          "internalType": "address",
          "name": "_from",
          "type": "address"
        },
        {
          "indexed": true,
          "internalType": "address",
          "name": "_to",
          "type": "address"
        },
        {
          "indexed": false,
          "internalType": "uint256[]",
          "name": "_ids",
          "type": "uint256[]"
        },
        {
          "indexed": false,
          "internalType": "uint256[]",
          "name": "_amounts",
          "type": "uint256[]"
        }
      ],
      "name": "TransferBatch",
      "type": "event"
    },
    {
      "anonymous": false,
      "inputs": [
        {
          "indexed": true,
          "internalType": "address",
          "name": "_operator",
          "type": "address"
        },
        {
          "indexed": true,
          "internalType": "address",
          "name": "_from",
          "type": "address"
        },
        {
          "indexed": true,
          "internalType": "address",
          "name": "_to",
          "type": "address"
        },
        {
          "indexed": false,
          "internalType": "uint256",
          "name": "_id",
          "type": "uint256"
        },
        {
          "indexed": false,
          "internalType": "uint256",
          "name": "_amount",
          "type": "uint256"
        }
      ],
      "name": "TransferSingle",
      "type": "event"
    },
    {
      "inputs": [],
      "name": "Operator",
      "outputs": [
        {
          "internalType": "address",
          "name": "",
          "type": "address"
        }
      ],
      "stateMutability": "view",
      "type": "function"
    },
    {
      "inputs": [
        {
          "internalType": "address",
          "name": "_owner",
          "type": "address"
        },
        {
          "internalType": "uint256",
          "name": "_id",
          "type": "uint256"
        }
      ],
      "name": "balanceOf",
      "outputs": [
        {
          "internalType": "uint256",
          "name": "",
          "type": "uint256"
        }
      ],
      "stateMutability": "view",
      "type": "function"
    },
    {
      "inputs": [
        {
          "internalType": "address[]",
          "name": "_owners",
          "type": "address[]"
        },
        {
          "internalType": "uint256[]",
          "name": "_ids",
          "type": "uint256[]"
        }
      ],
      "name": "balanceOfBatch",
      "outputs": [
        {
          "internalType": "uint256[]",
          "name": "",
          "type": "uint256[]"
        }
      ],
      "stateMutability": "view",
      "type": "function"
    },
    {
      "inputs": [
        {
          "internalType": "address",
          "name": "_token",
          "type": "address"
        },
        {
          "internalType": "address",
          "name": "_recipient",
          "type": "address"
        },
        {
          "internalType": "uint256",
          "name": "_value",
          "type": "uint256"
        }
      ],
      "name": "deposit",
      "outputs": [],
      "stateMutability": "payable",
      "type": "function"
    },
    {
      "inputs": [],
      "name": "getAggregatorContractAddress",
      "outputs": [
        {
          "internalType": "address",
          "name": "",
          "type": "address"
        }
      ],
      "stateMutability": "view",
      "type": "function"
    },
    {
      "inputs": [
        {
          "internalType": "uint256",
          "name": "_id",
          "type": "uint256"
        }
      ],
      "name": "getIdAddress",
      "outputs": [
        {
          "internalType": "address",
          "name": "token",
          "type": "address"
        }
      ],
      "stateMutability": "view",
      "type": "function"
    },
    {
      "inputs": [],
      "name": "getNTokens",
      "outputs": [
        {
          "internalType": "uint256",
          "name": "",
          "type": "uint256"
        }
      ],
      "stateMutability": "view",
      "type": "function"
    },
    {
      "inputs": [
        {
          "internalType": "address",
          "name": "_signer",
          "type": "address"
        }
      ],
      "name": "getNonce",
      "outputs": [
        {
          "internalType": "uint256",
          "name": "nonce",
          "type": "uint256"
        }
      ],
      "stateMutability": "view",
      "type": "function"
    },
    {
      "inputs": [
        {
          "internalType": "address",
          "name": "_token",
          "type": "address"
        }
      ],
      "name": "getTokenID",
      "outputs": [
        {
          "internalType": "uint256",
          "name": "tokenID",
          "type": "uint256"
        }
      ],
      "stateMutability": "view",
      "type": "function"
    },
    {
      "inputs": [
        {
          "internalType": "address",
          "name": "_owner",
          "type": "address"
        },
        {
          "internalType": "address",
          "name": "_operator",
          "type": "address"
        }
      ],
      "name": "isApprovedForAll",
      "outputs": [
        {
          "internalType": "bool",
          "name": "isOperator",
          "type": "bool"
        }
      ],
      "stateMutability": "view",
      "type": "function"
    },
    {
      "inputs": [
        {
          "internalType": "address",
          "name": "_signerAddress",
          "type": "address"
        },
        {
          "internalType": "bytes32",
          "name": "_hash",
          "type": "bytes32"
        },
        {
          "internalType": "bytes",
          "name": "_data",
          "type": "bytes"
        },
        {
          "internalType": "bytes",
          "name": "_sig",
          "type": "bytes"
        }
      ],
      "name": "isValidSignature",
      "outputs": [
        {
          "internalType": "bool",
          "name": "isValid",
          "type": "bool"
        }
      ],
      "stateMutability": "view",
      "type": "function"
    },
    {
      "inputs": [
        {
          "internalType": "address",
          "name": "_from",
          "type": "address"
        },
        {
          "internalType": "address",
          "name": "_to",
          "type": "address"
        },
        {
          "internalType": "uint256[]",
          "name": "_ids",
          "type": "uint256[]"
        },
        {
          "internalType": "uint256[]",
          "name": "_amounts",
          "type": "uint256[]"
        },
        {
          "internalType": "bool",
          "name": "_isGasFee",
          "type": "bool"
        },
        {
          "internalType": "bytes",
          "name": "_data",
          "type": "bytes"
        }
      ],
      "name": "metaSafeBatchTransferFrom",
      "outputs": [],
      "stateMutability": "nonpayable",
      "type": "function"
    },
    {
      "inputs": [
        {
          "internalType": "address",
          "name": "_from",
          "type": "address"
        },
        {
          "internalType": "address",
          "name": "_to",
          "type": "address"
        },
        {
          "internalType": "uint256",
          "name": "_id",
          "type": "uint256"
        },
        {
          "internalType": "uint256",
          "name": "_amount",
          "type": "uint256"
        },
        {
          "internalType": "bool",
          "name": "_isGasFee",
          "type": "bool"
        },
        {
          "internalType": "bytes",
          "name": "_data",
          "type": "bytes"
        }
      ],
      "name": "metaSafeTransferFrom",
      "outputs": [],
      "stateMutability": "nonpayable",
      "type": "function"
    },
    {
      "inputs": [
        {
          "internalType": "address",
          "name": "_owner",
          "type": "address"
        },
        {
          "internalType": "address",
          "name": "_operator",
          "type": "address"
        },
        {
          "internalType": "bool",
          "name": "_approved",
          "type": "bool"
        },
        {
          "internalType": "bool",
          "name": "_isGasFee",
          "type": "bool"
        },
        {
          "internalType": "bytes",
          "name": "_data",
          "type": "bytes"
        }
      ],
      "name": "metaSetApprovalForAll",
      "outputs": [],
      "stateMutability": "nonpayable",
      "type": "function"
    },
    {
      "inputs": [
        {
          "internalType": "address",
          "name": "_from",
          "type": "address"
        },
        {
          "internalType": "address payable",
          "name": "_to",
          "type": "address"
        },
        {
          "internalType": "uint256",
          "name": "_id",
          "type": "uint256"
        },
        {
          "internalType": "uint256",
          "name": "_amount",
          "type": "uint256"
        },
        {
          "internalType": "bool",
          "name": "_isGasFee",
          "type": "bool"
        },
        {
          "internalType": "bytes",
          "name": "_data",
          "type": "bytes"
        }
      ],
      "name": "metaWithdraw",
      "outputs": [],
      "stateMutability": "nonpayable",
      "type": "function"
    },
    {
      "inputs": [
        {
          "internalType": "address",
          "name": "",
          "type": "address"
        },
        {
          "internalType": "address payable",
          "name": "_from",
          "type": "address"
        },
        {
          "internalType": "uint256[]",
          "name": "_ids",
          "type": "uint256[]"
        },
        {
          "internalType": "uint256[]",
          "name": "_values",
          "type": "uint256[]"
        },
        {
          "internalType": "bytes",
          "name": "",
          "type": "bytes"
        }
      ],
      "name": "onERC1155BatchReceived",
      "outputs": [
        {
          "internalType": "bytes4",
          "name": "",
          "type": "bytes4"
        }
      ],
      "stateMutability": "nonpayable",
      "type": "function"
    },
    {
      "inputs": [
        {
          "internalType": "address",
          "name": "",
          "type": "address"
        },
        {
          "internalType": "address payable",
          "name": "_from",
          "type": "address"
        },
        {
          "internalType": "uint256",
          "name": "_id",
          "type": "uint256"
        },
        {
          "internalType": "uint256",
          "name": "_value",
          "type": "uint256"
        },
        {
          "internalType": "bytes",
          "name": "",
          "type": "bytes"
        }
      ],
      "name": "onERC1155Received",
      "outputs": [
        {
          "internalType": "bytes4",
          "name": "",
          "type": "bytes4"
        }
      ],
      "stateMutability": "nonpayable",
      "type": "function"
    },
    {
      "inputs": [
        {
          "internalType": "address",
          "name": "_from",
          "type": "address"
        },
        {
          "internalType": "address",
          "name": "_to",
          "type": "address"
        },
        {
          "internalType": "uint256[]",
          "name": "_ids",
          "type": "uint256[]"
        },
        {
          "internalType": "uint256[]",
          "name": "_amounts",
          "type": "uint256[]"
        },
        {
          "internalType": "bytes",
          "name": "_data",
          "type": "bytes"
        }
      ],
      "name": "safeBatchTransferFrom",
      "outputs": [],
      "stateMutability": "nonpayable",
      "type": "function"
    },
    {
      "inputs": [
        {
          "internalType": "address",
          "name": "_from",
          "type": "address"
        },
        {
          "internalType": "address",
          "name": "_to",
          "type": "address"
        },
        {
          "internalType": "uint256",
          "name": "_id",
          "type": "uint256"
        },
        {
          "internalType": "uint256",
          "name": "_amount",
          "type": "uint256"
        },
        {
          "internalType": "bytes",
          "name": "_data",
          "type": "bytes"
        }
      ],
      "name": "safeTransferFrom",
      "outputs": [],
      "stateMutability": "nonpayable",
      "type": "function"
    },
    {
      "inputs": [
        {
          "internalType": "address",
          "name": "aggregatorAddress",
          "type": "address"
        }
      ],
      "name": "setAggregatorContractAddress",
      "outputs": [],
      "stateMutability": "nonpayable",
      "type": "function"
    },
    {
      "inputs": [
        {
          "internalType": "address",
          "name": "_operator",
          "type": "address"
        },
        {
          "internalType": "bool",
          "name": "_approved",
          "type": "bool"
        }
      ],
      "name": "setApprovalForAll",
      "outputs": [],
      "stateMutability": "nonpayable",
      "type": "function"
    },
    {
      "inputs": [
        {
          "internalType": "bytes4",
          "name": "interfaceID",
          "type": "bytes4"
        }
      ],
      "name": "supportsInterface",
      "outputs": [
        {
          "internalType": "bool",
          "name": "",
          "type": "bool"
        }
      ],
      "stateMutability": "view",
      "type": "function"
    },
    {
      "stateMutability": "payable",
      "type": "receive"
    }
  ],
  "bytecode": "0x60a06040526001600455348015610014575f5ffd5b5033806100735760405162461bcd60e51b815260206004820152602360248201527f4f70657261746f722063616e6e6f7420626520746865207a65726f206164647260448201526265737360e81b606482015260840160405180910390fd5b6001600160a01b031660805260017fa1829a9003092132f585b6ccdd167c19fe9774dbdea4260287e8a8e8ca8185d78190555f5260066020527f3e5fec24aa4dc4e5aee2e025e51e1392c72a2500577559fae9665c6d52bd6a3180546001600160a01b03191673eeeeeeeeeeeeeeeeeeeeeeeeeeeeeeeeeeeeeeee17905560805161347961012c5f395f81816102220152818161081201528181610d1701528181610fcf01528181611039015261132201526134795ff3fe608060405260043610610133575f3560e01c80639040a949116100a8578063ce0b514b1161006d578063ce0b514b146103be578063e985e9c5146103dd578063f23a6e61146103fc578063f242432a1461041b578063f5d4c8201461043a578063fa4e12d714610459575f5ffd5b80639040a94914610315578063a22cb46514610329578063a3d4926e14610348578063bc197c8114610367578063ca1d0bc11461039f575f5ffd5b80632eb2c2d6116100f95780632eb2c2d61461025c5780633d2fcd151461027b5780634e1273f41461029857806363f8071c146102c45780637358e9a5146102e35780638340f54914610302575f5ffd5b8062fdd58e1461015d57806301ffc9a71461018f578063236816b8146101be5780632d0335ab146101dd5780632dd07fbc14610211575f5ffd5b366101595761015773eeeeeeeeeeeeeeeeeeeeeeeeeeeeeeeeeeeeeeee3334610478565b005b5f5ffd5b348015610168575f5ffd5b5061017c6101773660046127f8565b61078f565b6040519081526020015b60405180910390f35b34801561019a575f5ffd5b506101ae6101a9366004612837565b6107b7565b6040519015158152602001610186565b3480156101c9575f5ffd5b506101576101d836600461291b565b610807565b3480156101e8575f5ffd5b5061017c6101f736600461299c565b6001600160a01b03165f9081526003602052604090205490565b34801561021c575f5ffd5b506102447f000000000000000000000000000000000000000000000000000000000000000081565b6040516001600160a01b039091168152602001610186565b348015610267575f5ffd5b50610157610276366004612a3e565b610944565b348015610286575f5ffd5b506002546001600160a01b0316610244565b3480156102a3575f5ffd5b506102b76102b2366004612aee565b610a54565b6040516101869190612beb565b3480156102cf575f5ffd5b5061017c6102de36600461299c565b610b9e565b3480156102ee575f5ffd5b506102446102fd366004612bfd565b610c23565b610157610310366004612c14565b610478565b348015610320575f5ffd5b5060045461017c565b348015610334575f5ffd5b50610157610343366004612c52565b610ca1565b348015610353575f5ffd5b50610157610362366004612c89565b610d0c565b348015610372575f5ffd5b50610386610381366004612a3e565b610ebd565b6040516001600160e01b03199091168152602001610186565b3480156103aa575f5ffd5b506101576103b936600461299c565b610fc4565b3480156103c9575f5ffd5b506101576103d836600461291b565b61102e565b3480156103e8575f5ffd5b506101ae6103f7366004612d17565b61112c565b348015610407575f5ffd5b50610386610416366004612d43565b61117a565b348015610426575f5ffd5b50610157610435366004612d43565b611218565b348015610445575f5ffd5b50610157610454366004612d9a565b611317565b348015610464575f5ffd5b506101ae610473366004612e03565b611479565b6001600160a01b0382166104e75760405162461bcd60e51b815260206004820152602b60248201527f4d657461455243323057726170706572236465706f7369743a20494e56414c4960448201526a1117d49150d2541251539560aa1b60648201526084015b60405180910390fd5b5f6001600160a01b03841673eeeeeeeeeeeeeeeeeeeeeeeeeeeeeeeeeeeeeeee1461070657341561056f5760405162461bcd60e51b815260206004820152602c60248201527f4d657461455243323057726170706572236465706f7369743a204e4f4e5f4e5560448201526b4c4c5f4d53475f56414c554560a01b60648201526084016104de565b6040516323b872dd60e01b8152336004820152306024820152604481018390526001600160a01b038516906323b872dd906064016020604051808303815f875af11580156105bf573d5f5f3e3d5ffd5b505050506040513d601f19601f820116820180604052508101906105e39190612e81565b506105ec61193e565b61064a5760405162461bcd60e51b815260206004820152602960248201527f4d657461455243323057726170706572236465706f7369743a205452414e5346604482015268115497d1905253115160ba1b60648201526084016104de565b6001600160a01b0384165f90815260056020526040812054908190036106fc57600160045f82825461067c9190612eb0565b90915550506004545f81815260066020908152604080832080546001600160a01b0319166001600160a01b038b16908117909155808452600583529281902084905580519283529082018390529193507ff977d54986414fc91816901629d1d788ad95448ab4198dcb9b6dc5ed2b930c1f910160405180910390a1610700565b8091505b5061076f565b34821461076b5760405162461bcd60e51b815260206004820152602d60248201527f4d657461455243323057726170706572236465706f7369743a20494e434f525260448201526c4543545f4d53475f56414c554560981b60648201526084016104de565b5060015b61078983828460405180602001604052805f81525061196f565b50505050565b6001600160a01b0382165f908152602081815260408083208484529091529020545b92915050565b5f6001600160e01b031982166301ffc9a760e01b14806107e757506001600160e01b03198216636cdb3d1360e11b145b806107b157506001600160e01b03198216630271189760e51b1492915050565b336001600160a01b037f0000000000000000000000000000000000000000000000000000000000000000161461084f5760405162461bcd60e51b81526004016104de90612ec3565b6001600160a01b0385166108755760405162461bcd60e51b81526004016104de90612efa565b606061087f6127b3565b5f61090389857fce0b514b3931bdbe4d5d44e4f035afe7113767b7db71949271f6a62d9c60f558828c8c8c8c6108b5575f6108b8565b60015b6040805160208101979097526001600160a01b0395861690870152939092166060850152608084015260a083015260c082015260e0015b6040516020818303038152906040526119fa565b905061091189898989611c02565b8415610939578080602001905181019061092b9190613026565b935091506109398983611d9c565b505050505050505050565b336001600160a01b03861614806109605750610960853361112c565b6109c45760405162461bcd60e51b815260206004820152602f60248201527f45524331313535237361666542617463685472616e7366657246726f6d3a204960448201526e272b20a624a22fa7a822a920aa27a960891b60648201526084016104de565b6001600160a01b038416610a335760405162461bcd60e51b815260206004820152603060248201527f45524331313535237361666542617463685472616e7366657246726f6d3a204960448201526f13959053125117d49150d2541251539560821b60648201526084016104de565b610a3f8585858561204d565b610a4d858585855a8661221f565b5050505050565b60608151835114610abc5760405162461bcd60e51b815260206004820152602c60248201527f455243313135352362616c616e63654f6642617463683a20494e56414c49445f60448201526b082a4a482b2be988a9c8ea8960a31b60648201526084016104de565b5f83516001600160401b03811115610ad657610ad661285f565b604051908082528060200260200182016040528015610aff578160200160208202803683370190505b5090505f5b8451811015610b96575f5f868381518110610b2157610b2161307f565b60200260200101516001600160a01b03166001600160a01b031681526020019081526020015f205f858381518110610b5b57610b5b61307f565b602002602001015181526020019081526020015f2054828281518110610b8357610b8361307f565b6020908102919091010152600101610b04565b509392505050565b6001600160a01b0381165f9081526005602052604081205490819003610c1e5760405162461bcd60e51b815260206004820152602f60248201527f4d65746145524332305772617070657223676574546f6b656e49443a20554e5260448201526e22a3a4a9aa22a922a22faa27a5a2a760891b60648201526084016104de565b919050565b5f818152600660205260409020546001600160a01b031680610c1e5760405162461bcd60e51b815260206004820152603160248201527f4d657461455243323057726170706572236765744964416464726573733a2055604482015270272922a3a4a9aa22a922a22faa27a5a2a760791b60648201526084016104de565b335f8181526001602090815260408083206001600160a01b03871680855290835292819020805460ff191686151590811790915590519081529192917f17307eab39ab6107e8899845ad3d59bd9653f200f220920489ca2b5937696c31910160405180910390a35050565b336001600160a01b037f00000000000000000000000000000000000000000000000000000000000000001614610d545760405162461bcd60e51b81526004016104de90612ec3565b6001600160a01b038516610dd05760405162461bcd60e51b815260206004820152603860248201527f455243313135354d657461236d6574615361666542617463685472616e73666560448201527f7246726f6d3a20494e56414c49445f524543495049454e54000000000000000060648201526084016104de565b6060610dda6127b3565b5f610e5e89857fa3d4926e8cf8fe8e020cd29f514c256bc2eec62aa2337e415f1a33a4828af5a05f1b8c8c8c604051602001610e169190613093565b604051602081830303815290604052805190602001208c604051602001610e3d9190613093565b604051602081830303815290604052805190602001208c6108b5575f6108b8565b9050610e6c8989898961204d565b8415610eaf5780806020019051810190610e869190613026565b8094508193505050610ea08989898986602001518861221f565b610eaa8983611d9c565b610939565b610939898989895a8661221f565b5f333014610f3d5760405162461bcd60e51b815260206004820152604160248201527f4d657461455243323057726170706572236f6e4552433131353542617463685260448201527f656365697665643a20494e56414c49445f455243313135355f524543454956456064820152601160fa1b608482015260a4016104de565b5f5b8451811015610fb157610f6a858281518110610f5d57610f5d61307f565b6020026020010151610c23565b50610fa93087878481518110610f8257610f8261307f565b6020026020010151878581518110610f9c57610f9c61307f565b6020026020010151611c02565b600101610f3f565b5063bc197c8160e01b9695505050505050565b336001600160a01b037f0000000000000000000000000000000000000000000000000000000000000000161461100c5760405162461bcd60e51b81526004016104de90612ec3565b600280546001600160a01b0319166001600160a01b0392909216919091179055565b336001600160a01b037f000000000000000000000000000000000000000000000000000000000000000016146110765760405162461bcd60e51b81526004016104de90612ec3565b6001600160a01b03851661109c5760405162461bcd60e51b81526004016104de90612efa565b60606110a66127b3565b5f6110dc89857fce0b514b3931bdbe4d5d44e4f035afe7113767b7db71949271f6a62d9c60f558828c8c8c8c6108b5575f6108b8565b90506110ea89898989612335565b841561111e57808060200190518101906111049190613026565b8094508193505050610ea0898989898660200151886123f0565b610939898989895a866123f0565b6002545f906001600160a01b039081169083160361114c575060016107b1565b506001600160a01b039182165f90815260016020908152604080832093909416825291909152205460ff1690565b5f3330146111f05760405162461bcd60e51b815260206004820152603c60248201527f4d657461455243323057726170706572236f6e4552433131353552656365697660448201527f65643a20494e56414c49445f455243313135355f52454345495645440000000060648201526084016104de565b6111f984610c23565b5061120630868686611c02565b5063f23a6e6160e01b95945050505050565b336001600160a01b03861614806112345750611234853361112c565b6112935760405162461bcd60e51b815260206004820152602a60248201527f4552433131353523736166655472616e7366657246726f6d3a20494e56414c49604482015269222fa7a822a920aa27a960b11b60648201526084016104de565b6001600160a01b0384166112fd5760405162461bcd60e51b815260206004820152602b60248201527f4552433131353523736166655472616e7366657246726f6d3a20494e56414c4960448201526a1117d49150d2541251539560aa1b60648201526084016104de565b61130985858585612335565b610a4d858585855a866123f0565b336001600160a01b037f0000000000000000000000000000000000000000000000000000000000000000161461135f5760405162461bcd60e51b81526004016104de90612ec3565b5f6113da86837ff5d4c820494c8595de274c7ff619bead38aac4fbc3d143b5bf956aa4b84fa524828989611393575f611396565b60015b896113a1575f6113a4565b60015b6040805160208101969096526001600160a01b0394851690860152929091166060840152608083015260a082015260c0016108ef565b6001600160a01b038781165f818152600160209081526040808320948b1680845294825291829020805460ff19168a15159081179091559151918252939450919290917f17307eab39ab6107e8899845ad3d59bd9653f200f220920489ca2b5937696c31910160405180910390a38215611471575f8180602001905181019061146391906130c8565b905061146f8782611d9c565b505b505050505050565b5f5f8251116114e95760405162461bcd60e51b815260206004820152604360248201525f5160206134245f395f51905f5260448201527f7572653a204c454e4754485f475245415445525f5448414e5f305f524551554960648201526214915160ea1b608482015260a4016104de565b6001600160a01b0385166115485760405162461bcd60e51b815260206004820152603360248201525f5160206134245f395f51905f526044820152723ab9329d1024a72b20a624a22fa9a4a3a722a960691b60648201526084016104de565b5f61155283612506565b60f81c9050600581106115775760405162461bcd60e51b81526004016104de9061310d565b5f8160ff16600581111561158d5761158d6130f9565b90505f808080808560058111156115a6576115a66130f9565b036115ff5760405162461bcd60e51b815260206004820152603660248201525f5160206134245f395f51905f526044820152757572653a20494c4c4547414c5f5349474e415455524560501b60648201526084016104de565b6001856005811115611613576116136130f9565b036116e65787516061146116395760405162461bcd60e51b81526004016104de90613157565b611643885f6125b7565b92506116508860206125b7565b9150876040815181106116655761166561307f565b01602090810151604080515f81529283018082528d905260f89190911c9082018190526060820185905260808201849052945060019060a0015b6020604051602081039080840390855afa1580156116bf573d5f5f3e3d5ffd5b5050604051601f1901516001600160a01b038d811691161497506119369650505050505050565b60028560058111156116fa576116fa6130f9565b036117d05787516061146117205760405162461bcd60e51b81526004016104de90613157565b61172a885f6125b7565b92506117378860206125b7565b91508760408151811061174c5761174c61307f565b016020908101516040517f19457468657265756d205369676e6564204d6573736167653a0a33320000000092810192909252603c82018c905260f81c9450600190605c0160408051601f1981840301815282825280516020918201205f84529083018083525260ff871690820152606081018590526080810184905260a00161169f565b60038560058111156117e4576117e46130f9565b03611877576040516320c13b0b60e01b81526001600160a01b038c16906320c13b0b90611817908c908c906004016131cf565b602060405180830381865afa158015611832573d5f5f3e3d5ffd5b505050506040513d601f19601f8201168201806040525081019061185691906131fc565b6001600160e01b0319166320c13b0b60e01b14965061193695505050505050565b600485600581111561188b5761188b6130f9565b0361191e57604051630b135d3f60e11b81526001600160a01b038c1690631626ba7e906118be908d908c90600401613217565b602060405180830381865afa1580156118d9573d5f5f3e3d5ffd5b505050506040513d601f19601f820116820180604052508101906118fd91906131fc565b6001600160e01b031916630b135d3f60e11b14965061193695505050505050565b60405162461bcd60e51b81526004016104de9061310d565b949350505050565b5f803d8015611954576020811461195d57611967565b60019150611967565b60205f5f3e5f5191505b501515919050565b6001600160a01b0384165f908152602081815260408083208684529091528120805484929061199f908490612eb0565b909155505060408051848152602081018490526001600160a01b038616915f9133917fc3d58168c5ae7397731d063d5bbf3d657854427343f4c083240f7aacaa2d0f62910160405180910390a46107895f8585855a866123f0565b60608083806020019051810190611a11919061322f565b6001600160a01b0387165f9081526003602052604081205491945091925090611a3b8360416125b7565b9050818110801590611a565750611a53826064612eb0565b81105b611aba5760405162461bcd60e51b815260206004820152602f60248201527f455243313135354d657461235f7369676e617475726556616c69646174696f6e60448201526e3a20494e56414c49445f4e4f4e434560881b60648201526084016104de565b5f611af586838780519060200120604051602001611ada93929190613278565b6040516020818303038152906040528051906020012061264f565b90505f868387604051602001611b0d93929190613295565b60408051601f198184030181529190529050611b2a836001612eb0565b6001600160a01b038a165f818152600360205260409020919091557fb861b7bdbe611a846ab271b8d2810391bc8b5a968f390c322438ecab66bccf59611b71856001612eb0565b60405190815260200160405180910390a2611b8e89838388611479565b611bf65760405162461bcd60e51b815260206004820152603360248201527f455243313135354d657461235f7369676e617475726556616c69646174696f6e6044820152723a20494e56414c49445f5349474e415455524560681b60648201526084016104de565b50505050509392505050565b611c0d8483836126f8565b60018214611cc2575f828152600660205260409081902054905163a9059cbb60e01b81526001600160a01b0385811660048301526024820184905290911690819063a9059cbb906044016020604051808303815f875af1158015611c73573d5f5f3e3d5ffd5b505050506040513d601f19601f82011682018060405250810190611c979190612e81565b50611ca061193e565b611cbc5760405162461bcd60e51b81526004016104de906132ba565b50610789565b6001600160a01b038316611d2d5760405162461bcd60e51b815260206004820152602c60248201527f4d6574614552433230577261707065722377697468647261773a20494e56414c60448201526b125117d49150d2541251539560a21b60648201526084016104de565b5f836001600160a01b0316826040515f6040518083038185875af1925050503d805f8114611d76576040519150601f19603f3d011682016040523d82523d5f602084013e611d7b565b606091505b5050905080610a4d5760405162461bcd60e51b81526004016104de906132ba565b5f611daa8260600151612506565b60f81c905060028110611e165760405162461bcd60e51b815260206004820152602e60248201527f455243313135354d657461235f7472616e736665724761734665653a20554e5360448201526d2aa82827a92a22a22faa27a5a2a760911b60648201526084016104de565b5f8160ff166002811115611e2c57611e2c6130f9565b835160408501519192505f91829182916001600160a01b031615611e54578660400151611e56565b335b92505f856002811115611e6b57611e6b6130f9565b03611f48578660600151806020019051810190611e889190613304565b9094509150306001600160a01b03851603611eca57611ea988848484612335565b611ec58884845a8560405180602001604052805f8152506123f0565b612043565b604051637921219560e11b81526001600160a01b0389811660048301528481166024830152604482018490526064820183905260a060848301525f60a483015285169063f242432a9060c4015f604051808303815f87803b158015611f2d575f5ffd5b505af1158015611f3f573d5f5f3e3d5ffd5b50505050612043565b8660600151806020019051810190611f609190613330565b6040516323b872dd60e01b81526001600160a01b038a81166004830152858116602483015260448201849052919550908516906323b872dd906064016020604051808303815f875af1158015611fb8573d5f5f3e3d5ffd5b505050506040513d601f19601f82011682018060405250810190611fdc9190612e81565b6120435760405162461bcd60e51b815260206004820152603260248201527f455243313135354d657461235f7472616e736665724761734665653a204552436044820152710c8c17d514905394d1915497d1905253115160721b60648201526084016104de565b5050505050505050565b80518251146120bc5760405162461bcd60e51b815260206004820152603560248201527f45524331313535235f7361666542617463685472616e7366657246726f6d3a206044820152740929cac82989288be82a4a482b2a6be988a9c8ea89605b1b60648201526084016104de565b81515f5b818110156121c0578281815181106120da576120da61307f565b60200260200101515f5f886001600160a01b03166001600160a01b031681526020019081526020015f205f8684815181106121175761211761307f565b602002602001015181526020019081526020015f205f82825461213a919061334b565b925050819055508281815181106121535761215361307f565b60200260200101515f5f876001600160a01b03166001600160a01b031681526020019081526020015f205f8684815181106121905761219061307f565b602002602001015181526020019081526020015f205f8282546121b39190612eb0565b90915550506001016120c0565b50836001600160a01b0316856001600160a01b0316336001600160a01b03167f4a39dc06d4c0dbc64b70af90fd698a233a518aa5d07e595d983b8c0526c8f7fb868660405161221092919061335e565b60405180910390a45050505050565b612231856001600160a01b031661277a565b15611471575f856001600160a01b031663bc197c8184338a8989886040518763ffffffff1660e01b815260040161226c959493929190613382565b6020604051808303815f8887f1158015612288573d5f5f3e3d5ffd5b50505050506040513d601f19601f820116820180604052508101906122ad91906131fc565b90506001600160e01b0319811663bc197c8160e01b1461146f5760405162461bcd60e51b815260206004820152603f60248201527f45524331313535235f63616c6c6f6e455243313135354261746368526563656960448201527f7665643a20494e56414c49445f4f4e5f524543454956455f4d4553534147450060648201526084016104de565b6001600160a01b0384165f908152602081815260408083208584529091528120805483929061236590849061334b565b90915550506001600160a01b0383165f908152602081815260408083208584529091528120805483929061239a908490612eb0565b909155505060408051838152602081018390526001600160a01b03808616929087169133917fc3d58168c5ae7397731d063d5bbf3d657854427343f4c083240f7aacaa2d0f62910160405180910390a450505050565b612402856001600160a01b031661277a565b15611471575f856001600160a01b031663f23a6e6184338a8989886040518763ffffffff1660e01b815260040161243d9594939291906133df565b6020604051808303815f8887f1158015612459573d5f5f3e3d5ffd5b50505050506040513d601f19601f8201168201806040525081019061247e91906131fc565b90506001600160e01b0319811663f23a6e6160e01b1461146f5760405162461bcd60e51b815260206004820152603a60248201527f45524331313535235f63616c6c6f6e4552433131353552656365697665643a2060448201527f494e56414c49445f4f4e5f524543454956455f4d45535341474500000000000060648201526084016104de565b5f5f82511161257d5760405162461bcd60e51b815260206004820152603760248201527f4c6962427974657323706f704c617374427974653a20475245415445525f544860448201527f414e5f5a45524f5f4c454e4754485f524551554952454400000000000000000060648201526084016104de565b816001835161258c919061334b565b8151811061259c5761259c61307f565b016020015182515f1901909252506001600160f81b03191690565b5f6125c3826020612eb0565b835110156126395760405162461bcd60e51b815260206004820152603c60248201527f4c696242797465732372656164427974657333323a20475245415445525f4f5260448201527f5f455155414c5f544f5f33325f4c454e4754485f52455155495245440000000060648201526084016104de565b612644602083612eb0565b929092015192915050565b5f60405180604001604052806002815260200161190160f01b8152507f035aff83d86937d35b32e04f0ddc6ff469290eef2f1b692d8a815c89404d47495f1b306040516020016126b29291909182526001600160a01b0316602082015260400190565b60405160208183030381529060405280519060200120836040516020016126db93929190613278565b604051602081830303815290604052805190602001209050919050565b6001600160a01b0383165f908152602081815260408083208584529091528120805483929061272890849061334b565b909155505060408051838152602081018390525f916001600160a01b0386169133917fc3d58168c5ae7397731d063d5bbf3d657854427343f4c083240f7aacaa2d0f62910160405180910390a4505050565b5f813f80158015906127ac57507fc5d2460186f7233c927e7db2dcc703c0e500b653ca82273b7bfad8045d85a4708114155b9392505050565b60405180608001604052805f81526020015f81526020015f6001600160a01b03168152602001606081525090565b6001600160a01b03811681146127f5575f5ffd5b50565b5f5f60408385031215612809575f5ffd5b8235612814816127e1565b946020939093013593505050565b6001600160e01b0319811681146127f5575f5ffd5b5f60208284031215612847575f5ffd5b81356127ac81612822565b80151581146127f5575f5ffd5b634e487b7160e01b5f52604160045260245ffd5b604051601f8201601f191681016001600160401b038111828210171561289b5761289b61285f565b604052919050565b5f6001600160401b038211156128bb576128bb61285f565b50601f01601f191660200190565b5f82601f8301126128d8575f5ffd5b81356128eb6128e6826128a3565b612873565b8181528460208386010111156128ff575f5ffd5b816020850160208301375f918101602001919091529392505050565b5f5f5f5f5f5f60c08789031215612930575f5ffd5b863561293b816127e1565b9550602087013561294b816127e1565b94506040870135935060608701359250608087013561296981612852565b915060a08701356001600160401b03811115612983575f5ffd5b61298f89828a016128c9565b9150509295509295509295565b5f602082840312156129ac575f5ffd5b81356127ac816127e1565b5f6001600160401b038211156129cf576129cf61285f565b5060051b60200190565b5f82601f8301126129e8575f5ffd5b81356129f66128e6826129b7565b8082825260208201915060208360051b860101925085831115612a17575f5ffd5b602085015b83811015612a34578035835260209283019201612a1c565b5095945050505050565b5f5f5f5f5f60a08688031215612a52575f5ffd5b8535612a5d816127e1565b94506020860135612a6d816127e1565b935060408601356001600160401b03811115612a87575f5ffd5b612a93888289016129d9565b93505060608601356001600160401b03811115612aae575f5ffd5b612aba888289016129d9565b92505060808601356001600160401b03811115612ad5575f5ffd5b612ae1888289016128c9565b9150509295509295909350565b5f5f60408385031215612aff575f5ffd5b82356001600160401b03811115612b14575f5ffd5b8301601f81018513612b24575f5ffd5b8035612b326128e6826129b7565b8082825260208201915060208360051b850101925087831115612b53575f5ffd5b6020840193505b82841015612b7e578335612b6d816127e1565b825260209384019390910190612b5a565b945050505060208301356001600160401b03811115612b9b575f5ffd5b612ba7858286016129d9565b9150509250929050565b5f8151808452602084019350602083015f5b82811015612be1578151865260209586019590910190600101612bc3565b5093949350505050565b602081525f6127ac6020830184612bb1565b5f60208284031215612c0d575f5ffd5b5035919050565b5f5f5f60608486031215612c26575f5ffd5b8335612c31816127e1565b92506020840135612c41816127e1565b929592945050506040919091013590565b5f5f60408385031215612c63575f5ffd5b8235612c6e816127e1565b91506020830135612c7e81612852565b809150509250929050565b5f5f5f5f5f5f60c08789031215612c9e575f5ffd5b8635612ca9816127e1565b95506020870135612cb9816127e1565b945060408701356001600160401b03811115612cd3575f5ffd5b612cdf89828a016129d9565b94505060608701356001600160401b03811115612cfa575f5ffd5b612d0689828a016129d9565b935050608087013561296981612852565b5f5f60408385031215612d28575f5ffd5b8235612d33816127e1565b91506020830135612c7e816127e1565b5f5f5f5f5f60a08688031215612d57575f5ffd5b8535612d62816127e1565b94506020860135612d72816127e1565b9350604086013592506060860135915060808601356001600160401b03811115612ad5575f5ffd5b5f5f5f5f5f60a08688031215612dae575f5ffd5b8535612db9816127e1565b94506020860135612dc9816127e1565b93506040860135612dd981612852565b92506060860135612de981612852565b915060808601356001600160401b03811115612ad5575f5ffd5b5f5f5f5f60808587031215612e16575f5ffd5b8435612e21816127e1565b93506020850135925060408501356001600160401b03811115612e42575f5ffd5b612e4e878288016128c9565b92505060608501356001600160401b03811115612e69575f5ffd5b612e75878288016128c9565b91505092959194509250565b5f60208284031215612e91575f5ffd5b81516127ac81612852565b634e487b7160e01b5f52601160045260245ffd5b808201808211156107b1576107b1612e9c565b6020808252601a908201527f43616c6c6572206973206e6f7420746865206f70657261746f72000000000000604082015260600190565b60208082526033908201527f455243313135354d657461236d657461536166655472616e7366657246726f6d6040820152720e881253959053125117d49150d25412515395606a1b606082015260800190565b5f82601f830112612f5c575f5ffd5b8151612f6a6128e6826128a3565b818152846020838601011115612f7e575f5ffd5b8160208501602083015e5f918101602001919091529392505050565b5f60808284031215612faa575f5ffd5b604051608081016001600160401b0381118282101715612fcc57612fcc61285f565b604090815283518252602080850151908301528301519091508190612ff0816127e1565b604082015260608301516001600160401b0381111561300d575f5ffd5b61301985828601612f4d565b6060830152505092915050565b5f5f60408385031215613037575f5ffd5b82516001600160401b0381111561304c575f5ffd5b61305885828601612f9a565b92505060208301516001600160401b03811115613073575f5ffd5b612ba785828601612f4d565b634e487b7160e01b5f52603260045260245ffd5b81515f90829060208501835b828110156130bd57815184526020938401939091019060010161309f565b509195945050505050565b5f602082840312156130d8575f5ffd5b81516001600160401b038111156130ed575f5ffd5b61193684828501612f9a565b634e487b7160e01b5f52602160045260245ffd5b6020808252603a908201525f5160206134245f395f51905f5260408201527f7572653a20554e535550504f525445445f5349474e4154555245000000000000606082015260800190565b60208082526037908201525f5160206134245f395f51905f5260408201527f7572653a204c454e4754485f39375f5245515549524544000000000000000000606082015260800190565b5f81518084528060208401602086015e5f602082860101526020601f19601f83011685010191505092915050565b604081525f6131e160408301856131a1565b82810360208401526131f381856131a1565b95945050505050565b5f6020828403121561320c575f5ffd5b81516127ac81612822565b828152604060208201525f61193660408301846131a1565b5f5f60408385031215613240575f5ffd5b82516001600160401b03811115613255575f5ffd5b61305885828601612f4d565b5f81518060208401855e5f93019283525090919050565b5f6132838286613261565b93845250506020820152604001919050565b5f6132a08286613261565b8481526132b06020820185613261565b9695505050505050565b6020808252602a908201527f4d6574614552433230577261707065722377697468647261773a205452414e5360408201526911915497d1905253115160b21b606082015260800190565b5f5f60408385031215613315575f5ffd5b8251613320816127e1565b6020939093015192949293505050565b5f60208284031215613340575f5ffd5b81516127ac816127e1565b818103818111156107b1576107b1612e9c565b604081525f6133706040830185612bb1565b82810360208401526131f38185612bb1565b6001600160a01b0386811682528516602082015260a0604082018190525f906133ad90830186612bb1565b82810360608401526133bf8186612bb1565b905082810360808401526133d381856131a1565b98975050505050505050565b6001600160a01b03868116825285166020820152604081018490526060810183905260a0608082018190525f90613418908301846131a1565b97965050505050505056fe5369676e617475726556616c696461746f7223697356616c69645369676e6174a26469706673582212200ac0a82a80ed02c4dcd7758821ede9b377e457a46d8ce4d0c6e8a4f8904020a664736f6c634300081c0033",
  "linkReferences": {},
  "deployedLinkReferences": {},
  "immutableReferences": {
    "791": [
      {
        "length": 32,
        "start": 546
      },
      {
        "length": 32,
        "start": 2066
      },
      {
        "length": 32,
        "start": 3351
      },
      {
        "length": 32,
        "start": 4047
      },
      {
        "length": 32,
        "start": 4153
      },
      {
        "length": 32,
        "start": 4898
      }
    ]
  },
  "inputSourceName": "project/contracts/wrapper/MetaERC20Wrapper.sol",
  "buildInfoId": "solc-0_8_28-b30381c1c3391514566a014e93874907349e5077"
}