{
  "_format": "hh3-artifact-1",
  "contractName": "CurvyInsertionVerifierAlpha_2_2",
  "sourceName": "contracts/aggregator-alpha/verifiers/CurvyInsertionVerifierAlpha_2_2.sol",
  "abi": [
    {
      "inputs": [
        {
          "internalType": "uint256[2]",
          "name": "_pA",
          "type": "uint256[2]"
        },
        {
          "internalType": "uint256[2][2]",
          "name": "_pB",
          "type": "uint256[2][2]"
        },
        {
          "internalType": "uint256[2]",
          "name": "_pC",
          "type": "uint256[2]"
        },
        {
          "internalType": "uint256[4]",
          "name": "_pubSignals",
          "type": "uint256[4]"
        }
      ],
      "name": "verifyProof",
      "outputs": [
        {
          "internalType": "bool",
          "name": "",
          "type": "bool"
        }
      ],
      "stateMutability": "view",
      "type": "function"
    }
  ],
  "bytecode": "0x6080604052348015600e575f5ffd5b506106648061001c5f395ff3fe608060405234801561000f575f5ffd5b5060043610610029575f3560e01c80635fe8c13b1461002d575b5f5ffd5b61004061003b3660046105d7565b610054565b604051901515815260200160405180910390f35b5f61055c565b7f30644e72e131a029b85045b68181585d2833e84879b9709143e1f593f00000018110610089575f5f5260205ff35b50565b5f60405183815284602082015285604082015260408160608360076107d05a03fa9150816100bc575f5f5260205ff35b825160408201526020830151606082015260408360808360066107d05a03fa915050806100eb575f5f5260205ff35b5050505050565b7f0f3cc497f7f2ad2db9f9a01e1d1e237e7bd547ee48d3698641bae08ce37c187485527f2a2f300a2bc9b5576e8d348d9542dedfce1dd7566c9f7ad0c7936e9508f2d13f60208601525f608086018661018e87357f152cd78e51c23961af90e069fcceb20b0358a4c13f4d05ad78f5554803410ec47f068d0161c738b8256d8f80c113a6f2adc60bf92724e5ba844434551f353109bb8461008c565b6101de60208801357f28aeb7fafb1d5864b489fac2ac75795429a84564ed301367b95bdbbda22e41cc7f01fb82a3a457b9782065bddb3961e014b8602fe337a83a253a4edbe7f9eca5de8461008c565b61022e60408801357f10e505cabab95d2954811e50e0c907e6e27d3ea37df4576cb85d2b024b758e5e7f132ffdaaa0e5fbd39240ae81be15c78f27d1a5e9f0b046bc50a19ebd0e1f50be8461008c565b61027e60608801357f061f18bbab38fe7f8eca85f2017b25f057fb908ca68d0965746884ca8b0b2e027f0323511d8b4f23d71a970779314d464e5993156eaed0970a246cd2a43da830c88461008c565b50823581527f30644e72e131a029b85045b68181585d97816a916871ca8d3c208c16d87cfd4760208401357f30644e72e131a029b85045b68181585d97816a916871ca8d3c208c16d87cfd4703066020820152833560408201526020840135606082015260408401356080820152606084013560a08201527f2ce5cf088183ccc73bfeb1244cdee7ae92ceb0e007194b0bf6c6e9819a863ca960c08201527f0b549a9abb46bc0c3ed48341aa21baa4532bca1fb1ff7a8ef409d3384eb73d3660e08201527f270e5ddc8a3d6e364fae6b353c6deedc579e522582d3d1d60036e9c43428bb8e6101008201527f2d9ef7723573eb05565ba62424d4b2f2d5a0e68d542f8c45daadb2f10a5cde376101208201527f1f542545a1550702631817615d0eac929e73ccc384d92ac156c7d3577e01d5226101408201527f08cd2dbefe01d914cd9826b6a1309de1d3c645a028b69cc3c690a05c183a9fa36101608201525f87015161018082015260205f018701516101a08201527f198e9393920d483a7260bfb731fb5d25f1aa493335a9e71297e485b7aef312c26101c08201527f1800deef121f1e76426a00665e5c4479674322d4f75edadd46debd5cd992f6ed6101e08201527f090689d0585ff075ec9e99ad690c3395bc4b313370b38ef355acdadcd122975b6102008201527f12c85ea5db8c6deb4aab71808dcb408fe3d1e7690c43d37b4ce6cc0166fa7daa610220820152843561024082015260208501356102608201527f126779f2434a76e4e37da855f43a1df5648908e4e91eebf1e086544970eed7b86102808201527f12624c6dbae3875cc0583ab185cb81fc69d606519eef4d6140b7ac67aa6e26e76102a08201527f116d7e6cfc0480d16acdcebb03bef4a46abe3cff28a3aa60d1bf691b43679d866102c08201527f1bbda14ad6f8f4d5d33363f1d50fd72bf4b3b25d615b896c9e050098f5016f7d6102e08201526020816103008360086107d05a03fa9051169695505050505050565b60405161038081016040526105735f84013561005a565b610580602084013561005a565b61058d604084013561005a565b61059a606084013561005a565b6105a7818486888a6100f2565b9050805f5260205ff35b80604081018310156105c1575f5ffd5b92915050565b80608081018310156105c1575f5ffd5b5f5f5f5f61018085870312156105eb575f5ffd5b6105f586866105b1565b935061060486604087016105c7565b92506106138660c087016105b1565b91506106238661010087016105c7565b90509295919450925056fea26469706673582212206f782de436746e389d2f3f8eeac94b985e369b9a2c08f0f7a2167fc9a1fa233d64736f6c634300081c0033",
  "linkReferences": {},
  "deployedLinkReferences": {},
  "immutableReferences": {},
  "inputSourceName": "project/contracts/aggregator-alpha/verifiers/CurvyInsertionVerifierAlpha_2_2.sol",
  "buildInfoId": "solc-0_8_28-a60a1e6c11a9eb6708bc3e3ba360eda041049fdf"
}