{
  "_format": "hh3-artifact-1",
  "contractName": "CurvyAggregator",
  "sourceName": "contracts/aggregator/CurvyAggregator.sol",
  "abi": [
    {
      "inputs": [
        {
          "internalType": "address payable",
          "name": "tokenWrapperAddress",
          "type": "address"
        }
      ],
      "stateMutability": "nonpayable",
      "type": "constructor"
    },
    {
      "anonymous": false,
      "inputs": [
        {
          "indexed": false,
          "internalType": "uint256",
          "name": "noteId",
          "type": "uint256"
        }
      ],
      "name": "DepositedNote",
      "type": "event"
    },
    {
      "anonymous": false,
      "inputs": [
        {
          "indexed": false,
          "internalType": "uint256",
          "name": "notesHash",
          "type": "uint256"
        }
      ],
      "name": "DepositedNotesHash",
      "type": "event"
    },
    {
      "inputs": [],
      "name": "aggregationVerifier",
      "outputs": [
        {
          "internalType": "contract ICurvyAggregationVerifier",
          "name": "",
          "type": "address"
        }
      ],
      "stateMutability": "view",
      "type": "function"
    },
    {
      "inputs": [
        {
          "internalType": "uint256[2]",
          "name": "proof_a",
          "type": "uint256[2]"
        },
        {
          "internalType": "uint256[2][2]",
          "name": "proof_b",
          "type": "uint256[2][2]"
        },
        {
          "internalType": "uint256[2]",
          "name": "proof_c",
          "type": "uint256[2]"
        },
        {
          "internalType": "uint256[14]",
          "name": "publicInputs",
          "type": "uint256[14]"
        }
      ],
      "name": "commitAggregationBatch",
      "outputs": [
        {
          "internalType": "bool",
          "name": "success",
          "type": "bool"
        }
      ],
      "stateMutability": "nonpayable",
      "type": "function"
    },
    {
      "inputs": [
        {
          "internalType": "uint256[2]",
          "name": "proof_a",
          "type": "uint256[2]"
        },
        {
          "internalType": "uint256[2][2]",
          "name": "proof_b",
          "type": "uint256[2][2]"
        },
        {
          "internalType": "uint256[2]",
          "name": "proof_c",
          "type": "uint256[2]"
        },
        {
          "internalType": "uint256[4]",
          "name": "publicInputs",
          "type": "uint256[4]"
        }
      ],
      "name": "commitDepositBatch",
      "outputs": [
        {
          "internalType": "bool",
          "name": "success",
          "type": "bool"
        }
      ],
      "stateMutability": "nonpayable",
      "type": "function"
    },
    {
      "inputs": [
        {
          "internalType": "uint256[2]",
          "name": "proof_a",
          "type": "uint256[2]"
        },
        {
          "internalType": "uint256[2][2]",
          "name": "proof_b",
          "type": "uint256[2][2]"
        },
        {
          "internalType": "uint256[2]",
          "name": "proof_c",
          "type": "uint256[2]"
        },
        {
          "internalType": "uint256[10]",
          "name": "publicInputs",
          "type": "uint256[10]"
        }
      ],
      "name": "commitWithdrawalBatch",
      "outputs": [
        {
          "internalType": "bool",
          "name": "success",
          "type": "bool"
        }
      ],
      "stateMutability": "nonpayable",
      "type": "function"
    },
    {
      "inputs": [
        {
          "internalType": "address",
          "name": "fromAddress",
          "type": "address"
        },
        {
          "components": [
            {
              "internalType": "uint256",
              "name": "ownerHash",
              "type": "uint256"
            },
            {
              "internalType": "uint256",
              "name": "token",
              "type": "uint256"
            },
            {
              "internalType": "uint256",
              "name": "amount",
              "type": "uint256"
            }
          ],
          "internalType": "struct CurvyAggregator_Types.Note",
          "name": "note",
          "type": "tuple"
        }
      ],
      "name": "depositNote",
      "outputs": [],
      "stateMutability": "nonpayable",
      "type": "function"
    },
    {
      "inputs": [],
      "name": "feeCollector",
      "outputs": [
        {
          "internalType": "address",
          "name": "",
          "type": "address"
        }
      ],
      "stateMutability": "view",
      "type": "function"
    },
    {
      "inputs": [],
      "name": "insertionVerifier",
      "outputs": [
        {
          "internalType": "contract ICurvyInsertionVerifier",
          "name": "",
          "type": "address"
        }
      ],
      "stateMutability": "view",
      "type": "function"
    },
    {
      "inputs": [],
      "name": "noteTree",
      "outputs": [
        {
          "internalType": "uint256",
          "name": "_root",
          "type": "uint256"
        }
      ],
      "stateMutability": "view",
      "type": "function"
    },
    {
      "inputs": [],
      "name": "nullifierTree",
      "outputs": [
        {
          "internalType": "uint256",
          "name": "_root",
          "type": "uint256"
        }
      ],
      "stateMutability": "view",
      "type": "function"
    },
    {
      "inputs": [
        {
          "internalType": "address",
          "name": "_operator",
          "type": "address"
        },
        {
          "internalType": "address",
          "name": "_from",
          "type": "address"
        },
        {
          "internalType": "uint256[]",
          "name": "_ids",
          "type": "uint256[]"
        },
        {
          "internalType": "uint256[]",
          "name": "_amounts",
          "type": "uint256[]"
        },
        {
          "internalType": "bytes",
          "name": "_data",
          "type": "bytes"
        }
      ],
      "name": "onERC1155BatchReceived",
      "outputs": [
        {
          "internalType": "bytes4",
          "name": "",
          "type": "bytes4"
        }
      ],
      "stateMutability": "pure",
      "type": "function"
    },
    {
      "inputs": [
        {
          "internalType": "address",
          "name": "_operator",
          "type": "address"
        },
        {
          "internalType": "address",
          "name": "_from",
          "type": "address"
        },
        {
          "internalType": "uint256",
          "name": "_id",
          "type": "uint256"
        },
        {
          "internalType": "uint256",
          "name": "_amount",
          "type": "uint256"
        },
        {
          "internalType": "bytes",
          "name": "_data",
          "type": "bytes"
        }
      ],
      "name": "onERC1155Received",
      "outputs": [
        {
          "internalType": "bytes4",
          "name": "",
          "type": "bytes4"
        }
      ],
      "stateMutability": "pure",
      "type": "function"
    },
    {
      "inputs": [],
      "name": "operator",
      "outputs": [
        {
          "internalType": "address",
          "name": "",
          "type": "address"
        }
      ],
      "stateMutability": "view",
      "type": "function"
    },
    {
      "inputs": [
        {
          "internalType": "uint256",
          "name": "",
          "type": "uint256"
        }
      ],
      "name": "pendingIdsQueue",
      "outputs": [
        {
          "internalType": "bool",
          "name": "",
          "type": "bool"
        }
      ],
      "stateMutability": "view",
      "type": "function"
    },
    {
      "inputs": [],
      "name": "reset",
      "outputs": [],
      "stateMutability": "nonpayable",
      "type": "function"
    },
    {
      "inputs": [],
      "name": "tokenWrapper",
      "outputs": [
        {
          "internalType": "contract MetaERC20Wrapper",
          "name": "",
          "type": "address"
        }
      ],
      "stateMutability": "view",
      "type": "function"
    },
    {
      "inputs": [
        {
          "components": [
            {
              "internalType": "address",
              "name": "insertionVerifier",
              "type": "address"
            },
            {
              "internalType": "address",
              "name": "aggregationVerifier",
              "type": "address"
            },
            {
              "internalType": "address",
              "name": "withdrawVerifier",
              "type": "address"
            },
            {
              "internalType": "address",
              "name": "operator",
              "type": "address"
            },
            {
              "internalType": "address",
              "name": "feeCollector",
              "type": "address"
            }
          ],
          "internalType": "struct CurvyAggregator_Types.ConfigurationUpdate",
          "name": "_update",
          "type": "tuple"
        }
      ],
      "name": "updateConfig",
      "outputs": [
        {
          "internalType": "bool",
          "name": "_success",
          "type": "bool"
        }
      ],
      "stateMutability": "nonpayable",
      "type": "function"
    },
    {
      "inputs": [],
      "name": "withdrawVerifier",
      "outputs": [
        {
          "internalType": "contract ICurvyWithdrawVerifier",
          "name": "",
          "type": "address"
        }
      ],
      "stateMutability": "view",
      "type": "function"
    }
  ],
  "bytecode": "0x6080604052348015600e575f5ffd5b50604051611499380380611499833981016040819052602b916063565b5f80546001600160a01b039092166001600160a01b03199283161790556007805482163390811790915560088054909216179055608e565b5f602082840312156072575f5ffd5b81516001600160a01b03811681146087575f5ffd5b9392505050565b6113fe8061009b5f395ff3fe608060405234801561000f575f5ffd5b5060043610610105575f3560e01c8063b974158a1161009e578063c5e3dfd81161006e578063c5e3dfd814610238578063d158dd6d1461024a578063d72084d71461026c578063d826f88f1461027f578063f23a6e611461028d575f5ffd5b8063b974158a146101c2578063bc197c81146101d5578063bfbfb9a914610210578063c415b95c14610225575f5ffd5b80636a085b50116100d95780636a085b501461018157806383b3bac014610194578063864eb1641461019c578063abed7790146101af575f5ffd5b80629259a7146101095780631a82739b14610120578063456aa4f414610143578063570ca73514610156575b5f5ffd5b6003545b6040519081526020015b60405180910390f35b61013361012e366004610c18565b6102ad565b6040519015158152602001610117565b610133610151366004610cba565b6103fb565b600754610169906001600160a01b031681565b6040516001600160a01b039091168152602001610117565b61013361018f366004610d2e565b61068b565b60025461010d565b600654610169906001600160a01b031681565b600554610169906001600160a01b031681565b600454610169906001600160a01b031681565b6101f76101e3366004610e40565b63bc197c8160e01b98975050505050505050565b6040516001600160e01b03199091168152602001610117565b61022361021e366004610eff565b6108a8565b005b600854610169906001600160a01b031681565b5f54610169906001600160a01b031681565b610133610258366004610f7a565b60016020525f908152604090205460ff1681565b61013361027a366004610f91565b610a0b565b6102235f6002819055600355565b6101f761029b36600461101f565b63f23a6e6160e01b9695505050505050565b60a081015160c082015160e08301516101008401516002545f949392919082146102f25760405162461bcd60e51b81526004016102e9906110a6565b60405180910390fd5b83600354146103135760405162461bcd60e51b81526004016102e9906110f7565b600554604051638d15f88f60e01b81526001600160a01b0390911690638d15f88f90610349908c908c908c908c906004016111be565b602060405180830381865afa158015610364573d5f5f3e3d5ffd5b505050506040513d601f19601f82011682018060405250810190610388919061121a565b6103e85760405162461bcd60e51b815260206004820152602b60248201527f437572767941676772656761746f723a20696e76616c6964206167677265676160448201526a74696f6e2070726f6f662160a81b60648201526084016102e9565b6002555060035550600195945050505050565b60035460608201515f91146104225760405162461bcd60e51b81526004016102e9906110f7565b6002546040830151146104475760405162461bcd60e51b81526004016102e9906110a6565b6006546040516379ddb87b60e11b81526001600160a01b039091169063f3bb70f69061047d908890889088908890600401611240565b602060405180830381865afa158015610498573d5f5f3e3d5ffd5b505050506040513d601f19601f820116820180604052508101906104bc919061121a565b6105195760405162461bcd60e51b815260206004820152602860248201527f437572767941676772656761746f723a20696e76616c69642077697468647261604482015267772070726f6f662160c01b60648201526084016102e9565b81516003555f5b6002811015610601575f836105368360046112a4565b600a811061054657610546611092565b602002015190505f8461055a8460066112a4565b600a811061056a5761056a611092565b6020020151905081156105ec575f8054610120870151604080519384526020840190819052637921219560e11b90526001600160a01b039091169163f242432a916105be91309186918890602481016112bd565b5f604051808303815f87803b1580156105d5575f5ffd5b505af11580156105e7573d5f5f3e3d5ffd5b505050505b506105fa90506001826112a4565b9050610520565b505f80546008546101208501516020808701516040805196875291860191829052637921219560e11b9091526001600160a01b039384169463f242432a946106539430949116929091602481016112bd565b5f604051808303815f87803b15801561066a575f5ffd5b505af115801561067c573d5f5f3e3d5ffd5b50600198975050505050505050565b5f805b600281101561073d575f8382600481106106aa576106aa611092565b60200201519050801561072a575f8181526001602052604090205460ff166107145760405162461bcd60e51b815260206004820152601f60248201527f4e6f7465206e6f74207363686564756c656420666f72206465706f736974210060448201526064016102e9565b5f818152600160205260409020805460ff191690555b506107366001826112a4565b905061068e565b5060048261074c60028361131e565b6004811061075c5761075c611092565b6020020151600254146107a65760405162461bcd60e51b8152602060048201526012602482015271125b9d985b1a59081b9bdd195cc81c9bdbdd60721b60448201526064016102e9565b60048054604051635fe8c13b60e01b81526001600160a01b0390911691635fe8c13b916107db918a918a918a918a9101611331565b602060405180830381865afa1580156107f6573d5f5f3e3d5ffd5b505050506040513d601f19601f8201168201806040525081019061081a919061121a565b6108785760405162461bcd60e51b815260206004820152602960248201527f437572767941676772656761746f723a20696e76616c696420696e73657274696044820152686f6e2070726f6f662160b81b60648201526084016102e9565b8261088460018361131e565b6004811061089457610894611092565b602002015160025550600195945050505050565b5f8054602083810151604080860151815195865292850190819052637921219560e11b90526001600160a01b039092169263f242432a926108f292879230929190602481016112bd565b5f604051808303815f87803b158015610909575f5ffd5b505af115801561091b573d5f5f3e3d5ffd5b50506040805160608101825284518152848201516020808301919091528501518183015290516320cf0a3760e01b81525f935073__$9f53ae1556ef22ecff086f9027657e31be$__92506320cf0a379161097791600401611381565b602060405180830381865af4158015610992573d5f5f3e3d5ffd5b505050506040513d601f19601f820116820180604052508101906109b691906113b1565b5f81815260016020818152604092839020805460ff191690921790915590518281529192507f085eb711e9033934898875f6926d3a98c49bae62c73a015160bc22993aae4bee910160405180910390a1505050565b80515f906001600160a01b031615610a3f578151600480546001600160a01b0319166001600160a01b039092169190911790555b60208201516001600160a01b031615610a77576020820151600580546001600160a01b0319166001600160a01b039092169190911790555b60408201516001600160a01b031615610aaf576040820151600680546001600160a01b0319166001600160a01b039092169190911790555b60608201516001600160a01b031615610ae7576060820151600780546001600160a01b0319166001600160a01b039092169190911790555b60808201516001600160a01b031615610b1f576080820151600880546001600160a01b0319166001600160a01b039092169190911790555b506001919050565b634e487b7160e01b5f52604160045260245ffd5b604051601f8201601f1916810167ffffffffffffffff81118282101715610b6457610b64610b27565b604052919050565b5f82601f830112610b7b575f5ffd5b5f610b866040610b3b565b9050806040840185811115610b99575f5ffd5b845b81811015610bb3578035835260209283019201610b9b565b509195945050505050565b5f82601f830112610bcd575f5ffd5b6040610bd881610b3b565b806080850186811115610be9575f5ffd5b855b81811015610c0c57610bfd8882610b6c565b84526020909301928401610beb565b50909695505050505050565b5f5f5f5f6102c08587031215610c2c575f5ffd5b610c368686610b6c565b9350610c458660408701610bbe565b9250610c548660c08701610b6c565b91505f8661011f870112610c66575f5ffd5b505f806101c0610c7581610b3b565b9150508091506102c0870188811115610c8c575f5ffd5b61010088015b81811015610caa578035845260209384019301610c92565b5050809250505092959194509250565b5f5f5f5f6102408587031215610cce575f5ffd5b610cd88686610b6c565b9350610ce78660408701610bbe565b9250610cf68660c08701610b6c565b91505f8661011f870112610d08575f5ffd5b505f80610140610d1781610b3b565b915050809150610240870188811115610c8c575f5ffd5b5f5f5f5f6101808587031215610d42575f5ffd5b610d4c8686610b6c565b9350610d5b8660408701610bbe565b9250610d6a8660c08701610b6c565b91505f8661011f870112610d7c575f5ffd5b505f80610d896080610b3b565b9050809150610180870188811115610c8c575f5ffd5b80356001600160a01b0381168114610db5575f5ffd5b919050565b5f5f83601f840112610dca575f5ffd5b50813567ffffffffffffffff811115610de1575f5ffd5b6020830191508360208260051b8501011115610dfb575f5ffd5b9250929050565b5f5f83601f840112610e12575f5ffd5b50813567ffffffffffffffff811115610e29575f5ffd5b602083019150836020828501011115610dfb575f5ffd5b5f5f5f5f5f5f5f5f60a0898b031215610e57575f5ffd5b610e6089610d9f565b9750610e6e60208a01610d9f565b9650604089013567ffffffffffffffff811115610e89575f5ffd5b610e958b828c01610dba565b909750955050606089013567ffffffffffffffff811115610eb4575f5ffd5b610ec08b828c01610dba565b909550935050608089013567ffffffffffffffff811115610edf575f5ffd5b610eeb8b828c01610e02565b999c989b5096995094979396929594505050565b5f5f8284036080811215610f11575f5ffd5b610f1a84610d9f565b92506060601f1982011215610f2d575f5ffd5b506040516060810167ffffffffffffffff81118282101715610f5157610f51610b27565b604090815260208581013583528582013590830152606090940135938101939093525092909150565b5f60208284031215610f8a575f5ffd5b5035919050565b5f60a0828403128015610fa2575f5ffd5b5060405160a0810167ffffffffffffffff81118282101715610fc657610fc6610b27565b604052610fd283610d9f565b8152610fe060208401610d9f565b6020820152610ff160408401610d9f565b604082015261100260608401610d9f565b606082015261101360808401610d9f565b60808201529392505050565b5f5f5f5f5f5f60a08789031215611034575f5ffd5b61103d87610d9f565b955061104b60208801610d9f565b94506040870135935060608701359250608087013567ffffffffffffffff811115611074575f5ffd5b61108089828a01610e02565b979a9699509497509295939492505050565b634e487b7160e01b5f52603260045260245ffd5b60208082526031908201527f437572767941676772656761746f723a2063757272656e74206e6f7465207472604082015270656520726f6f74206d69736d617463682160781b606082015260800190565b60208082526036908201527f437572767941676772656761746f723a2063757272656e74206e756c6c6966696040820152756572207472656520726f6f74206d69736d617463682160501b606082015260800190565b805f5b600281101561116f578151845260209384019390910190600101611150565b50505050565b805f5b600281101561116f578151845f5b60028110156111a5578251825260209283019290910190600101611186565b5050506040939093019260209190910190600101611178565b6102c081016111cd828761114d565b6111da6040830186611175565b6111e760c083018561114d565b6101008201835f5b600e81101561120e5781518352602092830192909101906001016111ef565b50505095945050505050565b5f6020828403121561122a575f5ffd5b81518015158114611239575f5ffd5b9392505050565b610240810161124f828761114d565b61125c6040830186611175565b61126960c083018561114d565b6101008201835f5b600a81101561120e578151835260209283019290910190600101611271565b634e487b7160e01b5f52601160045260245ffd5b808201808211156112b7576112b7611290565b92915050565b60018060a01b038616815260018060a01b038516602082015283604082015282606082015260a060808201525f82518060a0840152806020850160c085015e5f60c0828501015260c0601f19601f8301168401019150509695505050505050565b818103818111156112b7576112b7611290565b6101808101611340828761114d565b61134d6040830186611175565b61135a60c083018561114d565b6101008201835f5b600481101561120e578151835260209283019290910190600101611362565b6060810181835f5b60038110156113a8578151835260209283019290910190600101611389565b50505092915050565b5f602082840312156113c1575f5ffd5b505191905056fea26469706673582212209e4d6b5c3e5d0b4e4a0a030c0d67d54dd7316bfb274a31dc5fc65505ec24e49464736f6c634300081c0033",
  "linkReferences": {
    "project/contracts/aggregator/utils/PoseidonT4.sol": {
      "PoseidonT4": [
        {
          "length": 20,
          "start": 2539
        }
      ]
    }
  },
  "deployedLinkReferences": {
    "project/contracts/aggregator/utils/PoseidonT4.sol": {
      "PoseidonT4": [
        {
          "length": 20,
          "start": 2384
        }
      ]
    }
  },
  "immutableReferences": {},
  "inputSourceName": "project/contracts/aggregator/CurvyAggregator.sol",
  "buildInfoId": "solc-0_8_28-d9ead4d458ee5698348c717ffd1f11807d3a6944"
}