{
  "_format": "hh3-artifact-1",
  "contractName": "MetaERC20Wrapper",
  "sourceName": "contracts/wrapper/MetaERC20Wrapper.sol",
  "abi": [
    {
      "inputs": [],
      "stateMutability": "nonpayable",
      "type": "constructor"
    },
    {
      "anonymous": false,
      "inputs": [
        {
          "indexed": true,
          "internalType": "address",
          "name": "_owner",
          "type": "address"
        },
        {
          "indexed": true,
          "internalType": "address",
          "name": "_operator",
          "type": "address"
        },
        {
          "indexed": false,
          "internalType": "bool",
          "name": "_approved",
          "type": "bool"
        }
      ],
      "name": "ApprovalForAll",
      "type": "event"
    },
    {
      "anonymous": false,
      "inputs": [
        {
          "indexed": true,
          "internalType": "address",
          "name": "signer",
          "type": "address"
        },
        {
          "indexed": false,
          "internalType": "uint256",
          "name": "newNonce",
          "type": "uint256"
        }
      ],
      "name": "NonceChange",
      "type": "event"
    },
    {
      "anonymous": false,
      "inputs": [
        {
          "indexed": false,
          "internalType": "address",
          "name": "token_address",
          "type": "address"
        },
        {
          "indexed": false,
          "internalType": "uint256",
          "name": "token_id",
          "type": "uint256"
        }
      ],
      "name": "TokenRegistration",
      "type": "event"
    },
    {
      "anonymous": false,
      "inputs": [
        {
          "indexed": true,
          "internalType": "address",
          "name": "_operator",
          "type": "address"
        },
        {
          "indexed": true,
          "internalType": "address",
          "name": "_from",
          "type": "address"
        },
        {
          "indexed": true,
          "internalType": "address",
          "name": "_to",
          "type": "address"
        },
        {
          "indexed": false,
          "internalType": "uint256[]",
          "name": "_ids",
          "type": "uint256[]"
        },
        {
          "indexed": false,
          "internalType": "uint256[]",
          "name": "_amounts",
          "type": "uint256[]"
        }
      ],
      "name": "TransferBatch",
      "type": "event"
    },
    {
      "anonymous": false,
      "inputs": [
        {
          "indexed": true,
          "internalType": "address",
          "name": "_operator",
          "type": "address"
        },
        {
          "indexed": true,
          "internalType": "address",
          "name": "_from",
          "type": "address"
        },
        {
          "indexed": true,
          "internalType": "address",
          "name": "_to",
          "type": "address"
        },
        {
          "indexed": false,
          "internalType": "uint256",
          "name": "_id",
          "type": "uint256"
        },
        {
          "indexed": false,
          "internalType": "uint256",
          "name": "_amount",
          "type": "uint256"
        }
      ],
      "name": "TransferSingle",
      "type": "event"
    },
    {
      "inputs": [],
      "name": "Operator",
      "outputs": [
        {
          "internalType": "address",
          "name": "",
          "type": "address"
        }
      ],
      "stateMutability": "view",
      "type": "function"
    },
    {
      "inputs": [
        {
          "internalType": "address",
          "name": "_owner",
          "type": "address"
        },
        {
          "internalType": "uint256",
          "name": "_id",
          "type": "uint256"
        }
      ],
      "name": "balanceOf",
      "outputs": [
        {
          "internalType": "uint256",
          "name": "",
          "type": "uint256"
        }
      ],
      "stateMutability": "view",
      "type": "function"
    },
    {
      "inputs": [
        {
          "internalType": "address[]",
          "name": "_owners",
          "type": "address[]"
        },
        {
          "internalType": "uint256[]",
          "name": "_ids",
          "type": "uint256[]"
        }
      ],
      "name": "balanceOfBatch",
      "outputs": [
        {
          "internalType": "uint256[]",
          "name": "",
          "type": "uint256[]"
        }
      ],
      "stateMutability": "view",
      "type": "function"
    },
    {
      "inputs": [
        {
          "internalType": "address",
          "name": "_token",
          "type": "address"
        },
        {
          "internalType": "address",
          "name": "_recipient",
          "type": "address"
        },
        {
          "internalType": "uint256",
          "name": "_value",
          "type": "uint256"
        }
      ],
      "name": "deposit",
      "outputs": [],
      "stateMutability": "payable",
      "type": "function"
    },
    {
      "inputs": [
        {
          "internalType": "uint256",
          "name": "_id",
          "type": "uint256"
        }
      ],
      "name": "getIdAddress",
      "outputs": [
        {
          "internalType": "address",
          "name": "token",
          "type": "address"
        }
      ],
      "stateMutability": "view",
      "type": "function"
    },
    {
      "inputs": [],
      "name": "getNTokens",
      "outputs": [
        {
          "internalType": "uint256",
          "name": "",
          "type": "uint256"
        }
      ],
      "stateMutability": "view",
      "type": "function"
    },
    {
      "inputs": [
        {
          "internalType": "address",
          "name": "_signer",
          "type": "address"
        }
      ],
      "name": "getNonce",
      "outputs": [
        {
          "internalType": "uint256",
          "name": "nonce",
          "type": "uint256"
        }
      ],
      "stateMutability": "view",
      "type": "function"
    },
    {
      "inputs": [
        {
          "internalType": "address",
          "name": "_token",
          "type": "address"
        }
      ],
      "name": "getTokenID",
      "outputs": [
        {
          "internalType": "uint256",
          "name": "tokenID",
          "type": "uint256"
        }
      ],
      "stateMutability": "view",
      "type": "function"
    },
    {
      "inputs": [
        {
          "internalType": "address",
          "name": "_owner",
          "type": "address"
        },
        {
          "internalType": "address",
          "name": "_operator",
          "type": "address"
        }
      ],
      "name": "isApprovedForAll",
      "outputs": [
        {
          "internalType": "bool",
          "name": "isOperator",
          "type": "bool"
        }
      ],
      "stateMutability": "view",
      "type": "function"
    },
    {
      "inputs": [
        {
          "internalType": "address",
          "name": "_signerAddress",
          "type": "address"
        },
        {
          "internalType": "bytes32",
          "name": "_hash",
          "type": "bytes32"
        },
        {
          "internalType": "bytes",
          "name": "_data",
          "type": "bytes"
        },
        {
          "internalType": "bytes",
          "name": "_sig",
          "type": "bytes"
        }
      ],
      "name": "isValidSignature",
      "outputs": [
        {
          "internalType": "bool",
          "name": "isValid",
          "type": "bool"
        }
      ],
      "stateMutability": "view",
      "type": "function"
    },
    {
      "inputs": [
        {
          "internalType": "address",
          "name": "_from",
          "type": "address"
        },
        {
          "internalType": "address",
          "name": "_to",
          "type": "address"
        },
        {
          "internalType": "uint256[]",
          "name": "_ids",
          "type": "uint256[]"
        },
        {
          "internalType": "uint256[]",
          "name": "_amounts",
          "type": "uint256[]"
        },
        {
          "internalType": "bool",
          "name": "_isGasFee",
          "type": "bool"
        },
        {
          "internalType": "bytes",
          "name": "_data",
          "type": "bytes"
        }
      ],
      "name": "metaSafeBatchTransferFrom",
      "outputs": [],
      "stateMutability": "nonpayable",
      "type": "function"
    },
    {
      "inputs": [
        {
          "internalType": "address",
          "name": "_from",
          "type": "address"
        },
        {
          "internalType": "address",
          "name": "_to",
          "type": "address"
        },
        {
          "internalType": "uint256",
          "name": "_id",
          "type": "uint256"
        },
        {
          "internalType": "uint256",
          "name": "_amount",
          "type": "uint256"
        },
        {
          "internalType": "bool",
          "name": "_isGasFee",
          "type": "bool"
        },
        {
          "internalType": "bytes",
          "name": "_data",
          "type": "bytes"
        }
      ],
      "name": "metaSafeTransferFrom",
      "outputs": [],
      "stateMutability": "nonpayable",
      "type": "function"
    },
    {
      "inputs": [
        {
          "internalType": "address",
          "name": "_owner",
          "type": "address"
        },
        {
          "internalType": "address",
          "name": "_operator",
          "type": "address"
        },
        {
          "internalType": "bool",
          "name": "_approved",
          "type": "bool"
        },
        {
          "internalType": "bool",
          "name": "_isGasFee",
          "type": "bool"
        },
        {
          "internalType": "bytes",
          "name": "_data",
          "type": "bytes"
        }
      ],
      "name": "metaSetApprovalForAll",
      "outputs": [],
      "stateMutability": "nonpayable",
      "type": "function"
    },
    {
      "inputs": [
        {
          "internalType": "address",
          "name": "_from",
          "type": "address"
        },
        {
          "internalType": "address payable",
          "name": "_to",
          "type": "address"
        },
        {
          "internalType": "uint256",
          "name": "_id",
          "type": "uint256"
        },
        {
          "internalType": "uint256",
          "name": "_amount",
          "type": "uint256"
        },
        {
          "internalType": "bool",
          "name": "_isGasFee",
          "type": "bool"
        },
        {
          "internalType": "bytes",
          "name": "_data",
          "type": "bytes"
        }
      ],
      "name": "metaWithdraw",
      "outputs": [],
      "stateMutability": "nonpayable",
      "type": "function"
    },
    {
      "inputs": [
        {
          "internalType": "address",
          "name": "",
          "type": "address"
        },
        {
          "internalType": "address payable",
          "name": "_from",
          "type": "address"
        },
        {
          "internalType": "uint256[]",
          "name": "_ids",
          "type": "uint256[]"
        },
        {
          "internalType": "uint256[]",
          "name": "_values",
          "type": "uint256[]"
        },
        {
          "internalType": "bytes",
          "name": "",
          "type": "bytes"
        }
      ],
      "name": "onERC1155BatchReceived",
      "outputs": [
        {
          "internalType": "bytes4",
          "name": "",
          "type": "bytes4"
        }
      ],
      "stateMutability": "nonpayable",
      "type": "function"
    },
    {
      "inputs": [
        {
          "internalType": "address",
          "name": "",
          "type": "address"
        },
        {
          "internalType": "address payable",
          "name": "_from",
          "type": "address"
        },
        {
          "internalType": "uint256",
          "name": "_id",
          "type": "uint256"
        },
        {
          "internalType": "uint256",
          "name": "_value",
          "type": "uint256"
        },
        {
          "internalType": "bytes",
          "name": "",
          "type": "bytes"
        }
      ],
      "name": "onERC1155Received",
      "outputs": [
        {
          "internalType": "bytes4",
          "name": "",
          "type": "bytes4"
        }
      ],
      "stateMutability": "nonpayable",
      "type": "function"
    },
    {
      "inputs": [
        {
          "internalType": "address",
          "name": "_token",
          "type": "address"
        }
      ],
      "name": "registerToken",
      "outputs": [],
      "stateMutability": "nonpayable",
      "type": "function"
    },
    {
      "inputs": [
        {
          "internalType": "address",
          "name": "_from",
          "type": "address"
        },
        {
          "internalType": "address",
          "name": "_to",
          "type": "address"
        },
        {
          "internalType": "uint256[]",
          "name": "_ids",
          "type": "uint256[]"
        },
        {
          "internalType": "uint256[]",
          "name": "_amounts",
          "type": "uint256[]"
        },
        {
          "internalType": "bytes",
          "name": "_data",
          "type": "bytes"
        }
      ],
      "name": "safeBatchTransferFrom",
      "outputs": [],
      "stateMutability": "nonpayable",
      "type": "function"
    },
    {
      "inputs": [
        {
          "internalType": "address",
          "name": "_from",
          "type": "address"
        },
        {
          "internalType": "address",
          "name": "_to",
          "type": "address"
        },
        {
          "internalType": "uint256",
          "name": "_id",
          "type": "uint256"
        },
        {
          "internalType": "uint256",
          "name": "_amount",
          "type": "uint256"
        },
        {
          "internalType": "bytes",
          "name": "_data",
          "type": "bytes"
        }
      ],
      "name": "safeTransferFrom",
      "outputs": [],
      "stateMutability": "nonpayable",
      "type": "function"
    },
    {
      "inputs": [
        {
          "internalType": "address",
          "name": "_operator",
          "type": "address"
        },
        {
          "internalType": "bool",
          "name": "_approved",
          "type": "bool"
        }
      ],
      "name": "setApprovalForAll",
      "outputs": [],
      "stateMutability": "nonpayable",
      "type": "function"
    },
    {
      "inputs": [
        {
          "internalType": "bytes4",
          "name": "interfaceID",
          "type": "bytes4"
        }
      ],
      "name": "supportsInterface",
      "outputs": [
        {
          "internalType": "bool",
          "name": "",
          "type": "bool"
        }
      ],
      "stateMutability": "view",
      "type": "function"
    },
    {
      "stateMutability": "payable",
      "type": "receive"
    }
  ],
  "bytecode": "0x60a06040526001600355348015610014575f5ffd5b5033806100735760405162461bcd60e51b815260206004820152602360248201527f4f70657261746f722063616e6e6f7420626520746865207a65726f206164647260448201526265737360e81b606482015260840160405180910390fd5b6001600160a01b031660805260017ff0f2fe64297d6f5ba18daddd165143adda9d1be31e3172fbca589ee2e039f82b8190555f5260056020527f1471eb6eb2c5e789fc3de43f8ce62938c7d1836ec861730447e2ada8fd81017b80546001600160a01b03191673eeeeeeeeeeeeeeeeeeeeeeeeeeeeeeeeeeeeeeee1790556080516134ca61012c5f395f8181610236015281816107cc0152818161093001528181610e35015281816110ed015261137301526134ca5ff3fe608060405260043610610128575f3560e01c80638340f549116100a8578063ce0b514b1161006d578063ce0b514b14610396578063e985e9c5146103b5578063f23a6e61146103d4578063f242432a146103f3578063f5d4c82014610412578063fa4e12d714610431575f5ffd5b80638340f549146102f95780639040a9491461030c578063a22cb46514610320578063a3d4926e1461033f578063bc197c811461035e575f5ffd5b80632dd07fbc116100ee5780632dd07fbc146102255780632eb2c2d6146102705780634e1273f41461028f57806363f8071c146102bb5780637358e9a5146102da575f5ffd5b8062fdd58e1461015257806301ffc9a71461018457806309824a80146101b3578063236816b8146101d25780632d0335ab146101f1575f5ffd5b3661014e5761014c73eeeeeeeeeeeeeeeeeeeeeeeeeeeeeeeeeeeeeeee3334610450565b005b5f5ffd5b34801561015d575f5ffd5b5061017161016c366004612849565b610749565b6040519081526020015b60405180910390f35b34801561018f575f5ffd5b506101a361019e366004612888565b610771565b604051901515815260200161017b565b3480156101be575f5ffd5b5061014c6101cd3660046128a3565b6107c1565b3480156101dd575f5ffd5b5061014c6101ec366004612987565b610925565b3480156101fc575f5ffd5b5061017161020b3660046128a3565b6001600160a01b03165f9081526002602052604090205490565b348015610230575f5ffd5b506102587f000000000000000000000000000000000000000000000000000000000000000081565b6040516001600160a01b03909116815260200161017b565b34801561027b575f5ffd5b5061014c61028a366004612a8f565b610a62565b34801561029a575f5ffd5b506102ae6102a9366004612b3f565b610b72565b60405161017b9190612c3c565b3480156102c6575f5ffd5b506101716102d53660046128a3565b610cbc565b3480156102e5575f5ffd5b506102586102f4366004612c4e565b610d41565b61014c610307366004612c65565b610450565b348015610317575f5ffd5b50600354610171565b34801561032b575f5ffd5b5061014c61033a366004612ca3565b610dbf565b34801561034a575f5ffd5b5061014c610359366004612cda565b610e2a565b348015610369575f5ffd5b5061037d610378366004612a8f565b610fdb565b6040516001600160e01b0319909116815260200161017b565b3480156103a1575f5ffd5b5061014c6103b0366004612987565b6110e2565b3480156103c0575f5ffd5b506101a36103cf366004612d68565b61119e565b3480156103df575f5ffd5b5061037d6103ee366004612d94565b6111cb565b3480156103fe575f5ffd5b5061014c61040d366004612d94565b611269565b34801561041d575f5ffd5b5061014c61042c366004612deb565b611368565b34801561043c575f5ffd5b506101a361044b366004612e54565b6114ca565b6001600160a01b0382166104bf5760405162461bcd60e51b815260206004820152602b60248201527f4d657461455243323057726170706572236465706f7369743a20494e56414c4960448201526a1117d49150d2541251539560aa1b60648201526084015b60405180910390fd5b5f6001600160a01b03841673eeeeeeeeeeeeeeeeeeeeeeeeeeeeeeeeeeeeeeee146106c05734156105475760405162461bcd60e51b815260206004820152602c60248201527f4d657461455243323057726170706572236465706f7369743a204e4f4e5f4e5560448201526b4c4c5f4d53475f56414c554560a01b60648201526084016104b6565b6040516323b872dd60e01b8152336004820152306024820152604481018390526001600160a01b038516906323b872dd906064016020604051808303815f875af1158015610597573d5f5f3e3d5ffd5b505050506040513d601f19601f820116820180604052508101906105bb9190612ed2565b506105c461198f565b6106225760405162461bcd60e51b815260206004820152602960248201527f4d657461455243323057726170706572236465706f7369743a205452414e5346604482015268115497d1905253115160ba1b60648201526084016104b6565b6001600160a01b0384165f9081526004602052604081205490036106a25760405162461bcd60e51b815260206004820152603160248201527f4d657461455243323057726170706572236465706f7369743a20544f4b454e5f6044820152701254d7d393d517d49151d254d511549151607a1b60648201526084016104b6565b506001600160a01b0383165f90815260046020526040902054610729565b3482146107255760405162461bcd60e51b815260206004820152602d60248201527f4d657461455243323057726170706572236465706f7369743a20494e434f525260448201526c4543545f4d53475f56414c554560981b60648201526084016104b6565b5060015b61074383828460405180602001604052805f8152506119c0565b50505050565b6001600160a01b0382165f908152602081815260408083208484529091529020545b92915050565b5f6001600160e01b031982166301ffc9a760e01b14806107a157506001600160e01b03198216636cdb3d1360e11b145b8061076b57506001600160e01b03198216630271189760e51b1492915050565b326001600160a01b037f000000000000000000000000000000000000000000000000000000000000000016146108095760405162461bcd60e51b81526004016104b690612eed565b6001600160a01b0381165f90815260046020526040902054156108945760405162461bcd60e51b815260206004820152603860248201527f4d657461455243323057726170706572237265676973746572546f6b656e3a2060448201527f544f4b454e5f414c52454144595f52454749535445524544000000000000000060648201526084016104b6565b600160035f8282546108a69190612f38565b9091555050600380545f90815260056020908152604080832080546001600160a01b0319166001600160a01b038716908117909155935484845260048352928190208390558051938452908301919091527ff977d54986414fc91816901629d1d788ad95448ab4198dcb9b6dc5ed2b930c1f910160405180910390a150565b326001600160a01b037f0000000000000000000000000000000000000000000000000000000000000000161461096d5760405162461bcd60e51b81526004016104b690612eed565b6001600160a01b0385166109935760405162461bcd60e51b81526004016104b690612f4b565b606061099d612804565b5f610a2189857fce0b514b3931bdbe4d5d44e4f035afe7113767b7db71949271f6a62d9c60f558828c8c8c8c6109d3575f6109d6565b60015b6040805160208101979097526001600160a01b0395861690870152939092166060850152608084015260a083015260c082015260e0015b604051602081830303815290604052611a4b565b9050610a2f89898989611c53565b8415610a575780806020019051810190610a499190613077565b93509150610a578983611ded565b505050505050505050565b336001600160a01b0386161480610a7e5750610a7e853361119e565b610ae25760405162461bcd60e51b815260206004820152602f60248201527f45524331313535237361666542617463685472616e7366657246726f6d3a204960448201526e272b20a624a22fa7a822a920aa27a960891b60648201526084016104b6565b6001600160a01b038416610b515760405162461bcd60e51b815260206004820152603060248201527f45524331313535237361666542617463685472616e7366657246726f6d3a204960448201526f13959053125117d49150d2541251539560821b60648201526084016104b6565b610b5d8585858561209e565b610b6b858585855a86612270565b5050505050565b60608151835114610bda5760405162461bcd60e51b815260206004820152602c60248201527f455243313135352362616c616e63654f6642617463683a20494e56414c49445f60448201526b082a4a482b2be988a9c8ea8960a31b60648201526084016104b6565b5f83516001600160401b03811115610bf457610bf46128cb565b604051908082528060200260200182016040528015610c1d578160200160208202803683370190505b5090505f5b8451811015610cb4575f5f868381518110610c3f57610c3f6130d0565b60200260200101516001600160a01b03166001600160a01b031681526020019081526020015f205f858381518110610c7957610c796130d0565b602002602001015181526020019081526020015f2054828281518110610ca157610ca16130d0565b6020908102919091010152600101610c22565b509392505050565b6001600160a01b0381165f9081526004602052604081205490819003610d3c5760405162461bcd60e51b815260206004820152602f60248201527f4d65746145524332305772617070657223676574546f6b656e49443a20554e5260448201526e22a3a4a9aa22a922a22faa27a5a2a760891b60648201526084016104b6565b919050565b5f818152600560205260409020546001600160a01b031680610d3c5760405162461bcd60e51b815260206004820152603160248201527f4d657461455243323057726170706572236765744964416464726573733a2055604482015270272922a3a4a9aa22a922a22faa27a5a2a760791b60648201526084016104b6565b335f8181526001602090815260408083206001600160a01b03871680855290835292819020805460ff191686151590811790915590519081529192917f17307eab39ab6107e8899845ad3d59bd9653f200f220920489ca2b5937696c31910160405180910390a35050565b326001600160a01b037f00000000000000000000000000000000000000000000000000000000000000001614610e725760405162461bcd60e51b81526004016104b690612eed565b6001600160a01b038516610eee5760405162461bcd60e51b815260206004820152603860248201527f455243313135354d657461236d6574615361666542617463685472616e73666560448201527f7246726f6d3a20494e56414c49445f524543495049454e54000000000000000060648201526084016104b6565b6060610ef8612804565b5f610f7c89857fa3d4926e8cf8fe8e020cd29f514c256bc2eec62aa2337e415f1a33a4828af5a05f1b8c8c8c604051602001610f3491906130e4565b604051602081830303815290604052805190602001208c604051602001610f5b91906130e4565b604051602081830303815290604052805190602001208c6109d3575f6109d6565b9050610f8a8989898961209e565b8415610fcd5780806020019051810190610fa49190613077565b8094508193505050610fbe89898989866020015188612270565b610fc88983611ded565b610a57565b610a57898989895a86612270565b5f33301461105b5760405162461bcd60e51b815260206004820152604160248201527f4d657461455243323057726170706572236f6e4552433131353542617463685260448201527f656365697665643a20494e56414c49445f455243313135355f524543454956456064820152601160fa1b608482015260a4016104b6565b5f5b84518110156110cf5761108885828151811061107b5761107b6130d0565b6020026020010151610d41565b506110c730878784815181106110a0576110a06130d0565b60200260200101518785815181106110ba576110ba6130d0565b6020026020010151611c53565b60010161105d565b5063bc197c8160e01b9695505050505050565b326001600160a01b037f0000000000000000000000000000000000000000000000000000000000000000161461112a5760405162461bcd60e51b81526004016104b690612eed565b6001600160a01b0385166111505760405162461bcd60e51b81526004016104b690612f4b565b606061115a612804565b5f61119089857fce0b514b3931bdbe4d5d44e4f035afe7113767b7db71949271f6a62d9c60f558828c8c8c8c6109d3575f6109d6565b9050610a2f89898989612386565b6001600160a01b039182165f90815260016020908152604080832093909416825291909152205460ff1690565b5f3330146112415760405162461bcd60e51b815260206004820152603c60248201527f4d657461455243323057726170706572236f6e4552433131353552656365697660448201527f65643a20494e56414c49445f455243313135355f52454345495645440000000060648201526084016104b6565b61124a84610d41565b5061125730868686611c53565b5063f23a6e6160e01b95945050505050565b336001600160a01b03861614806112855750611285853361119e565b6112e45760405162461bcd60e51b815260206004820152602a60248201527f4552433131353523736166655472616e7366657246726f6d3a20494e56414c49604482015269222fa7a822a920aa27a960b11b60648201526084016104b6565b6001600160a01b03841661134e5760405162461bcd60e51b815260206004820152602b60248201527f4552433131353523736166655472616e7366657246726f6d3a20494e56414c4960448201526a1117d49150d2541251539560aa1b60648201526084016104b6565b61135a85858585612386565b610b6b858585855a86612441565b326001600160a01b037f000000000000000000000000000000000000000000000000000000000000000016146113b05760405162461bcd60e51b81526004016104b690612eed565b5f61142b86837ff5d4c820494c8595de274c7ff619bead38aac4fbc3d143b5bf956aa4b84fa5248289896113e4575f6113e7565b60015b896113f2575f6113f5565b60015b6040805160208101969096526001600160a01b0394851690860152929091166060840152608083015260a082015260c001610a0d565b6001600160a01b038781165f818152600160209081526040808320948b1680845294825291829020805460ff19168a15159081179091559151918252939450919290917f17307eab39ab6107e8899845ad3d59bd9653f200f220920489ca2b5937696c31910160405180910390a382156114c2575f818060200190518101906114b49190613119565b90506114c08782611ded565b505b505050505050565b5f5f82511161153a5760405162461bcd60e51b815260206004820152604360248201525f5160206134755f395f51905f5260448201527f7572653a204c454e4754485f475245415445525f5448414e5f305f524551554960648201526214915160ea1b608482015260a4016104b6565b6001600160a01b0385166115995760405162461bcd60e51b815260206004820152603360248201525f5160206134755f395f51905f526044820152723ab9329d1024a72b20a624a22fa9a4a3a722a960691b60648201526084016104b6565b5f6115a383612557565b60f81c9050600581106115c85760405162461bcd60e51b81526004016104b69061315e565b5f8160ff1660058111156115de576115de61314a565b90505f808080808560058111156115f7576115f761314a565b036116505760405162461bcd60e51b815260206004820152603660248201525f5160206134755f395f51905f526044820152757572653a20494c4c4547414c5f5349474e415455524560501b60648201526084016104b6565b60018560058111156116645761166461314a565b0361173757875160611461168a5760405162461bcd60e51b81526004016104b6906131a8565b611694885f612608565b92506116a1886020612608565b9150876040815181106116b6576116b66130d0565b01602090810151604080515f81529283018082528d905260f89190911c9082018190526060820185905260808201849052945060019060a0015b6020604051602081039080840390855afa158015611710573d5f5f3e3d5ffd5b5050604051601f1901516001600160a01b038d811691161497506119879650505050505050565b600285600581111561174b5761174b61314a565b036118215787516061146117715760405162461bcd60e51b81526004016104b6906131a8565b61177b885f612608565b9250611788886020612608565b91508760408151811061179d5761179d6130d0565b016020908101516040517f19457468657265756d205369676e6564204d6573736167653a0a33320000000092810192909252603c82018c905260f81c9450600190605c0160408051601f1981840301815282825280516020918201205f84529083018083525260ff871690820152606081018590526080810184905260a0016116f0565b60038560058111156118355761183561314a565b036118c8576040516320c13b0b60e01b81526001600160a01b038c16906320c13b0b90611868908c908c90600401613220565b602060405180830381865afa158015611883573d5f5f3e3d5ffd5b505050506040513d601f19601f820116820180604052508101906118a7919061324d565b6001600160e01b0319166320c13b0b60e01b14965061198795505050505050565b60048560058111156118dc576118dc61314a565b0361196f57604051630b135d3f60e11b81526001600160a01b038c1690631626ba7e9061190f908d908c90600401613268565b602060405180830381865afa15801561192a573d5f5f3e3d5ffd5b505050506040513d601f19601f8201168201806040525081019061194e919061324d565b6001600160e01b031916630b135d3f60e11b14965061198795505050505050565b60405162461bcd60e51b81526004016104b69061315e565b949350505050565b5f803d80156119a557602081146119ae576119b8565b600191506119b8565b60205f5f3e5f5191505b501515919050565b6001600160a01b0384165f90815260208181526040808320868452909152812080548492906119f0908490612f38565b909155505060408051848152602081018490526001600160a01b038616915f9133917fc3d58168c5ae7397731d063d5bbf3d657854427343f4c083240f7aacaa2d0f62910160405180910390a46107435f8585855a86612441565b60608083806020019051810190611a629190613280565b6001600160a01b0387165f9081526002602052604081205491945091925090611a8c836041612608565b9050818110801590611aa75750611aa4826064612f38565b81105b611b0b5760405162461bcd60e51b815260206004820152602f60248201527f455243313135354d657461235f7369676e617475726556616c69646174696f6e60448201526e3a20494e56414c49445f4e4f4e434560881b60648201526084016104b6565b5f611b4686838780519060200120604051602001611b2b939291906132c9565b604051602081830303815290604052805190602001206126a0565b90505f868387604051602001611b5e939291906132e6565b60408051601f198184030181529190529050611b7b836001612f38565b6001600160a01b038a165f818152600260205260409020919091557fb861b7bdbe611a846ab271b8d2810391bc8b5a968f390c322438ecab66bccf59611bc2856001612f38565b60405190815260200160405180910390a2611bdf898383886114ca565b611c475760405162461bcd60e51b815260206004820152603360248201527f455243313135354d657461235f7369676e617475726556616c69646174696f6e6044820152723a20494e56414c49445f5349474e415455524560681b60648201526084016104b6565b50505050509392505050565b611c5e848383612749565b60018214611d13575f828152600560205260409081902054905163a9059cbb60e01b81526001600160a01b0385811660048301526024820184905290911690819063a9059cbb906044016020604051808303815f875af1158015611cc4573d5f5f3e3d5ffd5b505050506040513d601f19601f82011682018060405250810190611ce89190612ed2565b50611cf161198f565b611d0d5760405162461bcd60e51b81526004016104b69061330b565b50610743565b6001600160a01b038316611d7e5760405162461bcd60e51b815260206004820152602c60248201527f4d6574614552433230577261707065722377697468647261773a20494e56414c60448201526b125117d49150d2541251539560a21b60648201526084016104b6565b5f836001600160a01b0316826040515f6040518083038185875af1925050503d805f8114611dc7576040519150601f19603f3d011682016040523d82523d5f602084013e611dcc565b606091505b5050905080610b6b5760405162461bcd60e51b81526004016104b69061330b565b5f611dfb8260600151612557565b60f81c905060028110611e675760405162461bcd60e51b815260206004820152602e60248201527f455243313135354d657461235f7472616e736665724761734665653a20554e5360448201526d2aa82827a92a22a22faa27a5a2a760911b60648201526084016104b6565b5f8160ff166002811115611e7d57611e7d61314a565b835160408501519192505f91829182916001600160a01b031615611ea5578660400151611ea7565b335b92505f856002811115611ebc57611ebc61314a565b03611f99578660600151806020019051810190611ed99190613355565b9094509150306001600160a01b03851603611f1b57611efa88848484612386565b611f168884845a8560405180602001604052805f815250612441565b612094565b604051637921219560e11b81526001600160a01b0389811660048301528481166024830152604482018490526064820183905260a060848301525f60a483015285169063f242432a9060c4015f604051808303815f87803b158015611f7e575f5ffd5b505af1158015611f90573d5f5f3e3d5ffd5b50505050612094565b8660600151806020019051810190611fb19190613381565b6040516323b872dd60e01b81526001600160a01b038a81166004830152858116602483015260448201849052919550908516906323b872dd906064016020604051808303815f875af1158015612009573d5f5f3e3d5ffd5b505050506040513d601f19601f8201168201806040525081019061202d9190612ed2565b6120945760405162461bcd60e51b815260206004820152603260248201527f455243313135354d657461235f7472616e736665724761734665653a204552436044820152710c8c17d514905394d1915497d1905253115160721b60648201526084016104b6565b5050505050505050565b805182511461210d5760405162461bcd60e51b815260206004820152603560248201527f45524331313535235f7361666542617463685472616e7366657246726f6d3a206044820152740929cac82989288be82a4a482b2a6be988a9c8ea89605b1b60648201526084016104b6565b81515f5b818110156122115782818151811061212b5761212b6130d0565b60200260200101515f5f886001600160a01b03166001600160a01b031681526020019081526020015f205f868481518110612168576121686130d0565b602002602001015181526020019081526020015f205f82825461218b919061339c565b925050819055508281815181106121a4576121a46130d0565b60200260200101515f5f876001600160a01b03166001600160a01b031681526020019081526020015f205f8684815181106121e1576121e16130d0565b602002602001015181526020019081526020015f205f8282546122049190612f38565b9091555050600101612111565b50836001600160a01b0316856001600160a01b0316336001600160a01b03167f4a39dc06d4c0dbc64b70af90fd698a233a518aa5d07e595d983b8c0526c8f7fb86866040516122619291906133af565b60405180910390a45050505050565b612282856001600160a01b03166127cb565b156114c2575f856001600160a01b031663bc197c8184338a8989886040518763ffffffff1660e01b81526004016122bd9594939291906133d3565b6020604051808303815f8887f11580156122d9573d5f5f3e3d5ffd5b50505050506040513d601f19601f820116820180604052508101906122fe919061324d565b90506001600160e01b0319811663bc197c8160e01b146114c05760405162461bcd60e51b815260206004820152603f60248201527f45524331313535235f63616c6c6f6e455243313135354261746368526563656960448201527f7665643a20494e56414c49445f4f4e5f524543454956455f4d4553534147450060648201526084016104b6565b6001600160a01b0384165f90815260208181526040808320858452909152812080548392906123b690849061339c565b90915550506001600160a01b0383165f90815260208181526040808320858452909152812080548392906123eb908490612f38565b909155505060408051838152602081018390526001600160a01b03808616929087169133917fc3d58168c5ae7397731d063d5bbf3d657854427343f4c083240f7aacaa2d0f62910160405180910390a450505050565b612453856001600160a01b03166127cb565b156114c2575f856001600160a01b031663f23a6e6184338a8989886040518763ffffffff1660e01b815260040161248e959493929190613430565b6020604051808303815f8887f11580156124aa573d5f5f3e3d5ffd5b50505050506040513d601f19601f820116820180604052508101906124cf919061324d565b90506001600160e01b0319811663f23a6e6160e01b146114c05760405162461bcd60e51b815260206004820152603a60248201527f45524331313535235f63616c6c6f6e4552433131353552656365697665643a2060448201527f494e56414c49445f4f4e5f524543454956455f4d45535341474500000000000060648201526084016104b6565b5f5f8251116125ce5760405162461bcd60e51b815260206004820152603760248201527f4c6962427974657323706f704c617374427974653a20475245415445525f544860448201527f414e5f5a45524f5f4c454e4754485f524551554952454400000000000000000060648201526084016104b6565b81600183516125dd919061339c565b815181106125ed576125ed6130d0565b016020015182515f1901909252506001600160f81b03191690565b5f612614826020612f38565b8351101561268a5760405162461bcd60e51b815260206004820152603c60248201527f4c696242797465732372656164427974657333323a20475245415445525f4f5260448201527f5f455155414c5f544f5f33325f4c454e4754485f52455155495245440000000060648201526084016104b6565b612695602083612f38565b929092015192915050565b5f60405180604001604052806002815260200161190160f01b8152507f035aff83d86937d35b32e04f0ddc6ff469290eef2f1b692d8a815c89404d47495f1b306040516020016127039291909182526001600160a01b0316602082015260400190565b604051602081830303815290604052805190602001208360405160200161272c939291906132c9565b604051602081830303815290604052805190602001209050919050565b6001600160a01b0383165f908152602081815260408083208584529091528120805483929061277990849061339c565b909155505060408051838152602081018390525f916001600160a01b0386169133917fc3d58168c5ae7397731d063d5bbf3d657854427343f4c083240f7aacaa2d0f62910160405180910390a4505050565b5f813f80158015906127fd57507fc5d2460186f7233c927e7db2dcc703c0e500b653ca82273b7bfad8045d85a4708114155b9392505050565b60405180608001604052805f81526020015f81526020015f6001600160a01b03168152602001606081525090565b6001600160a01b0381168114612846575f5ffd5b50565b5f5f6040838503121561285a575f5ffd5b823561286581612832565b946020939093013593505050565b6001600160e01b031981168114612846575f5ffd5b5f60208284031215612898575f5ffd5b81356127fd81612873565b5f602082840312156128b3575f5ffd5b81356127fd81612832565b8015158114612846575f5ffd5b634e487b7160e01b5f52604160045260245ffd5b604051601f8201601f191681016001600160401b0381118282101715612907576129076128cb565b604052919050565b5f6001600160401b03821115612927576129276128cb565b50601f01601f191660200190565b5f82601f830112612944575f5ffd5b81356129576129528261290f565b6128df565b81815284602083860101111561296b575f5ffd5b816020850160208301375f918101602001919091529392505050565b5f5f5f5f5f5f60c0878903121561299c575f5ffd5b86356129a781612832565b955060208701356129b781612832565b9450604087013593506060870135925060808701356129d5816128be565b915060a08701356001600160401b038111156129ef575f5ffd5b6129fb89828a01612935565b9150509295509295509295565b5f6001600160401b03821115612a2057612a206128cb565b5060051b60200190565b5f82601f830112612a39575f5ffd5b8135612a4761295282612a08565b8082825260208201915060208360051b860101925085831115612a68575f5ffd5b602085015b83811015612a85578035835260209283019201612a6d565b5095945050505050565b5f5f5f5f5f60a08688031215612aa3575f5ffd5b8535612aae81612832565b94506020860135612abe81612832565b935060408601356001600160401b03811115612ad8575f5ffd5b612ae488828901612a2a565b93505060608601356001600160401b03811115612aff575f5ffd5b612b0b88828901612a2a565b92505060808601356001600160401b03811115612b26575f5ffd5b612b3288828901612935565b9150509295509295909350565b5f5f60408385031215612b50575f5ffd5b82356001600160401b03811115612b65575f5ffd5b8301601f81018513612b75575f5ffd5b8035612b8361295282612a08565b8082825260208201915060208360051b850101925087831115612ba4575f5ffd5b6020840193505b82841015612bcf578335612bbe81612832565b825260209384019390910190612bab565b945050505060208301356001600160401b03811115612bec575f5ffd5b612bf885828601612a2a565b9150509250929050565b5f8151808452602084019350602083015f5b82811015612c32578151865260209586019590910190600101612c14565b5093949350505050565b602081525f6127fd6020830184612c02565b5f60208284031215612c5e575f5ffd5b5035919050565b5f5f5f60608486031215612c77575f5ffd5b8335612c8281612832565b92506020840135612c9281612832565b929592945050506040919091013590565b5f5f60408385031215612cb4575f5ffd5b8235612cbf81612832565b91506020830135612ccf816128be565b809150509250929050565b5f5f5f5f5f5f60c08789031215612cef575f5ffd5b8635612cfa81612832565b95506020870135612d0a81612832565b945060408701356001600160401b03811115612d24575f5ffd5b612d3089828a01612a2a565b94505060608701356001600160401b03811115612d4b575f5ffd5b612d5789828a01612a2a565b93505060808701356129d5816128be565b5f5f60408385031215612d79575f5ffd5b8235612d8481612832565b91506020830135612ccf81612832565b5f5f5f5f5f60a08688031215612da8575f5ffd5b8535612db381612832565b94506020860135612dc381612832565b9350604086013592506060860135915060808601356001600160401b03811115612b26575f5ffd5b5f5f5f5f5f60a08688031215612dff575f5ffd5b8535612e0a81612832565b94506020860135612e1a81612832565b93506040860135612e2a816128be565b92506060860135612e3a816128be565b915060808601356001600160401b03811115612b26575f5ffd5b5f5f5f5f60808587031215612e67575f5ffd5b8435612e7281612832565b93506020850135925060408501356001600160401b03811115612e93575f5ffd5b612e9f87828801612935565b92505060608501356001600160401b03811115612eba575f5ffd5b612ec687828801612935565b91505092959194509250565b5f60208284031215612ee2575f5ffd5b81516127fd816128be565b6020808252601a908201527f43616c6c6572206973206e6f7420746865206f70657261746f72000000000000604082015260600190565b634e487b7160e01b5f52601160045260245ffd5b8082018082111561076b5761076b612f24565b60208082526033908201527f455243313135354d657461236d657461536166655472616e7366657246726f6d6040820152720e881253959053125117d49150d25412515395606a1b606082015260800190565b5f82601f830112612fad575f5ffd5b8151612fbb6129528261290f565b818152846020838601011115612fcf575f5ffd5b8160208501602083015e5f918101602001919091529392505050565b5f60808284031215612ffb575f5ffd5b604051608081016001600160401b038111828210171561301d5761301d6128cb565b60409081528351825260208085015190830152830151909150819061304181612832565b604082015260608301516001600160401b0381111561305e575f5ffd5b61306a85828601612f9e565b6060830152505092915050565b5f5f60408385031215613088575f5ffd5b82516001600160401b0381111561309d575f5ffd5b6130a985828601612feb565b92505060208301516001600160401b038111156130c4575f5ffd5b612bf885828601612f9e565b634e487b7160e01b5f52603260045260245ffd5b81515f90829060208501835b8281101561310e5781518452602093840193909101906001016130f0565b509195945050505050565b5f60208284031215613129575f5ffd5b81516001600160401b0381111561313e575f5ffd5b61198784828501612feb565b634e487b7160e01b5f52602160045260245ffd5b6020808252603a908201525f5160206134755f395f51905f5260408201527f7572653a20554e535550504f525445445f5349474e4154555245000000000000606082015260800190565b60208082526037908201525f5160206134755f395f51905f5260408201527f7572653a204c454e4754485f39375f5245515549524544000000000000000000606082015260800190565b5f81518084528060208401602086015e5f602082860101526020601f19601f83011685010191505092915050565b604081525f61323260408301856131f2565b828103602084015261324481856131f2565b95945050505050565b5f6020828403121561325d575f5ffd5b81516127fd81612873565b828152604060208201525f61198760408301846131f2565b5f5f60408385031215613291575f5ffd5b82516001600160401b038111156132a6575f5ffd5b6130a985828601612f9e565b5f81518060208401855e5f93019283525090919050565b5f6132d482866132b2565b93845250506020820152604001919050565b5f6132f182866132b2565b84815261330160208201856132b2565b9695505050505050565b6020808252602a908201527f4d6574614552433230577261707065722377697468647261773a205452414e5360408201526911915497d1905253115160b21b606082015260800190565b5f5f60408385031215613366575f5ffd5b825161337181612832565b6020939093015192949293505050565b5f60208284031215613391575f5ffd5b81516127fd81612832565b8181038181111561076b5761076b612f24565b604081525f6133c16040830185612c02565b82810360208401526132448185612c02565b6001600160a01b0386811682528516602082015260a0604082018190525f906133fe90830186612c02565b82810360608401526134108186612c02565b9050828103608084015261342481856131f2565b98975050505050505050565b6001600160a01b03868116825285166020820152604081018490526060810183905260a0608082018190525f90613469908301846131f2565b97965050505050505056fe5369676e617475726556616c696461746f7223697356616c69645369676e6174a2646970667358221220235103991517ddb7336e09dbc9454d281a7b00ef4c1edde24f8e686d4db17b8264736f6c634300081c0033",
  "linkReferences": {},
  "deployedLinkReferences": {},
  "immutableReferences": {
    "782": [
      {
        "length": 32,
        "start": 566
      },
      {
        "length": 32,
        "start": 1996
      },
      {
        "length": 32,
        "start": 2352
      },
      {
        "length": 32,
        "start": 3637
      },
      {
        "length": 32,
        "start": 4333
      },
      {
        "length": 32,
        "start": 4979
      }
    ]
  },
  "inputSourceName": "project/contracts/wrapper/MetaERC20Wrapper.sol",
  "buildInfoId": "solc-0_8_28-3e57dda0ba1b59b16d515eedd6c42bc36ecb7795"
}