{
  "_format": "hh3-artifact-1",
  "contractName": "CurvyAggregator",
  "sourceName": "contracts/aggregator/CurvyAggregator.sol",
  "abi": [
    {
      "inputs": [],
      "stateMutability": "nonpayable",
      "type": "constructor"
    },
    {
      "anonymous": false,
      "inputs": [
        {
          "indexed": false,
          "internalType": "uint256",
          "name": "noteId",
          "type": "uint256"
        }
      ],
      "name": "DepositedNote",
      "type": "event"
    },
    {
      "inputs": [],
      "name": "aggregationVerifier",
      "outputs": [
        {
          "internalType": "contract ICurvyAggregationVerifier",
          "name": "",
          "type": "address"
        }
      ],
      "stateMutability": "view",
      "type": "function"
    },
    {
      "inputs": [
        {
          "internalType": "uint256[2]",
          "name": "proof_a",
          "type": "uint256[2]"
        },
        {
          "internalType": "uint256[2][2]",
          "name": "proof_b",
          "type": "uint256[2][2]"
        },
        {
          "internalType": "uint256[2]",
          "name": "proof_c",
          "type": "uint256[2]"
        },
        {
          "internalType": "uint256[14]",
          "name": "publicInputs",
          "type": "uint256[14]"
        }
      ],
      "name": "commitAggregationBatch",
      "outputs": [
        {
          "internalType": "bool",
          "name": "success",
          "type": "bool"
        }
      ],
      "stateMutability": "nonpayable",
      "type": "function"
    },
    {
      "inputs": [
        {
          "internalType": "uint256[2]",
          "name": "proof_a",
          "type": "uint256[2]"
        },
        {
          "internalType": "uint256[2][2]",
          "name": "proof_b",
          "type": "uint256[2][2]"
        },
        {
          "internalType": "uint256[2]",
          "name": "proof_c",
          "type": "uint256[2]"
        },
        {
          "internalType": "uint256[4]",
          "name": "publicInputs",
          "type": "uint256[4]"
        }
      ],
      "name": "commitDepositBatch",
      "outputs": [
        {
          "internalType": "bool",
          "name": "success",
          "type": "bool"
        }
      ],
      "stateMutability": "nonpayable",
      "type": "function"
    },
    {
      "inputs": [
        {
          "internalType": "uint256[2]",
          "name": "proof_a",
          "type": "uint256[2]"
        },
        {
          "internalType": "uint256[2][2]",
          "name": "proof_b",
          "type": "uint256[2][2]"
        },
        {
          "internalType": "uint256[2]",
          "name": "proof_c",
          "type": "uint256[2]"
        },
        {
          "internalType": "uint256[10]",
          "name": "publicInputs",
          "type": "uint256[10]"
        }
      ],
      "name": "commitWithdrawalBatch",
      "outputs": [
        {
          "internalType": "bool",
          "name": "success",
          "type": "bool"
        }
      ],
      "stateMutability": "nonpayable",
      "type": "function"
    },
    {
      "inputs": [
        {
          "internalType": "address",
          "name": "fromAddress",
          "type": "address"
        },
        {
          "components": [
            {
              "internalType": "uint256",
              "name": "ownerHash",
              "type": "uint256"
            },
            {
              "internalType": "uint256",
              "name": "token",
              "type": "uint256"
            },
            {
              "internalType": "uint256",
              "name": "amount",
              "type": "uint256"
            }
          ],
          "internalType": "struct CurvyAggregator_Types.Note",
          "name": "note",
          "type": "tuple"
        },
        {
          "internalType": "bytes",
          "name": "signature",
          "type": "bytes"
        }
      ],
      "name": "depositNote",
      "outputs": [],
      "stateMutability": "nonpayable",
      "type": "function"
    },
    {
      "inputs": [],
      "name": "feeCollector",
      "outputs": [
        {
          "internalType": "address",
          "name": "",
          "type": "address"
        }
      ],
      "stateMutability": "view",
      "type": "function"
    },
    {
      "inputs": [],
      "name": "insertionVerifier",
      "outputs": [
        {
          "internalType": "contract ICurvyInsertionVerifier",
          "name": "",
          "type": "address"
        }
      ],
      "stateMutability": "view",
      "type": "function"
    },
    {
      "inputs": [],
      "name": "noteTree",
      "outputs": [
        {
          "internalType": "uint256",
          "name": "_root",
          "type": "uint256"
        }
      ],
      "stateMutability": "view",
      "type": "function"
    },
    {
      "inputs": [],
      "name": "nullifierTree",
      "outputs": [
        {
          "internalType": "uint256",
          "name": "_root",
          "type": "uint256"
        }
      ],
      "stateMutability": "view",
      "type": "function"
    },
    {
      "inputs": [],
      "name": "operator",
      "outputs": [
        {
          "internalType": "address",
          "name": "",
          "type": "address"
        }
      ],
      "stateMutability": "view",
      "type": "function"
    },
    {
      "inputs": [
        {
          "internalType": "uint256",
          "name": "",
          "type": "uint256"
        }
      ],
      "name": "pendingIdsQueue",
      "outputs": [
        {
          "internalType": "bool",
          "name": "",
          "type": "bool"
        }
      ],
      "stateMutability": "view",
      "type": "function"
    },
    {
      "inputs": [
        {
          "internalType": "uint256",
          "name": "newNotesTreeRoot",
          "type": "uint256"
        },
        {
          "internalType": "uint256",
          "name": "newNullifiersTreeRoot",
          "type": "uint256"
        }
      ],
      "name": "reset",
      "outputs": [],
      "stateMutability": "nonpayable",
      "type": "function"
    },
    {
      "inputs": [],
      "name": "tokenWrapper",
      "outputs": [
        {
          "internalType": "contract MetaERC20Wrapper",
          "name": "",
          "type": "address"
        }
      ],
      "stateMutability": "view",
      "type": "function"
    },
    {
      "inputs": [
        {
          "components": [
            {
              "internalType": "address",
              "name": "insertionVerifier",
              "type": "address"
            },
            {
              "internalType": "address",
              "name": "aggregationVerifier",
              "type": "address"
            },
            {
              "internalType": "address",
              "name": "withdrawVerifier",
              "type": "address"
            },
            {
              "internalType": "address",
              "name": "operator",
              "type": "address"
            },
            {
              "internalType": "address",
              "name": "feeCollector",
              "type": "address"
            },
            {
              "internalType": "address payable",
              "name": "tokenWrapper",
              "type": "address"
            }
          ],
          "internalType": "struct CurvyAggregator_Types.ConfigurationUpdate",
          "name": "_update",
          "type": "tuple"
        }
      ],
      "name": "updateConfig",
      "outputs": [
        {
          "internalType": "bool",
          "name": "_success",
          "type": "bool"
        }
      ],
      "stateMutability": "nonpayable",
      "type": "function"
    },
    {
      "inputs": [],
      "name": "withdrawVerifier",
      "outputs": [
        {
          "internalType": "contract ICurvyWithdrawVerifier",
          "name": "",
          "type": "address"
        }
      ],
      "stateMutability": "view",
      "type": "function"
    }
  ],
  "bytecode": "0x6080604052348015600e575f5ffd5b5060078054336001600160a01b031991821681179092556008805490911690911790556113cb8061003e5f395ff3fe608060405234801561000f575f5ffd5b50600436106100ef575f3560e01c80636a085b5011610093578063b974158a11610063578063b974158a146101e7578063c415b95c146101fa578063c5e3dfd81461020d578063d158dd6d1461021f575f5ffd5b80636a085b50146101a657806383b3bac0146101b9578063864eb164146101c1578063abed7790146101d4575f5ffd5b80631dc43637116100ce5780631dc43637146101425780633c45ce4f14610155578063456aa4f414610168578063570ca7351461017b575f5ffd5b80629259a7146100f357806308e484961461010a5780631a82739b1461011f575b5f5ffd5b6003545b6040519081526020015b60405180910390f35b61011d610118366004610bcf565b610241565b005b61013261012d366004610d5e565b61039d565b6040519015158152602001610101565b61011d610150366004610e00565b6104eb565b610132610163366004610e20565b610520565b610132610176366004610ecb565b61069d565b60075461018e906001600160a01b031681565b6040516001600160a01b039091168152602001610101565b6101326101b4366004610f3f565b61092d565b6002546100f7565b60065461018e906001600160a01b031681565b60055461018e906001600160a01b031681565b60045461018e906001600160a01b031681565b60085461018e906001600160a01b031681565b5f5461018e906001600160a01b031681565b61013261022d366004610fb0565b60016020525f908152604090205460ff1681565b5f546020830151604080850151905163ce0b514b60e01b81526001600160a01b039093169263ce0b514b92610283928892309291906001908990600401610ff5565b5f604051808303815f87803b15801561029a575f5ffd5b505af11580156102ac573d5f5f3e3d5ffd5b50506040805160608101825285518152858201516020808301919091528601518183015290516320cf0a3760e01b81525f935073__$9f53ae1556ef22ecff086f9027657e31be$__92506320cf0a379161030891600401611042565b602060405180830381865af4158015610323573d5f5f3e3d5ffd5b505050506040513d601f19601f820116820180604052508101906103479190611072565b5f81815260016020818152604092839020805460ff191690921790915590518281529192507f085eb711e9033934898875f6926d3a98c49bae62c73a015160bc22993aae4bee910160405180910390a150505050565b60a081015160c082015160e08301516101008401516002545f949392919082146103e25760405162461bcd60e51b81526004016103d99061109d565b60405180910390fd5b83600354146104035760405162461bcd60e51b81526004016103d9906110ee565b600554604051638d15f88f60e01b81526001600160a01b0390911690638d15f88f90610439908c908c908c908c90600401611199565b602060405180830381865afa158015610454573d5f5f3e3d5ffd5b505050506040513d601f19601f8201168201806040525081019061047891906111f5565b6104d85760405162461bcd60e51b815260206004820152602b60248201527f437572767941676772656761746f723a20696e76616c6964206167677265676160448201526a74696f6e2070726f6f662160a81b60648201526084016103d9565b6002555060035550600195945050505050565b6007546001600160a01b031633146105155760405162461bcd60e51b81526004016103d99061121b565b600291909155600355565b6007545f906001600160a01b0316331461054c5760405162461bcd60e51b81526004016103d99061121b565b81516001600160a01b03161561057e578151600480546001600160a01b0319166001600160a01b039092169190911790555b60208201516001600160a01b0316156105b6576020820151600580546001600160a01b0319166001600160a01b039092169190911790555b60408201516001600160a01b0316156105ee576040820151600680546001600160a01b0319166001600160a01b039092169190911790555b60608201516001600160a01b031615610626576060820151600780546001600160a01b0319166001600160a01b039092169190911790555b60808201516001600160a01b03161561065e576080820151600880546001600160a01b0319166001600160a01b039092169190911790555b60a08201516001600160a01b0316156106955760a08201515f80546001600160a01b0319166001600160a01b039092169190911790555b506001919050565b60035460608201515f91146106c45760405162461bcd60e51b81526004016103d9906110ee565b6002546040830151146106e95760405162461bcd60e51b81526004016103d99061109d565b6006546040516379ddb87b60e11b81526001600160a01b039091169063f3bb70f69061071f908890889088908890600401611271565b602060405180830381865afa15801561073a573d5f5f3e3d5ffd5b505050506040513d601f19601f8201168201806040525081019061075e91906111f5565b6107bb5760405162461bcd60e51b815260206004820152602860248201527f437572767941676772656761746f723a20696e76616c69642077697468647261604482015267772070726f6f662160c01b60648201526084016103d9565b81516003555f5b60028110156108a3575f836107d88360046112d5565b600a81106107e8576107e8611089565b602002015190505f846107fc8460066112d5565b600a811061080c5761080c611089565b60200201519050811561088e575f8054610120870151604080519384526020840190819052637921219560e11b90526001600160a01b039091169163f242432a9161086091309186918890602481016112ee565b5f604051808303815f87803b158015610877575f5ffd5b505af1158015610889573d5f5f3e3d5ffd5b505050505b5061089c90506001826112d5565b90506107c2565b505f80546008546101208501516020808701516040805196875291860191829052637921219560e11b9091526001600160a01b039384169463f242432a946108f59430949116929091602481016112ee565b5f604051808303815f87803b15801561090c575f5ffd5b505af115801561091e573d5f5f3e3d5ffd5b50600198975050505050505050565b5f805b60028110156109df575f83826004811061094c5761094c611089565b6020020151905080156109cc575f8181526001602052604090205460ff166109b65760405162461bcd60e51b815260206004820152601f60248201527f4e6f7465206e6f74207363686564756c656420666f72206465706f736974210060448201526064016103d9565b5f818152600160205260409020805460ff191690555b506109d86001826112d5565b9050610930565b506004826109ee600283611332565b600481106109fe576109fe611089565b602002015160025414610a485760405162461bcd60e51b8152602060048201526012602482015271125b9d985b1a59081b9bdd195cc81c9bdbdd60721b60448201526064016103d9565b60048054604051635fe8c13b60e01b81526001600160a01b0390911691635fe8c13b91610a7d918a918a918a918a9101611345565b602060405180830381865afa158015610a98573d5f5f3e3d5ffd5b505050506040513d601f19601f82011682018060405250810190610abc91906111f5565b610b1a5760405162461bcd60e51b815260206004820152602960248201527f437572767941676772656761746f723a20696e76616c696420696e73657274696044820152686f6e2070726f6f662160b81b60648201526084016103d9565b82610b26600183611332565b60048110610b3657610b36611089565b602002015160025550600195945050505050565b6001600160a01b0381168114610b5e575f5ffd5b50565b634e487b7160e01b5f52604160045260245ffd5b6040516060810167ffffffffffffffff81118282101715610b9857610b98610b61565b60405290565b604051601f8201601f1916810167ffffffffffffffff81118282101715610bc757610bc7610b61565b604052919050565b5f5f5f83850360a0811215610be2575f5ffd5b8435610bed81610b4a565b93506060601f1982011215610c00575f5ffd5b50610c09610b75565b6020858101358252604080870135918301919091526060860135908201529150608084013567ffffffffffffffff811115610c42575f5ffd5b8401601f81018613610c52575f5ffd5b803567ffffffffffffffff811115610c6c57610c6c610b61565b610c7f601f8201601f1916602001610b9e565b818152876020838501011115610c93575f5ffd5b816020840160208301375f602083830101528093505050509250925092565b5f82601f830112610cc1575f5ffd5b5f610ccc6040610b9e565b9050806040840185811115610cdf575f5ffd5b845b81811015610cf9578035835260209283019201610ce1565b509195945050505050565b5f82601f830112610d13575f5ffd5b6040610d1e81610b9e565b806080850186811115610d2f575f5ffd5b855b81811015610d5257610d438882610cb2565b84526020909301928401610d31565b50909695505050505050565b5f5f5f5f6102c08587031215610d72575f5ffd5b610d7c8686610cb2565b9350610d8b8660408701610d04565b9250610d9a8660c08701610cb2565b91505f8661011f870112610dac575f5ffd5b505f806101c0610dbb81610b9e565b9150508091506102c0870188811115610dd2575f5ffd5b61010088015b81811015610df0578035845260209384019301610dd8565b5050809250505092959194509250565b5f5f60408385031215610e11575f5ffd5b50508035926020909101359150565b5f60c0828403128015610e31575f5ffd5b5060405160c0810167ffffffffffffffff81118282101715610e5557610e55610b61565b6040528235610e6381610b4a565b81526020830135610e7381610b4a565b60208201526040830135610e8681610b4a565b60408201526060830135610e9981610b4a565b60608201526080830135610eac81610b4a565b608082015260a0830135610ebf81610b4a565b60a08201529392505050565b5f5f5f5f6102408587031215610edf575f5ffd5b610ee98686610cb2565b9350610ef88660408701610d04565b9250610f078660c08701610cb2565b91505f8661011f870112610f19575f5ffd5b505f80610140610f2881610b9e565b915050809150610240870188811115610dd2575f5ffd5b5f5f5f5f6101808587031215610f53575f5ffd5b610f5d8686610cb2565b9350610f6c8660408701610d04565b9250610f7b8660c08701610cb2565b91505f8661011f870112610f8d575f5ffd5b505f80610f9a6080610b9e565b9050809150610180870188811115610dd2575f5ffd5b5f60208284031215610fc0575f5ffd5b5035919050565b5f81518084528060208401602086015e5f602082860101526020601f19601f83011685010191505092915050565b6001600160a01b038781168252861660208201526040810185905260608101849052821515608082015260c060a082018190525f9061103690830184610fc7565b98975050505050505050565b6060810181835f5b600381101561106957815183526020928301929091019060010161104a565b50505092915050565b5f60208284031215611082575f5ffd5b5051919050565b634e487b7160e01b5f52603260045260245ffd5b60208082526031908201527f437572767941676772656761746f723a2063757272656e74206e6f7465207472604082015270656520726f6f74206d69736d617463682160781b606082015260800190565b60208082526036908201527f437572767941676772656761746f723a2063757272656e74206e756c6c6966696040820152756572207472656520726f6f74206d69736d617463682160501b606082015260800190565b805f5b6002811015611166578151845260209384019390910190600101611147565b50505050565b805f5b600281101561116657611183848351611144565b604093909301926020919091019060010161116f565b6102c081016111a88287611144565b6111b5604083018661116c565b6111c260c0830185611144565b6101008201835f5b600e8110156111e95781518352602092830192909101906001016111ca565b50505095945050505050565b5f60208284031215611205575f5ffd5b81518015158114611214575f5ffd5b9392505050565b60208082526036908201527f437572767941676772656761746f723a206f6e6c79206f70657261746f722063604082015275616e2063616c6c20746869732066756e6374696f6e2160501b606082015260800190565b61024081016112808287611144565b61128d604083018661116c565b61129a60c0830185611144565b6101008201835f5b600a8110156111e95781518352602092830192909101906001016112a2565b634e487b7160e01b5f52601160045260245ffd5b808201808211156112e8576112e86112c1565b92915050565b6001600160a01b03868116825285166020820152604081018490526060810183905260a0608082018190525f9061132790830184610fc7565b979650505050505050565b818103818111156112e8576112e86112c1565b61018081016113548287611144565b611361604083018661116c565b61136e60c0830185611144565b6101008201835f5b60048110156111e957815183526020928301929091019060010161137656fea26469706673582212207ab612604c22ee3e58b9e80b3e7469b609ed2e731e56fbfcc359411ada39458564736f6c634300081c0033",
  "linkReferences": {
    "project/contracts/aggregator/utils/PoseidonT4.sol": {
      "PoseidonT4": [
        {
          "length": 20,
          "start": 799
        }
      ]
    }
  },
  "deployedLinkReferences": {
    "project/contracts/aggregator/utils/PoseidonT4.sol": {
      "PoseidonT4": [
        {
          "length": 20,
          "start": 737
        }
      ]
    }
  },
  "immutableReferences": {},
  "inputSourceName": "project/contracts/aggregator/CurvyAggregator.sol",
  "buildInfoId": "solc-0_8_28-75858294634b71a0b750e296dc09784dea21e7e3"
}