{
  "_format": "hh3-artifact-1",
  "contractName": "CurvyVaultV2",
  "sourceName": "contracts/vault/CurvyVaultV2.sol",
  "abi": [
    {
      "inputs": [],
      "stateMutability": "nonpayable",
      "type": "constructor"
    },
    {
      "inputs": [
        {
          "internalType": "address",
          "name": "target",
          "type": "address"
        }
      ],
      "name": "AddressEmptyCode",
      "type": "error"
    },
    {
      "inputs": [],
      "name": "ECDSAInvalidSignature",
      "type": "error"
    },
    {
      "inputs": [
        {
          "internalType": "uint256",
          "name": "length",
          "type": "uint256"
        }
      ],
      "name": "ECDSAInvalidSignatureLength",
      "type": "error"
    },
    {
      "inputs": [
        {
          "internalType": "bytes32",
          "name": "s",
          "type": "bytes32"
        }
      ],
      "name": "ECDSAInvalidSignatureS",
      "type": "error"
    },
    {
      "inputs": [
        {
          "internalType": "address",
          "name": "implementation",
          "type": "address"
        }
      ],
      "name": "ERC1967InvalidImplementation",
      "type": "error"
    },
    {
      "inputs": [],
      "name": "ERC1967NonPayable",
      "type": "error"
    },
    {
      "inputs": [],
      "name": "ETHTransferFailed",
      "type": "error"
    },
    {
      "inputs": [],
      "name": "FailedCall",
      "type": "error"
    },
    {
      "inputs": [],
      "name": "InsufficientAmountForGas",
      "type": "error"
    },
    {
      "inputs": [
        {
          "internalType": "uint256",
          "name": "balance",
          "type": "uint256"
        },
        {
          "internalType": "uint256",
          "name": "required",
          "type": "uint256"
        }
      ],
      "name": "InsufficientBalance",
      "type": "error"
    },
    {
      "inputs": [],
      "name": "InvalidGasSponsorship",
      "type": "error"
    },
    {
      "inputs": [],
      "name": "InvalidInitialization",
      "type": "error"
    },
    {
      "inputs": [],
      "name": "InvalidRecipient",
      "type": "error"
    },
    {
      "inputs": [],
      "name": "InvalidSender",
      "type": "error"
    },
    {
      "inputs": [],
      "name": "InvalidTransactionType",
      "type": "error"
    },
    {
      "inputs": [],
      "name": "NotInitializing",
      "type": "error"
    },
    {
      "inputs": [
        {
          "internalType": "address",
          "name": "owner",
          "type": "address"
        }
      ],
      "name": "OwnableInvalidOwner",
      "type": "error"
    },
    {
      "inputs": [
        {
          "internalType": "address",
          "name": "account",
          "type": "address"
        }
      ],
      "name": "OwnableUnauthorizedAccount",
      "type": "error"
    },
    {
      "inputs": [
        {
          "internalType": "address",
          "name": "token",
          "type": "address"
        }
      ],
      "name": "SafeERC20FailedOperation",
      "type": "error"
    },
    {
      "inputs": [],
      "name": "TokenNotRegistered",
      "type": "error"
    },
    {
      "inputs": [],
      "name": "UUPSUnauthorizedCallContext",
      "type": "error"
    },
    {
      "inputs": [
        {
          "internalType": "bytes32",
          "name": "slot",
          "type": "bytes32"
        }
      ],
      "name": "UUPSUnsupportedProxiableUUID",
      "type": "error"
    },
    {
      "anonymous": false,
      "inputs": [
        {
          "indexed": false,
          "internalType": "address",
          "name": "curvyAggregator",
          "type": "address"
        }
      ],
      "name": "CurvyAggregatorAddressChange",
      "type": "event"
    },
    {
      "anonymous": false,
      "inputs": [],
      "name": "EIP712DomainChanged",
      "type": "event"
    },
    {
      "anonymous": false,
      "inputs": [
        {
          "indexed": false,
          "internalType": "enum CurvyTypes.MetaTransactionType",
          "name": "metaTransactionType",
          "type": "uint8"
        },
        {
          "indexed": false,
          "internalType": "uint96",
          "name": "fee",
          "type": "uint96"
        }
      ],
      "name": "FeeChange",
      "type": "event"
    },
    {
      "anonymous": false,
      "inputs": [
        {
          "indexed": false,
          "internalType": "uint64",
          "name": "version",
          "type": "uint64"
        }
      ],
      "name": "Initialized",
      "type": "event"
    },
    {
      "anonymous": false,
      "inputs": [
        {
          "indexed": true,
          "internalType": "address",
          "name": "signer",
          "type": "address"
        },
        {
          "indexed": false,
          "internalType": "uint256",
          "name": "newNonce",
          "type": "uint256"
        }
      ],
      "name": "NonceChange",
      "type": "event"
    },
    {
      "anonymous": false,
      "inputs": [
        {
          "indexed": true,
          "internalType": "address",
          "name": "previousOwner",
          "type": "address"
        },
        {
          "indexed": true,
          "internalType": "address",
          "name": "newOwner",
          "type": "address"
        }
      ],
      "name": "OwnershipTransferred",
      "type": "event"
    },
    {
      "anonymous": false,
      "inputs": [
        {
          "indexed": false,
          "internalType": "address",
          "name": "token_address",
          "type": "address"
        },
        {
          "indexed": false,
          "internalType": "uint256",
          "name": "token_id",
          "type": "uint256"
        }
      ],
      "name": "TokenRegistration",
      "type": "event"
    },
    {
      "anonymous": false,
      "inputs": [
        {
          "indexed": true,
          "internalType": "address",
          "name": "from",
          "type": "address"
        },
        {
          "indexed": true,
          "internalType": "address",
          "name": "to",
          "type": "address"
        },
        {
          "indexed": false,
          "internalType": "uint256",
          "name": "token_id",
          "type": "uint256"
        },
        {
          "indexed": false,
          "internalType": "uint256",
          "name": "amount",
          "type": "uint256"
        }
      ],
      "name": "Transfer",
      "type": "event"
    },
    {
      "anonymous": false,
      "inputs": [
        {
          "indexed": true,
          "internalType": "address",
          "name": "implementation",
          "type": "address"
        }
      ],
      "name": "Upgraded",
      "type": "event"
    },
    {
      "inputs": [],
      "name": "UPGRADE_INTERFACE_VERSION",
      "outputs": [
        {
          "internalType": "string",
          "name": "",
          "type": "string"
        }
      ],
      "stateMutability": "view",
      "type": "function"
    },
    {
      "inputs": [
        {
          "internalType": "address",
          "name": "owner",
          "type": "address"
        },
        {
          "internalType": "uint256",
          "name": "tokenId",
          "type": "uint256"
        }
      ],
      "name": "balanceOf",
      "outputs": [
        {
          "internalType": "uint256",
          "name": "",
          "type": "uint256"
        }
      ],
      "stateMutability": "view",
      "type": "function"
    },
    {
      "inputs": [
        {
          "internalType": "address[]",
          "name": "owners",
          "type": "address[]"
        },
        {
          "internalType": "uint256[]",
          "name": "tokenIds",
          "type": "uint256[]"
        }
      ],
      "name": "balanceOfBatch",
      "outputs": [
        {
          "internalType": "uint256[]",
          "name": "",
          "type": "uint256[]"
        }
      ],
      "stateMutability": "view",
      "type": "function"
    },
    {
      "inputs": [
        {
          "internalType": "address",
          "name": "tokenAddress",
          "type": "address"
        },
        {
          "internalType": "address",
          "name": "to",
          "type": "address"
        },
        {
          "internalType": "uint256",
          "name": "amount",
          "type": "uint256"
        },
        {
          "internalType": "uint256",
          "name": "gasSponsorshipAmount",
          "type": "uint256"
        }
      ],
      "name": "deposit",
      "outputs": [],
      "stateMutability": "payable",
      "type": "function"
    },
    {
      "inputs": [],
      "name": "depositFee",
      "outputs": [
        {
          "internalType": "uint96",
          "name": "",
          "type": "uint96"
        }
      ],
      "stateMutability": "view",
      "type": "function"
    },
    {
      "inputs": [],
      "name": "eip712Domain",
      "outputs": [
        {
          "internalType": "bytes1",
          "name": "fields",
          "type": "bytes1"
        },
        {
          "internalType": "string",
          "name": "name",
          "type": "string"
        },
        {
          "internalType": "string",
          "name": "version",
          "type": "string"
        },
        {
          "internalType": "uint256",
          "name": "chainId",
          "type": "uint256"
        },
        {
          "internalType": "address",
          "name": "verifyingContract",
          "type": "address"
        },
        {
          "internalType": "bytes32",
          "name": "salt",
          "type": "bytes32"
        },
        {
          "internalType": "uint256[]",
          "name": "extensions",
          "type": "uint256[]"
        }
      ],
      "stateMutability": "view",
      "type": "function"
    },
    {
      "inputs": [
        {
          "internalType": "address",
          "name": "_signer",
          "type": "address"
        }
      ],
      "name": "getNonce",
      "outputs": [
        {
          "internalType": "uint256",
          "name": "nonce",
          "type": "uint256"
        }
      ],
      "stateMutability": "view",
      "type": "function"
    },
    {
      "inputs": [],
      "name": "getNumberOfTokens",
      "outputs": [
        {
          "internalType": "uint256",
          "name": "",
          "type": "uint256"
        }
      ],
      "stateMutability": "view",
      "type": "function"
    },
    {
      "inputs": [
        {
          "internalType": "uint256",
          "name": "tokenId",
          "type": "uint256"
        }
      ],
      "name": "getTokenAddress",
      "outputs": [
        {
          "internalType": "address",
          "name": "tokenAddress",
          "type": "address"
        }
      ],
      "stateMutability": "view",
      "type": "function"
    },
    {
      "inputs": [
        {
          "internalType": "address",
          "name": "tokenAddress",
          "type": "address"
        }
      ],
      "name": "getTokenId",
      "outputs": [
        {
          "internalType": "uint256",
          "name": "tokenId",
          "type": "uint256"
        }
      ],
      "stateMutability": "view",
      "type": "function"
    },
    {
      "inputs": [
        {
          "internalType": "address",
          "name": "initialOwner",
          "type": "address"
        }
      ],
      "name": "initialize",
      "outputs": [],
      "stateMutability": "nonpayable",
      "type": "function"
    },
    {
      "inputs": [],
      "name": "owner",
      "outputs": [
        {
          "internalType": "address",
          "name": "",
          "type": "address"
        }
      ],
      "stateMutability": "view",
      "type": "function"
    },
    {
      "inputs": [],
      "name": "proxiableUUID",
      "outputs": [
        {
          "internalType": "bytes32",
          "name": "",
          "type": "bytes32"
        }
      ],
      "stateMutability": "view",
      "type": "function"
    },
    {
      "inputs": [
        {
          "internalType": "address",
          "name": "tokenAddress",
          "type": "address"
        }
      ],
      "name": "registerToken",
      "outputs": [],
      "stateMutability": "nonpayable",
      "type": "function"
    },
    {
      "inputs": [],
      "name": "renounceOwnership",
      "outputs": [],
      "stateMutability": "nonpayable",
      "type": "function"
    },
    {
      "inputs": [
        {
          "internalType": "enum CurvyTypes.MetaTransactionType",
          "name": "metaTransactionType",
          "type": "uint8"
        },
        {
          "internalType": "uint96",
          "name": "fee",
          "type": "uint96"
        }
      ],
      "name": "setFeeAmount",
      "outputs": [],
      "stateMutability": "nonpayable",
      "type": "function"
    },
    {
      "inputs": [
        {
          "components": [
            {
              "internalType": "address",
              "name": "from",
              "type": "address"
            },
            {
              "internalType": "address",
              "name": "to",
              "type": "address"
            },
            {
              "internalType": "uint256",
              "name": "tokenId",
              "type": "uint256"
            },
            {
              "internalType": "uint256",
              "name": "amount",
              "type": "uint256"
            },
            {
              "internalType": "uint256",
              "name": "gasFee",
              "type": "uint256"
            },
            {
              "internalType": "enum CurvyTypes.MetaTransactionType",
              "name": "metaTransactionType",
              "type": "uint8"
            }
          ],
          "internalType": "struct CurvyTypes.MetaTransaction",
          "name": "metaTransaction",
          "type": "tuple"
        },
        {
          "internalType": "bytes",
          "name": "signature",
          "type": "bytes"
        }
      ],
      "name": "transfer",
      "outputs": [],
      "stateMutability": "nonpayable",
      "type": "function"
    },
    {
      "inputs": [
        {
          "components": [
            {
              "internalType": "address",
              "name": "from",
              "type": "address"
            },
            {
              "internalType": "address",
              "name": "to",
              "type": "address"
            },
            {
              "internalType": "uint256",
              "name": "tokenId",
              "type": "uint256"
            },
            {
              "internalType": "uint256",
              "name": "amount",
              "type": "uint256"
            },
            {
              "internalType": "uint256",
              "name": "gasFee",
              "type": "uint256"
            },
            {
              "internalType": "enum CurvyTypes.MetaTransactionType",
              "name": "metaTransactionType",
              "type": "uint8"
            }
          ],
          "internalType": "struct CurvyTypes.MetaTransaction",
          "name": "metaTransaction",
          "type": "tuple"
        }
      ],
      "name": "transfer",
      "outputs": [],
      "stateMutability": "nonpayable",
      "type": "function"
    },
    {
      "inputs": [],
      "name": "transferFee",
      "outputs": [
        {
          "internalType": "uint96",
          "name": "",
          "type": "uint96"
        }
      ],
      "stateMutability": "view",
      "type": "function"
    },
    {
      "inputs": [
        {
          "internalType": "address",
          "name": "newOwner",
          "type": "address"
        }
      ],
      "name": "transferOwnership",
      "outputs": [],
      "stateMutability": "nonpayable",
      "type": "function"
    },
    {
      "inputs": [
        {
          "internalType": "address",
          "name": "newImplementation",
          "type": "address"
        },
        {
          "internalType": "bytes",
          "name": "data",
          "type": "bytes"
        }
      ],
      "name": "upgradeToAndCall",
      "outputs": [],
      "stateMutability": "payable",
      "type": "function"
    },
    {
      "inputs": [
        {
          "components": [
            {
              "internalType": "address",
              "name": "from",
              "type": "address"
            },
            {
              "internalType": "address",
              "name": "to",
              "type": "address"
            },
            {
              "internalType": "uint256",
              "name": "tokenId",
              "type": "uint256"
            },
            {
              "internalType": "uint256",
              "name": "amount",
              "type": "uint256"
            },
            {
              "internalType": "uint256",
              "name": "gasFee",
              "type": "uint256"
            },
            {
              "internalType": "enum CurvyTypes.MetaTransactionType",
              "name": "metaTransactionType",
              "type": "uint8"
            }
          ],
          "internalType": "struct CurvyTypes.MetaTransaction",
          "name": "metaTransaction",
          "type": "tuple"
        }
      ],
      "name": "withdraw",
      "outputs": [],
      "stateMutability": "nonpayable",
      "type": "function"
    },
    {
      "inputs": [
        {
          "components": [
            {
              "internalType": "address",
              "name": "from",
              "type": "address"
            },
            {
              "internalType": "address",
              "name": "to",
              "type": "address"
            },
            {
              "internalType": "uint256",
              "name": "tokenId",
              "type": "uint256"
            },
            {
              "internalType": "uint256",
              "name": "amount",
              "type": "uint256"
            },
            {
              "internalType": "uint256",
              "name": "gasFee",
              "type": "uint256"
            },
            {
              "internalType": "enum CurvyTypes.MetaTransactionType",
              "name": "metaTransactionType",
              "type": "uint8"
            }
          ],
          "internalType": "struct CurvyTypes.MetaTransaction",
          "name": "metaTransaction",
          "type": "tuple"
        },
        {
          "internalType": "bytes",
          "name": "signature",
          "type": "bytes"
        }
      ],
      "name": "withdraw",
      "outputs": [],
      "stateMutability": "nonpayable",
      "type": "function"
    },
    {
      "inputs": [],
      "name": "withdrawalFee",
      "outputs": [
        {
          "internalType": "uint96",
          "name": "",
          "type": "uint96"
        }
      ],
      "stateMutability": "view",
      "type": "function"
    },
    {
      "stateMutability": "payable",
      "type": "receive"
    }
  ],
  "bytecode": "0x60a060405230608052348015610013575f5ffd5b5061001c610021565b6100d3565b7ff0c57e16840df040f15088dc2f81fe391c3923bec73e23a9662efc9c229c6a00805468010000000000000000900460ff16156100715760405163f92ee8a960e01b815260040160405180910390fd5b80546001600160401b03908116146100d05780546001600160401b0319166001600160401b0390811782556040519081527fc7f505b2f371ae2175ee4913f4499e1f2633a7b5936321eed1cdaeb6115181d29060200160405180910390a15b50565b608051612c326100f95f395f81816116c5015281816116ee01526118320152612c325ff3fe608060405260043610610149575f3560e01c80638bc7e8c4116100b3578063c4d66de81161006d578063c4d66de8146103fb578063de1a27201461041a578063efeecb5114610439578063f15376861461044d578063f2fde38b1461046c578063fe54fd6a1461048b575f5ffd5b80638bc7e8c4146103275780638da5cb5b14610346578063acb2ad6f1461035a578063ad3cb1cc14610380578063ad8623cc146103bd578063b86c4d72146103dc575f5ffd5b80634f1ef286116101045780634f1ef2861461025757806352d1902d1461026a57806367a527931461027e57806367ccdf38146102b5578063715018a6146102ec57806384b0196e14610300575f5ffd5b8062fdd58e1461017457806309824a80146101a657806320e8c565146101c55780632d0335ab146101d857806331ddbddc1461020c5780634e1273f41461022b575f5ffd5b366101705761016e73eeeeeeeeeeeeeeeeeeeeeeeeeeeeeeeeeeeeeeee33345f6104aa565b005b5f5ffd5b34801561017f575f5ffd5b5061019361018e36600461246d565b6107ef565b6040519081526020015b60405180910390f35b3480156101b1575f5ffd5b5061016e6101c0366004612495565b610817565b61016e6101d33660046124ae565b6104aa565b3480156101e3575f5ffd5b506101936101f2366004612495565b6001600160a01b03165f9081526001602052604090205490565b348015610217575f5ffd5b5061016e6102263660046125b4565b61092e565b348015610236575f5ffd5b5061024a61024536600461268d565b610945565b60405161019d9190612780565b61016e610265366004612792565b610a94565b348015610275575f5ffd5b50610193610aaf565b348015610289575f5ffd5b5060055461029d906001600160601b031681565b6040516001600160601b03909116815260200161019d565b3480156102c0575f5ffd5b506102d46102cf3660046127c7565b610aca565b6040516001600160a01b03909116815260200161019d565b3480156102f7575f5ffd5b5061016e610b49565b34801561030b575f5ffd5b50610314610b5c565b60405161019d979695949392919061280c565b348015610332575f5ffd5b5060065461029d906001600160601b031681565b348015610351575f5ffd5b506102d4610c05565b348015610365575f5ffd5b5060055461029d90600160601b90046001600160601b031681565b34801561038b575f5ffd5b506103b0604051806040016040528060058152602001640352e302e360dc1b81525081565b60405161019d919061287b565b3480156103c8575f5ffd5b5061016e6103d736600461288d565b610c33565b3480156103e7575f5ffd5b5061016e6103f63660046128b5565b610ca0565b348015610406575f5ffd5b5061016e610415366004612495565b610df8565b348015610425575f5ffd5b5061016e61043436600461288d565b610fdf565b348015610444575f5ffd5b50600254610193565b348015610458575f5ffd5b50610193610467366004612495565b611049565b348015610477575f5ffd5b5061016e610486366004612495565b6110c5565b348015610496575f5ffd5b5061016e6104a53660046125b4565b6110ff565b6001600160a01b0383166104d157604051634e46966960e11b815260040160405180910390fd5b5f6001600160a01b03851673eeeeeeeeeeeeeeeeeeeeeeeeeeeeeeeeeeeeeeee146105bc5734156105685760405162461bcd60e51b815260206004820152603660248201527f43757276795661756c74236465706f7369743a20446f6e27742073656e64204560448201527554482077697468204552433230206465706f7369742160501b60648201526084015b60405180910390fd5b61057d6001600160a01b038616333086611112565b506001600160a01b0384165f90815260036020526040812054908190036105b75760405163259ba1ad60e01b815260040160405180910390fd5b610624565b3483146106205760405162461bcd60e51b815260206004820152602c60248201527f43757276795661756c74236465706f7369743a20496e636f727265637420646560448201526b706f7369742076616c75652160a01b606482015260840161055f565b5060015b6001600160a01b0384165f9081526020818152604080832084845290915281208054859290610654908490612909565b90915550506005546001600160601b031615610719576005545f9061271090610686906001600160601b03168661291c565b6106909190612933565b6001600160a01b0386165f908152602081815260408083208684529091528120805492935083929091906106c5908490612952565b909155508190505f806106d6610c05565b6001600160a01b03166001600160a01b031681526020019081526020015f205f8481526020019081526020015f205f8282546107129190612909565b9091555050505b81156107a2576001600160a01b0384165f908152602081815260408083208484529091528120805484929061074f908490612952565b909155508290505f80610760610c05565b6001600160a01b03166001600160a01b031681526020019081526020015f205f8381526020019081526020015f205f82825461079c9190612909565b90915550505b60408051828152602081018590526001600160a01b038616915f917f9ed053bb818ff08b8353cd46f78db1f0799f31c9e4458fdb425c10eccd2efc44910160405180910390a35050505050565b6001600160a01b0382165f908152602081815260408083208484529091529020545b92915050565b61081f61117f565b6001600160a01b0381165f90815260036020526040902054156108a05760405162461bcd60e51b815260206004820152603360248201527f43757276795661756c74237265676973746572546f6b656e3a20546f6b656e20604482015272616c726561647920726567697374657265642160681b606482015260840161055f565b60028054905f6108af83612965565b9091555050600280545f90815260046020908152604080832080546001600160a01b0319166001600160a01b038716908117909155935484845260038352928190208390558051938452908301919091527ff977d54986414fc91816901629d1d788ad95448ab4198dcb9b6dc5ed2b930c1f910160405180910390a150565b61093882826111b1565b61094182611383565b5050565b606081518351146109b15760405162461bcd60e51b815260206004820152603060248201527f43757276795661756c742362616c616e63654f6642617463683a20496e76616c60448201526f6964206172726179206c656e6774682160801b606482015260840161055f565b5f835167ffffffffffffffff8111156109cc576109cc612503565b6040519080825280602002602001820160405280156109f5578160200160208202803683370190505b5090505f5b8451811015610a8c575f5f868381518110610a1757610a1761297d565b60200260200101516001600160a01b03166001600160a01b031681526020019081526020015f205f858381518110610a5157610a5161297d565b602002602001015181526020019081526020015f2054828281518110610a7957610a7961297d565b60209081029190910101526001016109fa565b509392505050565b610a9c6116ba565b610aa58261175e565b6109418282611766565b5f610ab8611827565b505f516020612bdd5f395f51905f5290565b5f818152600460205260409020546001600160a01b031680610b445760405162461bcd60e51b815260206004820152602d60248201527f43757276795661756c743a236765744964416464726573733a20556e7265676960448201526c73746572656420746f6b656e2160981b606482015260840161055f565b919050565b610b5161117f565b610b5a5f611870565b565b5f60608082808083815f516020612bbd5f395f51905f528054909150158015610b8757506001810154155b610bcb5760405162461bcd60e51b81526020600482015260156024820152741152540dcc4c8e88155b9a5b9a5d1a585b1a5e9959605a1b604482015260640161055f565b610bd36118e0565b610bdb6119a0565b604080515f80825260208201909252600f60f81b9c939b5091995046985030975095509350915050565b7f9016d09d72d40fdae2fd8ceac6b6234c7706214fd39c1cd1e609a0528c199300546001600160a01b031690565b610c406020820182612495565b6001600160a01b0316336001600160a01b031614610c7157604051636edaef2f60e11b815260040160405180910390fd5b608081013515610c945760405163094816b760e41b815260040160405180910390fd5b610c9d816119de565b50565b610ca861117f565b6002826002811115610cbc57610cbc612991565b03610ce157600580546001600160601b0319166001600160601b038316179055610dbb565b6001826002811115610cf557610cf5612991565b03610d2857600580546bffffffffffffffffffffffff60601b1916600160601b6001600160601b03841602179055610dbb565b5f826002811115610d3b57610d3b612991565b03610d6057600680546001600160601b0319166001600160601b038316179055610dbb565b60405162461bcd60e51b815260206004820152602a60248201527f43757276795661756c7423736574466565416d6f756e743a20556e6b6e6f776e6044820152692066656520747970652160b01b606482015260840161055f565b7f5f70d5d3c1200aea00f3b75c7a1b38bcfc5455bd0863e6fcd4f097304b859d9c8282604051610dec9291906129c5565b60405180910390a15050565b5f610e01611db2565b805490915060ff600160401b820416159067ffffffffffffffff165f81158015610e285750825b90505f8267ffffffffffffffff166001148015610e445750303b155b905081158015610e52575080155b15610e705760405163f92ee8a960e01b815260040160405180910390fd5b845467ffffffffffffffff191660011785558315610e9a57845460ff60401b1916600160401b1785555b60017f40c35f83c179e47de306c9fe55fdc60064f11dd52adb51ab61b5643ee626f98d8190555f819052600460209081527fabd6e7cb50984ff9c2f3e18a2660c3353dadf4e3291deeb275dae2cd1e44fe0580546001600160a01b03191673eeeeeeeeeeeeeeeeeeeeeeeeeeeeeeeeeeeeeeee179055600291909155604080518082018252601381527210dd5c9d9e48141c9a5d9858de4815985d5b1d606a1b81840152815180830190925260038252620322e360ec1b92820192909252610f629190611dda565b610f6b86611dec565b600580546001600160c01b031916600a179055600680546001600160601b03191660141790558315610fd757845460ff60401b19168555604051600181527fc7f505b2f371ae2175ee4913f4499e1f2633a7b5936321eed1cdaeb6115181d29060200160405180910390a15b505050505050565b610fec6020820182612495565b6001600160a01b0316336001600160a01b03161461101d57604051636edaef2f60e11b815260040160405180910390fd5b6080810135156110405760405163094816b760e41b815260040160405180910390fd5b610c9d81611383565b6001600160a01b0381165f9081526003602052604081205490819003610b445760405162461bcd60e51b815260206004820152602b60248201527f43757276795661756c743a23676574546f6b656e49443a20556e72656769737460448201526a6572656420746f6b656e2160a81b606482015260840161055f565b6110cd61117f565b6001600160a01b0381166110f657604051631e4fbdf760e01b81525f600482015260240161055f565b610c9d81611870565b61110982826111b1565b610941826119de565b6040516001600160a01b0384811660248301528381166044830152606482018390526111799186918216906323b872dd906084015b604051602081830303815290604052915060e01b6020820180516001600160e01b038381831617835250505050611dfd565b50505050565b33611188610c05565b6001600160a01b031614610b5a5760405163118cdaa760e01b815233600482015260240161055f565b5f7fb208091ed952365f02c7667b3695159d6ab560ae0ba382eea4872477552b281e6001826111e36020870187612495565b6001600160a01b031681526020808201929092526040015f20549061120a90860186612495565b61121a6040870160208801612495565b60408701356060880135608089013561123960c08b0160a08c016129e9565b604051602001611250989796959493929190612a02565b6040516020818303038152906040528051906020012090505f61127282611e69565b90505f61127f8285611e95565b905061128e6020860186612495565b6001600160a01b0316816001600160a01b0316146113085760405162461bcd60e51b815260206004820152603160248201527f43757276795661756c74235f76616c69646174655369676e61747572653a20496044820152706e76616c6964207369676e61747572652160781b606482015260840161055f565b6001600160a01b0381165f90815260016020526040812080549161132b83612965565b90915550506001600160a01b0381165f818152600160209081526040918290205491519182527fb861b7bdbe611a846ab271b8d2810391bc8b5a968f390c322438ecab66bccf59910160405180910390a25050505050565b5f6113946040830160208401612495565b6001600160a01b0316036113bb57604051634e46966960e11b815260040160405180910390fd5b60016113cd60c0830160a084016129e9565b60028111156113de576113de612991565b146113fc57604051637513b90360e01b815260040160405180910390fd5b60608101355f806114106020850185612495565b6001600160a01b03166001600160a01b031681526020019081526020015f205f836040013581526020019081526020015f205f8282546114509190612952565b909155505060608101355f8061146c6040850160208601612495565b6001600160a01b03166001600160a01b031681526020019081526020015f205f836040013581526020019081526020015f205f8282546114ac9190612909565b909155505060808101351561154b5760808101355f806114d26040850160208601612495565b6001600160a01b03166001600160a01b031681526020019081526020015f205f836040013581526020019081526020015f205f8282546115129190612952565b9091555050325f908152602081815260408083208185013584529091528120805460808401359290611545908490612909565b90915550505b600554600160601b90046001600160601b03161561163e576005545f906127109061158a90600160601b90046001600160601b0316606085013561291c565b6115949190612933565b9050805f806115a66020860186612495565b6001600160a01b03166001600160a01b031681526020019081526020015f205f846040013581526020019081526020015f205f8282546115e69190612952565b909155508190505f806115f7610c05565b6001600160a01b03166001600160a01b031681526020019081526020015f205f846040013581526020019081526020015f205f8282546116379190612909565b9091555050505b61164e6040820160208301612495565b6001600160a01b03166116646020830183612495565b6001600160a01b03167f9ed053bb818ff08b8353cd46f78db1f0799f31c9e4458fdb425c10eccd2efc44836040013584606001356040516116af929190918252602082015260400190565b60405180910390a350565b306001600160a01b037f000000000000000000000000000000000000000000000000000000000000000016148061174057507f00000000000000000000000000000000000000000000000000000000000000006001600160a01b03166117345f516020612bdd5f395f51905f52546001600160a01b031690565b6001600160a01b031614155b15610b5a5760405163703e46dd60e11b815260040160405180910390fd5b610c9d61117f565b816001600160a01b03166352d1902d6040518163ffffffff1660e01b8152600401602060405180830381865afa9250505080156117c0575060408051601f3d908101601f191682019092526117bd91810190612a57565b60015b6117e857604051634c9c8ce360e01b81526001600160a01b038316600482015260240161055f565b5f516020612bdd5f395f51905f52811461181857604051632a87526960e21b81526004810182905260240161055f565b6118228383611ebd565b505050565b306001600160a01b037f00000000000000000000000000000000000000000000000000000000000000001614610b5a5760405163703e46dd60e11b815260040160405180910390fd5b7f9016d09d72d40fdae2fd8ceac6b6234c7706214fd39c1cd1e609a0528c19930080546001600160a01b031981166001600160a01b03848116918217845560405192169182907f8be0079c531659141344cd1fd0a4f28419497f9722a3daafe3b4186f6b6457e0905f90a3505050565b7fa16a46d94261c7517cc8ff89f61c0ce93598e3c849801011dee649a6a557d10280546060915f516020612bbd5f395f51905f529161191e90612a6e565b80601f016020809104026020016040519081016040528092919081815260200182805461194a90612a6e565b80156119955780601f1061196c57610100808354040283529160200191611995565b820191905f5260205f20905b81548152906001019060200180831161197857829003601f168201915b505050505091505090565b7fa16a46d94261c7517cc8ff89f61c0ce93598e3c849801011dee649a6a557d10380546060915f516020612bbd5f395f51905f529161191e90612a6e565b5f6119ef6040830160208401612495565b6001600160a01b031603611a5f5760405162461bcd60e51b815260206004820152603160248201527f43757276795661756c74235f77697468647261773a20496e76616c696420776960448201527074686472617720726563697069656e742160781b606482015260840161055f565b5f611a7060c0830160a084016129e9565b6002811115611a8157611a81612991565b14611aec5760405162461bcd60e51b815260206004820152603560248201527f43757276795661756c742377697468647261773a2057726f6e67207479706520604482015274666f72206d657461207472616e73616374696f6e2160581b606482015260840161055f565b60608101355f80611b006020850185612495565b6001600160a01b03166001600160a01b031681526020019081526020015f205f836040013581526020019081526020015f205f828254611b409190612952565b90915550506060810135608082013515611b9b57611b62608083013582612952565b325f9081526020818152604080832081870135845290915281208054929350608085013592909190611b95908490612909565b90915550505b6006546001600160601b031615611c36576006545f9061271090611bcc906001600160601b0316606086013561291c565b611bd69190612933565b9050611be28183612952565b9150805f5f611bef610c05565b6001600160a01b03166001600160a01b031681526020019081526020015f205f856040013581526020019081526020015f205f828254611c2f9190612909565b9091555050505b6001826040013514611c8857604080830180355f90815260046020908152929020546001600160a01b031691611c8291611c71918601612495565b6001600160a01b0383169084611f12565b50611d4d565b5f611c996040840160208501612495565b6001600160a01b0316826040515f6040518083038185875af1925050503d805f8114611ce0576040519150601f19603f3d011682016040523d82523d5f602084013e611ce5565b606091505b5050905080611d4b5760405162461bcd60e51b815260206004820152602c60248201527f43757276795661756c74235f77697468647261773a204554482077697468647260448201526b6177616c206661696c65642160a01b606482015260840161055f565b505b5f611d5b6020840184612495565b6001600160a01b03167f9ed053bb818ff08b8353cd46f78db1f0799f31c9e4458fdb425c10eccd2efc4484604001358560600135604051611da6929190918252602082015260400190565b60405180910390a35050565b5f807ff0c57e16840df040f15088dc2f81fe391c3923bec73e23a9662efc9c229c6a00610811565b611de2611f43565b6109418282611f68565b611df4611f43565b610c9d81611fc7565b5f5f60205f8451602086015f885af180611e1c576040513d5f823e3d81fd5b50505f513d91508115611e33578060011415611e40565b6001600160a01b0384163b155b1561117957604051635274afe760e01b81526001600160a01b038516600482015260240161055f565b5f610811611e75611fcf565b8360405161190160f01b8152600281019290925260228201526042902090565b5f5f5f5f611ea38686611fdd565b925092509250611eb38282612026565b5090949350505050565b611ec6826120de565b6040516001600160a01b038316907fbc7cd75a20ee27fd9adebab32041f755214dbc6bffa90cc0225b39da2e5c2d3b905f90a2805115611f0a576118228282612141565b6109416121b3565b6040516001600160a01b0383811660248301526044820183905261182291859182169063a9059cbb90606401611147565b611f4b6121d2565b610b5a57604051631afcd79f60e31b815260040160405180910390fd5b611f70611f43565b5f516020612bbd5f395f51905f527fa16a46d94261c7517cc8ff89f61c0ce93598e3c849801011dee649a6a557d102611fa98482612aeb565b5060038101611fb88382612aeb565b505f8082556001909101555050565b6110cd611f43565b5f611fd86121eb565b905090565b5f5f5f8351604103612014576020840151604085015160608601515f1a6120068882858561225e565b95509550955050505061201f565b505081515f91506002905b9250925092565b5f82600381111561203957612039612991565b03612042575050565b600182600381111561205657612056612991565b036120745760405163f645eedf60e01b815260040160405180910390fd5b600282600381111561208857612088612991565b036120a95760405163fce698f760e01b81526004810182905260240161055f565b60038260038111156120bd576120bd612991565b03610941576040516335e2f38360e21b81526004810182905260240161055f565b806001600160a01b03163b5f0361211357604051634c9c8ce360e01b81526001600160a01b038216600482015260240161055f565b5f516020612bdd5f395f51905f5280546001600160a01b0319166001600160a01b0392909216919091179055565b60605f5f846001600160a01b03168460405161215d9190612ba6565b5f60405180830381855af49150503d805f8114612195576040519150601f19603f3d011682016040523d82523d5f602084013e61219a565b606091505b50915091506121aa858383612326565b95945050505050565b3415610b5a5760405163b398979f60e01b815260040160405180910390fd5b5f6121db611db2565b54600160401b900460ff16919050565b5f7f8b73c3c69bb8fe3d512ecc4cf759cc79239f7b179b0ffacaa9a75d522b39400f612215612385565b61221d6123ed565b60408051602081019490945283019190915260608201524660808201523060a082015260c00160405160208183030381529060405280519060200120905090565b5f80807f7fffffffffffffffffffffffffffffff5d576e7357a4501ddfe92f46681b20a084111561229757505f9150600390508261231c565b604080515f808252602082018084528a905260ff891692820192909252606081018790526080810186905260019060a0016020604051602081039080840390855afa1580156122e8573d5f5f3e3d5ffd5b5050604051601f1901519150506001600160a01b03811661231357505f92506001915082905061231c565b92505f91508190505b9450945094915050565b60608261233b576123368261242f565b61237e565b815115801561235257506001600160a01b0384163b155b1561237b57604051639996b31560e01b81526001600160a01b038516600482015260240161055f565b50805b9392505050565b5f5f516020612bbd5f395f51905f528161239d6118e0565b8051909150156123b557805160209091012092915050565b815480156123c4579392505050565b7fc5d2460186f7233c927e7db2dcc703c0e500b653ca82273b7bfad8045d85a470935050505090565b5f5f516020612bbd5f395f51905f52816124056119a0565b80519091501561241d57805160209091012092915050565b600182015480156123c4579392505050565b80511561243e57805160208201fd5b60405163d6bda27560e01b815260040160405180910390fd5b80356001600160a01b0381168114610b44575f5ffd5b5f5f6040838503121561247e575f5ffd5b61248783612457565b946020939093013593505050565b5f602082840312156124a5575f5ffd5b61237e82612457565b5f5f5f5f608085870312156124c1575f5ffd5b6124ca85612457565b93506124d860208601612457565b93969395505050506040820135916060013590565b5f60c082840312156124fd575f5ffd5b50919050565b634e487b7160e01b5f52604160045260245ffd5b604051601f8201601f1916810167ffffffffffffffff8111828210171561254057612540612503565b604052919050565b5f82601f830112612557575f5ffd5b813567ffffffffffffffff81111561257157612571612503565b612584601f8201601f1916602001612517565b818152846020838601011115612598575f5ffd5b816020850160208301375f918101602001919091529392505050565b5f5f60e083850312156125c5575f5ffd5b6125cf84846124ed565b915060c083013567ffffffffffffffff8111156125ea575f5ffd5b6125f685828601612548565b9150509250929050565b5f67ffffffffffffffff82111561261957612619612503565b5060051b60200190565b5f82601f830112612632575f5ffd5b813561264561264082612600565b612517565b8082825260208201915060208360051b860101925085831115612666575f5ffd5b602085015b8381101561268357803583526020928301920161266b565b5095945050505050565b5f5f6040838503121561269e575f5ffd5b823567ffffffffffffffff8111156126b4575f5ffd5b8301601f810185136126c4575f5ffd5b80356126d261264082612600565b8082825260208201915060208360051b8501019250878311156126f3575f5ffd5b6020840193505b8284101561271c5761270b84612457565b8252602093840193909101906126fa565b9450505050602083013567ffffffffffffffff81111561273a575f5ffd5b6125f685828601612623565b5f8151808452602084019350602083015f5b82811015612776578151865260209586019590910190600101612758565b5093949350505050565b602081525f61237e6020830184612746565b5f5f604083850312156127a3575f5ffd5b6127ac83612457565b9150602083013567ffffffffffffffff8111156125ea575f5ffd5b5f602082840312156127d7575f5ffd5b5035919050565b5f81518084528060208401602086015e5f602082860101526020601f19601f83011685010191505092915050565b60ff60f81b8816815260e060208201525f61282a60e08301896127de565b828103604084015261283c81896127de565b606084018890526001600160a01b038716608085015260a0840186905283810360c0850152905061286d8185612746565b9a9950505050505050505050565b602081525f61237e60208301846127de565b5f60c0828403121561289d575f5ffd5b61237e83836124ed565b803560038110610b44575f5ffd5b5f5f604083850312156128c6575f5ffd5b6128cf836128a7565b915060208301356001600160601b03811681146128ea575f5ffd5b809150509250929050565b634e487b7160e01b5f52601160045260245ffd5b80820180821115610811576108116128f5565b8082028115828204841417610811576108116128f5565b5f8261294d57634e487b7160e01b5f52601260045260245ffd5b500490565b81810381811115610811576108116128f5565b5f60018201612976576129766128f5565b5060010190565b634e487b7160e01b5f52603260045260245ffd5b634e487b7160e01b5f52602160045260245ffd5b600381106129c157634e487b7160e01b5f52602160045260245ffd5b9052565b604081016129d382856129a5565b6001600160601b03831660208301529392505050565b5f602082840312156129f9575f5ffd5b61237e826128a7565b888152602081018890526001600160a01b038781166040830152861660608201526080810185905260a0810184905260c081018390526101008101612a4a60e08301846129a5565b9998505050505050505050565b5f60208284031215612a67575f5ffd5b5051919050565b600181811c90821680612a8257607f821691505b6020821081036124fd57634e487b7160e01b5f52602260045260245ffd5b601f82111561182257805f5260205f20601f840160051c81016020851015612ac55750805b601f840160051c820191505b81811015612ae4575f8155600101612ad1565b5050505050565b815167ffffffffffffffff811115612b0557612b05612503565b612b1981612b138454612a6e565b84612aa0565b6020601f821160018114612b4b575f8315612b345750848201515b5f19600385901b1c1916600184901b178455612ae4565b5f84815260208120601f198516915b82811015612b7a5787850151825560209485019460019092019101612b5a565b5084821015612b9757868401515f19600387901b60f8161c191681555b50505050600190811b01905550565b5f82518060208501845e5f92019182525091905056fea16a46d94261c7517cc8ff89f61c0ce93598e3c849801011dee649a6a557d100360894a13ba1a3210667c828492db98dca3e2076cc3735a920a3ca505d382bbca2646970667358221220c673390aa109be7b86238be3e90113dfa5656367c901582ea2cd71027bafaf3f64736f6c634300081c0033",
  "linkReferences": {},
  "deployedLinkReferences": {},
  "immutableReferences": {
    "482": [
      {
        "length": 32,
        "start": 5829
      },
      {
        "length": 32,
        "start": 5870
      },
      {
        "length": 32,
        "start": 6194
      }
    ]
  },
  "inputSourceName": "project/contracts/vault/CurvyVaultV2.sol",
  "buildInfoId": "solc-0_8_28-6cc1a01c76b0e02d53719e5bedae3bcb52d61551"
}