{
  "_format": "hh3-artifact-1",
  "contractName": "CurvyVaultV3",
  "sourceName": "contracts/vault/CurvyVaultV3.sol",
  "abi": [
    {
      "inputs": [],
      "stateMutability": "nonpayable",
      "type": "constructor"
    },
    {
      "inputs": [
        {
          "internalType": "address",
          "name": "target",
          "type": "address"
        }
      ],
      "name": "AddressEmptyCode",
      "type": "error"
    },
    {
      "inputs": [],
      "name": "ECDSAInvalidSignature",
      "type": "error"
    },
    {
      "inputs": [
        {
          "internalType": "uint256",
          "name": "length",
          "type": "uint256"
        }
      ],
      "name": "ECDSAInvalidSignatureLength",
      "type": "error"
    },
    {
      "inputs": [
        {
          "internalType": "bytes32",
          "name": "s",
          "type": "bytes32"
        }
      ],
      "name": "ECDSAInvalidSignatureS",
      "type": "error"
    },
    {
      "inputs": [
        {
          "internalType": "address",
          "name": "implementation",
          "type": "address"
        }
      ],
      "name": "ERC1967InvalidImplementation",
      "type": "error"
    },
    {
      "inputs": [],
      "name": "ERC1967NonPayable",
      "type": "error"
    },
    {
      "inputs": [],
      "name": "ETHTransferFailed",
      "type": "error"
    },
    {
      "inputs": [],
      "name": "FailedCall",
      "type": "error"
    },
    {
      "inputs": [],
      "name": "InsufficientAmountForGas",
      "type": "error"
    },
    {
      "inputs": [
        {
          "internalType": "uint256",
          "name": "balance",
          "type": "uint256"
        },
        {
          "internalType": "uint256",
          "name": "required",
          "type": "uint256"
        }
      ],
      "name": "InsufficientBalance",
      "type": "error"
    },
    {
      "inputs": [],
      "name": "InvalidGasSponsorship",
      "type": "error"
    },
    {
      "inputs": [],
      "name": "InvalidInitialization",
      "type": "error"
    },
    {
      "inputs": [],
      "name": "InvalidRecipient",
      "type": "error"
    },
    {
      "inputs": [],
      "name": "InvalidSender",
      "type": "error"
    },
    {
      "inputs": [],
      "name": "InvalidTransactionType",
      "type": "error"
    },
    {
      "inputs": [],
      "name": "NotInitializing",
      "type": "error"
    },
    {
      "inputs": [
        {
          "internalType": "address",
          "name": "owner",
          "type": "address"
        }
      ],
      "name": "OwnableInvalidOwner",
      "type": "error"
    },
    {
      "inputs": [
        {
          "internalType": "address",
          "name": "account",
          "type": "address"
        }
      ],
      "name": "OwnableUnauthorizedAccount",
      "type": "error"
    },
    {
      "inputs": [
        {
          "internalType": "address",
          "name": "token",
          "type": "address"
        }
      ],
      "name": "SafeERC20FailedOperation",
      "type": "error"
    },
    {
      "inputs": [],
      "name": "TokenNotRegistered",
      "type": "error"
    },
    {
      "inputs": [],
      "name": "UUPSUnauthorizedCallContext",
      "type": "error"
    },
    {
      "inputs": [
        {
          "internalType": "bytes32",
          "name": "slot",
          "type": "bytes32"
        }
      ],
      "name": "UUPSUnsupportedProxiableUUID",
      "type": "error"
    },
    {
      "anonymous": false,
      "inputs": [
        {
          "indexed": false,
          "internalType": "address",
          "name": "curvyAggregator",
          "type": "address"
        }
      ],
      "name": "CurvyAggregatorAddressChange",
      "type": "event"
    },
    {
      "anonymous": false,
      "inputs": [],
      "name": "EIP712DomainChanged",
      "type": "event"
    },
    {
      "anonymous": false,
      "inputs": [
        {
          "indexed": false,
          "internalType": "enum CurvyTypes.MetaTransactionType",
          "name": "metaTransactionType",
          "type": "uint8"
        },
        {
          "indexed": false,
          "internalType": "uint96",
          "name": "fee",
          "type": "uint96"
        }
      ],
      "name": "FeeChange",
      "type": "event"
    },
    {
      "anonymous": false,
      "inputs": [
        {
          "indexed": false,
          "internalType": "uint64",
          "name": "version",
          "type": "uint64"
        }
      ],
      "name": "Initialized",
      "type": "event"
    },
    {
      "anonymous": false,
      "inputs": [
        {
          "indexed": true,
          "internalType": "address",
          "name": "signer",
          "type": "address"
        },
        {
          "indexed": false,
          "internalType": "uint256",
          "name": "newNonce",
          "type": "uint256"
        }
      ],
      "name": "NonceChange",
      "type": "event"
    },
    {
      "anonymous": false,
      "inputs": [
        {
          "indexed": true,
          "internalType": "address",
          "name": "previousOwner",
          "type": "address"
        },
        {
          "indexed": true,
          "internalType": "address",
          "name": "newOwner",
          "type": "address"
        }
      ],
      "name": "OwnershipTransferred",
      "type": "event"
    },
    {
      "anonymous": false,
      "inputs": [
        {
          "indexed": false,
          "internalType": "address",
          "name": "token_address",
          "type": "address"
        },
        {
          "indexed": false,
          "internalType": "uint256",
          "name": "token_id",
          "type": "uint256"
        }
      ],
      "name": "TokenRegistration",
      "type": "event"
    },
    {
      "anonymous": false,
      "inputs": [
        {
          "indexed": true,
          "internalType": "address",
          "name": "from",
          "type": "address"
        },
        {
          "indexed": true,
          "internalType": "address",
          "name": "to",
          "type": "address"
        },
        {
          "indexed": false,
          "internalType": "uint256",
          "name": "token_id",
          "type": "uint256"
        },
        {
          "indexed": false,
          "internalType": "uint256",
          "name": "amount",
          "type": "uint256"
        }
      ],
      "name": "Transfer",
      "type": "event"
    },
    {
      "anonymous": false,
      "inputs": [
        {
          "indexed": true,
          "internalType": "address",
          "name": "implementation",
          "type": "address"
        }
      ],
      "name": "Upgraded",
      "type": "event"
    },
    {
      "inputs": [],
      "name": "UPGRADE_INTERFACE_VERSION",
      "outputs": [
        {
          "internalType": "string",
          "name": "",
          "type": "string"
        }
      ],
      "stateMutability": "view",
      "type": "function"
    },
    {
      "inputs": [
        {
          "internalType": "address",
          "name": "owner",
          "type": "address"
        },
        {
          "internalType": "uint256",
          "name": "tokenId",
          "type": "uint256"
        }
      ],
      "name": "balanceOf",
      "outputs": [
        {
          "internalType": "uint256",
          "name": "",
          "type": "uint256"
        }
      ],
      "stateMutability": "view",
      "type": "function"
    },
    {
      "inputs": [
        {
          "internalType": "address[]",
          "name": "owners",
          "type": "address[]"
        },
        {
          "internalType": "uint256[]",
          "name": "tokenIds",
          "type": "uint256[]"
        }
      ],
      "name": "balanceOfBatch",
      "outputs": [
        {
          "internalType": "uint256[]",
          "name": "",
          "type": "uint256[]"
        }
      ],
      "stateMutability": "view",
      "type": "function"
    },
    {
      "inputs": [
        {
          "internalType": "address",
          "name": "tokenAddress",
          "type": "address"
        },
        {
          "internalType": "address",
          "name": "to",
          "type": "address"
        },
        {
          "internalType": "uint256",
          "name": "amount",
          "type": "uint256"
        },
        {
          "internalType": "uint256",
          "name": "gasSponsorshipAmount",
          "type": "uint256"
        }
      ],
      "name": "deposit",
      "outputs": [],
      "stateMutability": "payable",
      "type": "function"
    },
    {
      "inputs": [],
      "name": "depositFee",
      "outputs": [
        {
          "internalType": "uint96",
          "name": "",
          "type": "uint96"
        }
      ],
      "stateMutability": "view",
      "type": "function"
    },
    {
      "inputs": [],
      "name": "eip712Domain",
      "outputs": [
        {
          "internalType": "bytes1",
          "name": "fields",
          "type": "bytes1"
        },
        {
          "internalType": "string",
          "name": "name",
          "type": "string"
        },
        {
          "internalType": "string",
          "name": "version",
          "type": "string"
        },
        {
          "internalType": "uint256",
          "name": "chainId",
          "type": "uint256"
        },
        {
          "internalType": "address",
          "name": "verifyingContract",
          "type": "address"
        },
        {
          "internalType": "bytes32",
          "name": "salt",
          "type": "bytes32"
        },
        {
          "internalType": "uint256[]",
          "name": "extensions",
          "type": "uint256[]"
        }
      ],
      "stateMutability": "view",
      "type": "function"
    },
    {
      "inputs": [
        {
          "internalType": "address",
          "name": "_signer",
          "type": "address"
        }
      ],
      "name": "getNonce",
      "outputs": [
        {
          "internalType": "uint256",
          "name": "nonce",
          "type": "uint256"
        }
      ],
      "stateMutability": "view",
      "type": "function"
    },
    {
      "inputs": [],
      "name": "getNumberOfTokens",
      "outputs": [
        {
          "internalType": "uint256",
          "name": "",
          "type": "uint256"
        }
      ],
      "stateMutability": "view",
      "type": "function"
    },
    {
      "inputs": [
        {
          "internalType": "uint256",
          "name": "tokenId",
          "type": "uint256"
        }
      ],
      "name": "getTokenAddress",
      "outputs": [
        {
          "internalType": "address",
          "name": "tokenAddress",
          "type": "address"
        }
      ],
      "stateMutability": "view",
      "type": "function"
    },
    {
      "inputs": [
        {
          "internalType": "address",
          "name": "tokenAddress",
          "type": "address"
        }
      ],
      "name": "getTokenId",
      "outputs": [
        {
          "internalType": "uint256",
          "name": "tokenId",
          "type": "uint256"
        }
      ],
      "stateMutability": "view",
      "type": "function"
    },
    {
      "inputs": [
        {
          "internalType": "address",
          "name": "initialOwner",
          "type": "address"
        }
      ],
      "name": "initialize",
      "outputs": [],
      "stateMutability": "nonpayable",
      "type": "function"
    },
    {
      "inputs": [],
      "name": "owner",
      "outputs": [
        {
          "internalType": "address",
          "name": "",
          "type": "address"
        }
      ],
      "stateMutability": "view",
      "type": "function"
    },
    {
      "inputs": [],
      "name": "proxiableUUID",
      "outputs": [
        {
          "internalType": "bytes32",
          "name": "",
          "type": "bytes32"
        }
      ],
      "stateMutability": "view",
      "type": "function"
    },
    {
      "inputs": [
        {
          "internalType": "address",
          "name": "tokenAddress",
          "type": "address"
        }
      ],
      "name": "registerToken",
      "outputs": [],
      "stateMutability": "nonpayable",
      "type": "function"
    },
    {
      "inputs": [],
      "name": "renounceOwnership",
      "outputs": [],
      "stateMutability": "nonpayable",
      "type": "function"
    },
    {
      "inputs": [
        {
          "internalType": "address",
          "name": "curvyAggregator",
          "type": "address"
        }
      ],
      "name": "setCurvyAggregatorAddress",
      "outputs": [],
      "stateMutability": "nonpayable",
      "type": "function"
    },
    {
      "inputs": [
        {
          "internalType": "enum CurvyTypes.MetaTransactionType",
          "name": "metaTransactionType",
          "type": "uint8"
        },
        {
          "internalType": "uint96",
          "name": "fee",
          "type": "uint96"
        }
      ],
      "name": "setFeeAmount",
      "outputs": [],
      "stateMutability": "nonpayable",
      "type": "function"
    },
    {
      "inputs": [
        {
          "components": [
            {
              "internalType": "address",
              "name": "from",
              "type": "address"
            },
            {
              "internalType": "address",
              "name": "to",
              "type": "address"
            },
            {
              "internalType": "uint256",
              "name": "tokenId",
              "type": "uint256"
            },
            {
              "internalType": "uint256",
              "name": "amount",
              "type": "uint256"
            },
            {
              "internalType": "uint256",
              "name": "gasFee",
              "type": "uint256"
            },
            {
              "internalType": "enum CurvyTypes.MetaTransactionType",
              "name": "metaTransactionType",
              "type": "uint8"
            }
          ],
          "internalType": "struct CurvyTypes.MetaTransaction",
          "name": "metaTransaction",
          "type": "tuple"
        },
        {
          "internalType": "bytes",
          "name": "signature",
          "type": "bytes"
        }
      ],
      "name": "transfer",
      "outputs": [],
      "stateMutability": "nonpayable",
      "type": "function"
    },
    {
      "inputs": [
        {
          "components": [
            {
              "internalType": "address",
              "name": "from",
              "type": "address"
            },
            {
              "internalType": "address",
              "name": "to",
              "type": "address"
            },
            {
              "internalType": "uint256",
              "name": "tokenId",
              "type": "uint256"
            },
            {
              "internalType": "uint256",
              "name": "amount",
              "type": "uint256"
            },
            {
              "internalType": "uint256",
              "name": "gasFee",
              "type": "uint256"
            },
            {
              "internalType": "enum CurvyTypes.MetaTransactionType",
              "name": "metaTransactionType",
              "type": "uint8"
            }
          ],
          "internalType": "struct CurvyTypes.MetaTransaction",
          "name": "metaTransaction",
          "type": "tuple"
        }
      ],
      "name": "transfer",
      "outputs": [],
      "stateMutability": "nonpayable",
      "type": "function"
    },
    {
      "inputs": [],
      "name": "transferFee",
      "outputs": [
        {
          "internalType": "uint96",
          "name": "",
          "type": "uint96"
        }
      ],
      "stateMutability": "view",
      "type": "function"
    },
    {
      "inputs": [
        {
          "internalType": "address",
          "name": "newOwner",
          "type": "address"
        }
      ],
      "name": "transferOwnership",
      "outputs": [],
      "stateMutability": "nonpayable",
      "type": "function"
    },
    {
      "inputs": [
        {
          "internalType": "address",
          "name": "newImplementation",
          "type": "address"
        },
        {
          "internalType": "bytes",
          "name": "data",
          "type": "bytes"
        }
      ],
      "name": "upgradeToAndCall",
      "outputs": [],
      "stateMutability": "payable",
      "type": "function"
    },
    {
      "inputs": [
        {
          "components": [
            {
              "internalType": "address",
              "name": "from",
              "type": "address"
            },
            {
              "internalType": "address",
              "name": "to",
              "type": "address"
            },
            {
              "internalType": "uint256",
              "name": "tokenId",
              "type": "uint256"
            },
            {
              "internalType": "uint256",
              "name": "amount",
              "type": "uint256"
            },
            {
              "internalType": "uint256",
              "name": "gasFee",
              "type": "uint256"
            },
            {
              "internalType": "enum CurvyTypes.MetaTransactionType",
              "name": "metaTransactionType",
              "type": "uint8"
            }
          ],
          "internalType": "struct CurvyTypes.MetaTransaction",
          "name": "metaTransaction",
          "type": "tuple"
        }
      ],
      "name": "withdraw",
      "outputs": [],
      "stateMutability": "nonpayable",
      "type": "function"
    },
    {
      "inputs": [
        {
          "components": [
            {
              "internalType": "address",
              "name": "from",
              "type": "address"
            },
            {
              "internalType": "address",
              "name": "to",
              "type": "address"
            },
            {
              "internalType": "uint256",
              "name": "tokenId",
              "type": "uint256"
            },
            {
              "internalType": "uint256",
              "name": "amount",
              "type": "uint256"
            },
            {
              "internalType": "uint256",
              "name": "gasFee",
              "type": "uint256"
            },
            {
              "internalType": "enum CurvyTypes.MetaTransactionType",
              "name": "metaTransactionType",
              "type": "uint8"
            }
          ],
          "internalType": "struct CurvyTypes.MetaTransaction",
          "name": "metaTransaction",
          "type": "tuple"
        },
        {
          "internalType": "bytes",
          "name": "signature",
          "type": "bytes"
        }
      ],
      "name": "withdraw",
      "outputs": [],
      "stateMutability": "nonpayable",
      "type": "function"
    },
    {
      "inputs": [],
      "name": "withdrawalFee",
      "outputs": [
        {
          "internalType": "uint96",
          "name": "",
          "type": "uint96"
        }
      ],
      "stateMutability": "view",
      "type": "function"
    },
    {
      "stateMutability": "payable",
      "type": "receive"
    }
  ],
  "bytecode": "0x60a060405230608052348015610013575f5ffd5b5061001c610021565b6100d3565b7ff0c57e16840df040f15088dc2f81fe391c3923bec73e23a9662efc9c229c6a00805468010000000000000000900460ff16156100715760405163f92ee8a960e01b815260040160405180910390fd5b80546001600160401b03908116146100d05780546001600160401b0319166001600160401b0390811782556040519081527fc7f505b2f371ae2175ee4913f4499e1f2633a7b5936321eed1cdaeb6115181d29060200160405180910390a15b50565b608051612d5f6100f95f395f81816117f20152818161181b015261195f0152612d5f5ff3fe608060405260043610610163575f3560e01c806384b0196e116100cd578063b86c4d7211610087578063efeecb5111610062578063efeecb5114610472578063f153768614610486578063f2fde38b146104a5578063fe54fd6a146104c4575f5ffd5b8063b86c4d7214610415578063c4d66de814610434578063de1a272014610453575f5ffd5b806384b0196e146103395780638bc7e8c4146103605780638da5cb5b1461037f578063acb2ad6f14610393578063ad3cb1cc146103b9578063ad8623cc146103f6575f5ffd5b80634f1ef2861161011e5780634f1ef2861461027157806352d1902d1461028457806367a527931461029857806367ccdf38146102cf578063715018a61461030657806377e5614d1461031a575f5ffd5b8062fdd58e1461018e57806309824a80146101c057806320e8c565146101df5780632d0335ab146101f257806331ddbddc146102265780634e1273f414610245575f5ffd5b3661018a5761018873eeeeeeeeeeeeeeeeeeeeeeeeeeeeeeeeeeeeeeee33345f6104e3565b005b5f5ffd5b348015610199575f5ffd5b506101ad6101a836600461259a565b6108bd565b6040519081526020015b60405180910390f35b3480156101cb575f5ffd5b506101886101da3660046125c2565b6108e5565b6101886101ed3660046125db565b6104e3565b3480156101fd575f5ffd5b506101ad61020c3660046125c2565b6001600160a01b03165f9081526001602052604090205490565b348015610231575f5ffd5b506101886102403660046126e1565b6109fd565b348015610250575f5ffd5b5061026461025f3660046127ba565b610a14565b6040516101b791906128ad565b61018861027f3660046128bf565b610b63565b34801561028f575f5ffd5b506101ad610b7e565b3480156102a3575f5ffd5b506005546102b7906001600160601b031681565b6040516001600160601b0390911681526020016101b7565b3480156102da575f5ffd5b506102ee6102e93660046128f4565b610b99565b6040516001600160a01b0390911681526020016101b7565b348015610311575f5ffd5b50610188610c18565b348015610325575f5ffd5b506101886103343660046125c2565b610c2b565b348015610344575f5ffd5b5061034d610c89565b6040516101b79796959493929190612939565b34801561036b575f5ffd5b506006546102b7906001600160601b031681565b34801561038a575f5ffd5b506102ee610d32565b34801561039e575f5ffd5b506005546102b790600160601b90046001600160601b031681565b3480156103c4575f5ffd5b506103e9604051806040016040528060058152602001640352e302e360dc1b81525081565b6040516101b791906129a8565b348015610401575f5ffd5b506101886104103660046129ba565b610d60565b348015610420575f5ffd5b5061018861042f3660046129e2565b610dcd565b34801561043f575f5ffd5b5061018861044e3660046125c2565b610f25565b34801561045e575f5ffd5b5061018861046d3660046129ba565b61110c565b34801561047d575f5ffd5b506002546101ad565b348015610491575f5ffd5b506101ad6104a03660046125c2565b611176565b3480156104b0575f5ffd5b506101886104bf3660046125c2565b6111f2565b3480156104cf575f5ffd5b506101886104de3660046126e1565b61122c565b600654600160601b90046001600160a01b0316331461057d5760405162461bcd60e51b8152602060048201526044602482018190527f4f6e6c7920437572767941676772656761746f722063616e20646f207661756c908201527f74206465706f73697473207468726f75676820706f7274616c206175746f53686064820152631a595b1960e21b608482015260a4015b60405180910390fd5b6001600160a01b0383166105a457604051634e46966960e11b815260040160405180910390fd5b5f6001600160a01b03851673eeeeeeeeeeeeeeeeeeeeeeeeeeeeeeeeeeeeeeee1461068a5734156106365760405162461bcd60e51b815260206004820152603660248201527f43757276795661756c74236465706f7369743a20446f6e27742073656e64204560448201527554482077697468204552433230206465706f7369742160501b6064820152608401610574565b61064b6001600160a01b03861633308661123f565b506001600160a01b0384165f90815260036020526040812054908190036106855760405163259ba1ad60e01b815260040160405180910390fd5b6106f2565b3483146106ee5760405162461bcd60e51b815260206004820152602c60248201527f43757276795661756c74236465706f7369743a20496e636f727265637420646560448201526b706f7369742076616c75652160a01b6064820152608401610574565b5060015b6001600160a01b0384165f9081526020818152604080832084845290915281208054859290610722908490612a36565b90915550506005546001600160601b0316156107e7576005545f9061271090610754906001600160601b031686612a49565b61075e9190612a60565b6001600160a01b0386165f90815260208181526040808320868452909152812080549293508392909190610793908490612a7f565b909155508190505f806107a4610d32565b6001600160a01b03166001600160a01b031681526020019081526020015f205f8481526020019081526020015f205f8282546107e09190612a36565b9091555050505b8115610870576001600160a01b0384165f908152602081815260408083208484529091528120805484929061081d908490612a7f565b909155508290505f8061082e610d32565b6001600160a01b03166001600160a01b031681526020019081526020015f205f8381526020019081526020015f205f82825461086a9190612a36565b90915550505b60408051828152602081018590526001600160a01b038616915f917f9ed053bb818ff08b8353cd46f78db1f0799f31c9e4458fdb425c10eccd2efc44910160405180910390a35050505050565b6001600160a01b0382165f908152602081815260408083208484529091529020545b92915050565b6108ed6112ac565b6001600160a01b0381165f908152600360205260409020541561096e5760405162461bcd60e51b815260206004820152603360248201527f43757276795661756c74237265676973746572546f6b656e3a20546f6b656e20604482015272616c726561647920726567697374657265642160681b6064820152608401610574565b60028054905f61097d83612a92565b9091555050600280545f90815260046020908152604080832080546001600160a01b0319166001600160a01b038716908117909155935484845260038352928190208390558051938452908301919091527ff977d54986414fc91816901629d1d788ad95448ab4198dcb9b6dc5ed2b930c1f91015b60405180910390a150565b610a0782826112de565b610a10826114b0565b5050565b60608151835114610a805760405162461bcd60e51b815260206004820152603060248201527f43757276795661756c742362616c616e63654f6642617463683a20496e76616c60448201526f6964206172726179206c656e6774682160801b6064820152608401610574565b5f835167ffffffffffffffff811115610a9b57610a9b612630565b604051908082528060200260200182016040528015610ac4578160200160208202803683370190505b5090505f5b8451811015610b5b575f5f868381518110610ae657610ae6612aaa565b60200260200101516001600160a01b03166001600160a01b031681526020019081526020015f205f858381518110610b2057610b20612aaa565b602002602001015181526020019081526020015f2054828281518110610b4857610b48612aaa565b6020908102919091010152600101610ac9565b509392505050565b610b6b6117e7565b610b748261188b565b610a108282611893565b5f610b87611954565b505f516020612d0a5f395f51905f5290565b5f818152600460205260409020546001600160a01b031680610c135760405162461bcd60e51b815260206004820152602d60248201527f43757276795661756c743a236765744964416464726573733a20556e7265676960448201526c73746572656420746f6b656e2160981b6064820152608401610574565b919050565b610c206112ac565b610c295f61199d565b565b610c336112ac565b600680546001600160601b0316600160601b6001600160a01b038416908102919091179091556040519081527f655e5d85efd94f0a91c5daa6b61dc00c7047473c77ebf046c47ab252bd25ea31906020016109f2565b5f60608082808083815f516020612cea5f395f51905f528054909150158015610cb457506001810154155b610cf85760405162461bcd60e51b81526020600482015260156024820152741152540dcc4c8e88155b9a5b9a5d1a585b1a5e9959605a1b6044820152606401610574565b610d00611a0d565b610d08611acd565b604080515f80825260208201909252600f60f81b9c939b5091995046985030975095509350915050565b7f9016d09d72d40fdae2fd8ceac6b6234c7706214fd39c1cd1e609a0528c199300546001600160a01b031690565b610d6d60208201826125c2565b6001600160a01b0316336001600160a01b031614610d9e57604051636edaef2f60e11b815260040160405180910390fd5b608081013515610dc15760405163094816b760e41b815260040160405180910390fd5b610dca81611b0b565b50565b610dd56112ac565b6002826002811115610de957610de9612abe565b03610e0e57600580546001600160601b0319166001600160601b038316179055610ee8565b6001826002811115610e2257610e22612abe565b03610e5557600580546bffffffffffffffffffffffff60601b1916600160601b6001600160601b03841602179055610ee8565b5f826002811115610e6857610e68612abe565b03610e8d57600680546001600160601b0319166001600160601b038316179055610ee8565b60405162461bcd60e51b815260206004820152602a60248201527f43757276795661756c7423736574466565416d6f756e743a20556e6b6e6f776e6044820152692066656520747970652160b01b6064820152608401610574565b7f5f70d5d3c1200aea00f3b75c7a1b38bcfc5455bd0863e6fcd4f097304b859d9c8282604051610f19929190612af2565b60405180910390a15050565b5f610f2e611edf565b805490915060ff600160401b820416159067ffffffffffffffff165f81158015610f555750825b90505f8267ffffffffffffffff166001148015610f715750303b155b905081158015610f7f575080155b15610f9d5760405163f92ee8a960e01b815260040160405180910390fd5b845467ffffffffffffffff191660011785558315610fc757845460ff60401b1916600160401b1785555b60017f40c35f83c179e47de306c9fe55fdc60064f11dd52adb51ab61b5643ee626f98d8190555f819052600460209081527fabd6e7cb50984ff9c2f3e18a2660c3353dadf4e3291deeb275dae2cd1e44fe0580546001600160a01b03191673eeeeeeeeeeeeeeeeeeeeeeeeeeeeeeeeeeeeeeee179055600291909155604080518082018252601381527210dd5c9d9e48141c9a5d9858de4815985d5b1d606a1b81840152815180830190925260038252620322e360ec1b9282019290925261108f9190611f07565b61109886611f19565b600580546001600160c01b031916600a179055600680546001600160601b0319166014179055831561110457845460ff60401b19168555604051600181527fc7f505b2f371ae2175ee4913f4499e1f2633a7b5936321eed1cdaeb6115181d29060200160405180910390a15b505050505050565b61111960208201826125c2565b6001600160a01b0316336001600160a01b03161461114a57604051636edaef2f60e11b815260040160405180910390fd5b60808101351561116d5760405163094816b760e41b815260040160405180910390fd5b610dca816114b0565b6001600160a01b0381165f9081526003602052604081205490819003610c135760405162461bcd60e51b815260206004820152602b60248201527f43757276795661756c743a23676574546f6b656e49443a20556e72656769737460448201526a6572656420746f6b656e2160a81b6064820152608401610574565b6111fa6112ac565b6001600160a01b03811661122357604051631e4fbdf760e01b81525f6004820152602401610574565b610dca8161199d565b61123682826112de565b610a1082611b0b565b6040516001600160a01b0384811660248301528381166044830152606482018390526112a69186918216906323b872dd906084015b604051602081830303815290604052915060e01b6020820180516001600160e01b038381831617835250505050611f2a565b50505050565b336112b5610d32565b6001600160a01b031614610c295760405163118cdaa760e01b8152336004820152602401610574565b5f7fb208091ed952365f02c7667b3695159d6ab560ae0ba382eea4872477552b281e60018261131060208701876125c2565b6001600160a01b031681526020808201929092526040015f205490611337908601866125c2565b61134760408701602088016125c2565b60408701356060880135608089013561136660c08b0160a08c01612b16565b60405160200161137d989796959493929190612b2f565b6040516020818303038152906040528051906020012090505f61139f82611f96565b90505f6113ac8285611fc2565b90506113bb60208601866125c2565b6001600160a01b0316816001600160a01b0316146114355760405162461bcd60e51b815260206004820152603160248201527f43757276795661756c74235f76616c69646174655369676e61747572653a20496044820152706e76616c6964207369676e61747572652160781b6064820152608401610574565b6001600160a01b0381165f90815260016020526040812080549161145883612a92565b90915550506001600160a01b0381165f818152600160209081526040918290205491519182527fb861b7bdbe611a846ab271b8d2810391bc8b5a968f390c322438ecab66bccf59910160405180910390a25050505050565b5f6114c160408301602084016125c2565b6001600160a01b0316036114e857604051634e46966960e11b815260040160405180910390fd5b60016114fa60c0830160a08401612b16565b600281111561150b5761150b612abe565b1461152957604051637513b90360e01b815260040160405180910390fd5b60608101355f8061153d60208501856125c2565b6001600160a01b03166001600160a01b031681526020019081526020015f205f836040013581526020019081526020015f205f82825461157d9190612a7f565b909155505060608101355f8061159960408501602086016125c2565b6001600160a01b03166001600160a01b031681526020019081526020015f205f836040013581526020019081526020015f205f8282546115d99190612a36565b90915550506080810135156116785760808101355f806115ff60408501602086016125c2565b6001600160a01b03166001600160a01b031681526020019081526020015f205f836040013581526020019081526020015f205f82825461163f9190612a7f565b9091555050325f908152602081815260408083208185013584529091528120805460808401359290611672908490612a36565b90915550505b600554600160601b90046001600160601b03161561176b576005545f90612710906116b790600160601b90046001600160601b03166060850135612a49565b6116c19190612a60565b9050805f806116d360208601866125c2565b6001600160a01b03166001600160a01b031681526020019081526020015f205f846040013581526020019081526020015f205f8282546117139190612a7f565b909155508190505f80611724610d32565b6001600160a01b03166001600160a01b031681526020019081526020015f205f846040013581526020019081526020015f205f8282546117649190612a36565b9091555050505b61177b60408201602083016125c2565b6001600160a01b031661179160208301836125c2565b6001600160a01b03167f9ed053bb818ff08b8353cd46f78db1f0799f31c9e4458fdb425c10eccd2efc44836040013584606001356040516117dc929190918252602082015260400190565b60405180910390a350565b306001600160a01b037f000000000000000000000000000000000000000000000000000000000000000016148061186d57507f00000000000000000000000000000000000000000000000000000000000000006001600160a01b03166118615f516020612d0a5f395f51905f52546001600160a01b031690565b6001600160a01b031614155b15610c295760405163703e46dd60e11b815260040160405180910390fd5b610dca6112ac565b816001600160a01b03166352d1902d6040518163ffffffff1660e01b8152600401602060405180830381865afa9250505080156118ed575060408051601f3d908101601f191682019092526118ea91810190612b84565b60015b61191557604051634c9c8ce360e01b81526001600160a01b0383166004820152602401610574565b5f516020612d0a5f395f51905f52811461194557604051632a87526960e21b815260048101829052602401610574565b61194f8383611fea565b505050565b306001600160a01b037f00000000000000000000000000000000000000000000000000000000000000001614610c295760405163703e46dd60e11b815260040160405180910390fd5b7f9016d09d72d40fdae2fd8ceac6b6234c7706214fd39c1cd1e609a0528c19930080546001600160a01b031981166001600160a01b03848116918217845560405192169182907f8be0079c531659141344cd1fd0a4f28419497f9722a3daafe3b4186f6b6457e0905f90a3505050565b7fa16a46d94261c7517cc8ff89f61c0ce93598e3c849801011dee649a6a557d10280546060915f516020612cea5f395f51905f5291611a4b90612b9b565b80601f0160208091040260200160405190810160405280929190818152602001828054611a7790612b9b565b8015611ac25780601f10611a9957610100808354040283529160200191611ac2565b820191905f5260205f20905b815481529060010190602001808311611aa557829003601f168201915b505050505091505090565b7fa16a46d94261c7517cc8ff89f61c0ce93598e3c849801011dee649a6a557d10380546060915f516020612cea5f395f51905f5291611a4b90612b9b565b5f611b1c60408301602084016125c2565b6001600160a01b031603611b8c5760405162461bcd60e51b815260206004820152603160248201527f43757276795661756c74235f77697468647261773a20496e76616c696420776960448201527074686472617720726563697069656e742160781b6064820152608401610574565b5f611b9d60c0830160a08401612b16565b6002811115611bae57611bae612abe565b14611c195760405162461bcd60e51b815260206004820152603560248201527f43757276795661756c742377697468647261773a2057726f6e67207479706520604482015274666f72206d657461207472616e73616374696f6e2160581b6064820152608401610574565b60608101355f80611c2d60208501856125c2565b6001600160a01b03166001600160a01b031681526020019081526020015f205f836040013581526020019081526020015f205f828254611c6d9190612a7f565b90915550506060810135608082013515611cc857611c8f608083013582612a7f565b325f9081526020818152604080832081870135845290915281208054929350608085013592909190611cc2908490612a36565b90915550505b6006546001600160601b031615611d63576006545f9061271090611cf9906001600160601b03166060860135612a49565b611d039190612a60565b9050611d0f8183612a7f565b9150805f5f611d1c610d32565b6001600160a01b03166001600160a01b031681526020019081526020015f205f856040013581526020019081526020015f205f828254611d5c9190612a36565b9091555050505b6001826040013514611db557604080830180355f90815260046020908152929020546001600160a01b031691611daf91611d9e9186016125c2565b6001600160a01b038316908461203f565b50611e7a565b5f611dc660408401602085016125c2565b6001600160a01b0316826040515f6040518083038185875af1925050503d805f8114611e0d576040519150601f19603f3d011682016040523d82523d5f602084013e611e12565b606091505b5050905080611e785760405162461bcd60e51b815260206004820152602c60248201527f43757276795661756c74235f77697468647261773a204554482077697468647260448201526b6177616c206661696c65642160a01b6064820152608401610574565b505b5f611e8860208401846125c2565b6001600160a01b03167f9ed053bb818ff08b8353cd46f78db1f0799f31c9e4458fdb425c10eccd2efc4484604001358560600135604051611ed3929190918252602082015260400190565b60405180910390a35050565b5f807ff0c57e16840df040f15088dc2f81fe391c3923bec73e23a9662efc9c229c6a006108df565b611f0f612070565b610a108282612095565b611f21612070565b610dca816120f4565b5f5f60205f8451602086015f885af180611f49576040513d5f823e3d81fd5b50505f513d91508115611f60578060011415611f6d565b6001600160a01b0384163b155b156112a657604051635274afe760e01b81526001600160a01b0385166004820152602401610574565b5f6108df611fa26120fc565b8360405161190160f01b8152600281019290925260228201526042902090565b5f5f5f5f611fd0868661210a565b925092509250611fe08282612153565b5090949350505050565b611ff38261220b565b6040516001600160a01b038316907fbc7cd75a20ee27fd9adebab32041f755214dbc6bffa90cc0225b39da2e5c2d3b905f90a28051156120375761194f828261226e565b610a106122e0565b6040516001600160a01b0383811660248301526044820183905261194f91859182169063a9059cbb90606401611274565b6120786122ff565b610c2957604051631afcd79f60e31b815260040160405180910390fd5b61209d612070565b5f516020612cea5f395f51905f527fa16a46d94261c7517cc8ff89f61c0ce93598e3c849801011dee649a6a557d1026120d68482612c18565b50600381016120e58382612c18565b505f8082556001909101555050565b6111fa612070565b5f612105612318565b905090565b5f5f5f8351604103612141576020840151604085015160608601515f1a6121338882858561238b565b95509550955050505061214c565b505081515f91506002905b9250925092565b5f82600381111561216657612166612abe565b0361216f575050565b600182600381111561218357612183612abe565b036121a15760405163f645eedf60e01b815260040160405180910390fd5b60028260038111156121b5576121b5612abe565b036121d65760405163fce698f760e01b815260048101829052602401610574565b60038260038111156121ea576121ea612abe565b03610a10576040516335e2f38360e21b815260048101829052602401610574565b806001600160a01b03163b5f0361224057604051634c9c8ce360e01b81526001600160a01b0382166004820152602401610574565b5f516020612d0a5f395f51905f5280546001600160a01b0319166001600160a01b0392909216919091179055565b60605f5f846001600160a01b03168460405161228a9190612cd3565b5f60405180830381855af49150503d805f81146122c2576040519150601f19603f3d011682016040523d82523d5f602084013e6122c7565b606091505b50915091506122d7858383612453565b95945050505050565b3415610c295760405163b398979f60e01b815260040160405180910390fd5b5f612308611edf565b54600160401b900460ff16919050565b5f7f8b73c3c69bb8fe3d512ecc4cf759cc79239f7b179b0ffacaa9a75d522b39400f6123426124b2565b61234a61251a565b60408051602081019490945283019190915260608201524660808201523060a082015260c00160405160208183030381529060405280519060200120905090565b5f80807f7fffffffffffffffffffffffffffffff5d576e7357a4501ddfe92f46681b20a08411156123c457505f91506003905082612449565b604080515f808252602082018084528a905260ff891692820192909252606081018790526080810186905260019060a0016020604051602081039080840390855afa158015612415573d5f5f3e3d5ffd5b5050604051601f1901519150506001600160a01b03811661244057505f925060019150829050612449565b92505f91508190505b9450945094915050565b606082612468576124638261255c565b6124ab565b815115801561247f57506001600160a01b0384163b155b156124a857604051639996b31560e01b81526001600160a01b0385166004820152602401610574565b50805b9392505050565b5f5f516020612cea5f395f51905f52816124ca611a0d565b8051909150156124e257805160209091012092915050565b815480156124f1579392505050565b7fc5d2460186f7233c927e7db2dcc703c0e500b653ca82273b7bfad8045d85a470935050505090565b5f5f516020612cea5f395f51905f5281612532611acd565b80519091501561254a57805160209091012092915050565b600182015480156124f1579392505050565b80511561256b57805160208201fd5b60405163d6bda27560e01b815260040160405180910390fd5b80356001600160a01b0381168114610c13575f5ffd5b5f5f604083850312156125ab575f5ffd5b6125b483612584565b946020939093013593505050565b5f602082840312156125d2575f5ffd5b6124ab82612584565b5f5f5f5f608085870312156125ee575f5ffd5b6125f785612584565b935061260560208601612584565b93969395505050506040820135916060013590565b5f60c0828403121561262a575f5ffd5b50919050565b634e487b7160e01b5f52604160045260245ffd5b604051601f8201601f1916810167ffffffffffffffff8111828210171561266d5761266d612630565b604052919050565b5f82601f830112612684575f5ffd5b813567ffffffffffffffff81111561269e5761269e612630565b6126b1601f8201601f1916602001612644565b8181528460208386010111156126c5575f5ffd5b816020850160208301375f918101602001919091529392505050565b5f5f60e083850312156126f2575f5ffd5b6126fc848461261a565b915060c083013567ffffffffffffffff811115612717575f5ffd5b61272385828601612675565b9150509250929050565b5f67ffffffffffffffff82111561274657612746612630565b5060051b60200190565b5f82601f83011261275f575f5ffd5b813561277261276d8261272d565b612644565b8082825260208201915060208360051b860101925085831115612793575f5ffd5b602085015b838110156127b0578035835260209283019201612798565b5095945050505050565b5f5f604083850312156127cb575f5ffd5b823567ffffffffffffffff8111156127e1575f5ffd5b8301601f810185136127f1575f5ffd5b80356127ff61276d8261272d565b8082825260208201915060208360051b850101925087831115612820575f5ffd5b6020840193505b828410156128495761283884612584565b825260209384019390910190612827565b9450505050602083013567ffffffffffffffff811115612867575f5ffd5b61272385828601612750565b5f8151808452602084019350602083015f5b828110156128a3578151865260209586019590910190600101612885565b5093949350505050565b602081525f6124ab6020830184612873565b5f5f604083850312156128d0575f5ffd5b6128d983612584565b9150602083013567ffffffffffffffff811115612717575f5ffd5b5f60208284031215612904575f5ffd5b5035919050565b5f81518084528060208401602086015e5f602082860101526020601f19601f83011685010191505092915050565b60ff60f81b8816815260e060208201525f61295760e083018961290b565b8281036040840152612969818961290b565b606084018890526001600160a01b038716608085015260a0840186905283810360c0850152905061299a8185612873565b9a9950505050505050505050565b602081525f6124ab602083018461290b565b5f60c082840312156129ca575f5ffd5b6124ab838361261a565b803560038110610c13575f5ffd5b5f5f604083850312156129f3575f5ffd5b6129fc836129d4565b915060208301356001600160601b0381168114612a17575f5ffd5b809150509250929050565b634e487b7160e01b5f52601160045260245ffd5b808201808211156108df576108df612a22565b80820281158282048414176108df576108df612a22565b5f82612a7a57634e487b7160e01b5f52601260045260245ffd5b500490565b818103818111156108df576108df612a22565b5f60018201612aa357612aa3612a22565b5060010190565b634e487b7160e01b5f52603260045260245ffd5b634e487b7160e01b5f52602160045260245ffd5b60038110612aee57634e487b7160e01b5f52602160045260245ffd5b9052565b60408101612b008285612ad2565b6001600160601b03831660208301529392505050565b5f60208284031215612b26575f5ffd5b6124ab826129d4565b888152602081018890526001600160a01b038781166040830152861660608201526080810185905260a0810184905260c081018390526101008101612b7760e0830184612ad2565b9998505050505050505050565b5f60208284031215612b94575f5ffd5b5051919050565b600181811c90821680612baf57607f821691505b60208210810361262a57634e487b7160e01b5f52602260045260245ffd5b601f82111561194f57805f5260205f20601f840160051c81016020851015612bf25750805b601f840160051c820191505b81811015612c11575f8155600101612bfe565b5050505050565b815167ffffffffffffffff811115612c3257612c32612630565b612c4681612c408454612b9b565b84612bcd565b6020601f821160018114612c78575f8315612c615750848201515b5f19600385901b1c1916600184901b178455612c11565b5f84815260208120601f198516915b82811015612ca75787850151825560209485019460019092019101612c87565b5084821015612cc457868401515f19600387901b60f8161c191681555b50505050600190811b01905550565b5f82518060208501845e5f92019182525091905056fea16a46d94261c7517cc8ff89f61c0ce93598e3c849801011dee649a6a557d100360894a13ba1a3210667c828492db98dca3e2076cc3735a920a3ca505d382bbca2646970667358221220df19561c5ab8a17864d5afedf033cb7957a160b2187b2ff9b65e8fa01cd0940664736f6c634300081c0033",
  "linkReferences": {},
  "deployedLinkReferences": {},
  "immutableReferences": {
    "482": [
      {
        "length": 32,
        "start": 6130
      },
      {
        "length": 32,
        "start": 6171
      },
      {
        "length": 32,
        "start": 6495
      }
    ]
  },
  "inputSourceName": "project/contracts/vault/CurvyVaultV3.sol",
  "buildInfoId": "solc-0_8_28-2fdcdbada2eee84a734cef1e494de4601c6cbc09"
}