{
  "_format": "hh3-artifact-1",
  "contractName": "CurvyVaultV6",
  "sourceName": "contracts/vault/CurvyVaultV6.sol",
  "abi": [
    {
      "inputs": [],
      "stateMutability": "nonpayable",
      "type": "constructor"
    },
    {
      "inputs": [
        {
          "internalType": "address",
          "name": "target",
          "type": "address"
        }
      ],
      "name": "AddressEmptyCode",
      "type": "error"
    },
    {
      "inputs": [
        {
          "internalType": "address",
          "name": "implementation",
          "type": "address"
        }
      ],
      "name": "ERC1967InvalidImplementation",
      "type": "error"
    },
    {
      "inputs": [],
      "name": "ERC1967NonPayable",
      "type": "error"
    },
    {
      "inputs": [],
      "name": "ERC20TransferFailed",
      "type": "error"
    },
    {
      "inputs": [],
      "name": "ETHTransferFailed",
      "type": "error"
    },
    {
      "inputs": [],
      "name": "FailedCall",
      "type": "error"
    },
    {
      "inputs": [],
      "name": "InvalidDestinationAddress",
      "type": "error"
    },
    {
      "inputs": [],
      "name": "InvalidInitialization",
      "type": "error"
    },
    {
      "inputs": [],
      "name": "InvalidRecipient",
      "type": "error"
    },
    {
      "inputs": [],
      "name": "NotCurvyAggregator",
      "type": "error"
    },
    {
      "inputs": [],
      "name": "NotCurvyAggregatorOrOwner",
      "type": "error"
    },
    {
      "inputs": [],
      "name": "NotInitializing",
      "type": "error"
    },
    {
      "inputs": [
        {
          "internalType": "address",
          "name": "owner",
          "type": "address"
        }
      ],
      "name": "OwnableInvalidOwner",
      "type": "error"
    },
    {
      "inputs": [
        {
          "internalType": "address",
          "name": "account",
          "type": "address"
        }
      ],
      "name": "OwnableUnauthorizedAccount",
      "type": "error"
    },
    {
      "inputs": [
        {
          "internalType": "address",
          "name": "token",
          "type": "address"
        }
      ],
      "name": "SafeERC20FailedOperation",
      "type": "error"
    },
    {
      "inputs": [],
      "name": "TokenAlreadyRegistered",
      "type": "error"
    },
    {
      "inputs": [],
      "name": "TokenNotRegistered",
      "type": "error"
    },
    {
      "inputs": [],
      "name": "UUPSUnauthorizedCallContext",
      "type": "error"
    },
    {
      "inputs": [
        {
          "internalType": "bytes32",
          "name": "slot",
          "type": "bytes32"
        }
      ],
      "name": "UUPSUnsupportedProxiableUUID",
      "type": "error"
    },
    {
      "inputs": [],
      "name": "WithdrawalFeeNotSet",
      "type": "error"
    },
    {
      "anonymous": false,
      "inputs": [
        {
          "indexed": false,
          "internalType": "address",
          "name": "curvyAggregator",
          "type": "address"
        }
      ],
      "name": "CurvyAggregatorAddressChange",
      "type": "event"
    },
    {
      "anonymous": false,
      "inputs": [
        {
          "indexed": true,
          "internalType": "address",
          "name": "tokenAddress",
          "type": "address"
        },
        {
          "indexed": true,
          "internalType": "address",
          "name": "to",
          "type": "address"
        },
        {
          "indexed": false,
          "internalType": "uint256",
          "name": "amount",
          "type": "uint256"
        }
      ],
      "name": "Deposit",
      "type": "event"
    },
    {
      "anonymous": false,
      "inputs": [],
      "name": "EIP712DomainChanged",
      "type": "event"
    },
    {
      "anonymous": false,
      "inputs": [
        {
          "components": [
            {
              "internalType": "uint96",
              "name": "depositFee",
              "type": "uint96"
            },
            {
              "internalType": "uint96",
              "name": "withdrawalFee",
              "type": "uint96"
            }
          ],
          "indexed": false,
          "internalType": "struct CurvyTypes.FeeUpdate",
          "name": "feeUpdate",
          "type": "tuple"
        }
      ],
      "name": "FeeChange",
      "type": "event"
    },
    {
      "anonymous": false,
      "inputs": [
        {
          "indexed": false,
          "internalType": "uint64",
          "name": "version",
          "type": "uint64"
        }
      ],
      "name": "Initialized",
      "type": "event"
    },
    {
      "anonymous": false,
      "inputs": [
        {
          "indexed": true,
          "internalType": "address",
          "name": "previousOwner",
          "type": "address"
        },
        {
          "indexed": true,
          "internalType": "address",
          "name": "newOwner",
          "type": "address"
        }
      ],
      "name": "OwnershipTransferred",
      "type": "event"
    },
    {
      "anonymous": false,
      "inputs": [
        {
          "indexed": false,
          "internalType": "address",
          "name": "tokenAddress",
          "type": "address"
        },
        {
          "indexed": false,
          "internalType": "uint256",
          "name": "tokenId",
          "type": "uint256"
        }
      ],
      "name": "TokenDeregistered",
      "type": "event"
    },
    {
      "anonymous": false,
      "inputs": [
        {
          "indexed": false,
          "internalType": "address",
          "name": "token_address",
          "type": "address"
        },
        {
          "indexed": false,
          "internalType": "uint256",
          "name": "token_id",
          "type": "uint256"
        }
      ],
      "name": "TokenRegistration",
      "type": "event"
    },
    {
      "anonymous": false,
      "inputs": [
        {
          "indexed": true,
          "internalType": "address",
          "name": "implementation",
          "type": "address"
        }
      ],
      "name": "Upgraded",
      "type": "event"
    },
    {
      "anonymous": false,
      "inputs": [
        {
          "indexed": true,
          "internalType": "address",
          "name": "tokenAddress",
          "type": "address"
        },
        {
          "indexed": true,
          "internalType": "address",
          "name": "to",
          "type": "address"
        },
        {
          "indexed": false,
          "internalType": "uint256",
          "name": "amount",
          "type": "uint256"
        }
      ],
      "name": "Withdraw",
      "type": "event"
    },
    {
      "inputs": [],
      "name": "UPGRADE_INTERFACE_VERSION",
      "outputs": [
        {
          "internalType": "string",
          "name": "",
          "type": "string"
        }
      ],
      "stateMutability": "view",
      "type": "function"
    },
    {
      "inputs": [
        {
          "internalType": "address",
          "name": "owner",
          "type": "address"
        },
        {
          "internalType": "uint256",
          "name": "tokenId",
          "type": "uint256"
        }
      ],
      "name": "balanceOf",
      "outputs": [
        {
          "internalType": "uint256",
          "name": "",
          "type": "uint256"
        }
      ],
      "stateMutability": "view",
      "type": "function"
    },
    {
      "inputs": [
        {
          "internalType": "uint256",
          "name": "tokenId",
          "type": "uint256"
        }
      ],
      "name": "collectFees",
      "outputs": [],
      "stateMutability": "nonpayable",
      "type": "function"
    },
    {
      "inputs": [
        {
          "internalType": "address",
          "name": "tokenAddress",
          "type": "address"
        },
        {
          "internalType": "address",
          "name": "to",
          "type": "address"
        },
        {
          "internalType": "uint256",
          "name": "amount",
          "type": "uint256"
        }
      ],
      "name": "deposit",
      "outputs": [],
      "stateMutability": "payable",
      "type": "function"
    },
    {
      "inputs": [],
      "name": "depositFee",
      "outputs": [
        {
          "internalType": "uint96",
          "name": "",
          "type": "uint96"
        }
      ],
      "stateMutability": "view",
      "type": "function"
    },
    {
      "inputs": [
        {
          "internalType": "address",
          "name": "tokenAddress",
          "type": "address"
        }
      ],
      "name": "deregisterToken",
      "outputs": [],
      "stateMutability": "nonpayable",
      "type": "function"
    },
    {
      "inputs": [],
      "name": "eip712Domain",
      "outputs": [
        {
          "internalType": "bytes1",
          "name": "fields",
          "type": "bytes1"
        },
        {
          "internalType": "string",
          "name": "name",
          "type": "string"
        },
        {
          "internalType": "string",
          "name": "version",
          "type": "string"
        },
        {
          "internalType": "uint256",
          "name": "chainId",
          "type": "uint256"
        },
        {
          "internalType": "address",
          "name": "verifyingContract",
          "type": "address"
        },
        {
          "internalType": "bytes32",
          "name": "salt",
          "type": "bytes32"
        },
        {
          "internalType": "uint256[]",
          "name": "extensions",
          "type": "uint256[]"
        }
      ],
      "stateMutability": "view",
      "type": "function"
    },
    {
      "inputs": [],
      "name": "getNumberOfTokens",
      "outputs": [
        {
          "internalType": "uint256",
          "name": "",
          "type": "uint256"
        }
      ],
      "stateMutability": "view",
      "type": "function"
    },
    {
      "inputs": [
        {
          "internalType": "uint256",
          "name": "tokenId",
          "type": "uint256"
        }
      ],
      "name": "getTokenAddress",
      "outputs": [
        {
          "internalType": "address",
          "name": "tokenAddress",
          "type": "address"
        }
      ],
      "stateMutability": "view",
      "type": "function"
    },
    {
      "inputs": [
        {
          "internalType": "address",
          "name": "tokenAddress",
          "type": "address"
        }
      ],
      "name": "getTokenId",
      "outputs": [
        {
          "internalType": "uint256",
          "name": "tokenId",
          "type": "uint256"
        }
      ],
      "stateMutability": "view",
      "type": "function"
    },
    {
      "inputs": [
        {
          "internalType": "address",
          "name": "initialOwner",
          "type": "address"
        }
      ],
      "name": "initialize",
      "outputs": [],
      "stateMutability": "nonpayable",
      "type": "function"
    },
    {
      "inputs": [],
      "name": "owner",
      "outputs": [
        {
          "internalType": "address",
          "name": "",
          "type": "address"
        }
      ],
      "stateMutability": "view",
      "type": "function"
    },
    {
      "inputs": [],
      "name": "proxiableUUID",
      "outputs": [
        {
          "internalType": "bytes32",
          "name": "",
          "type": "bytes32"
        }
      ],
      "stateMutability": "view",
      "type": "function"
    },
    {
      "inputs": [
        {
          "internalType": "address",
          "name": "tokenAddress",
          "type": "address"
        }
      ],
      "name": "registerToken",
      "outputs": [],
      "stateMutability": "nonpayable",
      "type": "function"
    },
    {
      "inputs": [],
      "name": "renounceOwnership",
      "outputs": [],
      "stateMutability": "nonpayable",
      "type": "function"
    },
    {
      "inputs": [
        {
          "internalType": "address",
          "name": "curvyAggregator",
          "type": "address"
        }
      ],
      "name": "setCurvyAggregatorAddress",
      "outputs": [],
      "stateMutability": "nonpayable",
      "type": "function"
    },
    {
      "inputs": [
        {
          "components": [
            {
              "internalType": "uint96",
              "name": "depositFee",
              "type": "uint96"
            },
            {
              "internalType": "uint96",
              "name": "withdrawalFee",
              "type": "uint96"
            }
          ],
          "internalType": "struct CurvyTypes.FeeUpdate",
          "name": "feeUpdate",
          "type": "tuple"
        }
      ],
      "name": "setFeeAmount",
      "outputs": [],
      "stateMutability": "nonpayable",
      "type": "function"
    },
    {
      "inputs": [],
      "name": "transferFee",
      "outputs": [
        {
          "internalType": "uint96",
          "name": "",
          "type": "uint96"
        }
      ],
      "stateMutability": "view",
      "type": "function"
    },
    {
      "inputs": [
        {
          "internalType": "address",
          "name": "newOwner",
          "type": "address"
        }
      ],
      "name": "transferOwnership",
      "outputs": [],
      "stateMutability": "nonpayable",
      "type": "function"
    },
    {
      "inputs": [
        {
          "internalType": "address",
          "name": "newImplementation",
          "type": "address"
        },
        {
          "internalType": "bytes",
          "name": "data",
          "type": "bytes"
        }
      ],
      "name": "upgradeToAndCall",
      "outputs": [],
      "stateMutability": "payable",
      "type": "function"
    },
    {
      "inputs": [
        {
          "internalType": "uint256",
          "name": "tokenId",
          "type": "uint256"
        },
        {
          "internalType": "address",
          "name": "to",
          "type": "address"
        },
        {
          "internalType": "uint256",
          "name": "amount",
          "type": "uint256"
        }
      ],
      "name": "withdraw",
      "outputs": [],
      "stateMutability": "nonpayable",
      "type": "function"
    },
    {
      "inputs": [],
      "name": "withdrawalFee",
      "outputs": [
        {
          "internalType": "uint96",
          "name": "",
          "type": "uint96"
        }
      ],
      "stateMutability": "view",
      "type": "function"
    }
  ],
  "bytecode": "0x60a060405230608052348015610013575f5ffd5b5061001c610021565b6100d3565b7ff0c57e16840df040f15088dc2f81fe391c3923bec73e23a9662efc9c229c6a00805468010000000000000000900460ff16156100715760405163f92ee8a960e01b815260040160405180910390fd5b80546001600160401b03908116146100d05780546001600160401b0319166001600160401b0390811782556040519081527fc7f505b2f371ae2175ee4913f4499e1f2633a7b5936321eed1cdaeb6115181d29060200160405180910390a15b50565b608051611c7b6100f95f395f81816110420152818161106b01526111aa0152611c7b5ff3fe608060405260043610610130575f3560e01c80638bc7e8c4116100a8578063bab2af1d1161006d578063bab2af1d1461035d578063c4d66de81461037c578063e63697c81461039b578063efeecb51146103ba578063f1537686146103ce578063f2fde38b146103ed575f5ffd5b80638bc7e8c4146102a85780638da5cb5b146102c7578063acb2ad6f146102db578063ad3cb1cc14610301578063b17acdcd1461033e575f5ffd5b806367a52793116100f957806367a52793146101cd57806367ccdf3814610204578063715018a61461023b57806377e5614d1461024f5780638340f5491461026e57806384b0196e14610281575f5ffd5b8062fdd58e1461013457806309824a8014610166578063432c0553146101875780634f1ef286146101a657806352d1902d146101b9575b5f5ffd5b34801561013f575f5ffd5b5061015361014e366004611730565b61040c565b6040519081526020015b60405180910390f35b348015610171575f5ffd5b50610185610180366004611758565b610434565b005b348015610192575f5ffd5b506101856101a1366004611771565b610501565b6101856101b436600461179e565b610596565b3480156101c4575f5ffd5b506101536105b5565b3480156101d8575f5ffd5b506005546101ec906001600160601b031681565b6040516001600160601b03909116815260200161015d565b34801561020f575f5ffd5b5061022361021e366004611862565b6105d0565b6040516001600160a01b03909116815260200161015d565b348015610246575f5ffd5b5061018561060a565b34801561025a575f5ffd5b50610185610269366004611758565b61061d565b61018561027c366004611879565b61067b565b34801561028c575f5ffd5b506102956108d8565b60405161015d97969594939291906118e1565b3480156102b3575f5ffd5b506006546101ec906001600160601b031681565b3480156102d2575f5ffd5b50610223610986565b3480156102e6575f5ffd5b506005546101ec90600160601b90046001600160601b031681565b34801561030c575f5ffd5b50610331604051806040016040528060058152602001640352e302e360dc1b81525081565b60405161015d9190611977565b348015610349575f5ffd5b50610185610358366004611862565b6109b4565b348015610368575f5ffd5b50610185610377366004611758565b610a9a565b348015610387575f5ffd5b50610185610396366004611758565b610b4a565b3480156103a6575f5ffd5b506101856103b5366004611989565b610d31565b3480156103c5575f5ffd5b50600254610153565b3480156103d9575f5ffd5b506101536103e8366004611758565b610f8f565b3480156103f8575f5ffd5b50610185610407366004611758565b610fc8565b6001600160a01b0382165f908152602081815260408083208484529091529020545b92915050565b61043c611005565b6001600160a01b0381165f908152600360205260409020541561047257604051633ea7ffd960e11b815260040160405180910390fd5b60028054905f610481836119bf565b9091555050600280545f90815260046020908152604080832080546001600160a01b0319166001600160a01b038716908117909155935484845260038352928190208390558051938452908301919091527ff977d54986414fc91816901629d1d788ad95448ab4198dcb9b6dc5ed2b930c1f91015b60405180910390a150565b610509611005565b61051660208201826119ed565b600580546001600160601b0319166001600160601b039290921691909117905561054660408201602083016119ed565b600680546001600160601b0319166001600160601b03929092169190911790556040517f05b0d5368126ccdf14c78784aaaf9b84ef107f0da56a648b96377e939a745b91906104f6908390611a06565b61059e611037565b6105a7826110db565b6105b182826110e3565b5050565b5f6105be61119f565b505f516020611c265f395f51905f5290565b5f818152600460205260409020546001600160a01b0316806106055760405163259ba1ad60e01b815260040160405180910390fd5b919050565b610612611005565b61061b5f6111e8565b565b610625611005565b600680546001600160601b0316600160601b6001600160a01b038416908102919091179091556040519081527f655e5d85efd94f0a91c5daa6b61dc00c7047473c77ebf046c47ab252bd25ea31906020016104f6565b600654600160601b90046001600160a01b031633146106ad57604051631ef0010360e21b815260040160405180910390fd5b6001600160a01b0382166106d457604051634e46966960e11b815260040160405180910390fd5b5f6001600160a01b03841673eeeeeeeeeeeeeeeeeeeeeeeeeeeeeeeeeeeeeeee1461076c57341561071857604051633c9fd93960e21b815260040160405180910390fd5b506001600160a01b0383165f90815260036020526040812054908190036107525760405163259ba1ad60e01b815260040160405180910390fd5b6107676001600160a01b038516333085611258565b610790565b34821461078c5760405163b12d13eb60e01b815260040160405180910390fd5b5060015b6001600160a01b0383165f90815260208181526040808320848452909152812080548492906107c0908490611a3e565b90915550506005546001600160601b031615610885576005545f90612710906107f2906001600160601b031685611a51565b6107fc9190611a68565b6001600160a01b0385165f90815260208181526040808320868452909152812080549293508392909190610831908490611a87565b909155508190505f80610842610986565b6001600160a01b03166001600160a01b031681526020019081526020015f205f8481526020019081526020015f205f82825461087e9190611a3e565b9091555050505b826001600160a01b0316846001600160a01b03167f5548c837ab068cf56a2c2479df0882a4922fd203edb7517321831d95078c5f62846040516108ca91815260200190565b60405180910390a350505050565b5f60608082808083815f516020611c065f395f51905f52805490915015801561090357506001810154155b61094c5760405162461bcd60e51b81526020600482015260156024820152741152540dcc4c8e88155b9a5b9a5d1a585b1a5e9959605a1b60448201526064015b60405180910390fd5b6109546112bf565b61095c61137f565b604080515f80825260208201909252600f60f81b9c939b5091995046985030975095509350915050565b7f9016d09d72d40fdae2fd8ceac6b6234c7706214fd39c1cd1e609a0528c199300546001600160a01b031690565b6109bc611005565b5f818152600460205260409020546001600160a01b0316806109f15760405163259ba1ad60e01b815260040160405180910390fd5b335f908152602081815260408083208584529091528120805491905560018314610a2e57610a296001600160a01b03831633836113bd565b505050565b6040515f90339083908381818185875af1925050503d805f8114610a6d576040519150601f19603f3d011682016040523d82523d5f602084013e610a72565b606091505b5050905080610a945760405163b12d13eb60e01b815260040160405180910390fd5b50505050565b610aa2611005565b6001600160a01b0381165f9081526003602052604081205490819003610adb5760405163259ba1ad60e01b815260040160405180910390fd5b6001600160a01b0382165f818152600360209081526040808320839055848352600482529182902080546001600160a01b0319169055815192835282018390527fb22138f13a420bba1ab2b64bc09fab38675c54bb673095a4c684db4966d07260910160405180910390a15050565b5f610b536113ee565b805490915060ff600160401b820416159067ffffffffffffffff165f81158015610b7a5750825b90505f8267ffffffffffffffff166001148015610b965750303b155b905081158015610ba4575080155b15610bc25760405163f92ee8a960e01b815260040160405180910390fd5b845467ffffffffffffffff191660011785558315610bec57845460ff60401b1916600160401b1785555b60017f40c35f83c179e47de306c9fe55fdc60064f11dd52adb51ab61b5643ee626f98d8190555f819052600460209081527fabd6e7cb50984ff9c2f3e18a2660c3353dadf4e3291deeb275dae2cd1e44fe0580546001600160a01b03191673eeeeeeeeeeeeeeeeeeeeeeeeeeeeeeeeeeeeeeee179055600291909155604080518082018252601381527210dd5c9d9e48141c9a5d9858de4815985d5b1d606a1b81840152815180830190925260038252620312e360ec1b92820192909252610cb49190611416565b610cbd86611428565b600580546001600160c01b031916600a179055600680546001600160601b03191660141790558315610d2957845460ff60401b19168555604051600181527fc7f505b2f371ae2175ee4913f4499e1f2633a7b5936321eed1cdaeb6115181d29060200160405180910390a15b505050505050565b600654600160601b90046001600160a01b03163314801590610d6c5750610d56610986565b6001600160a01b0316336001600160a01b031614155b15610d8a57604051630314de4760e41b815260040160405180910390fd5b6001600160a01b038216610db157604051634e46966960e11b815260040160405180910390fd5b5f838152600460205260409020546001600160a01b031680610de65760405163259ba1ad60e01b815260040160405180910390fd5b335f9081526020818152604080832087845290915281208054849290610e0d908490611a87565b909155505060065482906001600160601b031615610ea8576006545f9061271090610e41906001600160601b031686611a51565b610e4b9190611a68565b9050805f5f610e58610986565b6001600160a01b03166001600160a01b031681526020019081526020015f205f8881526020019081526020015f205f828254610e949190611a3e565b90915550610ea490508183611a87565b9150505b60018514610ec957610ec46001600160a01b03831685836113bd565b610f3b565b5f846001600160a01b0316826040515f6040518083038185875af1925050503d805f8114610f12576040519150601f19603f3d011682016040523d82523d5f602084013e610f17565b606091505b5050905080610f395760405163b12d13eb60e01b815260040160405180910390fd5b505b836001600160a01b0316826001600160a01b03167f9b1bfa7fa9ee420a16e124f794c35ac9f90472acc99140eb2f6447c714cad8eb85604051610f8091815260200190565b60405180910390a35050505050565b6001600160a01b0381165f90815260036020526040812054908190036106055760405163259ba1ad60e01b815260040160405180910390fd5b610fd0611005565b6001600160a01b038116610ff957604051631e4fbdf760e01b81525f6004820152602401610943565b611002816111e8565b50565b3361100e610986565b6001600160a01b03161461061b5760405163118cdaa760e01b8152336004820152602401610943565b306001600160a01b037f00000000000000000000000000000000000000000000000000000000000000001614806110bd57507f00000000000000000000000000000000000000000000000000000000000000006001600160a01b03166110b15f516020611c265f395f51905f52546001600160a01b031690565b6001600160a01b031614155b1561061b5760405163703e46dd60e11b815260040160405180910390fd5b611002611005565b816001600160a01b03166352d1902d6040518163ffffffff1660e01b8152600401602060405180830381865afa92505050801561113d575060408051601f3d908101601f1916820190925261113a91810190611a9a565b60015b61116557604051634c9c8ce360e01b81526001600160a01b0383166004820152602401610943565b5f516020611c265f395f51905f52811461119557604051632a87526960e21b815260048101829052602401610943565b610a298383611439565b306001600160a01b037f0000000000000000000000000000000000000000000000000000000000000000161461061b5760405163703e46dd60e11b815260040160405180910390fd5b7f9016d09d72d40fdae2fd8ceac6b6234c7706214fd39c1cd1e609a0528c19930080546001600160a01b031981166001600160a01b03848116918217845560405192169182907f8be0079c531659141344cd1fd0a4f28419497f9722a3daafe3b4186f6b6457e0905f90a3505050565b6040516001600160a01b038481166024830152838116604483015260648201839052610a949186918216906323b872dd906084015b604051602081830303815290604052915060e01b6020820180516001600160e01b03838183161783525050505061148e565b7fa16a46d94261c7517cc8ff89f61c0ce93598e3c849801011dee649a6a557d10280546060915f516020611c065f395f51905f52916112fd90611ab1565b80601f016020809104026020016040519081016040528092919081815260200182805461132990611ab1565b80156113745780601f1061134b57610100808354040283529160200191611374565b820191905f5260205f20905b81548152906001019060200180831161135757829003601f168201915b505050505091505090565b7fa16a46d94261c7517cc8ff89f61c0ce93598e3c849801011dee649a6a557d10380546060915f516020611c065f395f51905f52916112fd90611ab1565b6040516001600160a01b03838116602483015260448201839052610a2991859182169063a9059cbb9060640161128d565b5f807ff0c57e16840df040f15088dc2f81fe391c3923bec73e23a9662efc9c229c6a0061042e565b61141e6114fa565b6105b1828261151f565b6114306114fa565b6110028161157e565b61144282611586565b6040516001600160a01b038316907fbc7cd75a20ee27fd9adebab32041f755214dbc6bffa90cc0225b39da2e5c2d3b905f90a280511561148657610a2982826115e9565b6105b161165b565b5f5f60205f8451602086015f885af1806114ad576040513d5f823e3d81fd5b50505f513d915081156114c45780600114156114d1565b6001600160a01b0384163b155b15610a9457604051635274afe760e01b81526001600160a01b0385166004820152602401610943565b61150261167a565b61061b57604051631afcd79f60e31b815260040160405180910390fd5b6115276114fa565b5f516020611c065f395f51905f527fa16a46d94261c7517cc8ff89f61c0ce93598e3c849801011dee649a6a557d1026115608482611b34565b506003810161156f8382611b34565b505f8082556001909101555050565b610fd06114fa565b806001600160a01b03163b5f036115bb57604051634c9c8ce360e01b81526001600160a01b0382166004820152602401610943565b5f516020611c265f395f51905f5280546001600160a01b0319166001600160a01b0392909216919091179055565b60605f5f846001600160a01b0316846040516116059190611bef565b5f60405180830381855af49150503d805f811461163d576040519150601f19603f3d011682016040523d82523d5f602084013e611642565b606091505b5091509150611652858383611693565b95945050505050565b341561061b5760405163b398979f60e01b815260040160405180910390fd5b5f6116836113ee565b54600160401b900460ff16919050565b6060826116a8576116a3826116f2565b6116eb565b81511580156116bf57506001600160a01b0384163b155b156116e857604051639996b31560e01b81526001600160a01b0385166004820152602401610943565b50805b9392505050565b80511561170157805160208201fd5b60405163d6bda27560e01b815260040160405180910390fd5b80356001600160a01b0381168114610605575f5ffd5b5f5f60408385031215611741575f5ffd5b61174a8361171a565b946020939093013593505050565b5f60208284031215611768575f5ffd5b6116eb8261171a565b5f6040828403128015611782575f5ffd5b509092915050565b634e487b7160e01b5f52604160045260245ffd5b5f5f604083850312156117af575f5ffd5b6117b88361171a565b9150602083013567ffffffffffffffff8111156117d3575f5ffd5b8301601f810185136117e3575f5ffd5b803567ffffffffffffffff8111156117fd576117fd61178a565b604051601f8201601f19908116603f0116810167ffffffffffffffff8111828210171561182c5761182c61178a565b604052818152828201602001871015611843575f5ffd5b816020840160208301375f602083830101528093505050509250929050565b5f60208284031215611872575f5ffd5b5035919050565b5f5f5f6060848603121561188b575f5ffd5b6118948461171a565b92506118a26020850161171a565b929592945050506040919091013590565b5f81518084528060208401602086015e5f602082860101526020601f19601f83011685010191505092915050565b60ff60f81b8816815260e060208201525f6118ff60e08301896118b3565b828103604084015261191181896118b3565b606084018890526001600160a01b038716608085015260a0840186905283810360c0850152845180825260208087019350909101905f5b81811015611966578351835260209384019390920191600101611948565b50909b9a5050505050505050505050565b602081525f6116eb60208301846118b3565b5f5f5f6060848603121561199b575f5ffd5b833592506118a26020850161171a565b634e487b7160e01b5f52601160045260245ffd5b5f600182016119d0576119d06119ab565b5060010190565b80356001600160601b0381168114610605575f5ffd5b5f602082840312156119fd575f5ffd5b6116eb826119d7565b604081016001600160601b03611a1b846119d7565b1682526001600160601b03611a32602085016119d7565b16602083015292915050565b8082018082111561042e5761042e6119ab565b808202811582820484141761042e5761042e6119ab565b5f82611a8257634e487b7160e01b5f52601260045260245ffd5b500490565b8181038181111561042e5761042e6119ab565b5f60208284031215611aaa575f5ffd5b5051919050565b600181811c90821680611ac557607f821691505b602082108103611ae357634e487b7160e01b5f52602260045260245ffd5b50919050565b601f821115610a2957805f5260205f20601f840160051c81016020851015611b0e5750805b601f840160051c820191505b81811015611b2d575f8155600101611b1a565b5050505050565b815167ffffffffffffffff811115611b4e57611b4e61178a565b611b6281611b5c8454611ab1565b84611ae9565b6020601f821160018114611b94575f8315611b7d5750848201515b5f19600385901b1c1916600184901b178455611b2d565b5f84815260208120601f198516915b82811015611bc35787850151825560209485019460019092019101611ba3565b5084821015611be057868401515f19600387901b60f8161c191681555b50505050600190811b01905550565b5f82518060208501845e5f92019182525091905056fea16a46d94261c7517cc8ff89f61c0ce93598e3c849801011dee649a6a557d100360894a13ba1a3210667c828492db98dca3e2076cc3735a920a3ca505d382bbca2646970667358221220abf4833af5f4eaf00c587d9249e43bdb81105120a948ba55ef3190468959dffb64736f6c634300081c0033",
  "linkReferences": {},
  "deployedLinkReferences": {},
  "immutableReferences": {
    "482": [
      {
        "length": 32,
        "start": 4162
      },
      {
        "length": 32,
        "start": 4203
      },
      {
        "length": 32,
        "start": 4522
      }
    ]
  },
  "inputSourceName": "project/contracts/vault/CurvyVaultV6.sol",
  "buildInfoId": "solc-0_8_28-915f4226bef13b6e9d8ccf97b34f615b8b839b0f"
}