{
  "_format": "hh3-artifact-1",
  "contractName": "CurvyAggregatorAlphaV5",
  "sourceName": "contracts/aggregator-alpha/CurvyAggregatorAlphaV5.sol",
  "abi": [
    {
      "inputs": [],
      "stateMutability": "nonpayable",
      "type": "constructor"
    },
    {
      "inputs": [
        {
          "internalType": "address",
          "name": "target",
          "type": "address"
        }
      ],
      "name": "AddressEmptyCode",
      "type": "error"
    },
    {
      "inputs": [],
      "name": "CurrentNoteTreeRootMismatch",
      "type": "error"
    },
    {
      "inputs": [],
      "name": "CurrentNullifierTreeRootMismatch",
      "type": "error"
    },
    {
      "inputs": [
        {
          "internalType": "address",
          "name": "implementation",
          "type": "address"
        }
      ],
      "name": "ERC1967InvalidImplementation",
      "type": "error"
    },
    {
      "inputs": [],
      "name": "ERC1967NonPayable",
      "type": "error"
    },
    {
      "inputs": [],
      "name": "FailedCall",
      "type": "error"
    },
    {
      "inputs": [],
      "name": "InvalidInitialization",
      "type": "error"
    },
    {
      "inputs": [],
      "name": "InvalidNotesRoot",
      "type": "error"
    },
    {
      "inputs": [],
      "name": "InvalidProof",
      "type": "error"
    },
    {
      "inputs": [],
      "name": "InvalidWithdrawProof",
      "type": "error"
    },
    {
      "inputs": [],
      "name": "NotInitializing",
      "type": "error"
    },
    {
      "inputs": [],
      "name": "NoteNotScheduledForDeposit",
      "type": "error"
    },
    {
      "inputs": [
        {
          "internalType": "address",
          "name": "owner",
          "type": "address"
        }
      ],
      "name": "OwnableInvalidOwner",
      "type": "error"
    },
    {
      "inputs": [
        {
          "internalType": "address",
          "name": "account",
          "type": "address"
        }
      ],
      "name": "OwnableUnauthorizedAccount",
      "type": "error"
    },
    {
      "inputs": [],
      "name": "PortalNotRegistered",
      "type": "error"
    },
    {
      "inputs": [
        {
          "internalType": "address",
          "name": "token",
          "type": "address"
        }
      ],
      "name": "SafeERC20FailedOperation",
      "type": "error"
    },
    {
      "inputs": [],
      "name": "UUPSUnauthorizedCallContext",
      "type": "error"
    },
    {
      "inputs": [
        {
          "internalType": "bytes32",
          "name": "slot",
          "type": "bytes32"
        }
      ],
      "name": "UUPSUnsupportedProxiableUUID",
      "type": "error"
    },
    {
      "anonymous": false,
      "inputs": [
        {
          "indexed": false,
          "internalType": "uint256",
          "name": "noteId",
          "type": "uint256"
        }
      ],
      "name": "DepositedNote",
      "type": "event"
    },
    {
      "anonymous": false,
      "inputs": [
        {
          "indexed": false,
          "internalType": "uint64",
          "name": "version",
          "type": "uint64"
        }
      ],
      "name": "Initialized",
      "type": "event"
    },
    {
      "anonymous": false,
      "inputs": [
        {
          "indexed": true,
          "internalType": "address",
          "name": "previousOwner",
          "type": "address"
        },
        {
          "indexed": true,
          "internalType": "address",
          "name": "newOwner",
          "type": "address"
        }
      ],
      "name": "OwnershipTransferred",
      "type": "event"
    },
    {
      "anonymous": false,
      "inputs": [
        {
          "indexed": true,
          "internalType": "address",
          "name": "implementation",
          "type": "address"
        }
      ],
      "name": "Upgraded",
      "type": "event"
    },
    {
      "inputs": [],
      "name": "UPGRADE_INTERFACE_VERSION",
      "outputs": [
        {
          "internalType": "string",
          "name": "",
          "type": "string"
        }
      ],
      "stateMutability": "view",
      "type": "function"
    },
    {
      "inputs": [],
      "name": "aggregationVerifier",
      "outputs": [
        {
          "internalType": "contract ICurvyAggregationVerifier",
          "name": "",
          "type": "address"
        }
      ],
      "stateMutability": "view",
      "type": "function"
    },
    {
      "inputs": [
        {
          "components": [
            {
              "internalType": "uint256",
              "name": "ownerHash",
              "type": "uint256"
            },
            {
              "internalType": "uint256",
              "name": "token",
              "type": "uint256"
            },
            {
              "internalType": "uint256",
              "name": "amount",
              "type": "uint256"
            }
          ],
          "internalType": "struct CurvyTypes.Note",
          "name": "note",
          "type": "tuple"
        }
      ],
      "name": "autoShield",
      "outputs": [],
      "stateMutability": "payable",
      "type": "function"
    },
    {
      "inputs": [
        {
          "internalType": "uint256[2]",
          "name": "proof_a",
          "type": "uint256[2]"
        },
        {
          "internalType": "uint256[2][2]",
          "name": "proof_b",
          "type": "uint256[2][2]"
        },
        {
          "internalType": "uint256[2]",
          "name": "proof_c",
          "type": "uint256[2]"
        },
        {
          "internalType": "uint256[14]",
          "name": "publicInputs",
          "type": "uint256[14]"
        }
      ],
      "name": "commitAggregationBatch",
      "outputs": [],
      "stateMutability": "nonpayable",
      "type": "function"
    },
    {
      "inputs": [
        {
          "internalType": "uint256[2]",
          "name": "proof_a",
          "type": "uint256[2]"
        },
        {
          "internalType": "uint256[2][2]",
          "name": "proof_b",
          "type": "uint256[2][2]"
        },
        {
          "internalType": "uint256[2]",
          "name": "proof_c",
          "type": "uint256[2]"
        },
        {
          "internalType": "uint256[4]",
          "name": "publicInputs",
          "type": "uint256[4]"
        }
      ],
      "name": "commitDepositBatch",
      "outputs": [],
      "stateMutability": "nonpayable",
      "type": "function"
    },
    {
      "inputs": [
        {
          "internalType": "uint256[2]",
          "name": "proof_a",
          "type": "uint256[2]"
        },
        {
          "internalType": "uint256[2][2]",
          "name": "proof_b",
          "type": "uint256[2][2]"
        },
        {
          "internalType": "uint256[2]",
          "name": "proof_c",
          "type": "uint256[2]"
        },
        {
          "internalType": "uint256[9]",
          "name": "publicInputs",
          "type": "uint256[9]"
        }
      ],
      "name": "commitWithdrawalBatch",
      "outputs": [],
      "stateMutability": "nonpayable",
      "type": "function"
    },
    {
      "inputs": [],
      "name": "curvyVault",
      "outputs": [
        {
          "internalType": "contract ICurvyVaultV2",
          "name": "",
          "type": "address"
        }
      ],
      "stateMutability": "view",
      "type": "function"
    },
    {
      "inputs": [],
      "name": "getNoteTreeRoot",
      "outputs": [
        {
          "internalType": "uint256",
          "name": "",
          "type": "uint256"
        }
      ],
      "stateMutability": "view",
      "type": "function"
    },
    {
      "inputs": [],
      "name": "getNullifiersTreeRoot",
      "outputs": [
        {
          "internalType": "uint256",
          "name": "",
          "type": "uint256"
        }
      ],
      "stateMutability": "view",
      "type": "function"
    },
    {
      "inputs": [
        {
          "internalType": "address",
          "name": "initialOwner",
          "type": "address"
        }
      ],
      "name": "initialize",
      "outputs": [],
      "stateMutability": "nonpayable",
      "type": "function"
    },
    {
      "inputs": [],
      "name": "insertionVerifier",
      "outputs": [
        {
          "internalType": "contract ICurvyInsertionVerifier",
          "name": "",
          "type": "address"
        }
      ],
      "stateMutability": "view",
      "type": "function"
    },
    {
      "inputs": [],
      "name": "maxAggregations",
      "outputs": [
        {
          "internalType": "uint256",
          "name": "",
          "type": "uint256"
        }
      ],
      "stateMutability": "view",
      "type": "function"
    },
    {
      "inputs": [],
      "name": "maxDeposits",
      "outputs": [
        {
          "internalType": "uint256",
          "name": "",
          "type": "uint256"
        }
      ],
      "stateMutability": "view",
      "type": "function"
    },
    {
      "inputs": [],
      "name": "maxWithdrawals",
      "outputs": [
        {
          "internalType": "uint256",
          "name": "",
          "type": "uint256"
        }
      ],
      "stateMutability": "view",
      "type": "function"
    },
    {
      "inputs": [
        {
          "internalType": "uint256",
          "name": "noteId",
          "type": "uint256"
        }
      ],
      "name": "noteInQueue",
      "outputs": [
        {
          "internalType": "bool",
          "name": "",
          "type": "bool"
        }
      ],
      "stateMutability": "view",
      "type": "function"
    },
    {
      "inputs": [],
      "name": "owner",
      "outputs": [
        {
          "internalType": "address",
          "name": "",
          "type": "address"
        }
      ],
      "stateMutability": "view",
      "type": "function"
    },
    {
      "inputs": [],
      "name": "portalFactory",
      "outputs": [
        {
          "internalType": "contract IPortalFactory",
          "name": "",
          "type": "address"
        }
      ],
      "stateMutability": "view",
      "type": "function"
    },
    {
      "inputs": [],
      "name": "proxiableUUID",
      "outputs": [
        {
          "internalType": "bytes32",
          "name": "",
          "type": "bytes32"
        }
      ],
      "stateMutability": "view",
      "type": "function"
    },
    {
      "inputs": [],
      "name": "renounceOwnership",
      "outputs": [],
      "stateMutability": "nonpayable",
      "type": "function"
    },
    {
      "inputs": [
        {
          "internalType": "uint256",
          "name": "newNotesTreeRoot",
          "type": "uint256"
        },
        {
          "internalType": "uint256",
          "name": "newNullifiersTreeRoot",
          "type": "uint256"
        }
      ],
      "name": "reset",
      "outputs": [],
      "stateMutability": "nonpayable",
      "type": "function"
    },
    {
      "inputs": [
        {
          "internalType": "address",
          "name": "newOwner",
          "type": "address"
        }
      ],
      "name": "transferOwnership",
      "outputs": [],
      "stateMutability": "nonpayable",
      "type": "function"
    },
    {
      "inputs": [
        {
          "components": [
            {
              "internalType": "address",
              "name": "insertionVerifier",
              "type": "address"
            },
            {
              "internalType": "address",
              "name": "aggregationVerifier",
              "type": "address"
            },
            {
              "internalType": "address",
              "name": "withdrawVerifier",
              "type": "address"
            },
            {
              "internalType": "address",
              "name": "curvyVault",
              "type": "address"
            },
            {
              "internalType": "address",
              "name": "portalFactory",
              "type": "address"
            },
            {
              "internalType": "uint256",
              "name": "maxDeposits",
              "type": "uint256"
            },
            {
              "internalType": "uint256",
              "name": "maxWithdrawals",
              "type": "uint256"
            },
            {
              "internalType": "uint256",
              "name": "maxAggregations",
              "type": "uint256"
            }
          ],
          "internalType": "struct CurvyTypes.AggregatorConfigurationUpdateV2",
          "name": "_update",
          "type": "tuple"
        }
      ],
      "name": "updateConfig",
      "outputs": [
        {
          "internalType": "bool",
          "name": "",
          "type": "bool"
        }
      ],
      "stateMutability": "nonpayable",
      "type": "function"
    },
    {
      "inputs": [
        {
          "internalType": "address",
          "name": "newImplementation",
          "type": "address"
        },
        {
          "internalType": "bytes",
          "name": "data",
          "type": "bytes"
        }
      ],
      "name": "upgradeToAndCall",
      "outputs": [],
      "stateMutability": "payable",
      "type": "function"
    },
    {
      "inputs": [],
      "name": "withdrawVerifier",
      "outputs": [
        {
          "internalType": "contract ICurvyWithdrawVerifierV3",
          "name": "",
          "type": "address"
        }
      ],
      "stateMutability": "view",
      "type": "function"
    }
  ],
  "bytecode": "0x60a060405230608052348015610013575f5ffd5b5061001c610021565b6100d3565b7ff0c57e16840df040f15088dc2f81fe391c3923bec73e23a9662efc9c229c6a00805468010000000000000000900460ff16156100715760405163f92ee8a960e01b815260040160405180910390fd5b80546001600160401b03908116146100d05780546001600160401b0319166001600160401b0390811782556040519081527fc7f505b2f371ae2175ee4913f4499e1f2633a7b5936321eed1cdaeb6115181d29060200160405180910390a15b50565b608051611d506100f95f395f8181610f9f01528181610fc8015261110c0152611d505ff3fe608060405260043610610147575f3560e01c806376775ce1116100b3578063ad3cb1cc1161006d578063ad3cb1cc14610386578063b974158a146103c3578063c4d66de8146103e2578063cf101a4914610401578063f157639414610420578063f2fde38b14610434575f5ffd5b806376775ce1146102a6578063864eb164146102e45780638ae11770146103035780638da5cb5b14610318578063a54149d414610354578063abed779014610367575f5ffd5b80633fb07027116101045780633fb07027146102185780634f1ef2861461023757806352d1902d1461024a5780636a085b501461025e578063715018a61461027d5780637584938314610291575f5ffd5b80631a82739b1461014b5780631dc436371461016c5780632654a8e61461018b57806329426cd0146101c7578063332ee0d5146101e5578063354d594b14610204575b5f5ffd5b348015610156575f5ffd5b5061016a6101653660046116d7565b610453565b005b348015610177575f5ffd5b5061016a610186366004611779565b610603565b348015610196575f5ffd5b50600a546101aa906001600160a01b031681565b6040516001600160a01b0390911681526020015b60405180910390f35b3480156101d2575f5ffd5b506005545b6040519081526020016101be565b3480156101f0575f5ffd5b5061016a6101ff366004611799565b610616565b34801561020f575f5ffd5b506101d75f5481565b348015610223575f5ffd5b506006546101aa906001600160a01b031681565b61016a61024536600461182c565b610816565b348015610255575f5ffd5b506101d7610835565b348015610269575f5ffd5b5061016a6102783660046118d3565b610850565b348015610288575f5ffd5b5061016a6109d4565b34801561029c575f5ffd5b506101d760015481565b3480156102b1575f5ffd5b506102d46102c0366004611944565b5f9081526003602052604090205460ff1690565b60405190151581526020016101be565b3480156102ef575f5ffd5b506009546101aa906001600160a01b031681565b34801561030e575f5ffd5b506101d760025481565b348015610323575f5ffd5b507f9016d09d72d40fdae2fd8ceac6b6234c7706214fd39c1cd1e609a0528c199300546001600160a01b03166101aa565b61016a61036236600461195b565b6109e7565b348015610372575f5ffd5b506008546101aa906001600160a01b031681565b348015610391575f5ffd5b506103b6604051806040016040528060058152602001640352e302e360dc1b81525081565b6040516101be91906119b4565b3480156103ce575f5ffd5b506007546101aa906001600160a01b031681565b3480156103ed575f5ffd5b5061016a6103fc3660046119e9565b610ca3565b34801561040c575f5ffd5b506102d461041b366004611a04565b610d9b565b34801561042b575f5ffd5b506004546101d7565b34801561043f575f5ffd5b5061016a61044e3660046119e9565b610ef7565b5f8160015460026104649190611aab565b61046f906001611ac2565b600e811061047f5761047f611ad5565b602002015190505f8260015460026104979190611aab565b6104a2906002611ac2565b600e81106104b2576104b2611ad5565b602002015190505f8360015460026104ca9190611aab565b6104d5906003611ac2565b600e81106104e5576104e5611ad5565b602002015190505f8460015460026104fd9190611aab565b610508906004611ac2565b600e811061051857610518611ad5565b6020020151905081600454146105415760405163215fc8af60e11b815260040160405180910390fd5b8360055414610563576040516322e685b360e11b815260040160405180910390fd5b600854604051638d15f88f60e01b81526001600160a01b0390911690638d15f88f90610599908b908b908b908b90600401611b54565b602060405180830381865afa1580156105b4573d5f5f3e3d5ffd5b505050506040513d601f19601f820116820180604052508101906105d89190611bb0565b6105f5576040516309bde33960e01b815260040160405180910390fd5b600455506005555050505050565b61060b610f39565b600491909155600555565b60055460408201511461063c576040516322e685b360e11b815260040160405180910390fd5b6004546020820151146106625760405163215fc8af60e11b815260040160405180910390fd5b60095460405163c542c93b60e01b81526001600160a01b039091169063c542c93b90610698908790879087908790600401611bcf565b602060405180830381865afa1580156106b3573d5f5f3e3d5ffd5b505050506040513d601f19601f820116820180604052508101906106d79190611bb0565b6106f4576040516309bde33960e01b815260040160405180910390fd5b805160055560095f5b60025481101561080e575f83610714836003611ac2565b6009811061072457610724611ad5565b602002015190505f8483600254600361073d9190611ac2565b6107479190611ac2565b6009811061075757610757611ad5565b6020020151905081156107f9576006546001600160a01b031663e63697c886610781600188611c1f565b6009811061079157610791611ad5565b60200201516040516001600160e01b031960e084901b16815260048101919091526001600160a01b0384166024820152604481018590526064015f604051808303815f87803b1580156107e2575f5ffd5b505af11580156107f4573d5f5f3e3d5ffd5b505050505b506108079050600182611ac2565b90506106fd565b505050505050565b61081e610f94565b61082782611038565b6108318282611040565b5050565b5f61083e611101565b505f516020611cfb5f395f51905f5290565b5f5b5f548110156108d2575f82826004811061086e5761086e611ad5565b6020020151905080156108bf575f8181526003602052604090205460ff166108a95760405163a18652d560e01b815260040160405180910390fd5b5f818152600360205260409020805460ff191690555b506108cb600182611ac2565b9050610852565b506004816108e1600283611c1f565b600481106108f1576108f1611ad5565b60200201516004541461091757604051633a54868960e01b815260040160405180910390fd5b600754604051635fe8c13b60e01b81526001600160a01b0390911690635fe8c13b9061094d908890889088908890600401611c32565b602060405180830381865afa158015610968573d5f5f3e3d5ffd5b505050506040513d601f19601f8201168201806040525081019061098c9190611bb0565b6109a9576040516309bde33960e01b815260040160405180910390fd5b816109b5600183611c1f565b600481106109c5576109c5611ad5565b60200201516004555050505050565b6109dc610f39565b6109e55f61114a565b565b600a5460405163eb2347fd60e01b81523360048201526001600160a01b039091169063eb2347fd90602401602060405180830381865afa158015610a2d573d5f5f3e3d5ffd5b505050506040513d601f19601f82011682018060405250810190610a519190611bb0565b610a6e5760405163082cec1d60e01b815260040160405180910390fd5b6006546020820151604051630cf99be760e31b815260048101919091525f916001600160a01b0316906367ccdf3890602401602060405180830381865afa158015610abb573d5f5f3e3d5ffd5b505050506040513d601f19601f82011682018060405250810190610adf9190611c82565b90506001600160a01b03811673eeeeeeeeeeeeeeeeeeeeeeeeeeeeeeeeeeeeeeee14610b42576040820151610b22906001600160a01b03831690339030906111ba565b6006546040830151610b42916001600160a01b0384811692911690611227565b6006546040838101519051638340f54960e01b81526001600160a01b0384811660048301523060248301526044820192909252911690638340f5499034906064015f604051808303818588803b158015610b9a575f5ffd5b505af1158015610bac573d5f5f3e3d5ffd5b50506040805160608101825286518152868201516020808301919091528701518183015290516320cf0a3760e01b81525f945073__$759bf5a5ad889f3dc71fc353c9ae5c518b$__93506320cf0a379250610c0a9190600401611c9d565b602060405180830381865af4158015610c25573d5f5f3e3d5ffd5b505050506040513d601f19601f82011682018060405250810190610c499190611ccd565b5f8181526003602052604090819020805460ff19166001179055519091507f085eb711e9033934898875f6926d3a98c49bae62c73a015160bc22993aae4bee90610c969083815260200190565b60405180910390a1505050565b5f610cac6112b6565b805490915060ff600160401b820416159067ffffffffffffffff165f81158015610cd35750825b90505f8267ffffffffffffffff166001148015610cef5750303b155b905081158015610cfd575080155b15610d1b5760405163f92ee8a960e01b815260040160405180910390fd5b845467ffffffffffffffff191660011785558315610d4557845460ff60401b1916600160401b1785555b610d4e866112e0565b831561080e57845460ff60401b19168555604051600181527fc7f505b2f371ae2175ee4913f4499e1f2633a7b5936321eed1cdaeb6115181d29060200160405180910390a1505050505050565b5f610da4610f39565b81516001600160a01b031615610dd6578151600780546001600160a01b0319166001600160a01b039092169190911790555b60208201516001600160a01b031615610e0e576020820151600880546001600160a01b0319166001600160a01b039092169190911790555b60408201516001600160a01b031615610e46576040820151600980546001600160a01b0319166001600160a01b039092169190911790555b60608201516001600160a01b031615610e7e576060820151600680546001600160a01b0319166001600160a01b039092169190911790555b60808201516001600160a01b031615610eb6576080820151600a80546001600160a01b0319166001600160a01b039092169190911790555b60a082015115610ec85760a08201515f555b60e082015115610edb5760e08201516001555b60c082015115610eee5760c08201516002555b5060015b919050565b610eff610f39565b6001600160a01b038116610f2d57604051631e4fbdf760e01b81525f60048201526024015b60405180910390fd5b610f368161114a565b50565b33610f6b7f9016d09d72d40fdae2fd8ceac6b6234c7706214fd39c1cd1e609a0528c199300546001600160a01b031690565b6001600160a01b0316146109e55760405163118cdaa760e01b8152336004820152602401610f24565b306001600160a01b037f000000000000000000000000000000000000000000000000000000000000000016148061101a57507f00000000000000000000000000000000000000000000000000000000000000006001600160a01b031661100e5f516020611cfb5f395f51905f52546001600160a01b031690565b6001600160a01b031614155b156109e55760405163703e46dd60e11b815260040160405180910390fd5b610f36610f39565b816001600160a01b03166352d1902d6040518163ffffffff1660e01b8152600401602060405180830381865afa92505050801561109a575060408051601f3d908101601f1916820190925261109791810190611ccd565b60015b6110c257604051634c9c8ce360e01b81526001600160a01b0383166004820152602401610f24565b5f516020611cfb5f395f51905f5281146110f257604051632a87526960e21b815260048101829052602401610f24565b6110fc83836112f1565b505050565b306001600160a01b037f000000000000000000000000000000000000000000000000000000000000000016146109e55760405163703e46dd60e11b815260040160405180910390fd5b7f9016d09d72d40fdae2fd8ceac6b6234c7706214fd39c1cd1e609a0528c19930080546001600160a01b031981166001600160a01b03848116918217845560405192169182907f8be0079c531659141344cd1fd0a4f28419497f9722a3daafe3b4186f6b6457e0905f90a3505050565b6040516001600160a01b0384811660248301528381166044830152606482018390526112219186918216906323b872dd906084015b604051602081830303815290604052915060e01b6020820180516001600160e01b038381831617835250505050611346565b50505050565b604080516001600160a01b038416602482015260448082018490528251808303909101815260649091019091526020810180516001600160e01b031663095ea7b360e01b17905261127884826113b2565b611221576040516001600160a01b0384811660248301525f60448301526112ac91869182169063095ea7b3906064016111ef565b6112218482611346565b5f807ff0c57e16840df040f15088dc2f81fe391c3923bec73e23a9662efc9c229c6a005b92915050565b6112e86113fb565b610f3681611420565b6112fa82611428565b6040516001600160a01b038316907fbc7cd75a20ee27fd9adebab32041f755214dbc6bffa90cc0225b39da2e5c2d3b905f90a280511561133e576110fc828261148b565b6108316114fd565b5f5f60205f8451602086015f885af180611365576040513d5f823e3d81fd5b50505f513d9150811561137c578060011415611389565b6001600160a01b0384163b155b1561122157604051635274afe760e01b81526001600160a01b0385166004820152602401610f24565b5f5f5f5f60205f8651602088015f8a5af192503d91505f5190508280156113f1575081156113e357806001146113f1565b5f866001600160a01b03163b115b9695505050505050565b61140361151c565b6109e557604051631afcd79f60e31b815260040160405180910390fd5b610eff6113fb565b806001600160a01b03163b5f0361145d57604051634c9c8ce360e01b81526001600160a01b0382166004820152602401610f24565b5f516020611cfb5f395f51905f5280546001600160a01b0319166001600160a01b0392909216919091179055565b60605f5f846001600160a01b0316846040516114a79190611ce4565b5f60405180830381855af49150503d805f81146114df576040519150601f19603f3d011682016040523d82523d5f602084013e6114e4565b606091505b50915091506114f4858383611535565b95945050505050565b34156109e55760405163b398979f60e01b815260040160405180910390fd5b5f6115256112b6565b54600160401b900460ff16919050565b60608261154a5761154582611594565b61158d565b815115801561156157506001600160a01b0384163b155b1561158a57604051639996b31560e01b81526001600160a01b0385166004820152602401610f24565b50805b9392505050565b8051156115a357805160208201fd5b60405163d6bda27560e01b815260040160405180910390fd5b634e487b7160e01b5f52604160045260245ffd5b604051610100810167ffffffffffffffff811182821017156115f4576115f46115bc565b60405290565b604051601f8201601f1916810167ffffffffffffffff81118282101715611623576116236115bc565b604052919050565b5f82601f83011261163a575f5ffd5b5f61164560406115fa565b9050806040840185811115611658575f5ffd5b845b8181101561167257803583526020928301920161165a565b509195945050505050565b5f82601f83011261168c575f5ffd5b6040611697816115fa565b8060808501868111156116a8575f5ffd5b855b818110156116cb576116bc888261162b565b845260209093019284016116aa565b50909695505050505050565b5f5f5f5f6102c085870312156116eb575f5ffd5b6116f5868661162b565b9350611704866040870161167d565b92506117138660c0870161162b565b91505f8661011f870112611725575f5ffd5b505f806101c0611734816115fa565b9150508091506102c087018881111561174b575f5ffd5b61010088015b81811015611769578035845260209384019301611751565b5050809250505092959194509250565b5f5f6040838503121561178a575f5ffd5b50508035926020909101359150565b5f5f5f5f61022085870312156117ad575f5ffd5b6117b7868661162b565b93506117c6866040870161167d565b92506117d58660c0870161162b565b91505f8661011f8701126117e7575f5ffd5b505f806101206117f6816115fa565b91505080915061022087018881111561174b575f5ffd5b6001600160a01b0381168114610f36575f5ffd5b8035610ef28161180d565b5f5f6040838503121561183d575f5ffd5b82356118488161180d565b9150602083013567ffffffffffffffff811115611863575f5ffd5b8301601f81018513611873575f5ffd5b803567ffffffffffffffff81111561188d5761188d6115bc565b6118a0601f8201601f19166020016115fa565b8181528660208385010111156118b4575f5ffd5b816020840160208301375f602083830101528093505050509250929050565b5f5f5f5f61018085870312156118e7575f5ffd5b6118f1868661162b565b9350611900866040870161167d565b925061190f8660c0870161162b565b91505f8661011f870112611921575f5ffd5b505f8061192e60806115fa565b905080915061018087018881111561174b575f5ffd5b5f60208284031215611954575f5ffd5b5035919050565b5f606082840312801561196c575f5ffd5b506040516060810167ffffffffffffffff81118282101715611990576119906115bc565b60409081528335825260208085013590830152928301359281019290925250919050565b602081525f82518060208401528060208501604085015e5f604082850101526040601f19601f83011684010191505092915050565b5f602082840312156119f9575f5ffd5b813561158d8161180d565b5f610100828403128015611a16575f5ffd5b50611a1f6115d0565b8235611a2a8161180d565b8152611a3860208401611821565b6020820152611a4960408401611821565b6040820152611a5a60608401611821565b6060820152611a6b60808401611821565b608082015260a0838101359082015260c0808401359082015260e0928301359281019290925250919050565b634e487b7160e01b5f52601160045260245ffd5b80820281158282048414176112da576112da611a97565b808201808211156112da576112da611a97565b634e487b7160e01b5f52603260045260245ffd5b805f5b6002811015611221578151845260209384019390910190600101611aec565b805f5b6002811015611221578151845f5b6002811015611b3b578251825260209283019290910190600101611b1c565b5050506040939093019260209190910190600101611b0e565b6102c08101611b638287611ae9565b611b706040830186611b0b565b611b7d60c0830185611ae9565b6101008201835f5b600e811015611ba4578151835260209283019290910190600101611b85565b50505095945050505050565b5f60208284031215611bc0575f5ffd5b8151801515811461158d575f5ffd5b6102208101611bde8287611ae9565b611beb6040830186611b0b565b611bf860c0830185611ae9565b6101008201835f5b6009811015611ba4578151835260209283019290910190600101611c00565b818103818111156112da576112da611a97565b6101808101611c418287611ae9565b611c4e6040830186611b0b565b611c5b60c0830185611ae9565b6101008201835f5b6004811015611ba4578151835260209283019290910190600101611c63565b5f60208284031215611c92575f5ffd5b815161158d8161180d565b6060810181835f5b6003811015611cc4578151835260209283019290910190600101611ca5565b50505092915050565b5f60208284031215611cdd575f5ffd5b5051919050565b5f82518060208501845e5f92019182525091905056fe360894a13ba1a3210667c828492db98dca3e2076cc3735a920a3ca505d382bbca264697066735822122070aa2f391f6aee618a9571b7013a3623027535ec05a436f734f6ae5881dbcb8a64736f6c634300081c0033",
  "linkReferences": {
    "project/contracts/aggregator-alpha/utils/PoseidonT4.sol": {
      "PoseidonT4": [
        {
          "length": 20,
          "start": 3290
        }
      ]
    }
  },
  "deployedLinkReferences": {
    "project/contracts/aggregator-alpha/utils/PoseidonT4.sol": {
      "PoseidonT4": [
        {
          "length": 20,
          "start": 3041
        }
      ]
    }
  },
  "immutableReferences": {
    "482": [
      {
        "length": 32,
        "start": 3999
      },
      {
        "length": 32,
        "start": 4040
      },
      {
        "length": 32,
        "start": 4364
      }
    ]
  },
  "inputSourceName": "project/contracts/aggregator-alpha/CurvyAggregatorAlphaV5.sol",
  "buildInfoId": "solc-0_8_28-366cc542674341106d39d1484ee2683122ce7051"
}