{
  "_format": "hh3-artifact-1",
  "contractName": "PortalFactory",
  "sourceName": "contracts/portal/PortalFactory.sol",
  "abi": [
    {
      "inputs": [
        {
          "internalType": "address",
          "name": "initialOwner",
          "type": "address"
        }
      ],
      "stateMutability": "nonpayable",
      "type": "constructor"
    },
    {
      "inputs": [],
      "name": "DeploymentFailed",
      "type": "error"
    },
    {
      "inputs": [],
      "name": "InvalidLiFiDestinationChain",
      "type": "error"
    },
    {
      "inputs": [],
      "name": "InvalidLiFiReceiver",
      "type": "error"
    },
    {
      "inputs": [
        {
          "internalType": "address",
          "name": "owner",
          "type": "address"
        }
      ],
      "name": "OwnableInvalidOwner",
      "type": "error"
    },
    {
      "inputs": [
        {
          "internalType": "address",
          "name": "account",
          "type": "address"
        }
      ],
      "name": "OwnableUnauthorizedAccount",
      "type": "error"
    },
    {
      "inputs": [],
      "name": "UnsupportedBridging",
      "type": "error"
    },
    {
      "inputs": [],
      "name": "UnsupportedShielding",
      "type": "error"
    },
    {
      "anonymous": false,
      "inputs": [
        {
          "indexed": true,
          "internalType": "address",
          "name": "previousOwner",
          "type": "address"
        },
        {
          "indexed": true,
          "internalType": "address",
          "name": "newOwner",
          "type": "address"
        }
      ],
      "name": "OwnershipTransferred",
      "type": "event"
    },
    {
      "inputs": [
        {
          "internalType": "bytes",
          "name": "bridgeData",
          "type": "bytes"
        },
        {
          "components": [
            {
              "internalType": "uint256",
              "name": "ownerHash",
              "type": "uint256"
            },
            {
              "internalType": "uint256",
              "name": "token",
              "type": "uint256"
            },
            {
              "internalType": "uint256",
              "name": "amount",
              "type": "uint256"
            }
          ],
          "internalType": "struct CurvyTypes.Note",
          "name": "note",
          "type": "tuple"
        },
        {
          "internalType": "address",
          "name": "currency",
          "type": "address"
        },
        {
          "internalType": "address",
          "name": "recovery",
          "type": "address"
        }
      ],
      "name": "deployEntryBridgePortal",
      "outputs": [],
      "stateMutability": "nonpayable",
      "type": "function"
    },
    {
      "inputs": [
        {
          "internalType": "bytes",
          "name": "bridgeData",
          "type": "bytes"
        },
        {
          "internalType": "uint256",
          "name": "amount",
          "type": "uint256"
        },
        {
          "internalType": "address",
          "name": "currency",
          "type": "address"
        },
        {
          "internalType": "address",
          "name": "exitAddress",
          "type": "address"
        },
        {
          "internalType": "uint256",
          "name": "exitChainId",
          "type": "uint256"
        },
        {
          "internalType": "address",
          "name": "recovery",
          "type": "address"
        }
      ],
      "name": "deployExitBridgePortal",
      "outputs": [],
      "stateMutability": "nonpayable",
      "type": "function"
    },
    {
      "inputs": [
        {
          "internalType": "uint256",
          "name": "ownerHash",
          "type": "uint256"
        },
        {
          "internalType": "address",
          "name": "recovery",
          "type": "address"
        },
        {
          "internalType": "address",
          "name": "tokenAddress",
          "type": "address"
        },
        {
          "internalType": "address",
          "name": "to",
          "type": "address"
        }
      ],
      "name": "deployRecoveryEntryPortal",
      "outputs": [],
      "stateMutability": "nonpayable",
      "type": "function"
    },
    {
      "inputs": [
        {
          "internalType": "address",
          "name": "exitAddress",
          "type": "address"
        },
        {
          "internalType": "uint256",
          "name": "exitChainId",
          "type": "uint256"
        },
        {
          "internalType": "address",
          "name": "recovery",
          "type": "address"
        },
        {
          "internalType": "address",
          "name": "tokenAddress",
          "type": "address"
        },
        {
          "internalType": "address",
          "name": "to",
          "type": "address"
        }
      ],
      "name": "deployRecoveryExitPortal",
      "outputs": [],
      "stateMutability": "nonpayable",
      "type": "function"
    },
    {
      "inputs": [
        {
          "components": [
            {
              "internalType": "uint256",
              "name": "ownerHash",
              "type": "uint256"
            },
            {
              "internalType": "uint256",
              "name": "token",
              "type": "uint256"
            },
            {
              "internalType": "uint256",
              "name": "amount",
              "type": "uint256"
            }
          ],
          "internalType": "struct CurvyTypes.Note",
          "name": "note",
          "type": "tuple"
        },
        {
          "internalType": "address",
          "name": "recovery",
          "type": "address"
        }
      ],
      "name": "deployShieldPortal",
      "outputs": [],
      "stateMutability": "payable",
      "type": "function"
    },
    {
      "inputs": [
        {
          "internalType": "uint256",
          "name": "ownerHash",
          "type": "uint256"
        },
        {
          "internalType": "address",
          "name": "exitAddress",
          "type": "address"
        },
        {
          "internalType": "uint256",
          "name": "exitChainId",
          "type": "uint256"
        },
        {
          "internalType": "address",
          "name": "recovery",
          "type": "address"
        }
      ],
      "name": "getCreationCode",
      "outputs": [
        {
          "internalType": "bytes",
          "name": "",
          "type": "bytes"
        }
      ],
      "stateMutability": "pure",
      "type": "function"
    },
    {
      "inputs": [
        {
          "internalType": "uint256",
          "name": "ownerHash",
          "type": "uint256"
        },
        {
          "internalType": "address",
          "name": "recovery",
          "type": "address"
        }
      ],
      "name": "getEntryPortalAddress",
      "outputs": [
        {
          "internalType": "address",
          "name": "",
          "type": "address"
        }
      ],
      "stateMutability": "view",
      "type": "function"
    },
    {
      "inputs": [
        {
          "internalType": "address",
          "name": "exitAddress",
          "type": "address"
        },
        {
          "internalType": "uint256",
          "name": "exitChainId",
          "type": "uint256"
        },
        {
          "internalType": "address",
          "name": "recovery",
          "type": "address"
        }
      ],
      "name": "getExitPortalAddress",
      "outputs": [
        {
          "internalType": "address",
          "name": "",
          "type": "address"
        }
      ],
      "stateMutability": "view",
      "type": "function"
    },
    {
      "inputs": [],
      "name": "owner",
      "outputs": [
        {
          "internalType": "address",
          "name": "",
          "type": "address"
        }
      ],
      "stateMutability": "view",
      "type": "function"
    },
    {
      "inputs": [
        {
          "internalType": "address",
          "name": "portalAddress",
          "type": "address"
        }
      ],
      "name": "portalIsRegistered",
      "outputs": [
        {
          "internalType": "bool",
          "name": "",
          "type": "bool"
        }
      ],
      "stateMutability": "view",
      "type": "function"
    },
    {
      "inputs": [],
      "name": "renounceOwnership",
      "outputs": [],
      "stateMutability": "nonpayable",
      "type": "function"
    },
    {
      "inputs": [
        {
          "internalType": "address",
          "name": "newOwner",
          "type": "address"
        }
      ],
      "name": "transferOwnership",
      "outputs": [],
      "stateMutability": "nonpayable",
      "type": "function"
    },
    {
      "inputs": [
        {
          "internalType": "address",
          "name": "curvyVaultProxyAddress",
          "type": "address"
        },
        {
          "internalType": "address",
          "name": "curvyAggregatorAlphaProxyAddress",
          "type": "address"
        },
        {
          "internalType": "address",
          "name": "lifiDiamondAddress",
          "type": "address"
        }
      ],
      "name": "updateConfig",
      "outputs": [
        {
          "internalType": "bool",
          "name": "",
          "type": "bool"
        }
      ],
      "stateMutability": "nonpayable",
      "type": "function"
    }
  ],
  "bytecode": "0x7f63757276792d706f7274616c2d666163746f72792d73616c740000000000000060a052601960805260b96040527f0c1d487ad400ae94b5e3f681571516a683db363b3743ef8072d065745915e37e60015534801561005c575f5ffd5b5060405161205c38038061205c83398101604081905261007b91610108565b806001600160a01b0381166100a957604051631e4fbdf760e01b81525f600482015260240160405180910390fd5b6100b2816100b9565b5050610135565b5f80546001600160a01b038381166001600160a01b0319831681178455604051919092169283917f8be0079c531659141344cd1fd0a4f28419497f9722a3daafe3b4186f6b6457e09190a35050565b5f60208284031215610118575f5ffd5b81516001600160a01b038116811461012e575f5ffd5b9392505050565b611f1a806101425f395ff3fe6080604052600436106100bf575f3560e01c80635e8b95d21161007c5780638da5cb5b116100575780638da5cb5b14610203578063e16ca8951461021f578063eb2347fd1461023e578063f2fde38b14610275575f5ffd5b80635e8b95d21461019957806366e93b8c146101d0578063715018a6146101ef575f5ffd5b80630188ab0f146100c357806303e62121146100f857806307922e191461011957806311c9a94d1461012c5780632b4c74fa1461015b57806353070b551461017a575b5f5ffd5b3480156100ce575f5ffd5b506100e26100dd366004610b87565b610294565b6040516100ef9190610bce565b60405180910390f35b348015610103575f5ffd5b50610117610112366004610c48565b610323565b005b610117610127366004610d67565b61056a565b348015610137575f5ffd5b5061014b610146366004610d9d565b61066c565b60405190151581526020016100ef565b348015610166575f5ffd5b50610117610175366004610de5565b610700565b348015610185575f5ffd5b50610117610194366004610e5d565b6108a1565b3480156101a4575f5ffd5b506101b86101b3366004610ea2565b610924565b6040516001600160a01b0390911681526020016100ef565b3480156101db575f5ffd5b506101176101ea366004610ec5565b61097a565b3480156101fa575f5ffd5b506101176109fe565b34801561020e575f5ffd5b505f546001600160a01b03166101b8565b34801561022a575f5ffd5b506101b8610239366004610f1b565b610a11565b348015610249575f5ffd5b5061014b610258366004610f4f565b6001600160a01b03165f9081526005602052604090205460ff1690565b348015610280575f5ffd5b5061011761028f366004610f4f565b610a68565b60605f604051806020016102a790610b66565b601f1982820381018352601f909101166040818152602082018990526001600160a01b03888116828401526060830188905286166080808401919091528151808403909101815260a08301909152919250610308908390839060c001610f88565b60405160208183030381529060405292505050949350505050565b61032b610aaa565b6004546001600160a01b03166103545760405163437f3ac360e01b815260040160405180910390fd5b46820361040b576004805460405163618c776d60e11b81525f926001600160a01b039092169163c318eeda9161038e918c918c9101610fcc565b60a060405180830381865afa1580156103a9573d5f5f3e3d5ffd5b505050506040513d601f19601f820116820180604052508101906103cd9190610fef565b9050836001600160a01b031681604001516001600160a01b0316146104055760405163523660f760e01b815260040160405180910390fd5b506104dd565b60048054604051637f99d7af60e01b81525f926001600160a01b0390921691637f99d7af9161043e918c918c9101610fcc565b5f60405180830381865afa158015610458573d5f5f3e3d5ffd5b505050506040513d5f823e601f3d908101601f1916820160405261047f9190810190611111565b9050836001600160a01b03168160a001516001600160a01b0316146104b75760405163523660f760e01b815260040160405180910390fd5b828160e00151146104db576040516397c91b6960e01b815260040160405180910390fd5b505b5f6104ea5f858585610294565b90505f6104f682610ad6565b6004805460405163a31716bf60e01b81529293506001600160a01b038085169363a31716bf9361053293909216918e918e918e918e9101611220565b5f604051808303815f87803b158015610549575f5ffd5b505af115801561055b573d5f5f3e3d5ffd5b50505050505050505050505050565b610572610aaa565b6002546001600160a01b0316158061059357506003546001600160a01b0316155b156105b1576040516389da714f60e01b815260040160405180910390fd5b5f6105c1835f01515f5f85610294565b90505f6105cd82610ad6565b6001600160a01b038181165f81815260056020908152604091829020805460ff191660011790556003546002548351631329a1a760e31b81528b516004820152928b01516024840152928a01516044830152841660648201529216608483015291925063994d0d389060a4015f604051808303815f87803b158015610650575f5ffd5b505af1158015610662573d5f5f3e3d5ffd5b5050505050505050565b5f610675610aaa565b6001600160a01b038416156106a057600280546001600160a01b0319166001600160a01b0386161790555b6001600160a01b038316156106cb57600380546001600160a01b0319166001600160a01b0385161790555b6001600160a01b038216156106f657600480546001600160a01b0319166001600160a01b0384161790555b5060019392505050565b610708610aaa565b6004546001600160a01b03166107315760405163437f3ac360e01b815260040160405180910390fd5b60048054604051637f99d7af60e01b81525f926001600160a01b0390921691637f99d7af91610764918a918a9101610fcc565b5f60405180830381865afa15801561077e573d5f5f3e3d5ffd5b505050506040513d5f823e601f3d908101601f191682016040526107a59190810190611111565b90506107b4845f015183610924565b6001600160a01b03168160a001516001600160a01b0316146107e95760405163523660f760e01b815260040160405180910390fd5b61a4b18160e001511461080f576040516397c91b6960e01b815260040160405180910390fd5b5f61081f855f01515f5f86610294565b90505f61082b82610ad6565b600480546040808a0151905163a31716bf60e01b81529394506001600160a01b038086169463a31716bf9461086a94909216928e928e928d9101611220565b5f604051808303815f87803b158015610881575f5ffd5b505af1158015610893573d5f5f3e3d5ffd5b505050505050505050505050565b5f6108ae855f5f87610294565b90505f6108ba82610ad6565b604051631922fddd60e21b81526001600160a01b03868116600483015285811660248301529192509082169063648bf774906044015f604051808303815f87803b158015610906575f5ffd5b505af1158015610918573d5f5f3e3d5ffd5b50505050505050505050565b5f5f610932845f5f86610294565b90505f60ff60f81b3060015484805190602001206040516020016109599493929190611266565b60408051808303601f19018152919052805160209091012095945050505050565b5f6109875f878787610294565b90505f61099382610ad6565b604051631922fddd60e21b81526001600160a01b03868116600483015285811660248301529192509082169063648bf774906044015f604051808303815f87803b1580156109df575f5ffd5b505af11580156109f1573d5f5f3e3d5ffd5b5050505050505050505050565b610a06610aaa565b610a0f5f610b17565b565b5f5f610a1f5f868686610294565b90505f60ff60f81b306001548480519060200120604051602001610a469493929190611266565b60408051808303601f1901815291905280516020909101209695505050505050565b610a70610aaa565b6001600160a01b038116610a9e57604051631e4fbdf760e01b81525f60048201526024015b60405180910390fd5b610aa781610b17565b50565b5f546001600160a01b03163314610a0f5760405163118cdaa760e01b8152336004820152602401610a95565b5f5f5f60015490508084516020860134f591506001600160a01b038216610b1057604051633011642560e01b815260040160405180910390fd5b5092915050565b5f80546001600160a01b038381166001600160a01b0319831681178455604051919092169283917f8be0079c531659141344cd1fd0a4f28419497f9722a3daafe3b4186f6b6457e09190a35050565b610c45806112a083390190565b6001600160a01b0381168114610aa7575f5ffd5b5f5f5f5f60808587031215610b9a575f5ffd5b843593506020850135610bac81610b73565b9250604085013591506060850135610bc381610b73565b939692955090935050565b602081525f82518060208401528060208501604085015e5f604082850101526040601f19601f83011684010191505092915050565b5f5f83601f840112610c13575f5ffd5b50813567ffffffffffffffff811115610c2a575f5ffd5b602083019150836020828501011115610c41575f5ffd5b9250929050565b5f5f5f5f5f5f5f60c0888a031215610c5e575f5ffd5b873567ffffffffffffffff811115610c74575f5ffd5b610c808a828b01610c03565b909850965050602088013594506040880135610c9b81610b73565b93506060880135610cab81610b73565b92506080880135915060a0880135610cc281610b73565b8091505092959891949750929550565b634e487b7160e01b5f52604160045260245ffd5b604051610140810167ffffffffffffffff81118282101715610d0a57610d0a610cd2565b60405290565b5f60608284031215610d20575f5ffd5b6040516060810167ffffffffffffffff81118282101715610d4357610d43610cd2565b60409081528335825260208085013590830152928301359281019290925250919050565b5f5f60808385031215610d78575f5ffd5b610d828484610d10565b91506060830135610d9281610b73565b809150509250929050565b5f5f5f60608486031215610daf575f5ffd5b8335610dba81610b73565b92506020840135610dca81610b73565b91506040840135610dda81610b73565b809150509250925092565b5f5f5f5f5f60c08688031215610df9575f5ffd5b853567ffffffffffffffff811115610e0f575f5ffd5b610e1b88828901610c03565b9096509450610e2f90508760208801610d10565b92506080860135610e3f81610b73565b915060a0860135610e4f81610b73565b809150509295509295909350565b5f5f5f5f60808587031215610e70575f5ffd5b843593506020850135610e8281610b73565b92506040850135610e9281610b73565b91506060850135610bc381610b73565b5f5f60408385031215610eb3575f5ffd5b823591506020830135610d9281610b73565b5f5f5f5f5f60a08688031215610ed9575f5ffd5b8535610ee481610b73565b9450602086013593506040860135610efb81610b73565b92506060860135610f0b81610b73565b91506080860135610e4f81610b73565b5f5f5f60608486031215610f2d575f5ffd5b8335610f3881610b73565b9250602084013591506040840135610dda81610b73565b5f60208284031215610f5f575f5ffd5b8135610f6a81610b73565b9392505050565b5f81518060208401855e5f93019283525090919050565b5f610f9c610f968386610f71565b84610f71565b949350505050565b81835281816020850137505f828201602090810191909152601f909101601f19169091010190565b602081525f610f9c602083018486610fa4565b8051610fea81610b73565b919050565b5f60a0828403128015611000575f5ffd5b5060405160a0810167ffffffffffffffff8111828210171561102457611024610cd2565b604052825161103281610b73565b815260208381015190820152604083015161104c81610b73565b6040820152606083015161105f81610b73565b60608201526080928301519281019290925250919050565b5f82601f830112611086575f5ffd5b815167ffffffffffffffff8111156110a0576110a0610cd2565b604051601f8201601f19908116603f0116810167ffffffffffffffff811182821017156110cf576110cf610cd2565b6040528181528382016020018510156110e6575f5ffd5b8160208501602083015e5f918101602001919091529392505050565b80518015158114610fea575f5ffd5b5f60208284031215611121575f5ffd5b815167ffffffffffffffff811115611137575f5ffd5b82016101408185031215611149575f5ffd5b611151610ce6565b81518152602082015167ffffffffffffffff81111561116e575f5ffd5b61117a86828501611077565b602083015250604082015167ffffffffffffffff811115611199575f5ffd5b6111a586828501611077565b6040830152506111b760608301610fdf565b60608201526111c860808301610fdf565b60808201526111d960a08301610fdf565b60a082015260c0828101519082015260e080830151908201526111ff6101008301611102565b6101008201526112126101208301611102565b610120820152949350505050565b6001600160a01b03861681526080602082018190525f906112449083018688610fa4565b6040830194909452506001600160a01b03919091166060909101529392505050565b6001600160f81b031994909416845260609290921b6bffffffffffffffffffffffff19166001840152601583015260358201526055019056fe608060405234801561000f575f5ffd5b50604051610c45380380610c4583398101604081905261002e916100e4565b6001600160a01b0381166100555760405163530a10d160e11b815260040160405180910390fd5b83156001600160a01b03841615148061006f575083158215145b1561008d57604051631d4deb8b60e31b815260040160405180910390fd5b5f93909355600180546001600160a01b039384166001600160a01b03199182161790915560029190915560058054929093169116179055610128565b80516001600160a01b03811681146100df575f5ffd5b919050565b5f5f5f5f608085870312156100f7575f5ffd5b84519350610107602086016100c9565b6040860151909350915061011d606086016100c9565b905092959194509250565b610b10806101355f395ff3fe608060405234801561000f575f5ffd5b5060043610610060575f3560e01c80633fb07027146100645780635dc24ee314610093578063648bf774146100a6578063994d0d38146100bb578063a31716bf146100ce578063ddceafa9146100e1575b5f5ffd5b600454610077906001600160a01b031681565b6040516001600160a01b03909116815260200160405180910390f35b600354610077906001600160a01b031681565b6100b96100b436600461092d565b6100f4565b005b6100b96100c9366004610964565b610296565b6100b96100dc3660046109f4565b6104f4565b600554610077906001600160a01b031681565b6005546001600160a01b0316321461014b5760405162461bcd60e51b8152602060048201526015602482015274506f7274616c3a204f6e6c79207265636f7665727960581b60448201526064015b60405180910390fd5b73eeeeeeeeeeeeeeeeeeeeeeeeeeeeeeeeeeeeeeed196001600160a01b038316016102165760405147905f906001600160a01b0384169083908381818185875af1925050503d805f81146101ba576040519150601f19603f3d011682016040523d82523d5f602084013e6101bf565b606091505b50509050806102105760405162461bcd60e51b815260206004820152601b60248201527f506f7274616c3a20455448207472616e73666572206661696c656400000000006044820152606401610142565b50505050565b6040516370a0823160e01b815230600482015282905f906001600160a01b038316906370a0823190602401602060405180830381865afa15801561025c573d5f5f3e3d5ffd5b505050506040513d601f19601f820116820180604052508101906102809190610a92565b90506102106001600160a01b0383168483610762565b600554600160a01b900460ff16156102ea5760405162461bcd60e51b815260206004820152601760248201527614da5b99db19555cd94e88105b1c9958591e481d5cd959604a1b6044820152606401610142565b5f5483511461030b5760405162cb7dff60e81b815260040160405180910390fd5b600380546001600160a01b038481166001600160a01b0319928316179092556004805492841692909116821781556020850151604051630cf99be760e31b8152918201525f91906367ccdf3890602401602060405180830381865afa158015610376573d5f5f3e3d5ffd5b505050506040513d601f19601f8201168201806040525081019061039a9190610aa9565b90506001600160a01b038116158015906103d157506001600160a01b03811673eeeeeeeeeeeeeeeeeeeeeeeeeeeeeeeeeeeeeeee14155b156104685760035460408501516103f6916001600160a01b03848116929116906107c6565b60035460408051632950527560e21b815286516004820152602087015160248201529086015160448201526001600160a01b039091169063a54149d4906064015f604051808303815f87803b15801561044d575f5ffd5b505af115801561045f573d5f5f3e3d5ffd5b505050506104db565b600354604085810180519151632950527560e21b81528751600482015260208801516024820152905160448201526001600160a01b039092169163a54149d491906064015f604051808303818588803b1580156104c3575f5ffd5b505af11580156104d5573d5f5f3e3d5ffd5b50505050505b50506005805460ff60a01b1916600160a01b1790555050565b600554600160a01b900460ff16156105485760405162461bcd60e51b815260206004820152601760248201527614da5b99db19555cd94e88105b1c9958591e481d5cd959604a1b6044820152606401610142565b6001600160a01b0381161580159061057d57506001600160a01b03811673eeeeeeeeeeeeeeeeeeeeeeeeeeeeeeeeeeeeeeee14155b156106a6576040516370a0823160e01b815230600482015281905f906001600160a01b038316906370a0823190602401602060405180830381865afa1580156105c8573d5f5f3e3d5ffd5b505050506040513d601f19601f820116820180604052508101906105ec9190610a92565b90508381101561060f57604051637bdd7ae760e01b815260040160405180910390fd5b6106236001600160a01b03831688866107c6565b5f876001600160a01b0316878760405161063e929190610acb565b5f604051808303815f865af19150503d805f8114610677576040519150601f19603f3d011682016040523d82523d5f602084013e61067c565b606091505b505090508061069e57604051631bb7daad60e11b815260040160405180910390fd5b505050610748565b47828110156106c857604051637bdd7ae760e01b815260040160405180910390fd5b5f866001600160a01b03168487876040516106e4929190610acb565b5f6040518083038185875af1925050503d805f811461071e576040519150601f19603f3d011682016040523d82523d5f602084013e610723565b606091505b505090508061074557604051631bb7daad60e11b815260040160405180910390fd5b50505b50506005805460ff60a01b1916600160a01b179055505050565b6040516001600160a01b038381166024830152604482018390526107c191859182169063a9059cbb906064015b604051602081830303815290604052915060e01b6020820180516001600160e01b038381831617835250505050610851565b505050565b604080516001600160a01b038416602482015260448082018490528251808303909101815260649091019091526020810180516001600160e01b031663095ea7b360e01b17905261081784826108bd565b610210576040516001600160a01b0384811660248301525f604483015261084b91869182169063095ea7b39060640161078f565b61021084825b5f5f60205f8451602086015f885af180610870576040513d5f823e3d81fd5b50505f513d91508115610887578060011415610894565b6001600160a01b0384163b155b1561021057604051635274afe760e01b81526001600160a01b0385166004820152602401610142565b5f5f5f5f60205f8651602088015f8a5af192503d91505f5190508280156108fc575081156108ee57806001146108fc565b5f866001600160a01b03163b115b9695505050505050565b6001600160a01b038116811461091a575f5ffd5b50565b803561092881610906565b919050565b5f5f6040838503121561093e575f5ffd5b823561094981610906565b9150602083013561095981610906565b809150509250929050565b5f5f5f83850360a0811215610977575f5ffd5b6060811215610984575f5ffd5b506040516060810181811067ffffffffffffffff821117156109b457634e487b7160e01b5f52604160045260245ffd5b60409081528535825260208087013590830152858101359082015292506109dd6060850161091d565b91506109eb6080850161091d565b90509250925092565b5f5f5f5f5f60808688031215610a08575f5ffd5b8535610a1381610906565b9450602086013567ffffffffffffffff811115610a2e575f5ffd5b8601601f81018813610a3e575f5ffd5b803567ffffffffffffffff811115610a54575f5ffd5b886020828401011115610a65575f5ffd5b60209190910194509250604086013591506060860135610a8481610906565b809150509295509295909350565b5f60208284031215610aa2575f5ffd5b5051919050565b5f60208284031215610ab9575f5ffd5b8151610ac481610906565b9392505050565b818382375f910190815291905056fea2646970667358221220ef2e672beab9ba98f9b823dbdb9af01f97da0fa3990b47d9b0e59fb3a69f47f564736f6c634300081c0033a26469706673582212205e77fa29f0c06d6c75666f9d4341eee6d74bf483e7c24fda04f181922a8007bd64736f6c634300081c0033",
  "linkReferences": {},
  "deployedLinkReferences": {},
  "immutableReferences": {},
  "inputSourceName": "project/contracts/portal/PortalFactory.sol",
  "buildInfoId": "solc-0_8_28-548b1b971ceaa73b63e28856230b75d9e0f47bbc"
}