{
  "_format": "hh3-artifact-1",
  "contractName": "CurvyAggregatorAlphaV1",
  "sourceName": "contracts/aggregator-alpha/CurvyAggregatorAlphaV1.sol",
  "abi": [
    {
      "inputs": [],
      "stateMutability": "nonpayable",
      "type": "constructor"
    },
    {
      "inputs": [
        {
          "internalType": "address",
          "name": "target",
          "type": "address"
        }
      ],
      "name": "AddressEmptyCode",
      "type": "error"
    },
    {
      "inputs": [
        {
          "internalType": "address",
          "name": "implementation",
          "type": "address"
        }
      ],
      "name": "ERC1967InvalidImplementation",
      "type": "error"
    },
    {
      "inputs": [],
      "name": "ERC1967NonPayable",
      "type": "error"
    },
    {
      "inputs": [],
      "name": "FailedCall",
      "type": "error"
    },
    {
      "inputs": [],
      "name": "InvalidInitialization",
      "type": "error"
    },
    {
      "inputs": [],
      "name": "NotInitializing",
      "type": "error"
    },
    {
      "inputs": [
        {
          "internalType": "address",
          "name": "owner",
          "type": "address"
        }
      ],
      "name": "OwnableInvalidOwner",
      "type": "error"
    },
    {
      "inputs": [
        {
          "internalType": "address",
          "name": "account",
          "type": "address"
        }
      ],
      "name": "OwnableUnauthorizedAccount",
      "type": "error"
    },
    {
      "inputs": [],
      "name": "UUPSUnauthorizedCallContext",
      "type": "error"
    },
    {
      "inputs": [
        {
          "internalType": "bytes32",
          "name": "slot",
          "type": "bytes32"
        }
      ],
      "name": "UUPSUnsupportedProxiableUUID",
      "type": "error"
    },
    {
      "anonymous": false,
      "inputs": [
        {
          "indexed": false,
          "internalType": "uint256",
          "name": "noteId",
          "type": "uint256"
        }
      ],
      "name": "DepositedNote",
      "type": "event"
    },
    {
      "anonymous": false,
      "inputs": [
        {
          "indexed": false,
          "internalType": "uint64",
          "name": "version",
          "type": "uint64"
        }
      ],
      "name": "Initialized",
      "type": "event"
    },
    {
      "anonymous": false,
      "inputs": [
        {
          "indexed": true,
          "internalType": "address",
          "name": "previousOwner",
          "type": "address"
        },
        {
          "indexed": true,
          "internalType": "address",
          "name": "newOwner",
          "type": "address"
        }
      ],
      "name": "OwnershipTransferred",
      "type": "event"
    },
    {
      "anonymous": false,
      "inputs": [
        {
          "indexed": true,
          "internalType": "address",
          "name": "implementation",
          "type": "address"
        }
      ],
      "name": "Upgraded",
      "type": "event"
    },
    {
      "inputs": [],
      "name": "UPGRADE_INTERFACE_VERSION",
      "outputs": [
        {
          "internalType": "string",
          "name": "",
          "type": "string"
        }
      ],
      "stateMutability": "view",
      "type": "function"
    },
    {
      "inputs": [],
      "name": "aggregationVerifier",
      "outputs": [
        {
          "internalType": "contract ICurvyAggregationVerifier",
          "name": "",
          "type": "address"
        }
      ],
      "stateMutability": "view",
      "type": "function"
    },
    {
      "inputs": [
        {
          "internalType": "uint256[2]",
          "name": "proof_a",
          "type": "uint256[2]"
        },
        {
          "internalType": "uint256[2][2]",
          "name": "proof_b",
          "type": "uint256[2][2]"
        },
        {
          "internalType": "uint256[2]",
          "name": "proof_c",
          "type": "uint256[2]"
        },
        {
          "internalType": "uint256[14]",
          "name": "publicInputs",
          "type": "uint256[14]"
        }
      ],
      "name": "commitAggregationBatch",
      "outputs": [
        {
          "internalType": "bool",
          "name": "",
          "type": "bool"
        }
      ],
      "stateMutability": "nonpayable",
      "type": "function"
    },
    {
      "inputs": [
        {
          "internalType": "uint256[2]",
          "name": "proof_a",
          "type": "uint256[2]"
        },
        {
          "internalType": "uint256[2][2]",
          "name": "proof_b",
          "type": "uint256[2][2]"
        },
        {
          "internalType": "uint256[2]",
          "name": "proof_c",
          "type": "uint256[2]"
        },
        {
          "internalType": "uint256[4]",
          "name": "publicInputs",
          "type": "uint256[4]"
        }
      ],
      "name": "commitDepositBatch",
      "outputs": [
        {
          "internalType": "bool",
          "name": "success",
          "type": "bool"
        }
      ],
      "stateMutability": "nonpayable",
      "type": "function"
    },
    {
      "inputs": [
        {
          "internalType": "uint256[2]",
          "name": "proof_a",
          "type": "uint256[2]"
        },
        {
          "internalType": "uint256[2][2]",
          "name": "proof_b",
          "type": "uint256[2][2]"
        },
        {
          "internalType": "uint256[2]",
          "name": "proof_c",
          "type": "uint256[2]"
        },
        {
          "internalType": "uint256[10]",
          "name": "publicInputs",
          "type": "uint256[10]"
        }
      ],
      "name": "commitWithdrawalBatch",
      "outputs": [
        {
          "internalType": "bool",
          "name": "",
          "type": "bool"
        }
      ],
      "stateMutability": "nonpayable",
      "type": "function"
    },
    {
      "inputs": [],
      "name": "curvyVault",
      "outputs": [
        {
          "internalType": "contract ICurvyVault",
          "name": "",
          "type": "address"
        }
      ],
      "stateMutability": "view",
      "type": "function"
    },
    {
      "inputs": [
        {
          "internalType": "address",
          "name": "from",
          "type": "address"
        },
        {
          "components": [
            {
              "internalType": "uint256",
              "name": "ownerHash",
              "type": "uint256"
            },
            {
              "internalType": "uint256",
              "name": "token",
              "type": "uint256"
            },
            {
              "internalType": "uint256",
              "name": "amount",
              "type": "uint256"
            }
          ],
          "internalType": "struct CurvyTypes.Note",
          "name": "note",
          "type": "tuple"
        },
        {
          "internalType": "bytes",
          "name": "signature",
          "type": "bytes"
        }
      ],
      "name": "depositNote",
      "outputs": [],
      "stateMutability": "nonpayable",
      "type": "function"
    },
    {
      "inputs": [],
      "name": "getNoteTreeRoot",
      "outputs": [
        {
          "internalType": "uint256",
          "name": "",
          "type": "uint256"
        }
      ],
      "stateMutability": "view",
      "type": "function"
    },
    {
      "inputs": [],
      "name": "getNullifierTreeRoot",
      "outputs": [
        {
          "internalType": "uint256",
          "name": "",
          "type": "uint256"
        }
      ],
      "stateMutability": "view",
      "type": "function"
    },
    {
      "inputs": [
        {
          "internalType": "address",
          "name": "initialOwner",
          "type": "address"
        },
        {
          "internalType": "address",
          "name": "curvyVaultProxyAddress",
          "type": "address"
        }
      ],
      "name": "initialize",
      "outputs": [],
      "stateMutability": "nonpayable",
      "type": "function"
    },
    {
      "inputs": [],
      "name": "insertionVerifier",
      "outputs": [
        {
          "internalType": "contract ICurvyInsertionVerifier",
          "name": "",
          "type": "address"
        }
      ],
      "stateMutability": "view",
      "type": "function"
    },
    {
      "inputs": [],
      "name": "maxAggregations",
      "outputs": [
        {
          "internalType": "uint256",
          "name": "",
          "type": "uint256"
        }
      ],
      "stateMutability": "view",
      "type": "function"
    },
    {
      "inputs": [],
      "name": "maxDeposits",
      "outputs": [
        {
          "internalType": "uint256",
          "name": "",
          "type": "uint256"
        }
      ],
      "stateMutability": "view",
      "type": "function"
    },
    {
      "inputs": [],
      "name": "maxWithdrawals",
      "outputs": [
        {
          "internalType": "uint256",
          "name": "",
          "type": "uint256"
        }
      ],
      "stateMutability": "view",
      "type": "function"
    },
    {
      "inputs": [
        {
          "internalType": "uint256",
          "name": "noteId",
          "type": "uint256"
        }
      ],
      "name": "noteInQueue",
      "outputs": [
        {
          "internalType": "bool",
          "name": "",
          "type": "bool"
        }
      ],
      "stateMutability": "view",
      "type": "function"
    },
    {
      "inputs": [],
      "name": "owner",
      "outputs": [
        {
          "internalType": "address",
          "name": "",
          "type": "address"
        }
      ],
      "stateMutability": "view",
      "type": "function"
    },
    {
      "inputs": [],
      "name": "proxiableUUID",
      "outputs": [
        {
          "internalType": "bytes32",
          "name": "",
          "type": "bytes32"
        }
      ],
      "stateMutability": "view",
      "type": "function"
    },
    {
      "inputs": [],
      "name": "renounceOwnership",
      "outputs": [],
      "stateMutability": "nonpayable",
      "type": "function"
    },
    {
      "inputs": [
        {
          "internalType": "uint256",
          "name": "newNotesTreeRoot",
          "type": "uint256"
        },
        {
          "internalType": "uint256",
          "name": "newNullifiersTreeRoot",
          "type": "uint256"
        }
      ],
      "name": "reset",
      "outputs": [],
      "stateMutability": "nonpayable",
      "type": "function"
    },
    {
      "inputs": [
        {
          "internalType": "address",
          "name": "newOwner",
          "type": "address"
        }
      ],
      "name": "transferOwnership",
      "outputs": [],
      "stateMutability": "nonpayable",
      "type": "function"
    },
    {
      "inputs": [
        {
          "components": [
            {
              "internalType": "address",
              "name": "insertionVerifier",
              "type": "address"
            },
            {
              "internalType": "address",
              "name": "aggregationVerifier",
              "type": "address"
            },
            {
              "internalType": "address",
              "name": "withdrawVerifier",
              "type": "address"
            },
            {
              "internalType": "address",
              "name": "curvyVault",
              "type": "address"
            },
            {
              "internalType": "uint256",
              "name": "maxDeposits",
              "type": "uint256"
            },
            {
              "internalType": "uint256",
              "name": "maxWithdrawals",
              "type": "uint256"
            },
            {
              "internalType": "uint256",
              "name": "maxAggregations",
              "type": "uint256"
            }
          ],
          "internalType": "struct CurvyTypes.AggregatorConfigurationUpdate",
          "name": "_update",
          "type": "tuple"
        }
      ],
      "name": "updateConfig",
      "outputs": [
        {
          "internalType": "bool",
          "name": "",
          "type": "bool"
        }
      ],
      "stateMutability": "nonpayable",
      "type": "function"
    },
    {
      "inputs": [
        {
          "internalType": "address",
          "name": "newImplementation",
          "type": "address"
        },
        {
          "internalType": "bytes",
          "name": "data",
          "type": "bytes"
        }
      ],
      "name": "upgradeToAndCall",
      "outputs": [],
      "stateMutability": "payable",
      "type": "function"
    },
    {
      "inputs": [],
      "name": "withdrawVerifier",
      "outputs": [
        {
          "internalType": "contract ICurvyWithdrawVerifier",
          "name": "",
          "type": "address"
        }
      ],
      "stateMutability": "view",
      "type": "function"
    }
  ],
  "bytecode": "0x60a060405230608052348015610013575f5ffd5b5061001c610021565b6100d3565b7ff0c57e16840df040f15088dc2f81fe391c3923bec73e23a9662efc9c229c6a00805468010000000000000000900460ff16156100715760405163f92ee8a960e01b815260040160405180910390fd5b80546001600160401b03908116146100d05780546001600160401b0319166001600160401b0390811782556040519081527fc7f505b2f371ae2175ee4913f4499e1f2633a7b5936321eed1cdaeb6115181d29060200160405180910390a15b50565b608051611f676100f95f395f81816112ba015281816112e301526114270152611f675ff3fe60806040526004361061013c575f3560e01c806375849383116100b3578063abed77901161006d578063abed779014610344578063ad3cb1cc14610363578063b4da7173146103a0578063b974158a146103bf578063f1576394146103de578063f2fde38b146103f2575f5ffd5b806375849383146102a557806376775ce1146102ba578063864eb164146102e85780638ae11770146103075780638da5cb5b1461031c57806395b7f22a14610330575f5ffd5b8063456aa4f411610104578063456aa4f41461020d578063485cc9551461022c5780634f1ef2861461024b57806352d1902d1461025e5780636a085b5014610272578063715018a614610291575f5ffd5b806308e48496146101405780631a82739b146101615780631dc4363714610195578063354d594b146101b45780633fb07027146101d6575b5f5ffd5b34801561014b575f5ffd5b5061015f61015a3660046117b2565b610411565b005b34801561016c575f5ffd5b5061018061017b366004611900565b610597565b60405190151581526020015b60405180910390f35b3480156101a0575f5ffd5b5061015f6101af3660046119a2565b610871565b3480156101bf575f5ffd5b506101c85f5481565b60405190815260200161018c565b3480156101e1575f5ffd5b506006546101f5906001600160a01b031681565b6040516001600160a01b03909116815260200161018c565b348015610218575f5ffd5b506101806102273660046119c2565b610884565b348015610237575f5ffd5b5061015f610246366004611a36565b610cbb565b61015f610259366004611a67565b610ddc565b348015610269575f5ffd5b506101c8610dfb565b34801561027d575f5ffd5b5061018061028c366004611ab2565b610e16565b34801561029c575f5ffd5b5061015f6110a0565b3480156102b0575f5ffd5b506101c860015481565b3480156102c5575f5ffd5b506101806102d4366004611b23565b5f9081526003602052604090205460ff1690565b3480156102f3575f5ffd5b506009546101f5906001600160a01b031681565b348015610312575f5ffd5b506101c860025481565b348015610327575f5ffd5b506101f56110b3565b34801561033b575f5ffd5b506005546101c8565b34801561034f575f5ffd5b506008546101f5906001600160a01b031681565b34801561036e575f5ffd5b50610393604051806040016040528060058152602001640352e302e360dc1b81525081565b60405161018c9190611b68565b3480156103ab575f5ffd5b506101806103ba366004611b7a565b6110e1565b3480156103ca575f5ffd5b506007546101f5906001600160a01b031681565b3480156103e9575f5ffd5b506004546101c8565b3480156103fd575f5ffd5b5061015f61040c366004611c17565b611205565b6006546040805160c0810182526001600160a01b03868116825230602080840191909152860151828401528583015160608301525f6080830152600160a08301529151630c776f7760e21b815291909216916331ddbddc9161047891908590600401611caa565b5f604051808303815f87803b15801561048f575f5ffd5b505af11580156104a1573d5f5f3e3d5ffd5b50506040805160608101825285518152858201516020808301919091528601518183015290516320cf0a3760e01b81525f935073__$759bf5a5ad889f3dc71fc353c9ae5c518b$__92506320cf0a37916104fd91600401611cd1565b602060405180830381865af4158015610518573d5f5f3e3d5ffd5b505050506040513d601f19601f8201168201806040525081019061053c9190611d01565b5f8181526003602052604090819020805460ff19166001179055519091507f085eb711e9033934898875f6926d3a98c49bae62c73a015160bc22993aae4bee906105899083815260200190565b60405180910390a150505050565b5f5f8260015460026105a99190611d2c565b6105b4906001611d43565b600e81106105c4576105c4611d56565b602002015190505f8360015460026105dc9190611d2c565b6105e7906002611d43565b600e81106105f7576105f7611d56565b602002015190505f84600154600261060f9190611d2c565b61061a906003611d43565b600e811061062a5761062a611d56565b602002015190505f8560015460026106429190611d2c565b61064d906004611d43565b600e811061065d5761065d611d56565b6020020151905081600454146106f15760405162461bcd60e51b815260206004820152604860248201527f437572767941676772656761746f7223636f6d6d69744167677265676174696f60448201527f6e42617463683a2043757272656e74206e6f7465207472656520726f6f74206d60648201526769736d617463682160c01b608482015260a4015b60405180910390fd5b836005541461077e5760405162461bcd60e51b815260206004820152604d60248201527f437572767941676772656761746f7223636f6d6d69744167677265676174696f60448201527f6e42617463683a2043757272656e74206e756c6c69666965722074726565207260648201526c6f6f74206d69736d617463682160981b608482015260a4016106e8565b600854604051638d15f88f60e01b81526001600160a01b0390911690638d15f88f906107b4908c908c908c908c90600401611dbf565b602060405180830381865afa1580156107cf573d5f5f3e3d5ffd5b505050506040513d601f19601f820116820180604052508101906107f39190611e1b565b61085e5760405162461bcd60e51b815260206004820152603660248201527f437572767941676772656761746f7223636f6d6d69744167677265676174696f6044820152756e42617463683a20496e76616c69642070726f6f662160501b60648201526084016106e8565b6004555060055550600195945050505050565b610879611242565b600491909155600555565b60055460608201515f91146109165760405162461bcd60e51b815260206004820152604c60248201527f437572767941676772656761746f7223636f6d6d69745769746864726177616c60448201527f42617463683a2043757272656e74206e756c6c6966696572207472656520726f60648201526b6f74206d69736d617463682160a01b608482015260a4016106e8565b6004546040830151146109a15760405162461bcd60e51b815260206004820152604760248201527f437572767941676772656761746f7223636f6d6d69745769746864726177616c60448201527f42617463683a2043757272656e74206e6f7465207472656520726f6f74206d69606482015266736d617463682160c81b608482015260a4016106e8565b6009546040516379ddb87b60e11b81526001600160a01b039091169063f3bb70f6906109d7908890889088908890600401611e3a565b602060405180830381865afa1580156109f2573d5f5f3e3d5ffd5b505050506040513d601f19601f82011682018060405250810190610a169190611e1b565b610a885760405162461bcd60e51b815260206004820152603e60248201527f437572767941676772656761746f7223636f6d6d69745769746864726177616c60448201527f42617463683a20496e76616c69642077697468647261772070726f6f6621000060648201526084016106e8565b8151600555600a5f5b600254811015610bca575f84610aa8836004611d43565b600a8110610ab857610ab8611d56565b602002015190505f85836002546004610ad19190611d43565b610adb9190611d43565b600a8110610aeb57610aeb611d56565b602002015190508115610bb5576006546040805160c0810182523081526001600160a01b0384811660208301529092169163de1a272091810189610b3060018a611e8a565b600a8110610b4057610b40611d56565b602002015181526020018581526020015f81526020015f6002811115610b6857610b68611c30565b8152506040518263ffffffff1660e01b8152600401610b879190611e9d565b5f604051808303815f87803b158015610b9e575f5ffd5b505af1158015610bb0573d5f5f3e3d5ffd5b505050505b50610bc39050600182611d43565b9050610a91565b506006546040805160c081019091523081526001600160a01b039091169063de1a27209060208101610bfa6110b3565b6001600160a01b0316815260200186610c14600187611e8a565b600a8110610c2457610c24611d56565b60200201518152602001866001600a8110610c4157610c41611d56565b602002015181526020015f81526020015f6002811115610c6357610c63611c30565b8152506040518263ffffffff1660e01b8152600401610c829190611e9d565b5f604051808303815f87803b158015610c99575f5ffd5b505af1158015610cab573d5f5f3e3d5ffd5b5060019998505050505050505050565b5f610cc4611274565b805490915060ff600160401b820416159067ffffffffffffffff165f81158015610ceb5750825b90505f8267ffffffffffffffff166001148015610d075750303b155b905081158015610d15575080155b15610d335760405163f92ee8a960e01b815260040160405180910390fd5b845467ffffffffffffffff191660011785558315610d5d57845460ff60401b1916600160401b1785555b60025f819055808055600155610d728761129e565b600680546001600160a01b0319166001600160a01b0388161790558315610dd357845460ff60401b19168555604051600181527fc7f505b2f371ae2175ee4913f4499e1f2633a7b5936321eed1cdaeb6115181d29060200160405180910390a15b50505050505050565b610de46112af565b610ded82611353565b610df7828261135b565b5050565b5f610e0461141c565b505f516020611f125f395f51905f5290565b5f805b5f54811015610efa575f838260048110610e3557610e35611d56565b602002015190508015610ee7575f8181526003602052604090205460ff16610ed15760405162461bcd60e51b815260206004820152604360248201527f437572767941676772656761746f7223636f6d6d69744465706f73697442617460448201527f63683a204e6f7465206e6f74207363686564756c656420666f72206465706f7360648201526269742160e81b608482015260a4016106e8565b5f818152600360205260409020805460ff191690555b50610ef3600182611d43565b9050610e19565b50600482610f09600283611e8a565b60048110610f1957610f19611d56565b602002015160045414610f945760405162461bcd60e51b815260206004820152603760248201527f437572767941676772656761746f7223636f6d6d69744465706f73697442617460448201527f63683a20496e76616c6964206e6f74657320726f6f742100000000000000000060648201526084016106e8565b600754604051635fe8c13b60e01b81526001600160a01b0390911690635fe8c13b90610fca908990899089908990600401611eab565b602060405180830381865afa158015610fe5573d5f5f3e3d5ffd5b505050506040513d601f19601f820116820180604052508101906110099190611e1b565b6110705760405162461bcd60e51b815260206004820152603260248201527f437572767941676772656761746f7223636f6d6d69744465706f73697442617460448201527163683a20496e76616c69642070726f6f662160701b60648201526084016106e8565b8261107c600183611e8a565b6004811061108c5761108c611d56565b602002015160045550600195945050505050565b6110a8611242565b6110b15f611465565b565b7f9016d09d72d40fdae2fd8ceac6b6234c7706214fd39c1cd1e609a0528c199300546001600160a01b031690565b5f6110ea611242565b81516001600160a01b03161561111c578151600780546001600160a01b0319166001600160a01b039092169190911790555b60208201516001600160a01b031615611154576020820151600880546001600160a01b0319166001600160a01b039092169190911790555b60408201516001600160a01b03161561118c576040820151600980546001600160a01b0319166001600160a01b039092169190911790555b60608201516001600160a01b0316156111c4576060820151600680546001600160a01b0319166001600160a01b039092169190911790555b6080820151156111d65760808201515f555b60c0820151156111e95760c08201516001555b60a0820151156111fc5760a08201516002555b5060015b919050565b61120d611242565b6001600160a01b03811661123657604051631e4fbdf760e01b81525f60048201526024016106e8565b61123f81611465565b50565b3361124b6110b3565b6001600160a01b0316146110b15760405163118cdaa760e01b81523360048201526024016106e8565b5f807ff0c57e16840df040f15088dc2f81fe391c3923bec73e23a9662efc9c229c6a005b92915050565b6112a66114d5565b61123f816114fa565b306001600160a01b037f000000000000000000000000000000000000000000000000000000000000000016148061133557507f00000000000000000000000000000000000000000000000000000000000000006001600160a01b03166113295f516020611f125f395f51905f52546001600160a01b031690565b6001600160a01b031614155b156110b15760405163703e46dd60e11b815260040160405180910390fd5b61123f611242565b816001600160a01b03166352d1902d6040518163ffffffff1660e01b8152600401602060405180830381865afa9250505080156113b5575060408051601f3d908101601f191682019092526113b291810190611d01565b60015b6113dd57604051634c9c8ce360e01b81526001600160a01b03831660048201526024016106e8565b5f516020611f125f395f51905f52811461140d57604051632a87526960e21b8152600481018290526024016106e8565b6114178383611502565b505050565b306001600160a01b037f000000000000000000000000000000000000000000000000000000000000000016146110b15760405163703e46dd60e11b815260040160405180910390fd5b7f9016d09d72d40fdae2fd8ceac6b6234c7706214fd39c1cd1e609a0528c19930080546001600160a01b031981166001600160a01b03848116918217845560405192169182907f8be0079c531659141344cd1fd0a4f28419497f9722a3daafe3b4186f6b6457e0905f90a3505050565b6114dd611557565b6110b157604051631afcd79f60e31b815260040160405180910390fd5b61120d6114d5565b61150b82611570565b6040516001600160a01b038316907fbc7cd75a20ee27fd9adebab32041f755214dbc6bffa90cc0225b39da2e5c2d3b905f90a280511561154f5761141782826115d3565b610df7611645565b5f611560611274565b54600160401b900460ff16919050565b806001600160a01b03163b5f036115a557604051634c9c8ce360e01b81526001600160a01b03821660048201526024016106e8565b5f516020611f125f395f51905f5280546001600160a01b0319166001600160a01b0392909216919091179055565b60605f5f846001600160a01b0316846040516115ef9190611efb565b5f60405180830381855af49150503d805f8114611627576040519150601f19603f3d011682016040523d82523d5f602084013e61162c565b606091505b509150915061163c858383611664565b95945050505050565b34156110b15760405163b398979f60e01b815260040160405180910390fd5b60608261167957611674826116c3565b6116bc565b815115801561169057506001600160a01b0384163b155b156116b957604051639996b31560e01b81526001600160a01b03851660048201526024016106e8565b50805b9392505050565b8051156116d257805160208201fd5b60405163d6bda27560e01b815260040160405180910390fd5b80356001600160a01b0381168114611200575f5ffd5b634e487b7160e01b5f52604160045260245ffd5b604051601f8201601f1916810167ffffffffffffffff8111828210171561173e5761173e611701565b604052919050565b5f82601f830112611755575f5ffd5b813567ffffffffffffffff81111561176f5761176f611701565b611782601f8201601f1916602001611715565b818152846020838601011115611796575f5ffd5b816020850160208301375f918101602001919091529392505050565b5f5f5f83850360a08112156117c5575f5ffd5b6117ce856116eb565b93506060601f19820112156117e1575f5ffd5b506040516060810167ffffffffffffffff8111828210171561180557611805611701565b6040908152602086810135835286820135908301526060860135908201529150608084013567ffffffffffffffff81111561183e575f5ffd5b61184a86828701611746565b9150509250925092565b5f82601f830112611863575f5ffd5b5f61186e6040611715565b9050806040840185811115611881575f5ffd5b845b8181101561189b578035835260209283019201611883565b509195945050505050565b5f82601f8301126118b5575f5ffd5b60406118c081611715565b8060808501868111156118d1575f5ffd5b855b818110156118f4576118e58882611854565b845260209093019284016118d3565b50909695505050505050565b5f5f5f5f6102c08587031215611914575f5ffd5b61191e8686611854565b935061192d86604087016118a6565b925061193c8660c08701611854565b91505f8661011f87011261194e575f5ffd5b505f806101c061195d81611715565b9150508091506102c0870188811115611974575f5ffd5b61010088015b8181101561199257803584526020938401930161197a565b5050809250505092959194509250565b5f5f604083850312156119b3575f5ffd5b50508035926020909101359150565b5f5f5f5f61024085870312156119d6575f5ffd5b6119e08686611854565b93506119ef86604087016118a6565b92506119fe8660c08701611854565b91505f8661011f870112611a10575f5ffd5b505f80610140611a1f81611715565b915050809150610240870188811115611974575f5ffd5b5f5f60408385031215611a47575f5ffd5b611a50836116eb565b9150611a5e602084016116eb565b90509250929050565b5f5f60408385031215611a78575f5ffd5b611a81836116eb565b9150602083013567ffffffffffffffff811115611a9c575f5ffd5b611aa885828601611746565b9150509250929050565b5f5f5f5f6101808587031215611ac6575f5ffd5b611ad08686611854565b9350611adf86604087016118a6565b9250611aee8660c08701611854565b91505f8661011f870112611b00575f5ffd5b505f80611b0d6080611715565b9050809150610180870188811115611974575f5ffd5b5f60208284031215611b33575f5ffd5b5035919050565b5f81518084528060208401602086015e5f602082860101526020601f19601f83011685010191505092915050565b602081525f6116bc6020830184611b3a565b5f60e0828403128015611b8b575f5ffd5b5060405160e0810167ffffffffffffffff81118282101715611baf57611baf611701565b604052611bbb836116eb565b8152611bc9602084016116eb565b6020820152611bda604084016116eb565b6040820152611beb606084016116eb565b60608201526080838101359082015260a0808401359082015260c0928301359281019290925250919050565b5f60208284031215611c27575f5ffd5b6116bc826116eb565b634e487b7160e01b5f52602160045260245ffd5b80516001600160a01b0390811683526020808301519091169083015260408082015190830152606080820151908301526080808201519083015260a081015160038110611c9f57634e487b7160e01b5f52602160045260245ffd5b8060a0840152505050565b611cb48184611c44565b60e060c08201525f611cc960e0830184611b3a565b949350505050565b6060810181835f5b6003811015611cf8578151835260209283019290910190600101611cd9565b50505092915050565b5f60208284031215611d11575f5ffd5b5051919050565b634e487b7160e01b5f52601160045260245ffd5b808202811582820484141761129857611298611d18565b8082018082111561129857611298611d18565b634e487b7160e01b5f52603260045260245ffd5b805f5b6002811015611d8c578151845260209384019390910190600101611d6d565b50505050565b805f5b6002811015611d8c57611da9848351611d6a565b6040939093019260209190910190600101611d95565b6102c08101611dce8287611d6a565b611ddb6040830186611d92565b611de860c0830185611d6a565b6101008201835f5b600e811015611e0f578151835260209283019290910190600101611df0565b50505095945050505050565b5f60208284031215611e2b575f5ffd5b815180151581146116bc575f5ffd5b6102408101611e498287611d6a565b611e566040830186611d92565b611e6360c0830185611d6a565b6101008201835f5b600a811015611e0f578151835260209283019290910190600101611e6b565b8181038181111561129857611298611d18565b60c081016112988284611c44565b6101808101611eba8287611d6a565b611ec76040830186611d92565b611ed460c0830185611d6a565b6101008201835f5b6004811015611e0f578151835260209283019290910190600101611edc565b5f82518060208501845e5f92019182525091905056fe360894a13ba1a3210667c828492db98dca3e2076cc3735a920a3ca505d382bbca26469706673582212205c716993d98e927c2e009d323d30b276b9f9053b13c990872e37e08ceda5f0e864736f6c634300081c0033",
  "linkReferences": {
    "project/contracts/aggregator-alpha/utils/PoseidonT4.sol": {
      "PoseidonT4": [
        {
          "length": 20,
          "start": 1487
        }
      ]
    }
  },
  "deployedLinkReferences": {
    "project/contracts/aggregator-alpha/utils/PoseidonT4.sol": {
      "PoseidonT4": [
        {
          "length": 20,
          "start": 1238
        }
      ]
    }
  },
  "immutableReferences": {
    "482": [
      {
        "length": 32,
        "start": 4794
      },
      {
        "length": 32,
        "start": 4835
      },
      {
        "length": 32,
        "start": 5159
      }
    ]
  },
  "inputSourceName": "project/contracts/aggregator-alpha/CurvyAggregatorAlphaV1.sol",
  "buildInfoId": "solc-0_8_28-7aa766fe6b7b062ed2ddb662f43195e0e5c263ca"
}