{
  "_format": "hh3-artifact-1",
  "contractName": "AirlockFactory",
  "sourceName": "contracts/portal/AirlockFactory.sol",
  "abi": [
    {
      "inputs": [
        {
          "internalType": "address",
          "name": "initialOwner",
          "type": "address"
        }
      ],
      "stateMutability": "nonpayable",
      "type": "constructor"
    },
    {
      "inputs": [
        {
          "internalType": "address",
          "name": "owner",
          "type": "address"
        }
      ],
      "name": "OwnableInvalidOwner",
      "type": "error"
    },
    {
      "inputs": [
        {
          "internalType": "address",
          "name": "account",
          "type": "address"
        }
      ],
      "name": "OwnableUnauthorizedAccount",
      "type": "error"
    },
    {
      "anonymous": false,
      "inputs": [
        {
          "indexed": true,
          "internalType": "address",
          "name": "previousOwner",
          "type": "address"
        },
        {
          "indexed": true,
          "internalType": "address",
          "name": "newOwner",
          "type": "address"
        }
      ],
      "name": "OwnershipTransferred",
      "type": "event"
    },
    {
      "inputs": [
        {
          "internalType": "bytes",
          "name": "bridgeData",
          "type": "bytes"
        },
        {
          "components": [
            {
              "internalType": "uint256",
              "name": "ownerHash",
              "type": "uint256"
            },
            {
              "internalType": "uint256",
              "name": "token",
              "type": "uint256"
            },
            {
              "internalType": "uint256",
              "name": "amount",
              "type": "uint256"
            }
          ],
          "internalType": "struct CurvyTypes.Note",
          "name": "note",
          "type": "tuple"
        },
        {
          "internalType": "address",
          "name": "tokenAddress",
          "type": "address"
        }
      ],
      "name": "deployAndBridge",
      "outputs": [],
      "stateMutability": "nonpayable",
      "type": "function"
    },
    {
      "inputs": [
        {
          "components": [
            {
              "internalType": "uint256",
              "name": "ownerHash",
              "type": "uint256"
            },
            {
              "internalType": "uint256",
              "name": "token",
              "type": "uint256"
            },
            {
              "internalType": "uint256",
              "name": "amount",
              "type": "uint256"
            }
          ],
          "internalType": "struct CurvyTypes.Note",
          "name": "note",
          "type": "tuple"
        }
      ],
      "name": "deployAndShield",
      "outputs": [],
      "stateMutability": "payable",
      "type": "function"
    },
    {
      "inputs": [
        {
          "internalType": "uint256",
          "name": "ownerHash",
          "type": "uint256"
        }
      ],
      "name": "getAirlockAddress",
      "outputs": [
        {
          "internalType": "address",
          "name": "",
          "type": "address"
        }
      ],
      "stateMutability": "view",
      "type": "function"
    },
    {
      "inputs": [
        {
          "internalType": "uint256",
          "name": "ownerHash",
          "type": "uint256"
        }
      ],
      "name": "getCreationCode",
      "outputs": [
        {
          "internalType": "bytes",
          "name": "",
          "type": "bytes"
        }
      ],
      "stateMutability": "pure",
      "type": "function"
    },
    {
      "inputs": [
        {
          "internalType": "address",
          "name": "curvyVaultProxyAddress",
          "type": "address"
        },
        {
          "internalType": "address",
          "name": "curvyAggregatorAlphaProxyAddress",
          "type": "address"
        },
        {
          "internalType": "address",
          "name": "lifiDiamondAddress",
          "type": "address"
        }
      ],
      "name": "initializeConfig",
      "outputs": [
        {
          "internalType": "bool",
          "name": "",
          "type": "bool"
        }
      ],
      "stateMutability": "nonpayable",
      "type": "function"
    },
    {
      "inputs": [],
      "name": "owner",
      "outputs": [
        {
          "internalType": "address",
          "name": "",
          "type": "address"
        }
      ],
      "stateMutability": "view",
      "type": "function"
    },
    {
      "inputs": [],
      "name": "renounceOwnership",
      "outputs": [],
      "stateMutability": "nonpayable",
      "type": "function"
    },
    {
      "inputs": [
        {
          "internalType": "address",
          "name": "newOwner",
          "type": "address"
        }
      ],
      "name": "transferOwnership",
      "outputs": [],
      "stateMutability": "nonpayable",
      "type": "function"
    },
    {
      "inputs": [
        {
          "internalType": "address",
          "name": "lifiDiamondAddress",
          "type": "address"
        }
      ],
      "name": "updateLifiDiamondAddress",
      "outputs": [
        {
          "internalType": "bool",
          "name": "",
          "type": "bool"
        }
      ],
      "stateMutability": "nonpayable",
      "type": "function"
    }
  ],
  "bytecode": "0x7f63757276792d6169726c6f636b2d666163746f72792d73616c7400000000000060a052601a60805260ba6040527f82c858fa4549209593c98fc5bca296d381f592941f8f20eefd0c7f606228acca60015534801561005c575f5ffd5b506040516112e33803806112e383398101604081905261007b91610108565b806001600160a01b0381166100a957604051631e4fbdf760e01b81525f600482015260240160405180910390fd5b6100b2816100b9565b5050610135565b5f80546001600160a01b038381166001600160a01b0319831681178455604051919092169283917f8be0079c531659141344cd1fd0a4f28419497f9722a3daafe3b4186f6b6457e09190a35050565b5f60208284031215610118575f5ffd5b81516001600160a01b038116811461012e575f5ffd5b9392505050565b6111a1806101425f395ff3fe608060405260043610610084575f3560e01c8063715018a611610057578063715018a614610133578063735f399d146101475780637377bbb41461015a5780638da5cb5b14610186578063f2fde38b146101a2575f5ffd5b80631d29b183146100885780633942b0ad146100a957806352982f3b146100dd5780636a1f9c11146100fc575b5f5ffd5b348015610093575f5ffd5b506100a76100a23660046106ec565b6101c1565b005b3480156100b4575f5ffd5b506100c86100c336600461077b565b6102f0565b60405190151581526020015b60405180910390f35b3480156100e8575f5ffd5b506100c86100f736600461079b565b61031d565b348015610107575f5ffd5b5061011b6101163660046107db565b610369565b6040516001600160a01b0390911681526020016100d4565b34801561013e575f5ffd5b506100a76103d7565b6100a76101553660046107f2565b6103ea565b348015610165575f5ffd5b506101796101743660046107db565b610543565b6040516100d4919061080c565b348015610191575f5ffd5b505f546001600160a01b031661011b565b3480156101ad575f5ffd5b506100a76101bc36600461077b565b6105ae565b6004546001600160a01b031661023b5760405162461bcd60e51b815260206004820152603460248201527f4169726c6f636b466163746f72793a204272696467696e67206e6f74207375706044820152733837b93a32b21037b7103a3434b99031b430b4b760611b60648201526084015b60405180910390fd5b5f610248835f0151610543565b90505f5f60015490508083516020850134f591506001600160a01b0382166102825760405162461bcd60e51b815260040161023290610841565b60048054604051632f35b11d60e21b81526001600160a01b038086169363bcd6c474936102ba939216918c918c918c918c9101610882565b5f604051808303815f87803b1580156102d1575f5ffd5b505af11580156102e3573d5f5f3e3d5ffd5b5050505050505050505050565b5f6102f96105eb565b50600480546001600160a01b0319166001600160a01b03831617905560015b919050565b5f6103266105eb565b50600280546001600160a01b039485166001600160a01b031991821617909155600380549385169382169390931790925560048054919093169116179055600190565b5f5f61037483610543565b6001548151602092830120604080516001600160f81b0319818601523060601b6bffffffffffffffffffffffff19166021820152603581019390935260558084019290925280518084039092018252607590920190915280519101209392505050565b6103df6105eb565b6103e85f610617565b565b6002546001600160a01b0316158061040b57506003546001600160a01b0316155b156104765760405162461bcd60e51b815260206004820152603560248201527f4169726c6f636b466163746f72793a20536869656c64696e67206e6f74207375604482015274383837b93a32b21037b7103a3434b99031b430b4b760591b6064820152608401610232565b5f610483825f0151610543565b90505f5f60015490508083516020850134f591506001600160a01b0382166104bd5760405162461bcd60e51b815260040161023290610841565b60035460025460408051631329a1a760e31b815287516004820152602088015160248201529087015160448201526001600160a01b03928316606482015290821660848201529083169063994d0d389060a4015f604051808303815f87803b158015610527575f5ffd5b505af1158015610539573d5f5f3e3d5ffd5b5050505050505050565b60605f6040518060200161055690610666565b601f1982820381018352601f909101166040818152602080830187905281518084039091018152818301909152919250610596908390839060600161090e565b60405160208183030381529060405292505050919050565b6105b66105eb565b6001600160a01b0381166105df57604051631e4fbdf760e01b81525f6004820152602401610232565b6105e881610617565b50565b5f546001600160a01b031633146103e85760405163118cdaa760e01b8152336004820152602401610232565b5f80546001600160a01b038381166001600160a01b0319831681178455604051919092169283917f8be0079c531659141344cd1fd0a4f28419497f9722a3daafe3b4186f6b6457e09190a35050565b6108418061092b83390190565b5f60608284031215610683575f5ffd5b6040516060810181811067ffffffffffffffff821117156106b257634e487b7160e01b5f52604160045260245ffd5b60409081528335825260208085013590830152928301359281019290925250919050565b80356001600160a01b0381168114610318575f5ffd5b5f5f5f5f60a085870312156106ff575f5ffd5b843567ffffffffffffffff811115610715575f5ffd5b8501601f81018713610725575f5ffd5b803567ffffffffffffffff81111561073b575f5ffd5b87602082840101111561074c575f5ffd5b6020918201955093506107629087908701610673565b9150610770608086016106d6565b905092959194509250565b5f6020828403121561078b575f5ffd5b610794826106d6565b9392505050565b5f5f5f606084860312156107ad575f5ffd5b6107b6846106d6565b92506107c4602085016106d6565b91506107d2604085016106d6565b90509250925092565b5f602082840312156107eb575f5ffd5b5035919050565b5f60608284031215610802575f5ffd5b6107948383610673565b602081525f82518060208401528060208501604085015e5f604082850101526040601f19601f83011684010191505092915050565b60208082526021908201527f4169726c6f636b466163746f72793a204465706c6f796d656e74206661696c656040820152601960fa1b606082015260800190565b6001600160a01b038616815260c0602082018190528101849052838560e08301375f60e085830101525f60e0601f19601f87011683010190506108dc60408301858051825260208082015190830152604090810151910152565b6001600160a01b039290921660a09190910152949350505050565b5f81518060208401855e5f93019283525090919050565b5f61092261091c83866108f7565b846108f7565b94935050505056fe6080604052348015600e575f5ffd5b50604051610841380380610841833981016040819052602b916031565b5f556047565b5f602082840312156040575f5ffd5b5051919050565b6107ed806100545f395ff3fe608060405234801561000f575f5ffd5b506004361061004a575f3560e01c80633fb070271461004e5780635dc24ee31461007d578063994d0d3814610090578063bcd6c474146100a5575b5f5ffd5b600254610061906001600160a01b031681565b6040516001600160a01b03909116815260200160405180910390f35b600154610061906001600160a01b031681565b6100a361009e366004610699565b6100b8565b005b6100a36100b33660046106e0565b6102fe565b5f5483511461010e5760405162461bcd60e51b815260206004820152601b60248201527f4169726c6f636b3a20496e76616c6964206f776e65722068617368000000000060448201526064015b60405180910390fd5b600180546001600160a01b038085166001600160a01b0319928316179092556002805492841692909116821790556020840151604051630cf99be760e31b81525f92916367ccdf3891610168919060040190815260200190565b602060405180830381865afa158015610183573d5f5f3e3d5ffd5b505050506040513d601f19601f820116820180604052508101906101a79190610786565b90506001600160a01b038116158015906101de57506001600160a01b03811673eeeeeeeeeeeeeeeeeeeeeeeeeeeeeeeeeeeeeeee14155b1561027d576001546040850151610203916001600160a01b03848116929116906104b7565b600154604080516347107fdb60e01b815286516004820152602087015160248201529086015160448201526001600160a01b038381166064830152909116906347107fdb906084015f604051808303815f87803b158015610262575f5ffd5b505af1158015610274573d5f5f3e3d5ffd5b505050506102f8565b6001546040858101805191516347107fdb60e01b81528751600482015260208801516024820152905160448201526001600160a01b038481166064830152909216916347107fdb91906084015f604051808303818588803b1580156102e0575f5ffd5b505af11580156102f2573d5f5f3e3d5ffd5b50505050505b50505050565b6001600160a01b0385166103545760405162461bcd60e51b815260206004820152601e60248201527f4169726c6f636b3a20496e76616c6964204c492e4649206164647265737300006044820152606401610105565b5f548251146103a55760405162461bcd60e51b815260206004820152601b60248201527f4169726c6f636b3a20496e76616c6964206f776e6572206861736800000000006044820152606401610105565b60408201516001600160a01b038216158015906103df57506001600160a01b03821673eeeeeeeeeeeeeeeeeeeeeeeeeeeeeeeeeeeeeeee14155b156104025760408301516103ff906001600160a01b0384169088906104b7565b505f5b5f866001600160a01b031682878760405161041e9291906107a8565b5f6040518083038185875af1925050503d805f8114610458576040519150601f19603f3d011682016040523d82523d5f602084013e61045d565b606091505b50509050806104ae5760405162461bcd60e51b815260206004820152601b60248201527f4169726c6f636b3a204272696467652063616c6c206661696c656400000000006044820152606401610105565b50505050505050565b604080516001600160a01b038416602482015260448082018490528251808303909101815260649091019091526020810180516001600160e01b031663095ea7b360e01b179052610508848261056a565b6102f857604080516001600160a01b03851660248201525f6044808301919091528251808303909101815260649091019091526020810180516001600160e01b031663095ea7b360e01b1790526105609085906105b3565b6102f884826105b3565b5f5f5f5f60205f8651602088015f8a5af192503d91505f5190508280156105a95750811561059b57806001146105a9565b5f866001600160a01b03163b115b9695505050505050565b5f5f60205f8451602086015f885af1806105d2576040513d5f823e3d81fd5b50505f513d915081156105e95780600114156105f6565b6001600160a01b0384163b155b156102f857604051635274afe760e01b81526001600160a01b0385166004820152602401610105565b5f6060828403121561062f575f5ffd5b6040516060810181811067ffffffffffffffff8211171561065e57634e487b7160e01b5f52604160045260245ffd5b60409081528335825260208085013590830152928301359281019290925250919050565b6001600160a01b0381168114610696575f5ffd5b50565b5f5f5f60a084860312156106ab575f5ffd5b6106b5858561061f565b925060608401356106c581610682565b915060808401356106d581610682565b809150509250925092565b5f5f5f5f5f60c086880312156106f4575f5ffd5b85356106ff81610682565b9450602086013567ffffffffffffffff81111561071a575f5ffd5b8601601f8101881361072a575f5ffd5b803567ffffffffffffffff811115610740575f5ffd5b886020828401011115610751575f5ffd5b60209190910194509250610768876040880161061f565b915060a086013561077881610682565b809150509295509295909350565b5f60208284031215610796575f5ffd5b81516107a181610682565b9392505050565b818382375f910190815291905056fea2646970667358221220ed5286817b65b8672833045600ecd816dd9ff82ea182c53978b92eae4931127064736f6c634300081c0033a2646970667358221220a0a8e71b45ebac7d42c1f3a91fdb320a8aeb396b0ae3d5a980553ab89d8b027064736f6c634300081c0033",
  "linkReferences": {},
  "deployedLinkReferences": {},
  "immutableReferences": {},
  "inputSourceName": "project/contracts/portal/AirlockFactory.sol",
  "buildInfoId": "solc-0_8_28-488919ba161e86bef84d5451dd445d6873293c98"
}