{
  "_format": "hh3-artifact-1",
  "contractName": "PortalFactory",
  "sourceName": "contracts/portal/PortalFactory.sol",
  "abi": [
    {
      "inputs": [
        {
          "internalType": "address",
          "name": "initialOwner",
          "type": "address"
        }
      ],
      "stateMutability": "nonpayable",
      "type": "constructor"
    },
    {
      "inputs": [],
      "name": "DeploymentFailed",
      "type": "error"
    },
    {
      "inputs": [
        {
          "internalType": "address",
          "name": "owner",
          "type": "address"
        }
      ],
      "name": "OwnableInvalidOwner",
      "type": "error"
    },
    {
      "inputs": [
        {
          "internalType": "address",
          "name": "account",
          "type": "address"
        }
      ],
      "name": "OwnableUnauthorizedAccount",
      "type": "error"
    },
    {
      "inputs": [],
      "name": "UnsupportedBridging",
      "type": "error"
    },
    {
      "inputs": [],
      "name": "UnsupportedShielding",
      "type": "error"
    },
    {
      "anonymous": false,
      "inputs": [
        {
          "indexed": true,
          "internalType": "address",
          "name": "previousOwner",
          "type": "address"
        },
        {
          "indexed": true,
          "internalType": "address",
          "name": "newOwner",
          "type": "address"
        }
      ],
      "name": "OwnershipTransferred",
      "type": "event"
    },
    {
      "inputs": [
        {
          "internalType": "bytes",
          "name": "bridgeData",
          "type": "bytes"
        },
        {
          "components": [
            {
              "internalType": "uint256",
              "name": "ownerHash",
              "type": "uint256"
            },
            {
              "internalType": "uint256",
              "name": "token",
              "type": "uint256"
            },
            {
              "internalType": "uint256",
              "name": "amount",
              "type": "uint256"
            }
          ],
          "internalType": "struct CurvyTypes.Note",
          "name": "note",
          "type": "tuple"
        },
        {
          "internalType": "address",
          "name": "currency",
          "type": "address"
        },
        {
          "internalType": "address",
          "name": "recovery",
          "type": "address"
        }
      ],
      "name": "deployEntryBridgePortal",
      "outputs": [],
      "stateMutability": "nonpayable",
      "type": "function"
    },
    {
      "inputs": [
        {
          "internalType": "bytes",
          "name": "bridgeData",
          "type": "bytes"
        },
        {
          "internalType": "uint256",
          "name": "amount",
          "type": "uint256"
        },
        {
          "internalType": "address",
          "name": "currency",
          "type": "address"
        },
        {
          "internalType": "address",
          "name": "exitAddress",
          "type": "address"
        },
        {
          "internalType": "uint256",
          "name": "exitChainId",
          "type": "uint256"
        },
        {
          "internalType": "address",
          "name": "recovery",
          "type": "address"
        }
      ],
      "name": "deployExitBridgePortal",
      "outputs": [],
      "stateMutability": "nonpayable",
      "type": "function"
    },
    {
      "inputs": [
        {
          "components": [
            {
              "internalType": "uint256",
              "name": "ownerHash",
              "type": "uint256"
            },
            {
              "internalType": "uint256",
              "name": "token",
              "type": "uint256"
            },
            {
              "internalType": "uint256",
              "name": "amount",
              "type": "uint256"
            }
          ],
          "internalType": "struct CurvyTypes.Note",
          "name": "note",
          "type": "tuple"
        },
        {
          "internalType": "address",
          "name": "recovery",
          "type": "address"
        }
      ],
      "name": "deployShieldPortal",
      "outputs": [],
      "stateMutability": "payable",
      "type": "function"
    },
    {
      "inputs": [
        {
          "internalType": "uint256",
          "name": "ownerHash",
          "type": "uint256"
        },
        {
          "internalType": "address",
          "name": "exitAddress",
          "type": "address"
        },
        {
          "internalType": "uint256",
          "name": "exitChainId",
          "type": "uint256"
        },
        {
          "internalType": "address",
          "name": "recovery",
          "type": "address"
        }
      ],
      "name": "getCreationCode",
      "outputs": [
        {
          "internalType": "bytes",
          "name": "",
          "type": "bytes"
        }
      ],
      "stateMutability": "pure",
      "type": "function"
    },
    {
      "inputs": [
        {
          "internalType": "uint256",
          "name": "ownerHash",
          "type": "uint256"
        },
        {
          "internalType": "address",
          "name": "recovery",
          "type": "address"
        }
      ],
      "name": "getEntryPortalAddress",
      "outputs": [
        {
          "internalType": "address",
          "name": "",
          "type": "address"
        }
      ],
      "stateMutability": "view",
      "type": "function"
    },
    {
      "inputs": [
        {
          "internalType": "address",
          "name": "exitAddress",
          "type": "address"
        },
        {
          "internalType": "uint256",
          "name": "exitChainId",
          "type": "uint256"
        },
        {
          "internalType": "address",
          "name": "recovery",
          "type": "address"
        }
      ],
      "name": "getExitPortalAddress",
      "outputs": [
        {
          "internalType": "address",
          "name": "",
          "type": "address"
        }
      ],
      "stateMutability": "view",
      "type": "function"
    },
    {
      "inputs": [],
      "name": "owner",
      "outputs": [
        {
          "internalType": "address",
          "name": "",
          "type": "address"
        }
      ],
      "stateMutability": "view",
      "type": "function"
    },
    {
      "inputs": [
        {
          "internalType": "address",
          "name": "portalAddress",
          "type": "address"
        }
      ],
      "name": "portalIsRegistered",
      "outputs": [
        {
          "internalType": "bool",
          "name": "",
          "type": "bool"
        }
      ],
      "stateMutability": "view",
      "type": "function"
    },
    {
      "inputs": [],
      "name": "renounceOwnership",
      "outputs": [],
      "stateMutability": "nonpayable",
      "type": "function"
    },
    {
      "inputs": [
        {
          "internalType": "address",
          "name": "newOwner",
          "type": "address"
        }
      ],
      "name": "transferOwnership",
      "outputs": [],
      "stateMutability": "nonpayable",
      "type": "function"
    },
    {
      "inputs": [
        {
          "internalType": "address",
          "name": "curvyVaultProxyAddress",
          "type": "address"
        },
        {
          "internalType": "address",
          "name": "curvyAggregatorAlphaProxyAddress",
          "type": "address"
        },
        {
          "internalType": "address",
          "name": "lifiDiamondAddress",
          "type": "address"
        }
      ],
      "name": "updateConfig",
      "outputs": [
        {
          "internalType": "bool",
          "name": "",
          "type": "bool"
        }
      ],
      "stateMutability": "nonpayable",
      "type": "function"
    }
  ],
  "bytecode": "0x7f63757276792d706f7274616c2d666163746f72792d73616c740000000000000060a052601960805260b96040527f0c1d487ad400ae94b5e3f681571516a683db363b3743ef8072d065745915e37e60015534801561005c575f5ffd5b50604051611f39380380611f3983398101604081905261007b91610108565b806001600160a01b0381166100a957604051631e4fbdf760e01b81525f600482015260240160405180910390fd5b6100b2816100b9565b5050610135565b5f80546001600160a01b038381166001600160a01b0319831681178455604051919092169283917f8be0079c531659141344cd1fd0a4f28419497f9722a3daafe3b4186f6b6457e09190a35050565b5f60208284031215610118575f5ffd5b81516001600160a01b038116811461012e575f5ffd5b9392505050565b611df7806101425f395ff3fe60806040526004361061009a575f3560e01c80635e8b95d2116100625780635e8b95d214610155578063715018a61461018c5780638da5cb5b146101a0578063e16ca895146101bc578063eb2347fd146101db578063f2fde38b14610212575f5ffd5b80630188ab0f1461009e57806303e62121146100d357806307922e19146100f457806311c9a94d146101075780632b4c74fa14610136575b5f5ffd5b3480156100a9575f5ffd5b506100bd6100b83660046107ee565b610231565b6040516100ca9190610831565b60405180910390f35b3480156100de575f5ffd5b506100f26100ed3660046108ab565b6102c0565b005b6100f2610102366004610990565b6103a2565b348015610112575f5ffd5b506101266101213660046109c2565b6104d2565b60405190151581526020016100ca565b348015610141575f5ffd5b506100f2610150366004610a02565b610566565b348015610160575f5ffd5b5061017461016f366004610a74565b610649565b6040516001600160a01b0390911681526020016100ca565b348015610197575f5ffd5b506100f261069f565b3480156101ab575f5ffd5b505f546001600160a01b0316610174565b3480156101c7575f5ffd5b506101746101d6366004610a95565b6106b2565b3480156101e6575f5ffd5b506101266101f5366004610ac5565b6001600160a01b03165f9081526005602052604090205460ff1690565b34801561021d575f5ffd5b506100f261022c366004610ac5565b610709565b60605f60405180602001610244906107c6565b601f1982820381018352601f909101166040818152602082018990526001600160a01b03888116828401526060830188905286166080808401919091528151808403909101815260a083019091529192506102a5908390839060c001610afc565b60405160208183030381529060405292505050949350505050565b6004546001600160a01b03166102e95760405163437f3ac360e01b815260040160405180910390fd5b5f6102f65f858585610231565b90505f5f60015490508083516020850134f591506001600160a01b03821661033157604051633011642560e01b815260040160405180910390fd5b600480546040516361704a7960e01b81526001600160a01b03808616936361704a7993610369939216918f918f918f918f9101610b40565b5f604051808303815f87803b158015610380575f5ffd5b505af1158015610392573d5f5f3e3d5ffd5b5050505050505050505050505050565b6103aa61074b565b6002546001600160a01b031615806103cb57506003546001600160a01b0316155b156103e9576040516389da714f60e01b815260040160405180910390fd5b5f6103f9835f01515f5f85610231565b90505f5f60015490508083516020850134f591506001600160a01b03821661043457604051633011642560e01b815260040160405180910390fd5b6001600160a01b038281165f81815260056020908152604091829020805460ff191660011790556003546002548351631329a1a760e31b81528b516004820152928b01516024840152928a0151604483015284166064820152921660848301529063994d0d389060a4015f604051808303815f87803b1580156104b5575f5ffd5b505af11580156104c7573d5f5f3e3d5ffd5b505050505050505050565b5f6104db61074b565b6001600160a01b0384161561050657600280546001600160a01b0319166001600160a01b0386161790555b6001600160a01b0383161561053157600380546001600160a01b0319166001600160a01b0385161790555b6001600160a01b0382161561055c57600480546001600160a01b0319166001600160a01b0384161790555b5060019392505050565b6004546001600160a01b031661058f5760405163437f3ac360e01b815260040160405180910390fd5b5f61059f845f01515f5f85610231565b90505f5f60015490508083516020850134f591506001600160a01b0382166105da57604051633011642560e01b815260040160405180910390fd5b600480546040516376b12b3360e01b81526001600160a01b03808616936376b12b3393610612939216918d918d918d918d9101610b86565b5f604051808303815f87803b158015610629575f5ffd5b505af115801561063b573d5f5f3e3d5ffd5b505050505050505050505050565b5f5f610657845f5f86610231565b90505f60ff60f81b30600154848051906020012060405160200161067e9493929190610be8565b60408051808303601f19018152919052805160209091012095945050505050565b6106a761074b565b6106b05f610777565b565b5f5f6106c05f868686610231565b90505f60ff60f81b3060015484805190602001206040516020016106e79493929190610be8565b60408051808303601f1901815291905280516020909101209695505050505050565b61071161074b565b6001600160a01b03811661073f57604051631e4fbdf760e01b81525f60048201526024015b60405180910390fd5b61074881610777565b50565b5f546001600160a01b031633146106b05760405163118cdaa760e01b8152336004820152602401610736565b5f80546001600160a01b038381166001600160a01b0319831681178455604051919092169283917f8be0079c531659141344cd1fd0a4f28419497f9722a3daafe3b4186f6b6457e09190a35050565b6111a080610c2283390190565b80356001600160a01b03811681146107e9575f5ffd5b919050565b5f5f5f5f60808587031215610801575f5ffd5b84359350610811602086016107d3565b925060408501359150610826606086016107d3565b905092959194509250565b602081525f82518060208401528060208501604085015e5f604082850101526040601f19601f83011684010191505092915050565b5f5f83601f840112610876575f5ffd5b50813567ffffffffffffffff81111561088d575f5ffd5b6020830191508360208285010111156108a4575f5ffd5b9250929050565b5f5f5f5f5f5f5f60c0888a0312156108c1575f5ffd5b873567ffffffffffffffff8111156108d7575f5ffd5b6108e38a828b01610866565b909850965050602088013594506108fc604089016107d3565b935061090a606089016107d3565b92506080880135915061091f60a089016107d3565b905092959891949750929550565b5f6060828403121561093d575f5ffd5b6040516060810181811067ffffffffffffffff8211171561096c57634e487b7160e01b5f52604160045260245ffd5b60409081528335825260208085013590830152928301359281019290925250919050565b5f5f608083850312156109a1575f5ffd5b6109ab848461092d565b91506109b9606084016107d3565b90509250929050565b5f5f5f606084860312156109d4575f5ffd5b6109dd846107d3565b92506109eb602085016107d3565b91506109f9604085016107d3565b90509250925092565b5f5f5f5f5f60c08688031215610a16575f5ffd5b853567ffffffffffffffff811115610a2c575f5ffd5b610a3888828901610866565b9096509450610a4c9050876020880161092d565b9250610a5a608087016107d3565b9150610a6860a087016107d3565b90509295509295909350565b5f5f60408385031215610a85575f5ffd5b823591506109b9602084016107d3565b5f5f5f60608486031215610aa7575f5ffd5b610ab0846107d3565b9250602084013591506109f9604085016107d3565b5f60208284031215610ad5575f5ffd5b610ade826107d3565b9392505050565b5f81518060208401855e5f93019283525090919050565b5f610b10610b0a8386610ae5565b84610ae5565b949350505050565b81835281816020850137505f828201602090810191909152601f909101601f19169091010190565b6001600160a01b03861681526080602082018190525f90610b649083018688610b18565b6040830194909452506001600160a01b03919091166060909101529392505050565b6001600160a01b038616815260c0602082018190525f90610baa9083018688610b18565b9050610bcd60408301858051825260208082015190830152604090810151910152565b6001600160a01b039290921660a09190910152949350505050565b6001600160f81b031994909416845260609290921b6bffffffffffffffffffffffff19166001840152601583015260358201526055019056fe608060405234801561000f575f5ffd5b506040516111a03803806111a083398101604081905261002e916100e5565b6001600160a01b0381166100555760405163530a10d160e11b815260040160405180910390fd5b83156001600160a01b03841615148061006f575083158215145b1561008d57604051631d4deb8b60e31b815260040160405180910390fd5b600193909355600280546001600160a01b039384166001600160a01b03199182161790915560039190915560068054929093169116179055610129565b80516001600160a01b03811681146100e0575f5ffd5b919050565b5f5f5f5f608085870312156100f8575f5ffd5b84519350610108602086016100ca565b6040860151909350915061011e606086016100ca565b905092959194509250565b61106a806101365f395ff3fe608060405234801561000f575f5ffd5b506004361061007a575f3560e01c8063648bf77411610058578063648bf774146100d557806376b12b33146100e8578063994d0d38146100fb578063ddceafa91461010e575f5ffd5b80633fb070271461007e5780635dc24ee3146100ad57806361704a79146100c0575b5f5ffd5b600554610091906001600160a01b031681565b6040516001600160a01b03909116815260200160405180910390f35b600454610091906001600160a01b031681565b6100d36100ce366004610c00565b610121565b005b6100d36100e3366004610c6f565b6101d4565b6100d36100f6366004610d3b565b610371565b6100d3610109366004610da5565b610450565b600654610091906001600160a01b031681565b5f5460ff161561014c5760405162461bcd60e51b815260040161014390610dec565b60405180910390fd5b5f610157858561071b565b60025460a08201519192506001600160a01b0391821691161461018d5760405163523660f760e01b815260040160405180910390fd5b6003548160e00151146101b3576040516397c91b6960e01b815260040160405180910390fd5b6101c08686868686610736565b50505f805460ff1916600117905550505050565b6006546001600160a01b031633146102265760405162461bcd60e51b8152602060048201526015602482015274506f7274616c3a204f6e6c79207265636f7665727960581b6044820152606401610143565b73eeeeeeeeeeeeeeeeeeeeeeeeeeeeeeeeeeeeeeed196001600160a01b038316016102f15760405147905f906001600160a01b0384169083908381818185875af1925050503d805f8114610295576040519150601f19603f3d011682016040523d82523d5f602084013e61029a565b606091505b50509050806102eb5760405162461bcd60e51b815260206004820152601b60248201527f506f7274616c3a20455448207472616e73666572206661696c656400000000006044820152606401610143565b50505050565b6040516370a0823160e01b815230600482015282905f906001600160a01b038316906370a0823190602401602060405180830381865afa158015610337573d5f5f3e3d5ffd5b505050506040513d601f19601f8201168201806040525081019061035b9190610e23565b90506102eb6001600160a01b0383168483610964565b5f5460ff16156103935760405162461bcd60e51b815260040161014390610dec565b6001548251146103b55760405162cb7dff60e81b815260040160405180910390fd5b5f6103c085856109c8565b60a08101519091506001600160a01b031630146103f05760405163523660f760e01b815260040160405180910390fd5b61a4b18160e0015114610416576040516397c91b6960e01b815260040160405180910390fd5b82604001518160c00151111561043f57604051632a8d68fb60e11b815260040160405180910390fd5b6101c0868686866040015186610736565b5f5460ff16156104725760405162461bcd60e51b815260040161014390610dec565b6001548351146104945760405162cb7dff60e81b815260040160405180910390fd5b600480546001600160a01b038481166001600160a01b0319928316178355600580549185169190921681179091556020850151604051630cf99be760e31b8152928301525f916367ccdf3890602401602060405180830381865afa92505050801561051c575060408051601f3d908101601f1916820190925261051991810190610e3a565b60015b6105b557806001600160a01b0316845f01517ffc1e38218583f70caa9a6f4085fafbac0d535b341b12a5a3e96bfe421121b0b886604001516040516105a79181526040602082018190526026908201527f4661696c656420746f2067657420746f6b656e20616464726573732066726f6d606082015265081d985d5b1d60d21b608082015260a00190565b60405180910390a35061070a565b90506001600160a01b038116158015906105ec57506001600160a01b03811673eeeeeeeeeeeeeeeeeeeeeeeeeeeeeeeeeeeeeeee14155b1561068b576004546040850151610611916001600160a01b03848116929116906109ea565b60048054604080516347107fdb60e01b81528751938101939093526020870151602484015286015160448301526001600160a01b03838116606484015216906347107fdb906084015f604051808303815f87803b158015610670575f5ffd5b505af1158015610682573d5f5f3e3d5ffd5b50505050610708565b600480546040868101805191516347107fdb60e01b8152885194810194909452602088015160248501525160448401526001600160a01b038481166064850152909116916347107fdb91906084015f604051808303818588803b1580156106f0575f5ffd5b505af1158015610702573d5f5f3e3d5ffd5b50505050505b505b50505f805460ff1916600117905550565b610723610b2a565b61072f82840184610eef565b9392505050565b6001600160a01b03851661075d5760405163149633f360e31b815260040160405180910390fd5b6001600160a01b0381161580159061079257506001600160a01b03811673eeeeeeeeeeeeeeeeeeeeeeeeeeeeeeeeeeeeeeee14155b156108bb576040516370a0823160e01b815230600482015281905f906001600160a01b038316906370a0823190602401602060405180830381865afa1580156107dd573d5f5f3e3d5ffd5b505050506040513d601f19601f820116820180604052508101906108019190610e23565b90508381101561082457604051637bdd7ae760e01b815260040160405180910390fd5b6108386001600160a01b03831688866109ea565b5f876001600160a01b03168787604051610853929190610ffe565b5f604051808303815f865af19150503d805f811461088c576040519150601f19603f3d011682016040523d82523d5f602084013e610891565b606091505b50509050806108b357604051631bb7daad60e11b815260040160405180910390fd5b50505061095d565b47828110156108dd57604051637bdd7ae760e01b815260040160405180910390fd5b5f866001600160a01b03168487876040516108f9929190610ffe565b5f6040518083038185875af1925050503d805f8114610933576040519150601f19603f3d011682016040523d82523d5f602084013e610938565b606091505b505090508061095a57604051631bb7daad60e11b815260040160405180910390fd5b50505b5050505050565b6040516001600160a01b038381166024830152604482018390526109c391859182169063a9059cbb906064015b604051602081830303815290604052915060e01b6020820180516001600160e01b038381831617835250505050610a75565b505050565b6109d0610b2a565b6109dd826004818661100d565b81019061072f9190610eef565b604080516001600160a01b038416602482015260448082018490528251808303909101815260649091019091526020810180516001600160e01b031663095ea7b360e01b179052610a3b8482610ae1565b6102eb576040516001600160a01b0384811660248301525f6044830152610a6f91869182169063095ea7b390606401610991565b6102eb84825b5f5f60205f8451602086015f885af180610a94576040513d5f823e3d81fd5b50505f513d91508115610aab578060011415610ab8565b6001600160a01b0384163b155b156102eb57604051635274afe760e01b81526001600160a01b0385166004820152602401610143565b5f5f5f5f60205f8651602088015f8a5af192503d91505f519050828015610b2057508115610b125780600114610b20565b5f866001600160a01b03163b115b9695505050505050565b6040518061014001604052805f815260200160608152602001606081526020015f6001600160a01b031681526020015f6001600160a01b031681526020015f6001600160a01b031681526020015f81526020015f81526020015f151581526020015f151581525090565b6001600160a01b0381168114610ba8575f5ffd5b50565b8035610bb681610b94565b919050565b5f5f83601f840112610bcb575f5ffd5b50813567ffffffffffffffff811115610be2575f5ffd5b602083019150836020828501011115610bf9575f5ffd5b9250929050565b5f5f5f5f5f60808688031215610c14575f5ffd5b8535610c1f81610b94565b9450602086013567ffffffffffffffff811115610c3a575f5ffd5b610c4688828901610bbb565b909550935050604086013591506060860135610c6181610b94565b809150509295509295909350565b5f5f60408385031215610c80575f5ffd5b8235610c8b81610b94565b91506020830135610c9b81610b94565b809150509250929050565b634e487b7160e01b5f52604160045260245ffd5b604051610140810167ffffffffffffffff81118282101715610cde57610cde610ca6565b60405290565b5f60608284031215610cf4575f5ffd5b6040516060810167ffffffffffffffff81118282101715610d1757610d17610ca6565b60409081528335825260208085013590830152928301359281019290925250919050565b5f5f5f5f5f60c08688031215610d4f575f5ffd5b8535610d5a81610b94565b9450602086013567ffffffffffffffff811115610d75575f5ffd5b610d8188828901610bbb565b9095509350610d9590508760408801610ce4565b915060a0860135610c6181610b94565b5f5f5f60a08486031215610db7575f5ffd5b610dc18585610ce4565b92506060840135610dd181610b94565b91506080840135610de181610b94565b809150509250925092565b60208082526017908201527f53696e676c655573653a20416c72656164792075736564000000000000000000604082015260600190565b5f60208284031215610e33575f5ffd5b5051919050565b5f60208284031215610e4a575f5ffd5b815161072f81610b94565b5f82601f830112610e64575f5ffd5b813567ffffffffffffffff811115610e7e57610e7e610ca6565b604051601f8201601f19908116603f0116810167ffffffffffffffff81118282101715610ead57610ead610ca6565b604052818152838201602001851015610ec4575f5ffd5b816020850160208301375f918101602001919091529392505050565b80358015158114610bb6575f5ffd5b5f60208284031215610eff575f5ffd5b813567ffffffffffffffff811115610f15575f5ffd5b82016101408185031215610f27575f5ffd5b610f2f610cba565b81358152602082013567ffffffffffffffff811115610f4c575f5ffd5b610f5886828501610e55565b602083015250604082013567ffffffffffffffff811115610f77575f5ffd5b610f8386828501610e55565b604083015250610f9560608301610bab565b6060820152610fa660808301610bab565b6080820152610fb760a08301610bab565b60a082015260c0828101359082015260e08083013590820152610fdd6101008301610ee0565b610100820152610ff06101208301610ee0565b610120820152949350505050565b818382375f9101908152919050565b5f5f8585111561101b575f5ffd5b83861115611027575f5ffd5b505082019391909203915056fea2646970667358221220633d05555d585b9cd564638f34d3aad5d3791bd55e5e5bcfe72066b90f54ba2864736f6c634300081c0033a26469706673582212201a9ffb315bdf1b5f0ea0753e02138b12205ddc5e87ca9c620579f8112b165ce964736f6c634300081c0033",
  "linkReferences": {},
  "deployedLinkReferences": {},
  "immutableReferences": {},
  "inputSourceName": "project/contracts/portal/PortalFactory.sol",
  "buildInfoId": "solc-0_8_28-f831a55edf25200e8002aad30b17b60b8646feea"
}