{
  "_format": "hh3-artifact-1",
  "contractName": "CurvyVaultV5",
  "sourceName": "contracts/vault/CurvyVaultV5.sol",
  "abi": [
    {
      "inputs": [],
      "stateMutability": "nonpayable",
      "type": "constructor"
    },
    {
      "inputs": [
        {
          "internalType": "address",
          "name": "target",
          "type": "address"
        }
      ],
      "name": "AddressEmptyCode",
      "type": "error"
    },
    {
      "inputs": [
        {
          "internalType": "address",
          "name": "implementation",
          "type": "address"
        }
      ],
      "name": "ERC1967InvalidImplementation",
      "type": "error"
    },
    {
      "inputs": [],
      "name": "ERC1967NonPayable",
      "type": "error"
    },
    {
      "inputs": [],
      "name": "ERC20TransferFailed",
      "type": "error"
    },
    {
      "inputs": [],
      "name": "ETHTransferFailed",
      "type": "error"
    },
    {
      "inputs": [],
      "name": "FailedCall",
      "type": "error"
    },
    {
      "inputs": [],
      "name": "InvalidDestinationAddress",
      "type": "error"
    },
    {
      "inputs": [],
      "name": "InvalidInitialization",
      "type": "error"
    },
    {
      "inputs": [],
      "name": "InvalidRecipient",
      "type": "error"
    },
    {
      "inputs": [],
      "name": "NoFeeUpdate",
      "type": "error"
    },
    {
      "inputs": [],
      "name": "NotCurvyAggregator",
      "type": "error"
    },
    {
      "inputs": [],
      "name": "NotCurvyAggregatorOrOwner",
      "type": "error"
    },
    {
      "inputs": [],
      "name": "NotInitializing",
      "type": "error"
    },
    {
      "inputs": [
        {
          "internalType": "address",
          "name": "owner",
          "type": "address"
        }
      ],
      "name": "OwnableInvalidOwner",
      "type": "error"
    },
    {
      "inputs": [
        {
          "internalType": "address",
          "name": "account",
          "type": "address"
        }
      ],
      "name": "OwnableUnauthorizedAccount",
      "type": "error"
    },
    {
      "inputs": [
        {
          "internalType": "address",
          "name": "token",
          "type": "address"
        }
      ],
      "name": "SafeERC20FailedOperation",
      "type": "error"
    },
    {
      "inputs": [],
      "name": "TokenAllreadyRegistered",
      "type": "error"
    },
    {
      "inputs": [],
      "name": "TokenNotRegistered",
      "type": "error"
    },
    {
      "inputs": [],
      "name": "UUPSUnauthorizedCallContext",
      "type": "error"
    },
    {
      "inputs": [
        {
          "internalType": "bytes32",
          "name": "slot",
          "type": "bytes32"
        }
      ],
      "name": "UUPSUnsupportedProxiableUUID",
      "type": "error"
    },
    {
      "inputs": [],
      "name": "WithdrawalFeeNotSet",
      "type": "error"
    },
    {
      "anonymous": false,
      "inputs": [
        {
          "indexed": false,
          "internalType": "address",
          "name": "curvyAggregator",
          "type": "address"
        }
      ],
      "name": "CurvyAggregatorAddressChange",
      "type": "event"
    },
    {
      "anonymous": false,
      "inputs": [
        {
          "indexed": true,
          "internalType": "address",
          "name": "tokenAddress",
          "type": "address"
        },
        {
          "indexed": true,
          "internalType": "address",
          "name": "to",
          "type": "address"
        },
        {
          "indexed": false,
          "internalType": "uint256",
          "name": "amount",
          "type": "uint256"
        },
        {
          "indexed": false,
          "internalType": "uint256",
          "name": "gasSponsorshipAmount",
          "type": "uint256"
        }
      ],
      "name": "Deposit",
      "type": "event"
    },
    {
      "anonymous": false,
      "inputs": [],
      "name": "EIP712DomainChanged",
      "type": "event"
    },
    {
      "anonymous": false,
      "inputs": [
        {
          "components": [
            {
              "internalType": "uint96",
              "name": "depositFee",
              "type": "uint96"
            },
            {
              "internalType": "uint96",
              "name": "withdrawalFee",
              "type": "uint96"
            }
          ],
          "indexed": false,
          "internalType": "struct CurvyTypes.FeeUpdate",
          "name": "feeUpdate",
          "type": "tuple"
        }
      ],
      "name": "FeeChange",
      "type": "event"
    },
    {
      "anonymous": false,
      "inputs": [
        {
          "indexed": false,
          "internalType": "uint64",
          "name": "version",
          "type": "uint64"
        }
      ],
      "name": "Initialized",
      "type": "event"
    },
    {
      "anonymous": false,
      "inputs": [
        {
          "indexed": true,
          "internalType": "address",
          "name": "previousOwner",
          "type": "address"
        },
        {
          "indexed": true,
          "internalType": "address",
          "name": "newOwner",
          "type": "address"
        }
      ],
      "name": "OwnershipTransferred",
      "type": "event"
    },
    {
      "anonymous": false,
      "inputs": [
        {
          "indexed": false,
          "internalType": "address",
          "name": "token_address",
          "type": "address"
        },
        {
          "indexed": false,
          "internalType": "uint256",
          "name": "token_id",
          "type": "uint256"
        }
      ],
      "name": "TokenRegistration",
      "type": "event"
    },
    {
      "anonymous": false,
      "inputs": [
        {
          "indexed": false,
          "internalType": "address",
          "name": "tokenAddress",
          "type": "address"
        },
        {
          "indexed": false,
          "internalType": "uint256",
          "name": "tokenId",
          "type": "uint256"
        }
      ],
      "name": "TokenUnsupported",
      "type": "event"
    },
    {
      "anonymous": false,
      "inputs": [
        {
          "indexed": true,
          "internalType": "address",
          "name": "implementation",
          "type": "address"
        }
      ],
      "name": "Upgraded",
      "type": "event"
    },
    {
      "anonymous": false,
      "inputs": [
        {
          "indexed": true,
          "internalType": "address",
          "name": "tokenAddress",
          "type": "address"
        },
        {
          "indexed": true,
          "internalType": "address",
          "name": "to",
          "type": "address"
        },
        {
          "indexed": false,
          "internalType": "uint256",
          "name": "amount",
          "type": "uint256"
        }
      ],
      "name": "Withdraw",
      "type": "event"
    },
    {
      "inputs": [],
      "name": "UPGRADE_INTERFACE_VERSION",
      "outputs": [
        {
          "internalType": "string",
          "name": "",
          "type": "string"
        }
      ],
      "stateMutability": "view",
      "type": "function"
    },
    {
      "inputs": [
        {
          "internalType": "address",
          "name": "owner",
          "type": "address"
        },
        {
          "internalType": "uint256",
          "name": "tokenId",
          "type": "uint256"
        }
      ],
      "name": "balanceOf",
      "outputs": [
        {
          "internalType": "uint256",
          "name": "",
          "type": "uint256"
        }
      ],
      "stateMutability": "view",
      "type": "function"
    },
    {
      "inputs": [
        {
          "internalType": "address",
          "name": "tokenAddress",
          "type": "address"
        },
        {
          "internalType": "address",
          "name": "to",
          "type": "address"
        },
        {
          "internalType": "uint256",
          "name": "amount",
          "type": "uint256"
        },
        {
          "internalType": "uint256",
          "name": "gasSponsorshipAmount",
          "type": "uint256"
        }
      ],
      "name": "deposit",
      "outputs": [],
      "stateMutability": "payable",
      "type": "function"
    },
    {
      "inputs": [],
      "name": "depositFee",
      "outputs": [
        {
          "internalType": "uint96",
          "name": "",
          "type": "uint96"
        }
      ],
      "stateMutability": "view",
      "type": "function"
    },
    {
      "inputs": [],
      "name": "eip712Domain",
      "outputs": [
        {
          "internalType": "bytes1",
          "name": "fields",
          "type": "bytes1"
        },
        {
          "internalType": "string",
          "name": "name",
          "type": "string"
        },
        {
          "internalType": "string",
          "name": "version",
          "type": "string"
        },
        {
          "internalType": "uint256",
          "name": "chainId",
          "type": "uint256"
        },
        {
          "internalType": "address",
          "name": "verifyingContract",
          "type": "address"
        },
        {
          "internalType": "bytes32",
          "name": "salt",
          "type": "bytes32"
        },
        {
          "internalType": "uint256[]",
          "name": "extensions",
          "type": "uint256[]"
        }
      ],
      "stateMutability": "view",
      "type": "function"
    },
    {
      "inputs": [
        {
          "internalType": "uint256",
          "name": "amount",
          "type": "uint256"
        },
        {
          "internalType": "address",
          "name": "destinationAddress",
          "type": "address"
        },
        {
          "internalType": "uint256",
          "name": "tokenId",
          "type": "uint256"
        }
      ],
      "name": "forceWithdrawal",
      "outputs": [],
      "stateMutability": "nonpayable",
      "type": "function"
    },
    {
      "inputs": [],
      "name": "getNumberOfTokens",
      "outputs": [
        {
          "internalType": "uint256",
          "name": "",
          "type": "uint256"
        }
      ],
      "stateMutability": "view",
      "type": "function"
    },
    {
      "inputs": [
        {
          "internalType": "uint256",
          "name": "tokenId",
          "type": "uint256"
        }
      ],
      "name": "getTokenAddress",
      "outputs": [
        {
          "internalType": "address",
          "name": "tokenAddress",
          "type": "address"
        }
      ],
      "stateMutability": "view",
      "type": "function"
    },
    {
      "inputs": [
        {
          "internalType": "address",
          "name": "tokenAddress",
          "type": "address"
        }
      ],
      "name": "getTokenId",
      "outputs": [
        {
          "internalType": "uint256",
          "name": "tokenId",
          "type": "uint256"
        }
      ],
      "stateMutability": "view",
      "type": "function"
    },
    {
      "inputs": [
        {
          "internalType": "address",
          "name": "initialOwner",
          "type": "address"
        }
      ],
      "name": "initialize",
      "outputs": [],
      "stateMutability": "nonpayable",
      "type": "function"
    },
    {
      "inputs": [],
      "name": "owner",
      "outputs": [
        {
          "internalType": "address",
          "name": "",
          "type": "address"
        }
      ],
      "stateMutability": "view",
      "type": "function"
    },
    {
      "inputs": [],
      "name": "proxiableUUID",
      "outputs": [
        {
          "internalType": "bytes32",
          "name": "",
          "type": "bytes32"
        }
      ],
      "stateMutability": "view",
      "type": "function"
    },
    {
      "inputs": [
        {
          "internalType": "address",
          "name": "tokenAddress",
          "type": "address"
        }
      ],
      "name": "registerToken",
      "outputs": [],
      "stateMutability": "nonpayable",
      "type": "function"
    },
    {
      "inputs": [],
      "name": "renounceOwnership",
      "outputs": [],
      "stateMutability": "nonpayable",
      "type": "function"
    },
    {
      "inputs": [
        {
          "internalType": "address",
          "name": "curvyAggregator",
          "type": "address"
        }
      ],
      "name": "setCurvyAggregatorAddress",
      "outputs": [],
      "stateMutability": "nonpayable",
      "type": "function"
    },
    {
      "inputs": [
        {
          "components": [
            {
              "internalType": "uint96",
              "name": "depositFee",
              "type": "uint96"
            },
            {
              "internalType": "uint96",
              "name": "withdrawalFee",
              "type": "uint96"
            }
          ],
          "internalType": "struct CurvyTypes.FeeUpdate",
          "name": "feeUpdate",
          "type": "tuple"
        }
      ],
      "name": "setFeeAmount",
      "outputs": [],
      "stateMutability": "nonpayable",
      "type": "function"
    },
    {
      "inputs": [],
      "name": "transferFee",
      "outputs": [
        {
          "internalType": "uint96",
          "name": "",
          "type": "uint96"
        }
      ],
      "stateMutability": "view",
      "type": "function"
    },
    {
      "inputs": [
        {
          "internalType": "address",
          "name": "newOwner",
          "type": "address"
        }
      ],
      "name": "transferOwnership",
      "outputs": [],
      "stateMutability": "nonpayable",
      "type": "function"
    },
    {
      "inputs": [
        {
          "internalType": "address",
          "name": "tokenAddress",
          "type": "address"
        }
      ],
      "name": "unsupportToken",
      "outputs": [],
      "stateMutability": "nonpayable",
      "type": "function"
    },
    {
      "inputs": [
        {
          "internalType": "address",
          "name": "newImplementation",
          "type": "address"
        },
        {
          "internalType": "bytes",
          "name": "data",
          "type": "bytes"
        }
      ],
      "name": "upgradeToAndCall",
      "outputs": [],
      "stateMutability": "payable",
      "type": "function"
    },
    {
      "inputs": [
        {
          "internalType": "uint256",
          "name": "tokenId",
          "type": "uint256"
        },
        {
          "internalType": "address",
          "name": "to",
          "type": "address"
        },
        {
          "internalType": "uint256",
          "name": "amount",
          "type": "uint256"
        }
      ],
      "name": "withdraw",
      "outputs": [],
      "stateMutability": "nonpayable",
      "type": "function"
    },
    {
      "inputs": [],
      "name": "withdrawalFee",
      "outputs": [
        {
          "internalType": "uint96",
          "name": "",
          "type": "uint96"
        }
      ],
      "stateMutability": "view",
      "type": "function"
    },
    {
      "stateMutability": "payable",
      "type": "receive"
    }
  ],
  "bytecode": "0x60a060405230608052348015610013575f5ffd5b5061001c610021565b6100d3565b7ff0c57e16840df040f15088dc2f81fe391c3923bec73e23a9662efc9c229c6a00805468010000000000000000900460ff16156100715760405163f92ee8a960e01b815260040160405180910390fd5b80546001600160401b03908116146100d05780546001600160401b0319166001600160401b0390811782556040519081527fc7f505b2f371ae2175ee4913f4499e1f2633a7b5936321eed1cdaeb6115181d29060200160405180910390a15b50565b608051611bca6100f95f395f818161114e0152818161117701526112bb0152611bca5ff3fe608060405260043610610133575f3560e01c80638bc7e8c4116100a8578063e63697c81161006d578063e63697c814610385578063ee3d6866146103a4578063efeecb51146103c3578063f1537686146103d7578063f2fde38b146103f6578063f837906814610415575f5ffd5b80638bc7e8c4146102d05780638da5cb5b146102ef578063acb2ad6f14610303578063ad3cb1cc14610329578063c4d66de814610366575f5ffd5b806352d1902d116100f957806352d1902d146101f457806367a527931461020857806367ccdf381461023f578063715018a61461027657806377e5614d1461028a57806384b0196e146102a9575f5ffd5b8062fdd58e1461015e57806309824a801461019057806320e8c565146101af578063432c0553146101c25780634f1ef286146101e1575f5ffd5b3661015a5761015873eeeeeeeeeeeeeeeeeeeeeeeeeeeeeeeeeeeeeeee33345f610434565b005b5f5ffd5b348015610169575f5ffd5b5061017d61017836600461178f565b61069b565b6040519081526020015b60405180910390f35b34801561019b575f5ffd5b506101586101aa3660046117b7565b6106c3565b6101586101bd3660046117d0565b610434565b3480156101cd575f5ffd5b506101586101dc36600461180f565b610790565b6101586101ef36600461183c565b610880565b3480156101ff575f5ffd5b5061017d61089f565b348015610213575f5ffd5b50600554610227906001600160601b031681565b6040516001600160601b039091168152602001610187565b34801561024a575f5ffd5b5061025e610259366004611900565b6108ba565b6040516001600160a01b039091168152602001610187565b348015610281575f5ffd5b506101586108f4565b348015610295575f5ffd5b506101586102a43660046117b7565b610907565b3480156102b4575f5ffd5b506102bd610965565b6040516101879796959493929190611945565b3480156102db575f5ffd5b50600654610227906001600160601b031681565b3480156102fa575f5ffd5b5061025e610a26565b34801561030e575f5ffd5b5060055461022790600160601b90046001600160601b031681565b348015610334575f5ffd5b50610359604051806040016040528060058152602001640352e302e360dc1b81525081565b60405161018791906119db565b348015610371575f5ffd5b506101586103803660046117b7565b610a54565b348015610390575f5ffd5b5061015861039f3660046119ed565b610be6565b3480156103af575f5ffd5b506101586103be3660046117b7565b610e52565b3480156103ce575f5ffd5b5060025461017d565b3480156103e2575f5ffd5b5061017d6103f13660046117b7565b610f02565b348015610401575f5ffd5b506101586104103660046117b7565b610f3b565b348015610420575f5ffd5b5061015861042f3660046119ed565b610f78565b600654600160601b90046001600160a01b0316331461046657604051631ef0010360e21b815260040160405180910390fd5b6001600160a01b03831661048d57604051634e46966960e11b815260040160405180910390fd5b5f6001600160a01b03851673eeeeeeeeeeeeeeeeeeeeeeeeeeeeeeeeeeeeeeee146105255734156104d157604051633c9fd93960e21b815260040160405180910390fd5b6104e66001600160a01b0386163330866110aa565b506001600160a01b0384165f90815260036020526040812054908190036105205760405163259ba1ad60e01b815260040160405180910390fd5b610549565b3483146105455760405163b12d13eb60e01b815260040160405180910390fd5b5060015b6001600160a01b0384165f9081526020818152604080832084845290915281208054859290610579908490611a34565b90915550506005546001600160601b03161561063e576005545f90612710906105ab906001600160601b031686611a47565b6105b59190611a5e565b6001600160a01b0386165f908152602081815260408083208684529091528120805492935083929091906105ea908490611a7d565b909155508190505f806105fb610a26565b6001600160a01b03166001600160a01b031681526020019081526020015f205f8481526020019081526020015f205f8282546106379190611a34565b9091555050505b836001600160a01b0316856001600160a01b03167fdcbc1c05240f31ff3ad067ef1ee35ce4997762752e3a095284754544f4c709d7858560405161068c929190918252602082015260400190565b60405180910390a35050505050565b6001600160a01b0382165f908152602081815260408083208484529091529020545b92915050565b6106cb611111565b6001600160a01b0381165f90815260036020526040902054156107015760405163edec813b60e01b815260040160405180910390fd5b60028054905f61071083611a90565b9091555050600280545f90815260046020908152604080832080546001600160a01b0319166001600160a01b038716908117909155935484845260038352928190208390558051938452908301919091527ff977d54986414fc91816901629d1d788ad95448ab4198dcb9b6dc5ed2b930c1f91015b60405180910390a150565b610798611111565b6107a56020820182611abe565b6001600160601b0316156107e5576107c06020820182611abe565b600580546001600160601b0319166001600160601b0392909216919091179055610851565b6107f56040820160208301611abe565b6001600160601b031615610838576108136040820160208301611abe565b600680546001600160601b0319166001600160601b0392909216919091179055610851565b60405163c4ec2f4760e01b815260040160405180910390fd5b7f05b0d5368126ccdf14c78784aaaf9b84ef107f0da56a648b96377e939a745b91816040516107859190611ad7565b610888611143565b610891826111e7565b61089b82826111ef565b5050565b5f6108a86112b0565b505f516020611b755f395f51905f5290565b5f818152600460205260409020546001600160a01b0316806108ef5760405163259ba1ad60e01b815260040160405180910390fd5b919050565b6108fc611111565b6109055f6112f9565b565b61090f611111565b600680546001600160601b0316600160601b6001600160a01b038416908102919091179091556040519081527f655e5d85efd94f0a91c5daa6b61dc00c7047473c77ebf046c47ab252bd25ea3190602001610785565b5f60608082808083817fa16a46d94261c7517cc8ff89f61c0ce93598e3c849801011dee649a6a557d10080549091501580156109a357506001810154155b6109ec5760405162461bcd60e51b81526020600482015260156024820152741152540dcc4c8e88155b9a5b9a5d1a585b1a5e9959605a1b60448201526064015b60405180910390fd5b6109f4611369565b6109fc61143c565b604080515f80825260208201909252600f60f81b9c939b5091995046985030975095509350915050565b7f9016d09d72d40fdae2fd8ceac6b6234c7706214fd39c1cd1e609a0528c199300546001600160a01b031690565b5f610a5d61148d565b805490915060ff600160401b820416159067ffffffffffffffff165f81158015610a845750825b90505f8267ffffffffffffffff166001148015610aa05750303b155b905081158015610aae575080155b15610acc5760405163f92ee8a960e01b815260040160405180910390fd5b845467ffffffffffffffff191660011785558315610af657845460ff60401b1916600160401b1785555b60017f40c35f83c179e47de306c9fe55fdc60064f11dd52adb51ab61b5643ee626f98d8190555f81905260046020527fabd6e7cb50984ff9c2f3e18a2660c3353dadf4e3291deeb275dae2cd1e44fe0580546001600160a01b03191673eeeeeeeeeeeeeeeeeeeeeeeeeeeeeeeeeeeeeeee179055600255610b76866114b5565b600580546001600160601b0319908116600a179091556006805490911660141790558315610bde57845460ff60401b19168555604051600181527fc7f505b2f371ae2175ee4913f4499e1f2633a7b5936321eed1cdaeb6115181d29060200160405180910390a15b505050505050565b600654600160601b90046001600160a01b03163314801590610c215750610c0b610a26565b6001600160a01b0316336001600160a01b031614155b15610c3f57604051630314de4760e41b815260040160405180910390fd5b6001600160a01b038216610c6657604051634e46966960e11b815260040160405180910390fd5b6006546001600160601b03165f03610c915760405163c4ec2f4760e01b815260040160405180910390fd5b6006545f9061271090610cad906001600160601b031684611a47565b610cb79190611a5e565b335f90815260208181526040808320888452909152812080549293508492909190610ce3908490611a7d565b909155508190505f80610cf4610a26565b6001600160a01b03166001600160a01b031681526020019081526020015f205f8681526020019081526020015f205f828254610d309190611a34565b90915550505f848152600460205260409020546001600160a01b031680610d6a5760405163259ba1ad60e01b815260040160405180910390fd5b60018514610d9657610d9184610d808486611a7d565b6001600160a01b03841691906114c6565b610e0d565b5f6001600160a01b038516610dab8486611a7d565b6040515f81818185875af1925050503d805f8114610de4576040519150601f19603f3d011682016040523d82523d5f602084013e610de9565b606091505b5050905080610e0b5760405163b12d13eb60e01b815260040160405180910390fd5b505b836001600160a01b0316816001600160a01b03167f9b1bfa7fa9ee420a16e124f794c35ac9f90472acc99140eb2f6447c714cad8eb8560405161068c91815260200190565b610e5a611111565b6001600160a01b0381165f9081526003602052604081205490819003610e935760405163259ba1ad60e01b815260040160405180910390fd5b6001600160a01b0382165f818152600360209081526040808320839055848352600482529182902080546001600160a01b0319169055815192835282018390527f59423ae65f1bcb9f1053fba8f7db2902838ef7d4001c3622192b251a90b4ffa9910160405180910390a15050565b6001600160a01b0381165f90815260036020526040812054908190036108ef5760405163259ba1ad60e01b815260040160405180910390fd5b610f43611111565b6001600160a01b038116610f6c57604051631e4fbdf760e01b81525f60048201526024016109e3565b610f75816112f9565b50565b610f80611111565b6001600160a01b038216610fa757604051635209852960e01b815260040160405180910390fd5b6001600160a01b0382165f9081526020818152604080832084845290915281208054859290610fd7908490611a7d565b90915550505f818152600460205260409020546001600160a01b0316806110115760405163259ba1ad60e01b815260040160405180910390fd5b600182146110325761102d6001600160a01b03821684866114c6565b6110a4565b5f836001600160a01b0316856040515f6040518083038185875af1925050503d805f811461107b576040519150601f19603f3d011682016040523d82523d5f602084013e611080565b606091505b50509050806110a25760405163b12d13eb60e01b815260040160405180910390fd5b505b50505050565b6040516001600160a01b0384811660248301528381166044830152606482018390526110a49186918216906323b872dd906084015b604051602081830303815290604052915060e01b6020820180516001600160e01b0383818316178352505050506114f7565b3361111a610a26565b6001600160a01b0316146109055760405163118cdaa760e01b81523360048201526024016109e3565b306001600160a01b037f00000000000000000000000000000000000000000000000000000000000000001614806111c957507f00000000000000000000000000000000000000000000000000000000000000006001600160a01b03166111bd5f516020611b755f395f51905f52546001600160a01b031690565b6001600160a01b031614155b156109055760405163703e46dd60e11b815260040160405180910390fd5b610f75611111565b816001600160a01b03166352d1902d6040518163ffffffff1660e01b8152600401602060405180830381865afa925050508015611249575060408051601f3d908101601f1916820190925261124691810190611b0f565b60015b61127157604051634c9c8ce360e01b81526001600160a01b03831660048201526024016109e3565b5f516020611b755f395f51905f5281146112a157604051632a87526960e21b8152600481018290526024016109e3565b6112ab8383611563565b505050565b306001600160a01b037f000000000000000000000000000000000000000000000000000000000000000016146109055760405163703e46dd60e11b815260040160405180910390fd5b7f9016d09d72d40fdae2fd8ceac6b6234c7706214fd39c1cd1e609a0528c19930080546001600160a01b031981166001600160a01b03848116918217845560405192169182907f8be0079c531659141344cd1fd0a4f28419497f9722a3daafe3b4186f6b6457e0905f90a3505050565b7fa16a46d94261c7517cc8ff89f61c0ce93598e3c849801011dee649a6a557d10280546060917fa16a46d94261c7517cc8ff89f61c0ce93598e3c849801011dee649a6a557d100916113ba90611b26565b80601f01602080910402602001604051908101604052809291908181526020018280546113e690611b26565b80156114315780601f1061140857610100808354040283529160200191611431565b820191905f5260205f20905b81548152906001019060200180831161141457829003601f168201915b505050505091505090565b7fa16a46d94261c7517cc8ff89f61c0ce93598e3c849801011dee649a6a557d10380546060917fa16a46d94261c7517cc8ff89f61c0ce93598e3c849801011dee649a6a557d100916113ba90611b26565b5f807ff0c57e16840df040f15088dc2f81fe391c3923bec73e23a9662efc9c229c6a006106bd565b6114bd6115b8565b610f75816115dd565b6040516001600160a01b038381166024830152604482018390526112ab91859182169063a9059cbb906064016110df565b5f5f60205f8451602086015f885af180611516576040513d5f823e3d81fd5b50505f513d9150811561152d57806001141561153a565b6001600160a01b0384163b155b156110a457604051635274afe760e01b81526001600160a01b03851660048201526024016109e3565b61156c826115e5565b6040516001600160a01b038316907fbc7cd75a20ee27fd9adebab32041f755214dbc6bffa90cc0225b39da2e5c2d3b905f90a28051156115b0576112ab8282611648565b61089b6116ba565b6115c06116d9565b61090557604051631afcd79f60e31b815260040160405180910390fd5b610f436115b8565b806001600160a01b03163b5f0361161a57604051634c9c8ce360e01b81526001600160a01b03821660048201526024016109e3565b5f516020611b755f395f51905f5280546001600160a01b0319166001600160a01b0392909216919091179055565b60605f5f846001600160a01b0316846040516116649190611b5e565b5f60405180830381855af49150503d805f811461169c576040519150601f19603f3d011682016040523d82523d5f602084013e6116a1565b606091505b50915091506116b18583836116f2565b95945050505050565b34156109055760405163b398979f60e01b815260040160405180910390fd5b5f6116e261148d565b54600160401b900460ff16919050565b6060826117075761170282611751565b61174a565b815115801561171e57506001600160a01b0384163b155b1561174757604051639996b31560e01b81526001600160a01b03851660048201526024016109e3565b50805b9392505050565b80511561176057805160208201fd5b60405163d6bda27560e01b815260040160405180910390fd5b80356001600160a01b03811681146108ef575f5ffd5b5f5f604083850312156117a0575f5ffd5b6117a983611779565b946020939093013593505050565b5f602082840312156117c7575f5ffd5b61174a82611779565b5f5f5f5f608085870312156117e3575f5ffd5b6117ec85611779565b93506117fa60208601611779565b93969395505050506040820135916060013590565b5f6040828403128015611820575f5ffd5b509092915050565b634e487b7160e01b5f52604160045260245ffd5b5f5f6040838503121561184d575f5ffd5b61185683611779565b9150602083013567ffffffffffffffff811115611871575f5ffd5b8301601f81018513611881575f5ffd5b803567ffffffffffffffff81111561189b5761189b611828565b604051601f8201601f19908116603f0116810167ffffffffffffffff811182821017156118ca576118ca611828565b6040528181528282016020018710156118e1575f5ffd5b816020840160208301375f602083830101528093505050509250929050565b5f60208284031215611910575f5ffd5b5035919050565b5f81518084528060208401602086015e5f602082860101526020601f19601f83011685010191505092915050565b60ff60f81b8816815260e060208201525f61196360e0830189611917565b82810360408401526119758189611917565b606084018890526001600160a01b038716608085015260a0840186905283810360c0850152845180825260208087019350909101905f5b818110156119ca5783518352602093840193909201916001016119ac565b50909b9a5050505050505050505050565b602081525f61174a6020830184611917565b5f5f5f606084860312156119ff575f5ffd5b83359250611a0f60208501611779565b929592945050506040919091013590565b634e487b7160e01b5f52601160045260245ffd5b808201808211156106bd576106bd611a20565b80820281158282048414176106bd576106bd611a20565b5f82611a7857634e487b7160e01b5f52601260045260245ffd5b500490565b818103818111156106bd576106bd611a20565b5f60018201611aa157611aa1611a20565b5060010190565b80356001600160601b03811681146108ef575f5ffd5b5f60208284031215611ace575f5ffd5b61174a82611aa8565b604081016001600160601b03611aec84611aa8565b1682526001600160601b03611b0360208501611aa8565b16602083015292915050565b5f60208284031215611b1f575f5ffd5b5051919050565b600181811c90821680611b3a57607f821691505b602082108103611b5857634e487b7160e01b5f52602260045260245ffd5b50919050565b5f82518060208501845e5f92019182525091905056fe360894a13ba1a3210667c828492db98dca3e2076cc3735a920a3ca505d382bbca2646970667358221220a895fc3fa5f5d810495e45a85020d82d10b240caddf558f217762712c9f6187264736f6c634300081c0033",
  "linkReferences": {},
  "deployedLinkReferences": {},
  "immutableReferences": {
    "482": [
      {
        "length": 32,
        "start": 4430
      },
      {
        "length": 32,
        "start": 4471
      },
      {
        "length": 32,
        "start": 4795
      }
    ]
  },
  "inputSourceName": "project/contracts/vault/CurvyVaultV5.sol",
  "buildInfoId": "solc-0_8_28-3ef82ff417c69c039cc95b3eda5a58b15364ef49"
}