{
  "_format": "hh3-artifact-1",
  "contractName": "CurvyAggregationVerifierAlpha_2_2_2_30",
  "sourceName": "contracts/aggregator-alpha/verifiers/CurvyAggregationVerifierAlpha_2_2_2_30.sol",
  "abi": [
    {
      "inputs": [
        {
          "internalType": "uint256[2]",
          "name": "_pA",
          "type": "uint256[2]"
        },
        {
          "internalType": "uint256[2][2]",
          "name": "_pB",
          "type": "uint256[2][2]"
        },
        {
          "internalType": "uint256[2]",
          "name": "_pC",
          "type": "uint256[2]"
        },
        {
          "internalType": "uint256[14]",
          "name": "_pubSignals",
          "type": "uint256[14]"
        }
      ],
      "name": "verifyProof",
      "outputs": [
        {
          "internalType": "bool",
          "name": "",
          "type": "bool"
        }
      ],
      "stateMutability": "view",
      "type": "function"
    }
  ],
  "bytecode": "0x6080604052348015600e575f5ffd5b50610a0d8061001c5f395ff3fe608060405234801561000f575f5ffd5b5060043610610029575f3560e01c80638d15f88f1461002d575b5f5ffd5b61004061003b366004610975565b610054565b604051901515815260200160405180910390f35b5f610882565b7f30644e72e131a029b85045b68181585d2833e84879b9709143e1f593f00000018110610089575f5f5260205ff35b50565b5f60405183815284602082015285604082015260408160608360076107d05a03fa9150816100bc575f5f5260205ff35b825160408201526020830151606082015260408360808360066107d05a03fa915050806100eb575f5f5260205ff35b5050505050565b7f2677d6c999b93ce8836a26f68400342d9206d0042e5bef74384d97668d4fbd7185527f1c6dffd717c92db39b15ffaac7f1ca0896359f64d86ddbde53a9a724d53d687f60208601525f608086018661018e87357f1588203686d2c659beac6e6b6a0696c9a73b43167a1c23dcd156cd423a3486617f2a9a27b4754629f464e15757a6e1795285c772d60b824c8f1dcf721853505b648461008c565b6101de60208801357f0e7ef5047b47aa90a649bd18cea070121bf160cd07d5fb6f059d7f85959093037f0ad8fc97f11c92c12ec509d473fb3a2131cd46398b83b0f6931d5a316885bf4c8461008c565b61022e60408801357f1f360486c53217bd225c170d2c9bff57ce0401a846932d5998b0985302d0d0297f1f0d2c4008add8e5f828066af26a4893d22ede59ce5ed922805bbf72172f926f8461008c565b61027e60608801357f19038ac1aeb7fff5205df6e24fb20b79efc3e47b23ba901c6133a077fd25a41f7f06a8f121ae5a14cd6561c3d301b7a599cd187d66b69ec0dca5b594c90d359db18461008c565b6102ce60808801357f14392ad2a968554f2e9be3192822ee370df3835437d6bdd824f7c02486a799757f1a901b29f21dd86a23814194667419cdb034a8f419cce6f36219ebe12f1d03ce8461008c565b61031e60a08801357f222b41b2066c2e18de2ce8f1b38e21067945bf3a523068d9be283bdeb0b090ca7f260b831c981e5d0edf7c4a1ce05d34b900e8e771b704ff94f52c9945a1227a038461008c565b61036e60c08801357f03ba99acc272296f6b5e8b46fdd80641dc68056bf1f1d058d7b0ae82673e6e0a7f1a49fe52f86e2ce468118842968ef83a85cc11ca735d1707594d03c0fcc5f7a48461008c565b6103be60e08801357f1bb356cda8bd9d21ca448a588e9fe402a48c2c090cc2d9028aabebf7eae7f18f7f2ba484140c7672e35cc296b012b1c06c9d65fa7daf76d898d54502b9dd6e8f298461008c565b61040f6101008801357f158100efe205b2ae041cd2722595c576d8ad554efd549c541c0235ddb95cc70d7f16532b0559581e1c0ff25d04ef22b687551e792d5f5d2134877bffd292114f998461008c565b6104606101208801357f1ecea9cf3060c8c3e065cd2f2f05fe405f4d81a6e4a067c43f65de122d4a8ecc7f0271befe332df95f1520c793b30ab4bbc373b49d736fdf4954fa8129851d9e288461008c565b6104b16101408801357f01886e15dd9ecac1445aca0b7c14420423ce79e0e7b5e5e7ca612fdbbbb0c77f7f17567d5e10acb1c359a4936a01b981b1e6fb9b2bf8746cfa36232c503fd055d18461008c565b6105026101608801357f0fa31e0ed9c1e3ebd3ff073c06bd5ec2056806962a50a4f9490d9d2d3c9125d47f12de630747fad5d0d0b137586691387df79e8a34d3b2968dc56f775ab6b3f4788461008c565b6105536101808801357f0675adf13437ce0b6c1853a85e1ce69404e9b79fc48e04a0757066da7650c6007f25415c817f8b5a1b4b8b1fbaba8a708d3c69f7a1aa35a3834e454b146a0a719a8461008c565b6105a46101a08801357f21c1a157c26e7368b687ff48228bde51af963a5337385f672bf794b1e734c4de7f10d8fd6daf436328532c048653ff83bc1192914754b7a5c907de1869768706848461008c565b50823581527f30644e72e131a029b85045b68181585d97816a916871ca8d3c208c16d87cfd4760208401357f30644e72e131a029b85045b68181585d97816a916871ca8d3c208c16d87cfd4703066020820152833560408201526020840135606082015260408401356080820152606084013560a08201527f039e6c254fdbfdddb550d7b28587b6e3359a0978a174c832f180238460bf67f660c08201527f05a7b274497c5b63c2aa9486e0610bf9c9fa32e70ac3453f26f181300106533a60e08201527f0e5775bf946735d1ab10bc0fe721dac812003a0756b73371686b39a0c8e0a59a6101008201527f2e63b48c5263b864a5ac08e86eda8c54b609edde10946cdd944dd04bf8f706996101208201527f2a68fdf476b29776ff77059d8292dbdef8bf3835b1d0b8c5e61a8e9f9065804c6101408201527f1b6deed70cfcb89383c60b8d413374d552260ab753beccb04e2077b09a6b69216101608201525f87015161018082015260205f018701516101a08201527f198e9393920d483a7260bfb731fb5d25f1aa493335a9e71297e485b7aef312c26101c08201527f1800deef121f1e76426a00665e5c4479674322d4f75edadd46debd5cd992f6ed6101e08201527f090689d0585ff075ec9e99ad690c3395bc4b313370b38ef355acdadcd122975b6102008201527f12c85ea5db8c6deb4aab71808dcb408fe3d1e7690c43d37b4ce6cc0166fa7daa610220820152843561024082015260208501356102608201527f158d15b191dda264a993425059ebfd021c32c1730e3d254e31fd87de0ab46bac6102808201527f250bca34a48b272729deaec79ae6cc9a702ed03a18a0b5dbd03e9355f52480a56102a08201527f1a999fb6f30f5cc719a772e575a1effffd30eac8e14132c3759716b124d6750b6102c08201527f1db0c59f9dd26d6b1e665961792353cbd44351a6e5108cc13ee1aae16c3734046102e08201526020816103008360086107d05a03fa9051169695505050505050565b60405161038081016040526108995f84013561005a565b6108a6602084013561005a565b6108b3604084013561005a565b6108c0606084013561005a565b6108cd608084013561005a565b6108da60a084013561005a565b6108e760c084013561005a565b6108f460e084013561005a565b61090261010084013561005a565b61091061012084013561005a565b61091e61014084013561005a565b61092c61016084013561005a565b61093a61018084013561005a565b6109486101a084013561005a565b610955818486888a6100f2565b9050805f5260205ff35b806040810183101561096f575f5ffd5b92915050565b5f5f5f5f6102c08587031215610989575f5ffd5b610993868661095f565b935060c08501868111156109a5575f5ffd5b6040860193506109b5878261095f565b925050856102c0860111156109c8575f5ffd5b5091949093509091610100019056fea2646970667358221220478778d0335dd646856137a27c3acb70f813b5d21368e81d0f8aa12044b1af5b64736f6c634300081c0033",
  "linkReferences": {},
  "deployedLinkReferences": {},
  "immutableReferences": {},
  "inputSourceName": "project/contracts/aggregator-alpha/verifiers/CurvyAggregationVerifierAlpha_2_2_2_30.sol",
  "buildInfoId": "solc-0_8_28-23b655e8bb0105b6787d4a3a8a7a7cc8d837aadd"
}