{
  "_format": "hh3-artifact-1",
  "contractName": "CurvyWithdrawVerifierAlphaV3_2",
  "sourceName": "contracts/aggregator-alpha/verifiers/CurvyWithdrawVerifierAlphaV3_2.sol",
  "abi": [
    {
      "inputs": [
        {
          "internalType": "uint256[2]",
          "name": "a",
          "type": "uint256[2]"
        },
        {
          "internalType": "uint256[2][2]",
          "name": "b",
          "type": "uint256[2][2]"
        },
        {
          "internalType": "uint256[2]",
          "name": "c",
          "type": "uint256[2]"
        },
        {
          "internalType": "uint256[9]",
          "name": "input",
          "type": "uint256[9]"
        }
      ],
      "name": "verifyProof",
      "outputs": [
        {
          "internalType": "bool",
          "name": "r",
          "type": "bool"
        }
      ],
      "stateMutability": "view",
      "type": "function"
    }
  ],
  "bytecode": "0x6080604052348015600e575f5ffd5b5061149a8061001c5f395ff3fe608060405234801561000f575f5ffd5b5060043610610029575f3560e01c8063c542c93b1461002d575b5f5ffd5b61004061003b366004611300565b610054565b604051901515815260200160405180910390f35b5f61005d611127565b604080518082018252875181526020808901518183015290835281516080810183528751518184019081528851830151606083015281528251808401845288830180515182525183015181840152818301528382015281518083018352865181528682015181830152838301528151600980825261014082019093525f9290918201610120803683370190505090505f5b600981101561013357848160098110610109576101096113e0565b6020020151828281518110610120576101206113e0565b60209081029190910101526001016100ee565b5061013e818361015d565b5f0361014f57600192505050610155565b5f925050505b949350505050565b5f7f30644e72e131a029b85045b68181585d2833e84879b9709143e1f593f000000181610188610344565b90508060800151518551600161019e9190611408565b146101e55760405162461bcd60e51b81526020600482015260126024820152711d995c9a599a595c8b5898590b5a5b9c1d5d60721b60448201526064015b60405180910390fd5b604080518082019091525f808252602082018190525b86518110156102cb5783878281518110610217576102176113e0565b60200260200101511061026c5760405162461bcd60e51b815260206004820152601f60248201527f76657269666965722d6774652d736e61726b2d7363616c61722d6669656c640060448201526064016101dc565b6102c1826102bc85608001518460016102859190611408565b81518110610295576102956113e0565b60200260200101518a85815181106102af576102af6113e0565b6020026020010151610a94565b610b28565b91506001016101fb565b506102f38183608001515f815181106102e6576102e66113e0565b6020026020010151610b28565b9050610327610304865f0151610bbf565b8660200151845f015185602001518587604001518b604001518960600151610c5b565b610337576001935050505061033e565b5f93505050505b92915050565b61034c611175565b6040805180820182527f245229d9b076b3c0e8a4d70bde8c1cccffa08a9fae7557b165b3b0dbd653e2c781527f253ec85988dbb84e46e94b5efa3373b47a000b4ac6c86b2d4b798d274a1823026020808301919091529083528151608080820184527f07090a82e8fabbd39299be24705b92cf208ee8b3487f6f2b39ff27978a29a1db8285019081527f2424bcc1f60a5472685fd50705b2809626e170120acaf441e133a2bd5e61d244606080850191909152908352845180860186527f0ae1135cffdaf227c5dc266740607aa930bc3bd92ddc2b135086d9da2dfd3e2a81527f2b86859fd3d55c9d150fb3f0aeba798826493dd73d357ab0f9fdaced9fc81829818601528385015285840192909252835180820185527f198e9393920d483a7260bfb731fb5d25f1aa493335a9e71297e485b7aef312c28186019081527f1800deef121f1e76426a00665e5c4479674322d4f75edadd46debd5cd992f6ed828501528152845180860186527f090689d0585ff075ec9e99ad690c3395bc4b313370b38ef355acdadcd122975b81527f12c85ea5db8c6deb4aab71808dcb408fe3d1e7690c43d37b4ce6cc0166fa7daa818601528185015285850152835190810184527f05d000ba4551c1fa877c7a46107992624c3d99a3e6bdd57c50698771b613cc298185019081527f1ecc95a1dbdbe4f8cef976bf22affb6de7fa33cb89b48d77bead7102ad139892828401528152835180850185527f21db75587cbe02e9192f9b5f2b763c99648c02dd6b6a4c96c20df72fb841418a81527f2af9f7e11a5a29cdcb4b532c39193095513331f2834798b89072b995ad356a898185015281840152908401528151600a8082526101608201909352919082015b604080518082019091525f80825260208201528152602001906001900390816105c857505060808201908152604080518082019091527f2660af19967ed5580208a84497fbdd099f460ed85561c98f23edb4a0384dcf7f81527f210fa1941084636ec27feec1eb19e46b9b48bfa53b306d017ae5963efad52a436020820152905180515f90610659576106596113e0565b602002602001018190525060405180604001604052807f2083fd8b0b70f84ff529e805d135f4a43429faa7993c7722807ae7a190df845581526020017f28811e77761972df5b4960cb74319c488f4edbeddc48333c6d4d1a6bf413ca3481525081608001516001815181106106d0576106d06113e0565b602002602001018190525060405180604001604052807f13dfc5473a9989ab659e0b9a6334f6941bc90555d51e4bca722dae72810e989881526020017f013b58637f2dae5dcc9fc8fbebfc8b1381840813185e0fb647f05168c697540c8152508160800151600281518110610747576107476113e0565b602002602001018190525060405180604001604052807f1c44dcfc07f5f9ae2c637ff60d5a89d2c1713bca6aff265abcb28620a852c34281526020017f19330ccf92e4c27c2b591f021a828cca5edab6049a9d1062686fd796b6d3f52d81525081608001516003815181106107be576107be6113e0565b602002602001018190525060405180604001604052807f23d7191b87dd317ce4294b631c1ce03e454f61c038c5d9c601c8abcc5003816b81526020017f21b455e02d8d7aa7549f9e769915f44c954cbc965220a0c8f61c0c1a367509818152508160800151600481518110610835576108356113e0565b602002602001018190525060405180604001604052807f2226e11fa0ed282b86920337d75253929cdead5afa79adbc98bbf0786a21503081526020017eab0bd68fd9de0ee282bc419521c647a219f5075248f5ebfb2016464f50ba1a81525081608001516005815181106108ab576108ab6113e0565b602002602001018190525060405180604001604052807f21a6f2274e37865052daf09f57ee7d7dafbc1d60cc54e26ab82120b995ed12f481526020017f0b5c832b69ae80552e1d9402009efab37ce39eb97825b4b343f5ea9581b31c1b8152508160800151600681518110610922576109226113e0565b602002602001018190525060405180604001604052807f091ecf7419c3a24ba36564b86a4859fd8f00157103bb0759ea5ba4928bfe460b81526020017f105c38b8731b3cbeed64c9c7e1aa313538e21302828e2f95fb3b05d777a0f7d88152508160800151600781518110610999576109996113e0565b602002602001018190525060405180604001604052807f100d9113bd2a6d16e7682a168a313a92f111d97fa62ab66b9b60339ab7edd8cf81526020017f0db625617d7f1e384b7fd3bfa6625ce178ced385ea8bef33da11938d7ebc389d8152508160800151600881518110610a1057610a106113e0565b602002602001018190525060405180604001604052807ec8fdc7d85d6600498e56ca6e7082bef46e29858708e318188919835ac6878881526020017f0c567e014f5306e60d7e0d42f3e9216db8a9837c77f300ff203b05060360a30a8152508160800151600981518110610a8657610a866113e0565b602002602001018190525090565b604080518082019091525f8082526020820152610aaf6111c5565b8351815260208085015190820152604081018390525f60608360808460076107d05a03fa90508080610add57fe5b5080610b205760405162461bcd60e51b81526020600482015260126024820152711c185a5c9a5b99cb5b5d5b0b59985a5b195960721b60448201526064016101dc565b505092915050565b604080518082019091525f8082526020820152610b436111e3565b8351815260208085015181830152835160408301528301516060808301919091525f908360c08460066107d05a03fa90508080610b7c57fe5b5080610b205760405162461bcd60e51b81526020600482015260126024820152711c185a5c9a5b99cb5859190b59985a5b195960721b60448201526064016101dc565b604080518082019091525f808252602082015281517f30644e72e131a029b85045b68181585d97816a916871ca8d3c208c16d87cfd4790158015610c0557506020830151155b15610c24575050604080518082019091525f8082526020820152919050565b6040518060400160405280845f01518152602001828560200151610c48919061141b565b610c52908461143a565b90529392505050565b60408051600480825260a082019092525f91829190816020015b604080518082019091525f8082526020820152815260200190600190039081610c7557505060408051600480825260a082019092529192505f9190602082015b610cbd611201565b815260200190600190039081610cb55790505090508a825f81518110610ce557610ce56113e0565b60200260200101819052508882600181518110610d0457610d046113e0565b60200260200101819052508682600281518110610d2357610d236113e0565b60200260200101819052508482600381518110610d4257610d426113e0565b602002602001018190525089815f81518110610d6057610d606113e0565b60200260200101819052508781600181518110610d7f57610d7f6113e0565b60200260200101819052508581600281518110610d9e57610d9e6113e0565b60200260200101819052508381600381518110610dbd57610dbd6113e0565b6020026020010181905250610dd28282610de1565b9b9a5050505050505050505050565b5f8151835114610e2c5760405162461bcd60e51b81526020600482015260166024820152751c185a5c9a5b99cb5b195b99dd1a1ccb59985a5b195960521b60448201526064016101dc565b82515f610e3a82600661144d565b90505f8167ffffffffffffffff811115610e5657610e5661125d565b604051908082528060200260200182016040528015610e7f578160200160208202803683370190505b5090505f5b838110156110ac57868181518110610e9e57610e9e6113e0565b60200260200101515f015182826006610eb7919061144d565b610ec1905f611408565b81518110610ed157610ed16113e0565b602002602001018181525050868181518110610eef57610eef6113e0565b60200260200101516020015182826006610f09919061144d565b610f14906001611408565b81518110610f2457610f246113e0565b602002602001018181525050858181518110610f4257610f426113e0565b6020908102919091010151515182610f5b83600661144d565b610f66906002611408565b81518110610f7657610f766113e0565b602002602001018181525050858181518110610f9457610f946113e0565b60209081029190910181015151015182610faf83600661144d565b610fba906003611408565b81518110610fca57610fca6113e0565b602002602001018181525050858181518110610fe857610fe86113e0565b6020026020010151602001515f60028110611005576110056113e0565b60200201518261101683600661144d565b611021906004611408565b81518110611031576110316113e0565b60200260200101818152505085818151811061104f5761104f6113e0565b60200260200101516020015160016002811061106d5761106d6113e0565b60200201518261107e83600661144d565b611089906005611408565b81518110611099576110996113e0565b6020908102919091010152600101610e84565b506110b5611221565b5f602082602086026020860160086107d05a03fa905080806110d357fe5b50806111195760405162461bcd60e51b81526020600482015260156024820152741c185a5c9a5b99cb5bdc18dbd9194b59985a5b1959605a1b60448201526064016101dc565b505115159695505050505050565b6040805160a081019091525f606082018181526080830191909152815260208101611150611201565b815260200161117060405180604001604052805f81526020015f81525090565b905290565b6040805160e081019091525f60a0820181815260c083019190915281526020810161119e611201565b81526020016111ab611201565b81526020016111b8611201565b8152602001606081525090565b60405180606001604052806003906020820280368337509192915050565b60405180608001604052806004906020820280368337509192915050565b604051806040016040528061121461123f565b815260200161117061123f565b60405180602001604052806001906020820280368337509192915050565b60405180604001604052806002906020820280368337509192915050565b634e487b7160e01b5f52604160045260245ffd5b604051601f8201601f1916810167ffffffffffffffff811182821017156112a657634e487b7160e01b5f52604160045260245ffd5b604052919050565b5f82601f8301126112bd575f5ffd5b5f6112c86040611271565b90508060408401858111156112db575f5ffd5b845b818110156112f55780358352602092830192016112dd565b509195945050505050565b5f5f5f5f6102208587031215611314575f5ffd5b61131e86866112ae565b935085605f86011261132e575f5ffd5b604061133981611271565b8060c088018981111561134a575f5ffd5b604089015b81811015611370576113618b826112ae565b8452602090930192840161134f565b5081965061137e8a826112ae565b95505050505061010085015f87601f830112611398575f5ffd5b5f6101206113a581611271565b91508301818a8211156113b6575f5ffd5b5b818510156113cf5784358152602094850194016113b7565b509699959850939650929450505050565b634e487b7160e01b5f52603260045260245ffd5b634e487b7160e01b5f52601160045260245ffd5b8082018082111561033e5761033e6113f4565b5f8261143557634e487b7160e01b5f52601260045260245ffd5b500690565b8181038181111561033e5761033e6113f4565b808202811582820484141761033e5761033e6113f456fea2646970667358221220ee56b55b73586c11a0ad84b93a1c92445f7a65f7be9aeed3d1e4fbaef2220a4364736f6c634300081c0033",
  "linkReferences": {},
  "deployedLinkReferences": {},
  "immutableReferences": {},
  "inputSourceName": "project/contracts/aggregator-alpha/verifiers/CurvyWithdrawVerifierAlphaV3_2.sol",
  "buildInfoId": "solc-0_8_28-792cdd148188b4c56374f6b8ec2fd75c0e7583d6"
}