{
  "_format": "hh3-artifact-1",
  "contractName": "CurvyAggregatorAlphaV5",
  "sourceName": "contracts/aggregator-alpha/CurvyAggregatorAlphaV5.sol",
  "abi": [
    {
      "inputs": [],
      "stateMutability": "nonpayable",
      "type": "constructor"
    },
    {
      "inputs": [
        {
          "internalType": "address",
          "name": "target",
          "type": "address"
        }
      ],
      "name": "AddressEmptyCode",
      "type": "error"
    },
    {
      "inputs": [],
      "name": "CurrentNoteTreeRootMismatch",
      "type": "error"
    },
    {
      "inputs": [],
      "name": "CurrentNullifierTreeRootMismatch",
      "type": "error"
    },
    {
      "inputs": [
        {
          "internalType": "address",
          "name": "implementation",
          "type": "address"
        }
      ],
      "name": "ERC1967InvalidImplementation",
      "type": "error"
    },
    {
      "inputs": [],
      "name": "ERC1967NonPayable",
      "type": "error"
    },
    {
      "inputs": [],
      "name": "FailedCall",
      "type": "error"
    },
    {
      "inputs": [],
      "name": "InvalidInitialization",
      "type": "error"
    },
    {
      "inputs": [],
      "name": "InvalidNotesRoot",
      "type": "error"
    },
    {
      "inputs": [],
      "name": "InvalidProof",
      "type": "error"
    },
    {
      "inputs": [],
      "name": "InvalidWithdrawProof",
      "type": "error"
    },
    {
      "inputs": [],
      "name": "NotInitializing",
      "type": "error"
    },
    {
      "inputs": [],
      "name": "NoteNotScheduledForDeposit",
      "type": "error"
    },
    {
      "inputs": [
        {
          "internalType": "address",
          "name": "owner",
          "type": "address"
        }
      ],
      "name": "OwnableInvalidOwner",
      "type": "error"
    },
    {
      "inputs": [
        {
          "internalType": "address",
          "name": "account",
          "type": "address"
        }
      ],
      "name": "OwnableUnauthorizedAccount",
      "type": "error"
    },
    {
      "inputs": [],
      "name": "PortalNotRegistered",
      "type": "error"
    },
    {
      "inputs": [
        {
          "internalType": "address",
          "name": "token",
          "type": "address"
        }
      ],
      "name": "SafeERC20FailedOperation",
      "type": "error"
    },
    {
      "inputs": [],
      "name": "UUPSUnauthorizedCallContext",
      "type": "error"
    },
    {
      "inputs": [
        {
          "internalType": "bytes32",
          "name": "slot",
          "type": "bytes32"
        }
      ],
      "name": "UUPSUnsupportedProxiableUUID",
      "type": "error"
    },
    {
      "anonymous": false,
      "inputs": [
        {
          "indexed": false,
          "internalType": "uint256",
          "name": "noteId",
          "type": "uint256"
        }
      ],
      "name": "DepositedNote",
      "type": "event"
    },
    {
      "anonymous": false,
      "inputs": [
        {
          "indexed": false,
          "internalType": "uint64",
          "name": "version",
          "type": "uint64"
        }
      ],
      "name": "Initialized",
      "type": "event"
    },
    {
      "anonymous": false,
      "inputs": [
        {
          "indexed": true,
          "internalType": "address",
          "name": "previousOwner",
          "type": "address"
        },
        {
          "indexed": true,
          "internalType": "address",
          "name": "newOwner",
          "type": "address"
        }
      ],
      "name": "OwnershipTransferred",
      "type": "event"
    },
    {
      "anonymous": false,
      "inputs": [
        {
          "indexed": true,
          "internalType": "address",
          "name": "implementation",
          "type": "address"
        }
      ],
      "name": "Upgraded",
      "type": "event"
    },
    {
      "inputs": [],
      "name": "UPGRADE_INTERFACE_VERSION",
      "outputs": [
        {
          "internalType": "string",
          "name": "",
          "type": "string"
        }
      ],
      "stateMutability": "view",
      "type": "function"
    },
    {
      "inputs": [],
      "name": "aggregationVerifier",
      "outputs": [
        {
          "internalType": "contract ICurvyAggregationVerifier",
          "name": "",
          "type": "address"
        }
      ],
      "stateMutability": "view",
      "type": "function"
    },
    {
      "inputs": [
        {
          "components": [
            {
              "internalType": "uint256",
              "name": "ownerHash",
              "type": "uint256"
            },
            {
              "internalType": "uint256",
              "name": "token",
              "type": "uint256"
            },
            {
              "internalType": "uint256",
              "name": "amount",
              "type": "uint256"
            }
          ],
          "internalType": "struct CurvyTypes.Note",
          "name": "note",
          "type": "tuple"
        },
        {
          "internalType": "address",
          "name": "tokenAddress",
          "type": "address"
        }
      ],
      "name": "autoShield",
      "outputs": [],
      "stateMutability": "payable",
      "type": "function"
    },
    {
      "inputs": [
        {
          "internalType": "uint256[2]",
          "name": "proof_a",
          "type": "uint256[2]"
        },
        {
          "internalType": "uint256[2][2]",
          "name": "proof_b",
          "type": "uint256[2][2]"
        },
        {
          "internalType": "uint256[2]",
          "name": "proof_c",
          "type": "uint256[2]"
        },
        {
          "internalType": "uint256[14]",
          "name": "publicInputs",
          "type": "uint256[14]"
        }
      ],
      "name": "commitAggregationBatch",
      "outputs": [
        {
          "internalType": "bool",
          "name": "",
          "type": "bool"
        }
      ],
      "stateMutability": "nonpayable",
      "type": "function"
    },
    {
      "inputs": [
        {
          "internalType": "uint256[2]",
          "name": "proof_a",
          "type": "uint256[2]"
        },
        {
          "internalType": "uint256[2][2]",
          "name": "proof_b",
          "type": "uint256[2][2]"
        },
        {
          "internalType": "uint256[2]",
          "name": "proof_c",
          "type": "uint256[2]"
        },
        {
          "internalType": "uint256[4]",
          "name": "publicInputs",
          "type": "uint256[4]"
        }
      ],
      "name": "commitDepositBatch",
      "outputs": [
        {
          "internalType": "bool",
          "name": "success",
          "type": "bool"
        }
      ],
      "stateMutability": "nonpayable",
      "type": "function"
    },
    {
      "inputs": [
        {
          "internalType": "uint256[2]",
          "name": "proof_a",
          "type": "uint256[2]"
        },
        {
          "internalType": "uint256[2][2]",
          "name": "proof_b",
          "type": "uint256[2][2]"
        },
        {
          "internalType": "uint256[2]",
          "name": "proof_c",
          "type": "uint256[2]"
        },
        {
          "internalType": "uint256[9]",
          "name": "publicInputs",
          "type": "uint256[9]"
        }
      ],
      "name": "commitWithdrawalBatch",
      "outputs": [
        {
          "internalType": "bool",
          "name": "",
          "type": "bool"
        }
      ],
      "stateMutability": "nonpayable",
      "type": "function"
    },
    {
      "inputs": [],
      "name": "curvyVault",
      "outputs": [
        {
          "internalType": "contract ICurvyVault",
          "name": "",
          "type": "address"
        }
      ],
      "stateMutability": "view",
      "type": "function"
    },
    {
      "inputs": [],
      "name": "curvyVaultV2",
      "outputs": [
        {
          "internalType": "contract ICurvyVaultV2",
          "name": "",
          "type": "address"
        }
      ],
      "stateMutability": "view",
      "type": "function"
    },
    {
      "inputs": [],
      "name": "getNoteTreeRoot",
      "outputs": [
        {
          "internalType": "uint256",
          "name": "",
          "type": "uint256"
        }
      ],
      "stateMutability": "view",
      "type": "function"
    },
    {
      "inputs": [],
      "name": "getNullifierTreeRoot",
      "outputs": [
        {
          "internalType": "uint256",
          "name": "",
          "type": "uint256"
        }
      ],
      "stateMutability": "view",
      "type": "function"
    },
    {
      "inputs": [
        {
          "internalType": "address",
          "name": "initialOwner",
          "type": "address"
        }
      ],
      "name": "initialize",
      "outputs": [],
      "stateMutability": "nonpayable",
      "type": "function"
    },
    {
      "inputs": [],
      "name": "insertionVerifier",
      "outputs": [
        {
          "internalType": "contract ICurvyInsertionVerifier",
          "name": "",
          "type": "address"
        }
      ],
      "stateMutability": "view",
      "type": "function"
    },
    {
      "inputs": [],
      "name": "maxAggregations",
      "outputs": [
        {
          "internalType": "uint256",
          "name": "",
          "type": "uint256"
        }
      ],
      "stateMutability": "view",
      "type": "function"
    },
    {
      "inputs": [],
      "name": "maxDeposits",
      "outputs": [
        {
          "internalType": "uint256",
          "name": "",
          "type": "uint256"
        }
      ],
      "stateMutability": "view",
      "type": "function"
    },
    {
      "inputs": [],
      "name": "maxWithdrawals",
      "outputs": [
        {
          "internalType": "uint256",
          "name": "",
          "type": "uint256"
        }
      ],
      "stateMutability": "view",
      "type": "function"
    },
    {
      "inputs": [
        {
          "internalType": "uint256",
          "name": "noteId",
          "type": "uint256"
        }
      ],
      "name": "noteInQueue",
      "outputs": [
        {
          "internalType": "bool",
          "name": "",
          "type": "bool"
        }
      ],
      "stateMutability": "view",
      "type": "function"
    },
    {
      "inputs": [],
      "name": "owner",
      "outputs": [
        {
          "internalType": "address",
          "name": "",
          "type": "address"
        }
      ],
      "stateMutability": "view",
      "type": "function"
    },
    {
      "inputs": [],
      "name": "portalFactory",
      "outputs": [
        {
          "internalType": "contract IPortalFactory",
          "name": "",
          "type": "address"
        }
      ],
      "stateMutability": "view",
      "type": "function"
    },
    {
      "inputs": [],
      "name": "proxiableUUID",
      "outputs": [
        {
          "internalType": "bytes32",
          "name": "",
          "type": "bytes32"
        }
      ],
      "stateMutability": "view",
      "type": "function"
    },
    {
      "inputs": [],
      "name": "renounceOwnership",
      "outputs": [],
      "stateMutability": "nonpayable",
      "type": "function"
    },
    {
      "inputs": [
        {
          "internalType": "uint256",
          "name": "newNotesTreeRoot",
          "type": "uint256"
        },
        {
          "internalType": "uint256",
          "name": "newNullifiersTreeRoot",
          "type": "uint256"
        }
      ],
      "name": "reset",
      "outputs": [],
      "stateMutability": "nonpayable",
      "type": "function"
    },
    {
      "inputs": [
        {
          "internalType": "address",
          "name": "newOwner",
          "type": "address"
        }
      ],
      "name": "transferOwnership",
      "outputs": [],
      "stateMutability": "nonpayable",
      "type": "function"
    },
    {
      "inputs": [
        {
          "components": [
            {
              "internalType": "address",
              "name": "insertionVerifier",
              "type": "address"
            },
            {
              "internalType": "address",
              "name": "aggregationVerifier",
              "type": "address"
            },
            {
              "internalType": "address",
              "name": "withdrawVerifier",
              "type": "address"
            },
            {
              "internalType": "address",
              "name": "curvyVault",
              "type": "address"
            },
            {
              "internalType": "address",
              "name": "portalFactory",
              "type": "address"
            },
            {
              "internalType": "uint256",
              "name": "maxDeposits",
              "type": "uint256"
            },
            {
              "internalType": "uint256",
              "name": "maxWithdrawals",
              "type": "uint256"
            },
            {
              "internalType": "uint256",
              "name": "maxAggregations",
              "type": "uint256"
            }
          ],
          "internalType": "struct CurvyTypes.AggregatorConfigurationUpdateV2",
          "name": "_update",
          "type": "tuple"
        }
      ],
      "name": "updateConfig",
      "outputs": [
        {
          "internalType": "bool",
          "name": "",
          "type": "bool"
        }
      ],
      "stateMutability": "nonpayable",
      "type": "function"
    },
    {
      "inputs": [
        {
          "internalType": "address",
          "name": "newImplementation",
          "type": "address"
        },
        {
          "internalType": "bytes",
          "name": "data",
          "type": "bytes"
        }
      ],
      "name": "upgradeToAndCall",
      "outputs": [],
      "stateMutability": "payable",
      "type": "function"
    },
    {
      "inputs": [],
      "name": "withdrawVerifier",
      "outputs": [
        {
          "internalType": "contract ICurvyWithdrawVerifier",
          "name": "",
          "type": "address"
        }
      ],
      "stateMutability": "view",
      "type": "function"
    },
    {
      "inputs": [],
      "name": "withdrawVerifierV3",
      "outputs": [
        {
          "internalType": "contract ICurvyWithdrawVerifierV3",
          "name": "",
          "type": "address"
        }
      ],
      "stateMutability": "view",
      "type": "function"
    }
  ],
  "bytecode": "0x60a060405230608052348015610013575f5ffd5b5061001c610021565b6100d3565b7ff0c57e16840df040f15088dc2f81fe391c3923bec73e23a9662efc9c229c6a00805468010000000000000000900460ff16156100715760405163f92ee8a960e01b815260040160405180910390fd5b80546001600160401b03908116146100d05780546001600160401b0319166001600160401b0390811782556040519081527fc7f505b2f371ae2175ee4913f4499e1f2633a7b5936321eed1cdaeb6115181d29060200160405180910390a15b50565b608051611d756100f95f395f81816110ce015281816110f7015261123b0152611d755ff3fe60806040526004361061017b575f3560e01c806379da03f8116100cd578063abed779011610087578063c4d66de811610062578063c4d66de814610458578063cf101a4914610477578063f157639414610496578063f2fde38b146104aa575f5ffd5b8063abed7790146103dd578063ad3cb1cc146103fc578063b974158a14610439575f5ffd5b806379da03f81461031b5780637cb3e4dd1461033a578063864eb164146103595780638ae11770146103785780638da5cb5b1461038d57806395b7f22a146103c9575f5ffd5b806347107fdb116101385780636a085b50116101135780636a085b50146102a5578063715018a6146102c457806375849383146102d857806376775ce1146102ed575f5ffd5b806347107fdb1461026b5780634f1ef2861461027e57806352d1902d14610291575f5ffd5b80631a82739b1461017f5780631dc43637146101b35780632654a8e6146101d4578063332ee0d51461020b578063354d594b1461022a5780633fb070271461024c575b5f5ffd5b34801561018a575f5ffd5b5061019e61019936600461170a565b6104c9565b60405190151581526020015b60405180910390f35b3480156101be575f5ffd5b506101d26101cd3660046117ac565b61067f565b005b3480156101df575f5ffd5b50600a546101f3906001600160a01b031681565b6040516001600160a01b0390911681526020016101aa565b348015610216575f5ffd5b5061019e6102253660046117cc565b610692565b348015610235575f5ffd5b5061023e5f5481565b6040519081526020016101aa565b348015610257575f5ffd5b506006546101f3906001600160a01b031681565b6101d2610279366004611856565b610899565b6101d261028c3660046118cb565b610afe565b34801561029c575f5ffd5b5061023e610b1d565b3480156102b0575f5ffd5b5061019e6102bf366004611970565b610b38565b3480156102cf575f5ffd5b506101d2610cc2565b3480156102e3575f5ffd5b5061023e60015481565b3480156102f8575f5ffd5b5061019e6103073660046119e1565b5f9081526003602052604090205460ff1690565b348015610326575f5ffd5b50600c546101f3906001600160a01b031681565b348015610345575f5ffd5b50600b546101f3906001600160a01b031681565b348015610364575f5ffd5b506009546101f3906001600160a01b031681565b348015610383575f5ffd5b5061023e60025481565b348015610398575f5ffd5b507f9016d09d72d40fdae2fd8ceac6b6234c7706214fd39c1cd1e609a0528c199300546001600160a01b03166101f3565b3480156103d4575f5ffd5b5060055461023e565b3480156103e8575f5ffd5b506008546101f3906001600160a01b031681565b348015610407575f5ffd5b5061042c604051806040016040528060058152602001640352e302e360dc1b81525081565b6040516101aa91906119f8565b348015610444575f5ffd5b506007546101f3906001600160a01b031681565b348015610463575f5ffd5b506101d2610472366004611a2d565b610cd5565b348015610482575f5ffd5b5061019e610491366004611a46565b610dce565b3480156104a1575f5ffd5b5060045461023e565b3480156104b5575f5ffd5b506101d26104c4366004611a2d565b610f2a565b5f5f8260015460026104db9190611aeb565b6104e6906001611b02565b600e81106104f6576104f6611b15565b602002015190505f83600154600261050e9190611aeb565b610519906002611b02565b600e811061052957610529611b15565b602002015190505f8460015460026105419190611aeb565b61054c906003611b02565b600e811061055c5761055c611b15565b602002015190505f8560015460026105749190611aeb565b61057f906004611b02565b600e811061058f5761058f611b15565b6020020151905081600454146105b85760405163215fc8af60e11b815260040160405180910390fd5b83600554146105da576040516322e685b360e11b815260040160405180910390fd5b600854604051638d15f88f60e01b81526001600160a01b0390911690638d15f88f90610610908c908c908c908c90600401611b94565b602060405180830381865afa15801561062b573d5f5f3e3d5ffd5b505050506040513d601f19601f8201168201806040525081019061064f9190611bf0565b61066c576040516309bde33960e01b815260040160405180910390fd5b6004555060055550600195945050505050565b610687610f6c565b600491909155600555565b60055460408201515f91146106ba576040516322e685b360e11b815260040160405180910390fd5b6004546020830151146106e05760405163215fc8af60e11b815260040160405180910390fd5b600c5460405163c542c93b60e01b81526001600160a01b039091169063c542c93b90610716908890889088908890600401611c0f565b602060405180830381865afa158015610731573d5f5f3e3d5ffd5b505050506040513d601f19601f820116820180604052508101906107559190611bf0565b610772576040516309bde33960e01b815260040160405180910390fd5b815160055560095f5b60025481101561088c575f84610792836003611b02565b600981106107a2576107a2611b15565b602002015190505f858360025460036107bb9190611b02565b6107c59190611b02565b600981106107d5576107d5611b15565b60200201519050811561087757600b546001600160a01b031663e63697c8876107ff600188611c5f565b6009811061080f5761080f611b15565b60200201516040516001600160e01b031960e084901b16815260048101919091526001600160a01b0384166024820152604481018590526064015f604051808303815f87803b158015610860575f5ffd5b505af1158015610872573d5f5f3e3d5ffd5b505050505b506108859050600182611b02565b905061077b565b5060019695505050505050565b600a5460405163eb2347fd60e01b81523360048201526001600160a01b039091169063eb2347fd90602401602060405180830381865afa1580156108df573d5f5f3e3d5ffd5b505050506040513d601f19601f820116820180604052508101906109039190611bf0565b6109205760405163082cec1d60e01b815260040160405180910390fd5b6001600160a01b0381161580159061095557506001600160a01b03811673eeeeeeeeeeeeeeeeeeeeeeeeeeeeeeeeeeeeeeee14155b15610997576040820151610977906001600160a01b0383169033903090610fc7565b600b546040830151610997916001600160a01b0384811692911690611034565b600b5460408381015190516320e8c56560e01b81526001600160a01b03848116600483015230602483015260448201929092525f60648201529116906320e8c5659034906084015f604051808303818588803b1580156109f5575f5ffd5b505af1158015610a07573d5f5f3e3d5ffd5b50506040805160608101825286518152868201516020808301919091528701518183015290516320cf0a3760e01b81525f945073__$759bf5a5ad889f3dc71fc353c9ae5c518b$__93506320cf0a379250610a659190600401611c72565b602060405180830381865af4158015610a80573d5f5f3e3d5ffd5b505050506040513d601f19601f82011682018060405250810190610aa49190611ca2565b5f8181526003602052604090819020805460ff19166001179055519091507f085eb711e9033934898875f6926d3a98c49bae62c73a015160bc22993aae4bee90610af19083815260200190565b60405180910390a1505050565b610b066110c3565b610b0f82611167565b610b19828261116f565b5050565b5f610b26611230565b505f516020611d205f395f51905f5290565b5f805b5f54811015610bbb575f838260048110610b5757610b57611b15565b602002015190508015610ba8575f8181526003602052604090205460ff16610b925760405163a18652d560e01b815260040160405180910390fd5b5f818152600360205260409020805460ff191690555b50610bb4600182611b02565b9050610b3b565b50600482610bca600283611c5f565b60048110610bda57610bda611b15565b602002015160045414610c0057604051633a54868960e01b815260040160405180910390fd5b600754604051635fe8c13b60e01b81526001600160a01b0390911690635fe8c13b90610c36908990899089908990600401611cb9565b602060405180830381865afa158015610c51573d5f5f3e3d5ffd5b505050506040513d601f19601f82011682018060405250810190610c759190611bf0565b610c92576040516309bde33960e01b815260040160405180910390fd5b82610c9e600183611c5f565b60048110610cae57610cae611b15565b602002015160045550600195945050505050565b610cca610f6c565b610cd35f611279565b565b5f610cde6112e9565b805490915060ff600160401b820416159067ffffffffffffffff165f81158015610d055750825b90505f8267ffffffffffffffff166001148015610d215750303b155b905081158015610d2f575080155b15610d4d5760405163f92ee8a960e01b815260040160405180910390fd5b845467ffffffffffffffff191660011785558315610d7757845460ff60401b1916600160401b1785555b610d8086611313565b8315610dc657845460ff60401b19168555604051600181527fc7f505b2f371ae2175ee4913f4499e1f2633a7b5936321eed1cdaeb6115181d29060200160405180910390a15b505050505050565b5f610dd7610f6c565b81516001600160a01b031615610e09578151600780546001600160a01b0319166001600160a01b039092169190911790555b60208201516001600160a01b031615610e41576020820151600880546001600160a01b0319166001600160a01b039092169190911790555b60408201516001600160a01b031615610e79576040820151600c80546001600160a01b0319166001600160a01b039092169190911790555b60608201516001600160a01b031615610eb1576060820151600b80546001600160a01b0319166001600160a01b039092169190911790555b60808201516001600160a01b031615610ee9576080820151600a80546001600160a01b0319166001600160a01b039092169190911790555b60a082015115610efb5760a08201515f555b60e082015115610f0e5760e08201516001555b60c082015115610f215760c08201516002555b5060015b919050565b610f32610f6c565b6001600160a01b038116610f6057604051631e4fbdf760e01b81525f60048201526024015b60405180910390fd5b610f6981611279565b50565b33610f9e7f9016d09d72d40fdae2fd8ceac6b6234c7706214fd39c1cd1e609a0528c199300546001600160a01b031690565b6001600160a01b031614610cd35760405163118cdaa760e01b8152336004820152602401610f57565b6040516001600160a01b03848116602483015283811660448301526064820183905261102e9186918216906323b872dd906084015b604051602081830303815290604052915060e01b6020820180516001600160e01b038381831617835250505050611324565b50505050565b604080516001600160a01b038416602482015260448082018490528251808303909101815260649091019091526020810180516001600160e01b031663095ea7b360e01b1790526110858482611390565b61102e576040516001600160a01b0384811660248301525f60448301526110b991869182169063095ea7b390606401610ffc565b61102e8482611324565b306001600160a01b037f000000000000000000000000000000000000000000000000000000000000000016148061114957507f00000000000000000000000000000000000000000000000000000000000000006001600160a01b031661113d5f516020611d205f395f51905f52546001600160a01b031690565b6001600160a01b031614155b15610cd35760405163703e46dd60e11b815260040160405180910390fd5b610f69610f6c565b816001600160a01b03166352d1902d6040518163ffffffff1660e01b8152600401602060405180830381865afa9250505080156111c9575060408051601f3d908101601f191682019092526111c691810190611ca2565b60015b6111f157604051634c9c8ce360e01b81526001600160a01b0383166004820152602401610f57565b5f516020611d205f395f51905f52811461122157604051632a87526960e21b815260048101829052602401610f57565b61122b83836113d9565b505050565b306001600160a01b037f00000000000000000000000000000000000000000000000000000000000000001614610cd35760405163703e46dd60e11b815260040160405180910390fd5b7f9016d09d72d40fdae2fd8ceac6b6234c7706214fd39c1cd1e609a0528c19930080546001600160a01b031981166001600160a01b03848116918217845560405192169182907f8be0079c531659141344cd1fd0a4f28419497f9722a3daafe3b4186f6b6457e0905f90a3505050565b5f807ff0c57e16840df040f15088dc2f81fe391c3923bec73e23a9662efc9c229c6a005b92915050565b61131b61142e565b610f6981611453565b5f5f60205f8451602086015f885af180611343576040513d5f823e3d81fd5b50505f513d9150811561135a578060011415611367565b6001600160a01b0384163b155b1561102e57604051635274afe760e01b81526001600160a01b0385166004820152602401610f57565b5f5f5f5f60205f8651602088015f8a5af192503d91505f5190508280156113cf575081156113c157806001146113cf565b5f866001600160a01b03163b115b9695505050505050565b6113e28261145b565b6040516001600160a01b038316907fbc7cd75a20ee27fd9adebab32041f755214dbc6bffa90cc0225b39da2e5c2d3b905f90a28051156114265761122b82826114be565b610b19611530565b61143661154f565b610cd357604051631afcd79f60e31b815260040160405180910390fd5b610f3261142e565b806001600160a01b03163b5f0361149057604051634c9c8ce360e01b81526001600160a01b0382166004820152602401610f57565b5f516020611d205f395f51905f5280546001600160a01b0319166001600160a01b0392909216919091179055565b60605f5f846001600160a01b0316846040516114da9190611d09565b5f60405180830381855af49150503d805f8114611512576040519150601f19603f3d011682016040523d82523d5f602084013e611517565b606091505b5091509150611527858383611568565b95945050505050565b3415610cd35760405163b398979f60e01b815260040160405180910390fd5b5f6115586112e9565b54600160401b900460ff16919050565b60608261157d57611578826115c7565b6115c0565b815115801561159457506001600160a01b0384163b155b156115bd57604051639996b31560e01b81526001600160a01b0385166004820152602401610f57565b50805b9392505050565b8051156115d657805160208201fd5b60405163d6bda27560e01b815260040160405180910390fd5b634e487b7160e01b5f52604160045260245ffd5b604051610100810167ffffffffffffffff81118282101715611627576116276115ef565b60405290565b604051601f8201601f1916810167ffffffffffffffff81118282101715611656576116566115ef565b604052919050565b5f82601f83011261166d575f5ffd5b5f611678604061162d565b905080604084018581111561168b575f5ffd5b845b818110156116a557803583526020928301920161168d565b509195945050505050565b5f82601f8301126116bf575f5ffd5b60406116ca8161162d565b8060808501868111156116db575f5ffd5b855b818110156116fe576116ef888261165e565b845260209093019284016116dd565b50909695505050505050565b5f5f5f5f6102c0858703121561171e575f5ffd5b611728868661165e565b935061173786604087016116b0565b92506117468660c0870161165e565b91505f8661011f870112611758575f5ffd5b505f806101c06117678161162d565b9150508091506102c087018881111561177e575f5ffd5b61010088015b8181101561179c578035845260209384019301611784565b5050809250505092959194509250565b5f5f604083850312156117bd575f5ffd5b50508035926020909101359150565b5f5f5f5f61022085870312156117e0575f5ffd5b6117ea868661165e565b93506117f986604087016116b0565b92506118088660c0870161165e565b91505f8661011f87011261181a575f5ffd5b505f806101206118298161162d565b91505080915061022087018881111561177e575f5ffd5b80356001600160a01b0381168114610f25575f5ffd5b5f5f8284036080811215611868575f5ffd5b6060811215611875575f5ffd5b506040516060810167ffffffffffffffff81118282101715611899576118996115ef565b60409081528435825260208086013590830152848101359082015291506118c260608401611840565b90509250929050565b5f5f604083850312156118dc575f5ffd5b6118e583611840565b9150602083013567ffffffffffffffff811115611900575f5ffd5b8301601f81018513611910575f5ffd5b803567ffffffffffffffff81111561192a5761192a6115ef565b61193d601f8201601f191660200161162d565b818152866020838501011115611951575f5ffd5b816020840160208301375f602083830101528093505050509250929050565b5f5f5f5f6101808587031215611984575f5ffd5b61198e868661165e565b935061199d86604087016116b0565b92506119ac8660c0870161165e565b91505f8661011f8701126119be575f5ffd5b505f806119cb608061162d565b905080915061018087018881111561177e575f5ffd5b5f602082840312156119f1575f5ffd5b5035919050565b602081525f82518060208401528060208501604085015e5f604082850101526040601f19601f83011684010191505092915050565b5f60208284031215611a3d575f5ffd5b6115c082611840565b5f610100828403128015611a58575f5ffd5b50611a61611603565b611a6a83611840565b8152611a7860208401611840565b6020820152611a8960408401611840565b6040820152611a9a60608401611840565b6060820152611aab60808401611840565b608082015260a0838101359082015260c0808401359082015260e0928301359281019290925250919050565b634e487b7160e01b5f52601160045260245ffd5b808202811582820484141761130d5761130d611ad7565b8082018082111561130d5761130d611ad7565b634e487b7160e01b5f52603260045260245ffd5b805f5b600281101561102e578151845260209384019390910190600101611b2c565b805f5b600281101561102e578151845f5b6002811015611b7b578251825260209283019290910190600101611b5c565b5050506040939093019260209190910190600101611b4e565b6102c08101611ba38287611b29565b611bb06040830186611b4b565b611bbd60c0830185611b29565b6101008201835f5b600e811015611be4578151835260209283019290910190600101611bc5565b50505095945050505050565b5f60208284031215611c00575f5ffd5b815180151581146115c0575f5ffd5b6102208101611c1e8287611b29565b611c2b6040830186611b4b565b611c3860c0830185611b29565b6101008201835f5b6009811015611be4578151835260209283019290910190600101611c40565b8181038181111561130d5761130d611ad7565b6060810181835f5b6003811015611c99578151835260209283019290910190600101611c7a565b50505092915050565b5f60208284031215611cb2575f5ffd5b5051919050565b6101808101611cc88287611b29565b611cd56040830186611b4b565b611ce260c0830185611b29565b6101008201835f5b6004811015611be4578151835260209283019290910190600101611cea565b5f82518060208501845e5f92019182525091905056fe360894a13ba1a3210667c828492db98dca3e2076cc3735a920a3ca505d382bbca2646970667358221220a1d8ea629aa2a582c51f861f3df21717a0bc669533016e41e46939ab2df01c6864736f6c634300081c0033",
  "linkReferences": {
    "project/contracts/aggregator-alpha/utils/PoseidonT4.sol": {
      "PoseidonT4": [
        {
          "length": 20,
          "start": 2869
        }
      ]
    }
  },
  "deployedLinkReferences": {
    "project/contracts/aggregator-alpha/utils/PoseidonT4.sol": {
      "PoseidonT4": [
        {
          "length": 20,
          "start": 2620
        }
      ]
    }
  },
  "immutableReferences": {
    "482": [
      {
        "length": 32,
        "start": 4302
      },
      {
        "length": 32,
        "start": 4343
      },
      {
        "length": 32,
        "start": 4667
      }
    ]
  },
  "inputSourceName": "project/contracts/aggregator-alpha/CurvyAggregatorAlphaV5.sol",
  "buildInfoId": "solc-0_8_28-2345d7baa923964c5828a297965392391e6113b8"
}