{
  "_format": "hh3-artifact-1",
  "contractName": "TokenBridge",
  "sourceName": "contracts/smart-account/TokenBridge.sol",
  "abi": [
    {
      "inputs": [
        {
          "internalType": "address",
          "name": "lifiDiamondAddress",
          "type": "address"
        }
      ],
      "stateMutability": "nonpayable",
      "type": "constructor"
    },
    {
      "inputs": [
        {
          "internalType": "address",
          "name": "token",
          "type": "address"
        }
      ],
      "name": "SafeERC20FailedOperation",
      "type": "error"
    },
    {
      "inputs": [],
      "name": "_lifiDiamondAddress",
      "outputs": [
        {
          "internalType": "address",
          "name": "",
          "type": "address"
        }
      ],
      "stateMutability": "view",
      "type": "function"
    },
    {
      "inputs": [
        {
          "internalType": "address",
          "name": "tokenAddress",
          "type": "address"
        },
        {
          "internalType": "bytes",
          "name": "bridgeData",
          "type": "bytes"
        }
      ],
      "name": "bridgeFullBalance",
      "outputs": [],
      "stateMutability": "nonpayable",
      "type": "function"
    }
  ],
  "bytecode": "0x60a060405234801561000f575f5ffd5b5060405161068f38038061068f83398101604081905261002e9161003f565b6001600160a01b031660805261006c565b5f6020828403121561004f575f5ffd5b81516001600160a01b0381168114610065575f5ffd5b9392505050565b6080516105f161009e5f395f8181603d015281816092015281816101d1015281816101f901526102d301526105f15ff3fe608060405234801561000f575f5ffd5b5060043610610034575f3560e01c80632b8c45ca14610038578063bfe24a741461007b575b5f5ffd5b61005f7f000000000000000000000000000000000000000000000000000000000000000081565b6040516001600160a01b03909116815260200160405180910390f35b61008e61008936600461050a565b610090565b005b7f00000000000000000000000000000000000000000000000000000000000000006001600160a01b03166101165760405162461bcd60e51b815260206004820152602260248201527f546f6b656e4272696467653a20496e76616c6964204c492e4649206164647265604482015261737360f01b60648201526084015b60405180910390fd5b6001600160a01b0383161580159061014b57506001600160a01b03831673eeeeeeeeeeeeeeeeeeeeeeeeeeeeeeeeeeeeeeee14155b156102c9576040516370a0823160e01b815230600482015283905f906001600160a01b038316906370a0823190602401602060405180830381865afa158015610196573d5f5f3e3d5ffd5b505050506040513d601f19601f820116820180604052508101906101ba9190610595565b905080156102c2576101f66001600160a01b0383167f0000000000000000000000000000000000000000000000000000000000000000836103a2565b5f7f00000000000000000000000000000000000000000000000000000000000000006001600160a01b031685856040516102319291906105ac565b5f604051808303815f865af19150503d805f811461026a576040519150601f19603f3d011682016040523d82523d5f602084013e61026f565b606091505b50509050806102c05760405162461bcd60e51b815260206004820152601f60248201527f546f6b656e4272696467653a204272696467652063616c6c206661696c656400604482015260640161010d565b505b5050505050565b47801561039c575f7f00000000000000000000000000000000000000000000000000000000000000006001600160a01b031682858560405161030c9291906105ac565b5f6040518083038185875af1925050503d805f8114610346576040519150601f19603f3d011682016040523d82523d5f602084013e61034b565b606091505b50509050806102c25760405162461bcd60e51b815260206004820152601f60248201527f546f6b656e4272696467653a204272696467652063616c6c206661696c656400604482015260640161010d565b50505050565b604080516001600160a01b038416602482015260448082018490528251808303909101815260649091019091526020810180516001600160e01b031663095ea7b360e01b1790526103f38482610455565b61039c57604080516001600160a01b03851660248201525f6044808301919091528251808303909101815260649091019091526020810180516001600160e01b031663095ea7b360e01b17905261044b90859061049e565b61039c848261049e565b5f5f5f5f60205f8651602088015f8a5af192503d91505f519050828015610494575081156104865780600114610494565b5f866001600160a01b03163b115b9695505050505050565b5f5f60205f8451602086015f885af1806104bd576040513d5f823e3d81fd5b50505f513d915081156104d45780600114156104e1565b6001600160a01b0384163b155b1561039c57604051635274afe760e01b81526001600160a01b038516600482015260240161010d565b5f5f5f6040848603121561051c575f5ffd5b83356001600160a01b0381168114610532575f5ffd5b9250602084013567ffffffffffffffff81111561054d575f5ffd5b8401601f8101861361055d575f5ffd5b803567ffffffffffffffff811115610573575f5ffd5b866020828401011115610584575f5ffd5b939660209190910195509293505050565b5f602082840312156105a5575f5ffd5b5051919050565b818382375f910190815291905056fea264697066735822122024b79e0e8ad787a3d9372fa489b74bacaa38a30e0b87794cfbd941ed4010f11664736f6c634300081c0033",
  "linkReferences": {},
  "deployedLinkReferences": {},
  "immutableReferences": {
    "657": [
      {
        "length": 32,
        "start": 61
      },
      {
        "length": 32,
        "start": 146
      },
      {
        "length": 32,
        "start": 465
      },
      {
        "length": 32,
        "start": 505
      },
      {
        "length": 32,
        "start": 723
      }
    ]
  },
  "inputSourceName": "project/contracts/smart-account/TokenBridge.sol",
  "buildInfoId": "solc-0_8_28-949e94460af5009e6e5f9120544db8c345ec946c"
}