{
  "_format": "hh3-artifact-1",
  "contractName": "LegacyErc20Portal",
  "sourceName": "contracts/smart-account/LegacyErc20Portal.sol",
  "abi": [
    {
      "inputs": [
        {
          "internalType": "address",
          "name": "token",
          "type": "address"
        }
      ],
      "name": "SafeERC20FailedOperation",
      "type": "error"
    },
    {
      "inputs": [
        {
          "internalType": "address",
          "name": "tokenAddress",
          "type": "address"
        },
        {
          "internalType": "address",
          "name": "portalAddress",
          "type": "address"
        }
      ],
      "name": "shieldFullBalance",
      "outputs": [],
      "stateMutability": "nonpayable",
      "type": "function"
    }
  ],
  "bytecode": "0x6080604052348015600e575f5ffd5b506102ae8061001c5f395ff3fe608060405234801561000f575f5ffd5b5060043610610029575f3560e01c806376aa03131461002d575b5f5ffd5b61004061003b366004610230565b610042565b005b6001600160a01b038216158061007457506001600160a01b03821673eeeeeeeeeeeeeeeeeeeeeeeeeeeeeeeeeeeeeeee145b156100c65760405162461bcd60e51b815260206004820152601b60248201527f43616e277420736869656c64206e617469766520746f6b656e732e000000000060448201526064015b60405180910390fd5b6040516370a0823160e01b815230600482015282905f906001600160a01b038316906370a0823190602401602060405180830381865afa15801561010c573d5f5f3e3d5ffd5b505050506040513d601f19601f820116820180604052508101906101309190610261565b9050801561014c5761014c6001600160a01b0383168483610152565b50505050565b604080516001600160a01b038416602482015260448082018490528251808303909101815260649091019091526020810180516001600160e01b031663a9059cbb60e01b1790526101a49084906101a9565b505050565b5f5f60205f8451602086015f885af1806101c8576040513d5f823e3d81fd5b50505f513d915081156101df5780600114156101ec565b6001600160a01b0384163b155b1561014c57604051635274afe760e01b81526001600160a01b03851660048201526024016100bd565b80356001600160a01b038116811461022b575f5ffd5b919050565b5f5f60408385031215610241575f5ffd5b61024a83610215565b915061025860208401610215565b90509250929050565b5f60208284031215610271575f5ffd5b505191905056fea2646970667358221220a66b352200d9c0ae9a61c2a349822214d0d08d4dcd06c935124c21b8031a023b64736f6c634300081c0033",
  "linkReferences": {},
  "deployedLinkReferences": {},
  "immutableReferences": {},
  "inputSourceName": "project/contracts/smart-account/LegacyErc20Portal.sol",
  "buildInfoId": "solc-0_8_28-9d688d27861cfefec6e3bf0f509038d1d16848f4"
}