{
  "_format": "hh3-artifact-1",
  "contractName": "LegacyPortal",
  "sourceName": "contracts/smart-account/LegacyPortal.sol",
  "abi": [
    {
      "inputs": [
        {
          "internalType": "address",
          "name": "_owner",
          "type": "address"
        }
      ],
      "stateMutability": "nonpayable",
      "type": "constructor"
    },
    {
      "inputs": [],
      "name": "EthTransferFailed",
      "type": "error"
    },
    {
      "inputs": [
        {
          "internalType": "address",
          "name": "token",
          "type": "address"
        }
      ],
      "name": "SafeERC20FailedOperation",
      "type": "error"
    },
    {
      "inputs": [],
      "name": "Unauthorized",
      "type": "error"
    },
    {
      "inputs": [
        {
          "internalType": "address",
          "name": "tokenAddress",
          "type": "address"
        },
        {
          "internalType": "address",
          "name": "portalAddress",
          "type": "address"
        }
      ],
      "name": "shieldFullBalance",
      "outputs": [],
      "stateMutability": "nonpayable",
      "type": "function"
    }
  ],
  "bytecode": "0x60a0604052348015600e575f5ffd5b506040516103a13803806103a1833981016040819052602b91603b565b6001600160a01b03166080526066565b5f60208284031215604a575f5ffd5b81516001600160a01b0381168114605f575f5ffd5b9392505050565b60805161032461007d5f395f604d01526103245ff3fe608060405234801561000f575f5ffd5b5060043610610029575f3560e01c806376aa03131461002d575b5f5ffd5b61004061003b3660046102a6565b610042565b005b336001600160a01b037f0000000000000000000000000000000000000000000000000000000000000000161461008a576040516282b42960e81b815260040160405180910390fd5b6001600160a01b038216158015906100bf57506001600160a01b03821673eeeeeeeeeeeeeeeeeeeeeeeeeeeeeeeeeeeeeeee14155b15610150576040516370a0823160e01b815230600482015282905f906001600160a01b038316906370a0823190602401602060405180830381865afa15801561010a573d5f5f3e3d5ffd5b505050506040513d601f19601f8201168201806040525081019061012e91906102d7565b9050801561014a5761014a6001600160a01b03831684836101cc565b50505050565b4780156101c7575f826001600160a01b0316826040515f6040518083038185875af1925050503d805f81146101a0576040519150601f19603f3d011682016040523d82523d5f602084013e6101a5565b606091505b505090508061014a57604051630db2c7f160e31b815260040160405180910390fd5b505050565b604080516001600160a01b03841660248201526044808201849052825180830390910181526064909101909152602080820180516001600160e01b031663a9059cbb60e01b17815282516101c793879390925f9283929183919082885af18061023a576040513d5f823e3d81fd5b50505f513d9150811561025157806001141561025e565b6001600160a01b0384163b155b1561014a57604051635274afe760e01b81526001600160a01b038516600482015260240160405180910390fd5b80356001600160a01b03811681146102a1575f5ffd5b919050565b5f5f604083850312156102b7575f5ffd5b6102c08361028b565b91506102ce6020840161028b565b90509250929050565b5f602082840312156102e7575f5ffd5b505191905056fea264697066735822122008cdfe2278939225c9e889576deafd5639c68bf096ae682a065350bdbd25ec3d64736f6c634300081c0033",
  "linkReferences": {},
  "deployedLinkReferences": {},
  "immutableReferences": {
    "657": [
      {
        "length": 32,
        "start": 77
      }
    ]
  },
  "inputSourceName": "project/contracts/smart-account/LegacyPortal.sol",
  "buildInfoId": "solc-0_8_28-ca86d1f3a3cfddbecee0a19cd2d75118fd9daa7c"
}