{
  "_format": "hh3-artifact-1",
  "contractName": "PortalFactory",
  "sourceName": "contracts/portal/PortalFactory.sol",
  "abi": [
    {
      "inputs": [
        {
          "internalType": "address",
          "name": "initialOwner",
          "type": "address"
        }
      ],
      "stateMutability": "nonpayable",
      "type": "constructor"
    },
    {
      "inputs": [],
      "name": "DeploymentFailed",
      "type": "error"
    },
    {
      "inputs": [],
      "name": "InvalidLiFiDestinationChain",
      "type": "error"
    },
    {
      "inputs": [],
      "name": "InvalidLiFiReceiver",
      "type": "error"
    },
    {
      "inputs": [
        {
          "internalType": "address",
          "name": "owner",
          "type": "address"
        }
      ],
      "name": "OwnableInvalidOwner",
      "type": "error"
    },
    {
      "inputs": [
        {
          "internalType": "address",
          "name": "account",
          "type": "address"
        }
      ],
      "name": "OwnableUnauthorizedAccount",
      "type": "error"
    },
    {
      "inputs": [],
      "name": "UnsupportedBridging",
      "type": "error"
    },
    {
      "inputs": [],
      "name": "UnsupportedShielding",
      "type": "error"
    },
    {
      "anonymous": false,
      "inputs": [
        {
          "indexed": true,
          "internalType": "address",
          "name": "previousOwner",
          "type": "address"
        },
        {
          "indexed": true,
          "internalType": "address",
          "name": "newOwner",
          "type": "address"
        }
      ],
      "name": "OwnershipTransferred",
      "type": "event"
    },
    {
      "inputs": [
        {
          "internalType": "bytes",
          "name": "bridgeData",
          "type": "bytes"
        },
        {
          "components": [
            {
              "internalType": "uint256",
              "name": "ownerHash",
              "type": "uint256"
            },
            {
              "internalType": "uint256",
              "name": "token",
              "type": "uint256"
            },
            {
              "internalType": "uint256",
              "name": "amount",
              "type": "uint256"
            }
          ],
          "internalType": "struct CurvyTypes.Note",
          "name": "note",
          "type": "tuple"
        },
        {
          "internalType": "address",
          "name": "currency",
          "type": "address"
        },
        {
          "internalType": "address",
          "name": "recovery",
          "type": "address"
        }
      ],
      "name": "deployEntryBridgePortal",
      "outputs": [],
      "stateMutability": "nonpayable",
      "type": "function"
    },
    {
      "inputs": [
        {
          "internalType": "bytes",
          "name": "bridgeData",
          "type": "bytes"
        },
        {
          "internalType": "uint256",
          "name": "amount",
          "type": "uint256"
        },
        {
          "internalType": "address",
          "name": "currency",
          "type": "address"
        },
        {
          "internalType": "address",
          "name": "exitAddress",
          "type": "address"
        },
        {
          "internalType": "uint256",
          "name": "exitChainId",
          "type": "uint256"
        },
        {
          "internalType": "address",
          "name": "recovery",
          "type": "address"
        }
      ],
      "name": "deployExitBridgePortal",
      "outputs": [],
      "stateMutability": "nonpayable",
      "type": "function"
    },
    {
      "inputs": [
        {
          "internalType": "uint256",
          "name": "ownerHash",
          "type": "uint256"
        },
        {
          "internalType": "address",
          "name": "recovery",
          "type": "address"
        },
        {
          "internalType": "address",
          "name": "tokenAddress",
          "type": "address"
        },
        {
          "internalType": "address",
          "name": "to",
          "type": "address"
        }
      ],
      "name": "deployRecoveryEntryPortal",
      "outputs": [],
      "stateMutability": "nonpayable",
      "type": "function"
    },
    {
      "inputs": [
        {
          "internalType": "address",
          "name": "exitAddress",
          "type": "address"
        },
        {
          "internalType": "uint256",
          "name": "exitChainId",
          "type": "uint256"
        },
        {
          "internalType": "address",
          "name": "recovery",
          "type": "address"
        },
        {
          "internalType": "address",
          "name": "tokenAddress",
          "type": "address"
        },
        {
          "internalType": "address",
          "name": "to",
          "type": "address"
        }
      ],
      "name": "deployRecoveryExitPortal",
      "outputs": [],
      "stateMutability": "nonpayable",
      "type": "function"
    },
    {
      "inputs": [
        {
          "components": [
            {
              "internalType": "uint256",
              "name": "ownerHash",
              "type": "uint256"
            },
            {
              "internalType": "uint256",
              "name": "token",
              "type": "uint256"
            },
            {
              "internalType": "uint256",
              "name": "amount",
              "type": "uint256"
            }
          ],
          "internalType": "struct CurvyTypes.Note",
          "name": "note",
          "type": "tuple"
        },
        {
          "internalType": "address",
          "name": "recovery",
          "type": "address"
        }
      ],
      "name": "deployShieldPortal",
      "outputs": [],
      "stateMutability": "payable",
      "type": "function"
    },
    {
      "inputs": [
        {
          "internalType": "uint256",
          "name": "ownerHash",
          "type": "uint256"
        },
        {
          "internalType": "address",
          "name": "exitAddress",
          "type": "address"
        },
        {
          "internalType": "uint256",
          "name": "exitChainId",
          "type": "uint256"
        },
        {
          "internalType": "address",
          "name": "recovery",
          "type": "address"
        }
      ],
      "name": "getCreationCode",
      "outputs": [
        {
          "internalType": "bytes",
          "name": "",
          "type": "bytes"
        }
      ],
      "stateMutability": "pure",
      "type": "function"
    },
    {
      "inputs": [
        {
          "internalType": "uint256",
          "name": "ownerHash",
          "type": "uint256"
        },
        {
          "internalType": "address",
          "name": "recovery",
          "type": "address"
        }
      ],
      "name": "getEntryPortalAddress",
      "outputs": [
        {
          "internalType": "address",
          "name": "",
          "type": "address"
        }
      ],
      "stateMutability": "view",
      "type": "function"
    },
    {
      "inputs": [
        {
          "internalType": "address",
          "name": "exitAddress",
          "type": "address"
        },
        {
          "internalType": "uint256",
          "name": "exitChainId",
          "type": "uint256"
        },
        {
          "internalType": "address",
          "name": "recovery",
          "type": "address"
        }
      ],
      "name": "getExitPortalAddress",
      "outputs": [
        {
          "internalType": "address",
          "name": "",
          "type": "address"
        }
      ],
      "stateMutability": "view",
      "type": "function"
    },
    {
      "inputs": [],
      "name": "owner",
      "outputs": [
        {
          "internalType": "address",
          "name": "",
          "type": "address"
        }
      ],
      "stateMutability": "view",
      "type": "function"
    },
    {
      "inputs": [
        {
          "internalType": "address",
          "name": "portalAddress",
          "type": "address"
        }
      ],
      "name": "portalIsRegistered",
      "outputs": [
        {
          "internalType": "bool",
          "name": "",
          "type": "bool"
        }
      ],
      "stateMutability": "view",
      "type": "function"
    },
    {
      "inputs": [],
      "name": "renounceOwnership",
      "outputs": [],
      "stateMutability": "nonpayable",
      "type": "function"
    },
    {
      "inputs": [
        {
          "internalType": "address",
          "name": "newOwner",
          "type": "address"
        }
      ],
      "name": "transferOwnership",
      "outputs": [],
      "stateMutability": "nonpayable",
      "type": "function"
    },
    {
      "inputs": [
        {
          "internalType": "address",
          "name": "curvyVaultProxyAddress",
          "type": "address"
        },
        {
          "internalType": "address",
          "name": "curvyAggregatorAlphaProxyAddress",
          "type": "address"
        },
        {
          "internalType": "address",
          "name": "lifiDiamondAddress",
          "type": "address"
        }
      ],
      "name": "updateConfig",
      "outputs": [
        {
          "internalType": "bool",
          "name": "",
          "type": "bool"
        }
      ],
      "stateMutability": "nonpayable",
      "type": "function"
    }
  ],
  "bytecode": "0x7f63757276792d706f7274616c2d666163746f72792d73616c740000000000000060a052601960805260b96040527f0c1d487ad400ae94b5e3f681571516a683db363b3743ef8072d065745915e37e60015534801561005c575f5ffd5b5060405161212d38038061212d83398101604081905261007b91610108565b806001600160a01b0381166100a957604051631e4fbdf760e01b81525f600482015260240160405180910390fd5b6100b2816100b9565b5050610135565b5f80546001600160a01b038381166001600160a01b0319831681178455604051919092169283917f8be0079c531659141344cd1fd0a4f28419497f9722a3daafe3b4186f6b6457e09190a35050565b5f60208284031215610118575f5ffd5b81516001600160a01b038116811461012e575f5ffd5b9392505050565b611feb806101425f395ff3fe6080604052600436106100bf575f3560e01c80635e8b95d21161007c5780638da5cb5b116100575780638da5cb5b14610203578063e16ca8951461021f578063eb2347fd1461023e578063f2fde38b14610275575f5ffd5b80635e8b95d21461019957806366e93b8c146101d0578063715018a6146101ef575f5ffd5b80630188ab0f146100c357806303e62121146100f857806307922e191461011957806311c9a94d1461012c5780632b4c74fa1461015b57806353070b551461017a575b5f5ffd5b3480156100ce575f5ffd5b506100e26100dd366004610c58565b610294565b6040516100ef9190610c9f565b60405180910390f35b348015610103575f5ffd5b50610117610112366004610d19565b610323565b005b610117610127366004610e38565b610596565b348015610137575f5ffd5b5061014b610146366004610e6e565b6106c6565b60405190151581526020016100ef565b348015610166575f5ffd5b50610117610175366004610eb6565b61075a565b348015610185575f5ffd5b50610117610194366004610f2e565b610929565b3480156101a4575f5ffd5b506101b86101b3366004610f73565b6109f1565b6040516001600160a01b0390911681526020016100ef565b3480156101db575f5ffd5b506101176101ea366004610f96565b610a47565b3480156101fa575f5ffd5b50610117610b10565b34801561020e575f5ffd5b505f546001600160a01b03166101b8565b34801561022a575f5ffd5b506101b8610239366004610fec565b610b23565b348015610249575f5ffd5b5061014b610258366004611020565b6001600160a01b03165f9081526005602052604090205460ff1690565b348015610280575f5ffd5b5061011761028f366004611020565b610b7a565b60605f604051806020016102a790610c37565b601f1982820381018352601f909101166040818152602082018990526001600160a01b03888116828401526060830188905286166080808401919091528151808403909101815260a08301909152919250610308908390839060c001611059565b60405160208183030381529060405292505050949350505050565b61032b610bbc565b6004546001600160a01b03166103545760405163437f3ac360e01b815260040160405180910390fd5b46820361040b576004805460405163618c776d60e11b81525f926001600160a01b039092169163c318eeda9161038e918c918c910161109d565b60a060405180830381865afa1580156103a9573d5f5f3e3d5ffd5b505050506040513d601f19601f820116820180604052508101906103cd91906110c0565b9050836001600160a01b031681604001516001600160a01b0316146104055760405163523660f760e01b815260040160405180910390fd5b506104dd565b60048054604051637f99d7af60e01b81525f926001600160a01b0390921691637f99d7af9161043e918c918c910161109d565b5f60405180830381865afa158015610458573d5f5f3e3d5ffd5b505050506040513d5f823e601f3d908101601f1916820160405261047f91908101906111e2565b9050836001600160a01b03168160a001516001600160a01b0316146104b75760405163523660f760e01b815260040160405180910390fd5b828160e00151146104db576040516397c91b6960e01b815260040160405180910390fd5b505b5f6104ea5f858585610294565b90505f5f60015490508083516020850134f591506001600160a01b03821661052557604051633011642560e01b815260040160405180910390fd5b6004805460405163a31716bf60e01b81526001600160a01b038086169363a31716bf9361055d939216918f918f918f918f91016112f1565b5f604051808303815f87803b158015610574575f5ffd5b505af1158015610586573d5f5f3e3d5ffd5b5050505050505050505050505050565b61059e610bbc565b6002546001600160a01b031615806105bf57506003546001600160a01b0316155b156105dd576040516389da714f60e01b815260040160405180910390fd5b5f6105ed835f01515f5f85610294565b90505f5f60015490508083516020850134f591506001600160a01b03821661062857604051633011642560e01b815260040160405180910390fd5b6001600160a01b038281165f81815260056020908152604091829020805460ff191660011790556003546002548351631329a1a760e31b81528b516004820152928b01516024840152928a0151604483015284166064820152921660848301529063994d0d389060a4015f604051808303815f87803b1580156106a9575f5ffd5b505af11580156106bb573d5f5f3e3d5ffd5b505050505050505050565b5f6106cf610bbc565b6001600160a01b038416156106fa57600280546001600160a01b0319166001600160a01b0386161790555b6001600160a01b0383161561072557600380546001600160a01b0319166001600160a01b0385161790555b6001600160a01b0382161561075057600480546001600160a01b0319166001600160a01b0384161790555b5060019392505050565b610762610bbc565b6004546001600160a01b031661078b5760405163437f3ac360e01b815260040160405180910390fd5b60048054604051637f99d7af60e01b81525f926001600160a01b0390921691637f99d7af916107be918a918a910161109d565b5f60405180830381865afa1580156107d8573d5f5f3e3d5ffd5b505050506040513d5f823e601f3d908101601f191682016040526107ff91908101906111e2565b905061080e845f0151836109f1565b6001600160a01b03168160a001516001600160a01b0316146108435760405163523660f760e01b815260040160405180910390fd5b61a4b18160e0015114610869576040516397c91b6960e01b815260040160405180910390fd5b5f610879855f01515f5f86610294565b90505f5f60015490508083516020850134f591506001600160a01b0382166108b457604051633011642560e01b815260040160405180910390fd5b600480546040808a0151905163a31716bf60e01b81526001600160a01b038087169463a31716bf946108f1949216928f928f9290918e91016112f1565b5f604051808303815f87803b158015610908575f5ffd5b505af115801561091a573d5f5f3e3d5ffd5b50505050505050505050505050565b5f610936855f5f87610294565b90505f5f60015490508083516020850134f591506001600160a01b03821661097157604051633011642560e01b815260040160405180910390fd5b6001600160a01b038281165f8181526005602052604090819020805460ff1916600117905551631922fddd60e21b8152878316600482015291861660248301529063648bf774906044015f604051808303815f87803b1580156109d2575f5ffd5b505af11580156109e4573d5f5f3e3d5ffd5b5050505050505050505050565b5f5f6109ff845f5f86610294565b90505f60ff60f81b306001548480519060200120604051602001610a269493929190611337565b60408051808303601f19018152919052805160209091012095945050505050565b5f610a545f878787610294565b90505f5f60015490508083516020850134f591506001600160a01b038216610a8f57604051633011642560e01b815260040160405180910390fd5b6001600160a01b038281165f8181526005602052604090819020805460ff1916600117905551631922fddd60e21b8152878316600482015291861660248301529063648bf774906044015f604051808303815f87803b158015610af0575f5ffd5b505af1158015610b02573d5f5f3e3d5ffd5b505050505050505050505050565b610b18610bbc565b610b215f610be8565b565b5f5f610b315f868686610294565b90505f60ff60f81b306001548480519060200120604051602001610b589493929190611337565b60408051808303601f1901815291905280516020909101209695505050505050565b610b82610bbc565b6001600160a01b038116610bb057604051631e4fbdf760e01b81525f60048201526024015b60405180910390fd5b610bb981610be8565b50565b5f546001600160a01b03163314610b215760405163118cdaa760e01b8152336004820152602401610ba7565b5f80546001600160a01b038381166001600160a01b0319831681178455604051919092169283917f8be0079c531659141344cd1fd0a4f28419497f9722a3daafe3b4186f6b6457e09190a35050565b610c458061137183390190565b6001600160a01b0381168114610bb9575f5ffd5b5f5f5f5f60808587031215610c6b575f5ffd5b843593506020850135610c7d81610c44565b9250604085013591506060850135610c9481610c44565b939692955090935050565b602081525f82518060208401528060208501604085015e5f604082850101526040601f19601f83011684010191505092915050565b5f5f83601f840112610ce4575f5ffd5b50813567ffffffffffffffff811115610cfb575f5ffd5b602083019150836020828501011115610d12575f5ffd5b9250929050565b5f5f5f5f5f5f5f60c0888a031215610d2f575f5ffd5b873567ffffffffffffffff811115610d45575f5ffd5b610d518a828b01610cd4565b909850965050602088013594506040880135610d6c81610c44565b93506060880135610d7c81610c44565b92506080880135915060a0880135610d9381610c44565b8091505092959891949750929550565b634e487b7160e01b5f52604160045260245ffd5b604051610140810167ffffffffffffffff81118282101715610ddb57610ddb610da3565b60405290565b5f60608284031215610df1575f5ffd5b6040516060810167ffffffffffffffff81118282101715610e1457610e14610da3565b60409081528335825260208085013590830152928301359281019290925250919050565b5f5f60808385031215610e49575f5ffd5b610e538484610de1565b91506060830135610e6381610c44565b809150509250929050565b5f5f5f60608486031215610e80575f5ffd5b8335610e8b81610c44565b92506020840135610e9b81610c44565b91506040840135610eab81610c44565b809150509250925092565b5f5f5f5f5f60c08688031215610eca575f5ffd5b853567ffffffffffffffff811115610ee0575f5ffd5b610eec88828901610cd4565b9096509450610f0090508760208801610de1565b92506080860135610f1081610c44565b915060a0860135610f2081610c44565b809150509295509295909350565b5f5f5f5f60808587031215610f41575f5ffd5b843593506020850135610f5381610c44565b92506040850135610f6381610c44565b91506060850135610c9481610c44565b5f5f60408385031215610f84575f5ffd5b823591506020830135610e6381610c44565b5f5f5f5f5f60a08688031215610faa575f5ffd5b8535610fb581610c44565b9450602086013593506040860135610fcc81610c44565b92506060860135610fdc81610c44565b91506080860135610f2081610c44565b5f5f5f60608486031215610ffe575f5ffd5b833561100981610c44565b9250602084013591506040840135610eab81610c44565b5f60208284031215611030575f5ffd5b813561103b81610c44565b9392505050565b5f81518060208401855e5f93019283525090919050565b5f61106d6110678386611042565b84611042565b949350505050565b81835281816020850137505f828201602090810191909152601f909101601f19169091010190565b602081525f61106d602083018486611075565b80516110bb81610c44565b919050565b5f60a08284031280156110d1575f5ffd5b5060405160a0810167ffffffffffffffff811182821017156110f5576110f5610da3565b604052825161110381610c44565b815260208381015190820152604083015161111d81610c44565b6040820152606083015161113081610c44565b60608201526080928301519281019290925250919050565b5f82601f830112611157575f5ffd5b815167ffffffffffffffff81111561117157611171610da3565b604051601f8201601f19908116603f0116810167ffffffffffffffff811182821017156111a0576111a0610da3565b6040528181528382016020018510156111b7575f5ffd5b8160208501602083015e5f918101602001919091529392505050565b805180151581146110bb575f5ffd5b5f602082840312156111f2575f5ffd5b815167ffffffffffffffff811115611208575f5ffd5b8201610140818503121561121a575f5ffd5b611222610db7565b81518152602082015167ffffffffffffffff81111561123f575f5ffd5b61124b86828501611148565b602083015250604082015167ffffffffffffffff81111561126a575f5ffd5b61127686828501611148565b604083015250611288606083016110b0565b6060820152611299608083016110b0565b60808201526112aa60a083016110b0565b60a082015260c0828101519082015260e080830151908201526112d061010083016111d3565b6101008201526112e361012083016111d3565b610120820152949350505050565b6001600160a01b03861681526080602082018190525f906113159083018688611075565b6040830194909452506001600160a01b03919091166060909101529392505050565b6001600160f81b031994909416845260609290921b6bffffffffffffffffffffffff19166001840152601583015260358201526055019056fe608060405234801561000f575f5ffd5b50604051610c45380380610c4583398101604081905261002e916100e4565b6001600160a01b0381166100555760405163530a10d160e11b815260040160405180910390fd5b83156001600160a01b03841615148061006f575083158215145b1561008d57604051631d4deb8b60e31b815260040160405180910390fd5b5f93909355600180546001600160a01b039384166001600160a01b03199182161790915560029190915560058054929093169116179055610128565b80516001600160a01b03811681146100df575f5ffd5b919050565b5f5f5f5f608085870312156100f7575f5ffd5b84519350610107602086016100c9565b6040860151909350915061011d606086016100c9565b905092959194509250565b610b10806101355f395ff3fe608060405234801561000f575f5ffd5b5060043610610060575f3560e01c80633fb07027146100645780635dc24ee314610093578063648bf774146100a6578063994d0d38146100bb578063a31716bf146100ce578063ddceafa9146100e1575b5f5ffd5b600454610077906001600160a01b031681565b6040516001600160a01b03909116815260200160405180910390f35b600354610077906001600160a01b031681565b6100b96100b436600461092d565b6100f4565b005b6100b96100c9366004610964565b610296565b6100b96100dc3660046109f4565b6104f4565b600554610077906001600160a01b031681565b6005546001600160a01b0316321461014b5760405162461bcd60e51b8152602060048201526015602482015274506f7274616c3a204f6e6c79207265636f7665727960581b60448201526064015b60405180910390fd5b73eeeeeeeeeeeeeeeeeeeeeeeeeeeeeeeeeeeeeeed196001600160a01b038316016102165760405147905f906001600160a01b0384169083908381818185875af1925050503d805f81146101ba576040519150601f19603f3d011682016040523d82523d5f602084013e6101bf565b606091505b50509050806102105760405162461bcd60e51b815260206004820152601b60248201527f506f7274616c3a20455448207472616e73666572206661696c656400000000006044820152606401610142565b50505050565b6040516370a0823160e01b815230600482015282905f906001600160a01b038316906370a0823190602401602060405180830381865afa15801561025c573d5f5f3e3d5ffd5b505050506040513d601f19601f820116820180604052508101906102809190610a92565b90506102106001600160a01b0383168483610762565b600554600160a01b900460ff16156102ea5760405162461bcd60e51b815260206004820152601760248201527614da5b99db19555cd94e88105b1c9958591e481d5cd959604a1b6044820152606401610142565b5f5483511461030b5760405162cb7dff60e81b815260040160405180910390fd5b600380546001600160a01b038481166001600160a01b0319928316179092556004805492841692909116821781556020850151604051630cf99be760e31b8152918201525f91906367ccdf3890602401602060405180830381865afa158015610376573d5f5f3e3d5ffd5b505050506040513d601f19601f8201168201806040525081019061039a9190610aa9565b90506001600160a01b038116158015906103d157506001600160a01b03811673eeeeeeeeeeeeeeeeeeeeeeeeeeeeeeeeeeeeeeee14155b156104685760035460408501516103f6916001600160a01b03848116929116906107c6565b60035460408051632950527560e21b815286516004820152602087015160248201529086015160448201526001600160a01b039091169063a54149d4906064015f604051808303815f87803b15801561044d575f5ffd5b505af115801561045f573d5f5f3e3d5ffd5b505050506104db565b600354604085810180519151632950527560e21b81528751600482015260208801516024820152905160448201526001600160a01b039092169163a54149d491906064015f604051808303818588803b1580156104c3575f5ffd5b505af11580156104d5573d5f5f3e3d5ffd5b50505050505b50506005805460ff60a01b1916600160a01b1790555050565b600554600160a01b900460ff16156105485760405162461bcd60e51b815260206004820152601760248201527614da5b99db19555cd94e88105b1c9958591e481d5cd959604a1b6044820152606401610142565b6001600160a01b0381161580159061057d57506001600160a01b03811673eeeeeeeeeeeeeeeeeeeeeeeeeeeeeeeeeeeeeeee14155b156106a6576040516370a0823160e01b815230600482015281905f906001600160a01b038316906370a0823190602401602060405180830381865afa1580156105c8573d5f5f3e3d5ffd5b505050506040513d601f19601f820116820180604052508101906105ec9190610a92565b90508381101561060f57604051637bdd7ae760e01b815260040160405180910390fd5b6106236001600160a01b03831688866107c6565b5f876001600160a01b0316878760405161063e929190610acb565b5f604051808303815f865af19150503d805f8114610677576040519150601f19603f3d011682016040523d82523d5f602084013e61067c565b606091505b505090508061069e57604051631bb7daad60e11b815260040160405180910390fd5b505050610748565b47828110156106c857604051637bdd7ae760e01b815260040160405180910390fd5b5f866001600160a01b03168487876040516106e4929190610acb565b5f6040518083038185875af1925050503d805f811461071e576040519150601f19603f3d011682016040523d82523d5f602084013e610723565b606091505b505090508061074557604051631bb7daad60e11b815260040160405180910390fd5b50505b50506005805460ff60a01b1916600160a01b179055505050565b6040516001600160a01b038381166024830152604482018390526107c191859182169063a9059cbb906064015b604051602081830303815290604052915060e01b6020820180516001600160e01b038381831617835250505050610851565b505050565b604080516001600160a01b038416602482015260448082018490528251808303909101815260649091019091526020810180516001600160e01b031663095ea7b360e01b17905261081784826108bd565b610210576040516001600160a01b0384811660248301525f604483015261084b91869182169063095ea7b39060640161078f565b61021084825b5f5f60205f8451602086015f885af180610870576040513d5f823e3d81fd5b50505f513d91508115610887578060011415610894565b6001600160a01b0384163b155b1561021057604051635274afe760e01b81526001600160a01b0385166004820152602401610142565b5f5f5f5f60205f8651602088015f8a5af192503d91505f5190508280156108fc575081156108ee57806001146108fc565b5f866001600160a01b03163b115b9695505050505050565b6001600160a01b038116811461091a575f5ffd5b50565b803561092881610906565b919050565b5f5f6040838503121561093e575f5ffd5b823561094981610906565b9150602083013561095981610906565b809150509250929050565b5f5f5f83850360a0811215610977575f5ffd5b6060811215610984575f5ffd5b506040516060810181811067ffffffffffffffff821117156109b457634e487b7160e01b5f52604160045260245ffd5b60409081528535825260208087013590830152858101359082015292506109dd6060850161091d565b91506109eb6080850161091d565b90509250925092565b5f5f5f5f5f60808688031215610a08575f5ffd5b8535610a1381610906565b9450602086013567ffffffffffffffff811115610a2e575f5ffd5b8601601f81018813610a3e575f5ffd5b803567ffffffffffffffff811115610a54575f5ffd5b886020828401011115610a65575f5ffd5b60209190910194509250604086013591506060860135610a8481610906565b809150509295509295909350565b5f60208284031215610aa2575f5ffd5b5051919050565b5f60208284031215610ab9575f5ffd5b8151610ac481610906565b9392505050565b818382375f910190815291905056fea2646970667358221220ef2e672beab9ba98f9b823dbdb9af01f97da0fa3990b47d9b0e59fb3a69f47f564736f6c634300081c0033a26469706673582212209854182f801a045a51ac069111210413cd09baa8e9327e764df6ff98d9ee555164736f6c634300081c0033",
  "linkReferences": {},
  "deployedLinkReferences": {},
  "immutableReferences": {},
  "inputSourceName": "project/contracts/portal/PortalFactory.sol",
  "buildInfoId": "solc-0_8_28-02c89a10ce84bfd919b3eb8326f5333acc22273e"
}