{
  "_format": "hh3-artifact-1",
  "contractName": "PortalFactory",
  "sourceName": "contracts/portal/PortalFactory.sol",
  "abi": [
    {
      "inputs": [
        {
          "internalType": "address",
          "name": "initialOwner",
          "type": "address"
        }
      ],
      "stateMutability": "nonpayable",
      "type": "constructor"
    },
    {
      "inputs": [
        {
          "internalType": "address",
          "name": "owner",
          "type": "address"
        }
      ],
      "name": "OwnableInvalidOwner",
      "type": "error"
    },
    {
      "inputs": [
        {
          "internalType": "address",
          "name": "account",
          "type": "address"
        }
      ],
      "name": "OwnableUnauthorizedAccount",
      "type": "error"
    },
    {
      "anonymous": false,
      "inputs": [
        {
          "indexed": true,
          "internalType": "address",
          "name": "previousOwner",
          "type": "address"
        },
        {
          "indexed": true,
          "internalType": "address",
          "name": "newOwner",
          "type": "address"
        }
      ],
      "name": "OwnershipTransferred",
      "type": "event"
    },
    {
      "inputs": [
        {
          "internalType": "bytes",
          "name": "bridgeData",
          "type": "bytes"
        },
        {
          "components": [
            {
              "internalType": "uint256",
              "name": "ownerHash",
              "type": "uint256"
            },
            {
              "internalType": "uint256",
              "name": "token",
              "type": "uint256"
            },
            {
              "internalType": "uint256",
              "name": "amount",
              "type": "uint256"
            }
          ],
          "internalType": "struct CurvyTypes.Note",
          "name": "note",
          "type": "tuple"
        },
        {
          "internalType": "address",
          "name": "tokenAddress",
          "type": "address"
        },
        {
          "internalType": "address",
          "name": "recovery",
          "type": "address"
        }
      ],
      "name": "deployAndBridge",
      "outputs": [],
      "stateMutability": "nonpayable",
      "type": "function"
    },
    {
      "inputs": [
        {
          "components": [
            {
              "internalType": "uint256",
              "name": "ownerHash",
              "type": "uint256"
            },
            {
              "internalType": "uint256",
              "name": "token",
              "type": "uint256"
            },
            {
              "internalType": "uint256",
              "name": "amount",
              "type": "uint256"
            }
          ],
          "internalType": "struct CurvyTypes.Note",
          "name": "note",
          "type": "tuple"
        },
        {
          "internalType": "address",
          "name": "recovery",
          "type": "address"
        }
      ],
      "name": "deployAndShield",
      "outputs": [],
      "stateMutability": "payable",
      "type": "function"
    },
    {
      "inputs": [
        {
          "internalType": "uint256",
          "name": "ownerHash",
          "type": "uint256"
        },
        {
          "internalType": "address",
          "name": "recovery",
          "type": "address"
        }
      ],
      "name": "getCreationCode",
      "outputs": [
        {
          "internalType": "bytes",
          "name": "",
          "type": "bytes"
        }
      ],
      "stateMutability": "pure",
      "type": "function"
    },
    {
      "inputs": [
        {
          "internalType": "uint256",
          "name": "ownerHash",
          "type": "uint256"
        },
        {
          "internalType": "address",
          "name": "recovery",
          "type": "address"
        }
      ],
      "name": "getPortalAddress",
      "outputs": [
        {
          "internalType": "address",
          "name": "",
          "type": "address"
        }
      ],
      "stateMutability": "view",
      "type": "function"
    },
    {
      "inputs": [],
      "name": "owner",
      "outputs": [
        {
          "internalType": "address",
          "name": "",
          "type": "address"
        }
      ],
      "stateMutability": "view",
      "type": "function"
    },
    {
      "inputs": [
        {
          "internalType": "address",
          "name": "portalAddress",
          "type": "address"
        }
      ],
      "name": "portalIsRegistered",
      "outputs": [
        {
          "internalType": "bool",
          "name": "",
          "type": "bool"
        }
      ],
      "stateMutability": "view",
      "type": "function"
    },
    {
      "inputs": [],
      "name": "renounceOwnership",
      "outputs": [],
      "stateMutability": "nonpayable",
      "type": "function"
    },
    {
      "inputs": [
        {
          "internalType": "address",
          "name": "newOwner",
          "type": "address"
        }
      ],
      "name": "transferOwnership",
      "outputs": [],
      "stateMutability": "nonpayable",
      "type": "function"
    },
    {
      "inputs": [
        {
          "internalType": "address",
          "name": "curvyVaultProxyAddress",
          "type": "address"
        },
        {
          "internalType": "address",
          "name": "curvyAggregatorAlphaProxyAddress",
          "type": "address"
        },
        {
          "internalType": "address",
          "name": "lifiDiamondAddress",
          "type": "address"
        }
      ],
      "name": "updateConfig",
      "outputs": [
        {
          "internalType": "bool",
          "name": "",
          "type": "bool"
        }
      ],
      "stateMutability": "nonpayable",
      "type": "function"
    }
  ],
  "bytecode": "0x7f63757276792d706f7274616c2d666163746f72792d73616c740000000000000060a052601960805260b96040527f0c1d487ad400ae94b5e3f681571516a683db363b3743ef8072d065745915e37e60015534801561005c575f5ffd5b506040516116f53803806116f583398101604081905261007b91610108565b806001600160a01b0381166100a957604051631e4fbdf760e01b81525f600482015260240160405180910390fd5b6100b2816100b9565b5050610135565b5f80546001600160a01b038381166001600160a01b0319831681178455604051919092169283917f8be0079c531659141344cd1fd0a4f28419497f9722a3daafe3b4186f6b6457e09190a35050565b5f60208284031215610118575f5ffd5b81516001600160a01b038116811461012e575f5ffd5b9392505050565b6115b3806101425f395ff3fe608060405260043610610084575f3560e01c80638da5cb5b116100575780638da5cb5b14610111578063d465ea5814610141578063eb2347fd14610160578063efc44aa614610197578063f2fde38b146101b6575f5ffd5b806311c9a94d1461008857806343398648146100bc578063485907d8146100e8578063715018a6146100fd575b5f5ffd5b348015610093575f5ffd5b506100a76100a2366004610746565b6101d5565b60405190151581526020015b60405180910390f35b3480156100c7575f5ffd5b506100db6100d6366004610786565b610269565b6040516100b391906107b0565b6100fb6100f6366004610848565b6102e2565b005b348015610108575f5ffd5b506100fb610488565b34801561011c575f5ffd5b505f546001600160a01b03165b6040516001600160a01b0390911681526020016100b3565b34801561014c575f5ffd5b5061012961015b366004610786565b61049b565b34801561016b575f5ffd5b506100a761017a366004610871565b6001600160a01b03165f9081526005602052604090205460ff1690565b3480156101a2575f5ffd5b506100fb6101b1366004610891565b61050b565b3480156101c1575f5ffd5b506100fb6101d0366004610871565b610666565b5f6101de6106a3565b6001600160a01b0384161561020957600280546001600160a01b0319166001600160a01b0386161790555b6001600160a01b0383161561023457600380546001600160a01b0319166001600160a01b0385161790555b6001600160a01b0382161561025f57600480546001600160a01b0319166001600160a01b0384161790555b5060019392505050565b60605f6040518060200161027c9061071e565b601f1982820381018352601f909101166040818152602082018790526001600160a01b03861681830152805180830382018152606083019091529192506102c99083908390608001610947565b6040516020818303038152906040529250505092915050565b6002546001600160a01b0316158061030357506003546001600160a01b0316155b156103725760405162461bcd60e51b815260206004820152603460248201527f506f7274616c466163746f72793a20536869656c64696e67206e6f74207375706044820152733837b93a32b21037b7103a3434b99031b430b4b760611b60648201526084015b60405180910390fd5b5f610380835f015183610269565b90505f5f60015490508083516020850134f591506001600160a01b0382166103ea5760405162461bcd60e51b815260206004820181905260248201527f506f7274616c466163746f72793a204465706c6f796d656e74206661696c65646044820152606401610369565b6001600160a01b038281165f81815260056020908152604091829020805460ff191660011790556003546002548351631329a1a760e31b81528b516004820152928b01516024840152928a0151604483015284166064820152921660848301529063994d0d389060a4015f604051808303815f87803b15801561046b575f5ffd5b505af115801561047d573d5f5f3e3d5ffd5b505050505050505050565b6104906106a3565b6104995f6106cf565b565b5f5f6104a78484610269565b6001548151602092830120604080516001600160f81b0319818601523060601b6bffffffffffffffffffffffff1916602182015260358101939093526055808401929092528051808403909201825260759092019091528051910120949350505050565b6004546001600160a01b031661057f5760405162461bcd60e51b815260206004820152603360248201527f506f7274616c466163746f72793a204272696467696e67206e6f74207375707060448201527237b93a32b21037b7103a3434b99031b430b4b760691b6064820152608401610369565b5f61058d845f015183610269565b90505f5f60015490508083516020850134f591506001600160a01b0382166105f75760405162461bcd60e51b815260206004820181905260248201527f506f7274616c466163746f72793a204465706c6f796d656e74206661696c65646044820152606401610369565b60048054604051632f35b11d60e21b81526001600160a01b038086169363bcd6c4749361062f939216918d918d918d918d9101610963565b5f604051808303815f87803b158015610646575f5ffd5b505af1158015610658573d5f5f3e3d5ffd5b505050505050505050505050565b61066e6106a3565b6001600160a01b03811661069757604051631e4fbdf760e01b81525f6004820152602401610369565b6106a0816106cf565b50565b5f546001600160a01b031633146104995760405163118cdaa760e01b8152336004820152602401610369565b5f80546001600160a01b038381166001600160a01b0319831681178455604051919092169283917f8be0079c531659141344cd1fd0a4f28419497f9722a3daafe3b4186f6b6457e09190a35050565b610ba5806109d983390190565b80356001600160a01b0381168114610741575f5ffd5b919050565b5f5f5f60608486031215610758575f5ffd5b6107618461072b565b925061076f6020850161072b565b915061077d6040850161072b565b90509250925092565b5f5f60408385031215610797575f5ffd5b823591506107a76020840161072b565b90509250929050565b602081525f82518060208401528060208501604085015e5f604082850101526040601f19601f83011684010191505092915050565b5f606082840312156107f5575f5ffd5b6040516060810181811067ffffffffffffffff8211171561082457634e487b7160e01b5f52604160045260245ffd5b60409081528335825260208085013590830152928301359281019290925250919050565b5f5f60808385031215610859575f5ffd5b61086384846107e5565b91506107a76060840161072b565b5f60208284031215610881575f5ffd5b61088a8261072b565b9392505050565b5f5f5f5f5f60c086880312156108a5575f5ffd5b853567ffffffffffffffff8111156108bb575f5ffd5b8601601f810188136108cb575f5ffd5b803567ffffffffffffffff8111156108e1575f5ffd5b8860208284010111156108f2575f5ffd5b60209182019650945061090890889088016107e5565b92506109166080870161072b565b915061092460a0870161072b565b90509295509295909350565b5f81518060208401855e5f93019283525090919050565b5f61095b6109558386610930565b84610930565b949350505050565b6001600160a01b038616815260c0602082018190528101849052838560e08301375f60e085830101525f60e0601f19601f87011683010190506109bd60408301858051825260208082015190830152604090810151910152565b6001600160a01b039290921660a0919091015294935050505056fe6080604052348015600e575f5ffd5b50604051610ba5380380610ba5833981016040819052602b916054565b600191909155600480546001600160a01b0319166001600160a01b03909216919091179055608c565b5f5f604083850312156064575f5ffd5b825160208401519092506001600160a01b03811681146081575f5ffd5b809150509250929050565b610b0c806100995f395ff3fe608060405234801561000f575f5ffd5b5060043610610060575f3560e01c80633fb07027146100645780635dc24ee314610093578063648bf774146100a6578063994d0d38146100bb578063bcd6c474146100ce578063ddceafa9146100e1575b5f5ffd5b600354610077906001600160a01b031681565b6040516001600160a01b03909116815260200160405180910390f35b600254610077906001600160a01b031681565b6100b96100b4366004610907565b6100f4565b005b6100b96100c93660046109a1565b61029b565b6100b96100dc3660046109e8565b61053a565b600454610077906001600160a01b031681565b6004546001600160a01b0316331461014b5760405162461bcd60e51b8152602060048201526015602482015274506f7274616c3a204f6e6c79207265636f7665727960581b60448201526064015b60405180910390fd5b6040516370a0823160e01b815230600482015282905f906001600160a01b038316906370a0823190602401602060405180830381865afa158015610191573d5f5f3e3d5ffd5b505050506040513d601f19601f820116820180604052508101906101b59190610a8e565b905073eeeeeeeeeeeeeeeeeeeeeeeeeeeeeeeeeeeeeeed196001600160a01b03851601610281575f836001600160a01b0316826040515f6040518083038185875af1925050503d805f8114610225576040519150601f19603f3d011682016040523d82523d5f602084013e61022a565b606091505b505090508061027b5760405162461bcd60e51b815260206004820152601b60248201527f506f7274616c3a20455448207472616e73666572206661696c656400000000006044820152606401610142565b50610295565b6102956001600160a01b038316848361074c565b50505050565b5f5460ff16156102e75760405162461bcd60e51b815260206004820152601760248201527614da5b99db19555cd94e88105b1c9958591e481d5cd959604a1b6044820152606401610142565b6001548351146103395760405162461bcd60e51b815260206004820152601a60248201527f506f7274616c3a20496e76616c6964206f776e657220686173680000000000006044820152606401610142565b600280546001600160a01b038085166001600160a01b0319928316179092556003805492841692909116821790556020840151604051630cf99be760e31b81525f92916367ccdf3891610393919060040190815260200190565b602060405180830381865afa9250505080156103cc575060408051601f3d908101601f191682019092526103c991810190610aa5565b60015b6103d65750610529565b90506001600160a01b0381161580159061040d57506001600160a01b03811673eeeeeeeeeeeeeeeeeeeeeeeeeeeeeeeeeeeeeeee14155b156104ac576002546040850151610432916001600160a01b03848116929116906107b0565b600254604080516347107fdb60e01b815286516004820152602087015160248201529086015160448201526001600160a01b038381166064830152909116906347107fdb906084015f604051808303815f87803b158015610491575f5ffd5b505af11580156104a3573d5f5f3e3d5ffd5b50505050610527565b6002546040858101805191516347107fdb60e01b81528751600482015260208801516024820152905160448201526001600160a01b038481166064830152909216916347107fdb91906084015f604051808303818588803b15801561050f575f5ffd5b505af1158015610521573d5f5f3e3d5ffd5b50505050505b505b50505f805460ff1916600117905550565b5f5460ff16156105865760405162461bcd60e51b815260206004820152601760248201527614da5b99db19555cd94e88105b1c9958591e481d5cd959604a1b6044820152606401610142565b6001600160a01b0385166105dc5760405162461bcd60e51b815260206004820152601d60248201527f506f7274616c3a20496e76616c6964204c492e464920616464726573730000006044820152606401610142565b60015482511461062e5760405162461bcd60e51b815260206004820152601a60248201527f506f7274616c3a20496e76616c6964206f776e657220686173680000000000006044820152606401610142565b60408201516001600160a01b0382161580159061066857506001600160a01b03821673eeeeeeeeeeeeeeeeeeeeeeeeeeeeeeeeeeeeeeee14155b1561068b576040830151610688906001600160a01b0384169088906107b0565b505f5b5f866001600160a01b03168287876040516106a7929190610ac7565b5f6040518083038185875af1925050503d805f81146106e1576040519150601f19603f3d011682016040523d82523d5f602084013e6106e6565b606091505b50509050806107375760405162461bcd60e51b815260206004820152601a60248201527f506f7274616c3a204272696467652063616c6c206661696c65640000000000006044820152606401610142565b50505f805460ff191660011790555050505050565b6040516001600160a01b038381166024830152604482018390526107ab91859182169063a9059cbb906064015b604051602081830303815290604052915060e01b6020820180516001600160e01b03838183161783525050505061083b565b505050565b604080516001600160a01b038416602482015260448082018490528251808303909101815260649091019091526020810180516001600160e01b031663095ea7b360e01b17905261080184826108a7565b610295576040516001600160a01b0384811660248301525f604483015261083591869182169063095ea7b390606401610779565b61029584825b5f5f60205f8451602086015f885af18061085a576040513d5f823e3d81fd5b50505f513d9150811561087157806001141561087e565b6001600160a01b0384163b155b1561029557604051635274afe760e01b81526001600160a01b0385166004820152602401610142565b5f5f5f5f60205f8651602088015f8a5af192503d91505f5190508280156108e6575081156108d857806001146108e6565b5f866001600160a01b03163b115b9695505050505050565b6001600160a01b0381168114610904575f5ffd5b50565b5f5f60408385031215610918575f5ffd5b8235610923816108f0565b91506020830135610933816108f0565b809150509250929050565b5f6060828403121561094e575f5ffd5b6040516060810181811067ffffffffffffffff8211171561097d57634e487b7160e01b5f52604160045260245ffd5b60409081528335825260208085013590830152928301359281019290925250919050565b5f5f5f60a084860312156109b3575f5ffd5b6109bd858561093e565b925060608401356109cd816108f0565b915060808401356109dd816108f0565b809150509250925092565b5f5f5f5f5f60c086880312156109fc575f5ffd5b8535610a07816108f0565b9450602086013567ffffffffffffffff811115610a22575f5ffd5b8601601f81018813610a32575f5ffd5b803567ffffffffffffffff811115610a48575f5ffd5b886020828401011115610a59575f5ffd5b60209190910194509250610a70876040880161093e565b915060a0860135610a80816108f0565b809150509295509295909350565b5f60208284031215610a9e575f5ffd5b5051919050565b5f60208284031215610ab5575f5ffd5b8151610ac0816108f0565b9392505050565b818382375f910190815291905056fea26469706673582212200677e810e640b82fed76ef98237f02703718e4b25f445a1aedeff44aa168149764736f6c634300081c0033a2646970667358221220af126a8505dd55d3a0ad5c57106b12855ee8c7d04f3f2d4c62190d0289d7312764736f6c634300081c0033",
  "linkReferences": {},
  "deployedLinkReferences": {},
  "immutableReferences": {},
  "inputSourceName": "project/contracts/portal/PortalFactory.sol",
  "buildInfoId": "solc-0_8_28-8a0f79db238dc98fa368fe6d6e935f28d91fbda4"
}