{
  "_format": "hh3-artifact-1",
  "contractName": "CurvyWithdrawVerifierAlpha_2_2",
  "sourceName": "contracts/aggregator-alpha/verifiers/CurvyWithdrawVerifierAlpha_2_2.sol",
  "abi": [
    {
      "inputs": [
        {
          "internalType": "uint256[2]",
          "name": "_pA",
          "type": "uint256[2]"
        },
        {
          "internalType": "uint256[2][2]",
          "name": "_pB",
          "type": "uint256[2][2]"
        },
        {
          "internalType": "uint256[2]",
          "name": "_pC",
          "type": "uint256[2]"
        },
        {
          "internalType": "uint256[10]",
          "name": "_pubSignals",
          "type": "uint256[10]"
        }
      ],
      "name": "verifyProof",
      "outputs": [
        {
          "internalType": "bool",
          "name": "",
          "type": "bool"
        }
      ],
      "stateMutability": "view",
      "type": "function"
    }
  ],
  "bytecode": "0x6080604052348015600e575f5ffd5b506108918061001c5f395ff3fe608060405234801561000f575f5ffd5b5060043610610029575f3560e01c8063f3bb70f61461002d575b5f5ffd5b61004061003b3660046107f9565b610054565b604051901515815260200160405180910390f35b5f61073e565b7f30644e72e131a029b85045b68181585d2833e84879b9709143e1f593f00000018110610089575f5f5260205ff35b50565b5f60405183815284602082015285604082015260408160608360076107d05a03fa9150816100bc575f5f5260205ff35b825160408201526020830151606082015260408360808360066107d05a03fa915050806100eb575f5f5260205ff35b5050505050565b7f1a75f14b8b1faa4b851f07b25985339af1f9563cb229396803fd379fead2bd7385527f0b5b03df8219c60d5be03ad52394f3d6330cf3e7cea9e656bc22982dd15cbadc60208601525f608086018661018e87357f05f00c0d109f87a8cf18b9d3052caae6027871b0d6fea2f54ca225891e16b0607f0d35ddf8253fb232d095057744ccb6f9d5887bee97ea61f885d511934169bcf08461008c565b6101de60208801357f2a60d3a69ccee567e2b57a0a42bcf19ba0d2335ceb81a2dcb71439314fea13857f2f70a47844f43803cbb4ce9a69cd5b3db4647da90f325d2ef456abea72d0bfe08461008c565b61022e60408801357f0f18cbcd1cbf7d154a35393c17382058e4b30517ab8be123af7d1951c671d4697f26cfb6e0961b50d6d1f534baef948730bec2a603ebf189eaaf72036e2a4d2fe68461008c565b61027e60608801357f033ae488254843311cd5bb9676251b2c80852d467355d37f443e17d049a503267f27e5a68de42fcbcbadd940c39e2013830c75dbb9ad6714cb768ba7d14af9421a8461008c565b6102ce60808801357f28120958d688c8a0d58372b242df5ec1c75aa124ab6f19c90c4b76b81057fd297f11c4be0f98ac33b680d4607a898dc72cdfc6d9946943b3e9f0080fe825263a5d8461008c565b61031e60a08801357f037d488c8ba35a919f4cfd44b1a9be07a0ca1ea689695c6b238ad364c47bbf7a7f2dd63748d624fd0124f265891b52eeb7d5565727b674658be4378d6e5b46be308461008c565b61036e60c08801357f2297bda45459480a6a488bd3386537b38ae11ffecb6beaec43e291d33dd2f8947f1d7c255c5e9cfa6d8457dc20e4af90332c6550fa6bea6ac80b2fcae91e31fb658461008c565b6103be60e08801357f1c564b05c0c5fc1db338de776a71a9b6408e0f1062ee5eec1ead8fe1fb68f0317f085c76b320e78e8fc1c30cd9a86ee083c737af478c344a985ff23109398c4e768461008c565b61040f6101008801357f0f6d3858a35815b73d414424416d4e35babb3e0141641fb6f11c5899b96ff6ce7f0678620b35e9ade6b5807cf7ccd5210ae099894132f0bff6345ba129e944dd3d8461008c565b6104606101208801357f2ef17308df02f12bcd04a63c4f9642e6a21bbfecd79bc266d9278cba32c0b7f47f1e5b526c2f7dbd765611c3117d2aa8924597b68d5b8d3654c375174d6affa8998461008c565b50823581527f30644e72e131a029b85045b68181585d97816a916871ca8d3c208c16d87cfd4760208401357f30644e72e131a029b85045b68181585d97816a916871ca8d3c208c16d87cfd4703066020820152833560408201526020840135606082015260408401356080820152606084013560a08201527f1b68e8d4e2bf2e13e0f6fb9437ef2cd6955656f0f56896e6376454cfd801e7e260c08201527f234642e9dfbcd3e1858480459a71761590651c90d7887f90eb0f083975e75c4c60e08201527f0a13c1684beced0b4b14cca45263d7f348131eba4b263892d78139af2c13fbc96101008201527f013e77e79777b70b6608e3221c8c3894b4c505cb787e5f479c8ee8c5c37d40346101208201527f2d4cc855cc431552ff1d8f27d0660e5364cdbf9be3cdc40b17c50b5c802a47116101408201527f01012bb61356f56aeb7aa0f95e3d0228cb81b445790d67d9f990815967fdd7ef6101608201525f87015161018082015260205f018701516101a08201527f198e9393920d483a7260bfb731fb5d25f1aa493335a9e71297e485b7aef312c26101c08201527f1800deef121f1e76426a00665e5c4479674322d4f75edadd46debd5cd992f6ed6101e08201527f090689d0585ff075ec9e99ad690c3395bc4b313370b38ef355acdadcd122975b6102008201527f12c85ea5db8c6deb4aab71808dcb408fe3d1e7690c43d37b4ce6cc0166fa7daa610220820152843561024082015260208501356102608201527f044bacd3d9b251fa2cdcb89c1e71c78d2d0ff824d43403d616a47c804c0469696102808201527f297536676d7cec34d41955f24cc5034a5b79d92b20c48c6d8073bc32016612396102a08201527f0281d22ffce2cf0ca8b4109517cf30ceed20be4d2ed307fda036ad8ef5e12df26102c08201527f1ffe72c016746c242459c1973b77d50d6415bb22ce31c61ee504c42c65b3d33c6102e08201526020816103008360086107d05a03fa9051169695505050505050565b60405161038081016040526107555f84013561005a565b610762602084013561005a565b61076f604084013561005a565b61077c606084013561005a565b610789608084013561005a565b61079660a084013561005a565b6107a360c084013561005a565b6107b060e084013561005a565b6107be61010084013561005a565b6107cc61012084013561005a565b6107d9818486888a6100f2565b9050805f5260205ff35b80604081018310156107f3575f5ffd5b92915050565b5f5f5f5f610240858703121561080d575f5ffd5b61081786866107e3565b935060c0850186811115610829575f5ffd5b60408601935061083987826107e3565b925050856102408601111561084c575f5ffd5b5091949093509091610100019056fea2646970667358221220703faca2770b9c9f7e9a23c6d18d7c741c60c3262a4a3449160cfe04d5d9618164736f6c634300081c0033",
  "linkReferences": {},
  "deployedLinkReferences": {},
  "immutableReferences": {},
  "inputSourceName": "project/contracts/aggregator-alpha/verifiers/CurvyWithdrawVerifierAlpha_2_2.sol",
  "buildInfoId": "solc-0_8_28-c51f113f1e5f157faefe3ac7636c971eb6508139"
}