{
  "_format": "hh3-artifact-1",
  "contractName": "CurvyWithdrawVerifierAlpha_2_2_30",
  "sourceName": "contracts/aggregator-alpha/verifiers/CurvyWithdrawVerifierAlpha_2_2_30.sol",
  "abi": [
    {
      "inputs": [
        {
          "internalType": "uint256[2]",
          "name": "_pA",
          "type": "uint256[2]"
        },
        {
          "internalType": "uint256[2][2]",
          "name": "_pB",
          "type": "uint256[2][2]"
        },
        {
          "internalType": "uint256[2]",
          "name": "_pC",
          "type": "uint256[2]"
        },
        {
          "internalType": "uint256[9]",
          "name": "_pubSignals",
          "type": "uint256[9]"
        }
      ],
      "name": "verifyProof",
      "outputs": [
        {
          "internalType": "bool",
          "name": "",
          "type": "bool"
        }
      ],
      "stateMutability": "view",
      "type": "function"
    }
  ],
  "bytecode": "0x6080604052348015600e575f5ffd5b506108328061001c5f395ff3fe608060405234801561000f575f5ffd5b5060043610610029575f3560e01c8063c542c93b1461002d575b5f5ffd5b61004061003b36600461079a565b610054565b604051901515815260200160405180910390f35b5f6106ed565b7f30644e72e131a029b85045b68181585d2833e84879b9709143e1f593f00000018110610089575f5f5260205ff35b50565b5f60405183815284602082015285604082015260408160608360076107d05a03fa9150816100bc575f5f5260205ff35b825160408201526020830151606082015260408360808360066107d05a03fa915050806100eb575f5f5260205ff35b5050505050565b7f03760d22d9f2d34545c9e1914bb1ce7a6044769221030d98d87baf999cce726d85527f156ecf9f5c2610839d6d385378a656c0efd32e94a04ebc9c7089f4fe125b838260208601525f608086018661018e87357f2b2c117485e91a1ea632fe27385f77f9331e1db2672e42e9c86a2f802d6f4a577f022aa120b95ee1b256867106394adb6006f30068c06b3ea2e7a6a5bd396d32b88461008c565b6101de60208801357f190133b406f620e57f93dac97d795ee3e6c1cd5c1380ff8efa9bb5ae36eb6f027f201b5a5bcdd373439d8e242f31c140092f2e5e54fd22a0cd50775e373802199e8461008c565b61022e60408801357f1dacf0b93a0b74bacc711d37c038bc8c83ade754b2ce6b8d14bdab54c5267fcf7f27793f520413175bff070cb1cf2a66e303cb460fc50eae4788cc70e37947189e8461008c565b61027e60608801357f20c614098c5807d4d609bcda798ec95ffb84ea0fc6b97e2383149f4797c4071c7f1fcbb72508f88430df9f833ac15e753e438b391af9ded7d805815264fb92b9a18461008c565b6102ce60808801357f0f412826e324f04afe142e271f643cfd1191362dbd52c4ab1027b6dc5f4505197f251f4cfcfa4754144730a6dc064fe7159ceceaa24682c33fa9ec26df30314a098461008c565b61031e60a08801357f0a87b48bf8cd64b224ef5e524ccc422db4d1a2ddc4c6a52bf1354155dbfaca107f11ba886ae51f5da62f1ef74ebc2d941ffe1c84c0cc86a039eea59d753cf737e58461008c565b61036e60c08801357f0eb0f1a445dc5bdf6debee9f4b65306030a8c1c70c87aa910f111314550ff7ca7f0497eac083a6ae9671da1e9e67b4d81eb1890f772f559945e8db07f731b89b948461008c565b6103be60e08801357f27d71145b77c48dc3f37b04048a4952390eff92adf283803d939a5ef357469fa7f2f1d2ecb7da3238e91f60101a82f95a2a0cf3f18513a3efea2ef960e0f1b05038461008c565b61040f6101008801357f1232a2dd4a7f2a4eb7706e0ef2ac142d17bdd99c74cac407523c83ae2c0b14bf7f3013a3053bd7992674a30da3c9e0d99c8b16d930ea2986caa9428a2b843bcf9e8461008c565b50823581527f30644e72e131a029b85045b68181585d97816a916871ca8d3c208c16d87cfd4760208401357f30644e72e131a029b85045b68181585d97816a916871ca8d3c208c16d87cfd4703066020820152833560408201526020840135606082015260408401356080820152606084013560a08201527f1e16c25ab763d8d1477730a7d1ccef12a682cea336a50d06e8fbf5c6179e17d460c08201527f075447418c2d22c69113fa9cdfa0d27ef53317ffdee3259adcd492ba271bc6d460e08201527f2cc1fb86ad7b8be8587556a4b94dc9e84e3b8666d59c51208ee844733934e6696101008201527f27d109e11d2b06dc95900781efaa5ef1fc6dfbdb31e61283628e962fd17fe8c16101208201527f2f8043381982846eac492d6f3a1d39a682c65bfa8dd02e323e7a95df562cf9c96101408201527f29b9eff97456a285bf27898a846691a82071d53474301e1ca6b49892eb4499a56101608201525f87015161018082015260205f018701516101a08201527f198e9393920d483a7260bfb731fb5d25f1aa493335a9e71297e485b7aef312c26101c08201527f1800deef121f1e76426a00665e5c4479674322d4f75edadd46debd5cd992f6ed6101e08201527f090689d0585ff075ec9e99ad690c3395bc4b313370b38ef355acdadcd122975b6102008201527f12c85ea5db8c6deb4aab71808dcb408fe3d1e7690c43d37b4ce6cc0166fa7daa610220820152843561024082015260208501356102608201527f02eed0745f7d7332ae3ac78bd0254d1d2a4f9c1ce849e2228ea68328f9861bab6102808201527f0a53e8207852cc09b290c2038962e161eb338f5b97cb2e1df58d5d4dd059cbdd6102a08201527f251e2c5b50852e3d17871d61fea2a638e7bd6669af35a7a4239e571588856f356102c08201527f1a01f4782436380d4ee0769723d43073f4888b316a973df0e33004b2ded19df76102e08201526020816103008360086107d05a03fa9051169695505050505050565b60405161038081016040526107045f84013561005a565b610711602084013561005a565b61071e604084013561005a565b61072b606084013561005a565b610738608084013561005a565b61074560a084013561005a565b61075260c084013561005a565b61075f60e084013561005a565b61076d61010084013561005a565b61077a818486888a6100f2565b9050805f5260205ff35b8060408101831015610794575f5ffd5b92915050565b5f5f5f5f61022085870312156107ae575f5ffd5b6107b88686610784565b935060c08501868111156107ca575f5ffd5b6040860193506107da8782610784565b92505085610220860111156107ed575f5ffd5b5091949093509091610100019056fea2646970667358221220aa1cf904b8465ae86135852d29b474903154ff35037e293a5f977b17164b752c64736f6c634300081c0033",
  "linkReferences": {},
  "deployedLinkReferences": {},
  "immutableReferences": {},
  "inputSourceName": "project/contracts/aggregator-alpha/verifiers/CurvyWithdrawVerifierAlpha_2_2_30.sol",
  "buildInfoId": "solc-0_8_28-9683ff00b9d7d43d732f0b3a9ad79b67e865982a"
}