{
  "_format": "hh3-artifact-1",
  "contractName": "PortalFactory",
  "sourceName": "contracts/portal/PortalFactory.sol",
  "abi": [
    {
      "inputs": [
        {
          "internalType": "address",
          "name": "initialOwner",
          "type": "address"
        }
      ],
      "stateMutability": "nonpayable",
      "type": "constructor"
    },
    {
      "inputs": [],
      "name": "DeploymentFailed",
      "type": "error"
    },
    {
      "inputs": [
        {
          "internalType": "address",
          "name": "owner",
          "type": "address"
        }
      ],
      "name": "OwnableInvalidOwner",
      "type": "error"
    },
    {
      "inputs": [
        {
          "internalType": "address",
          "name": "account",
          "type": "address"
        }
      ],
      "name": "OwnableUnauthorizedAccount",
      "type": "error"
    },
    {
      "inputs": [],
      "name": "UnsupportedBridging",
      "type": "error"
    },
    {
      "inputs": [],
      "name": "UnsupportedShielding",
      "type": "error"
    },
    {
      "anonymous": false,
      "inputs": [
        {
          "indexed": true,
          "internalType": "address",
          "name": "previousOwner",
          "type": "address"
        },
        {
          "indexed": true,
          "internalType": "address",
          "name": "newOwner",
          "type": "address"
        }
      ],
      "name": "OwnershipTransferred",
      "type": "event"
    },
    {
      "inputs": [
        {
          "internalType": "bytes",
          "name": "bridgeData",
          "type": "bytes"
        },
        {
          "components": [
            {
              "internalType": "uint256",
              "name": "ownerHash",
              "type": "uint256"
            },
            {
              "internalType": "uint256",
              "name": "token",
              "type": "uint256"
            },
            {
              "internalType": "uint256",
              "name": "amount",
              "type": "uint256"
            }
          ],
          "internalType": "struct CurvyTypes.Note",
          "name": "note",
          "type": "tuple"
        },
        {
          "internalType": "address",
          "name": "recovery",
          "type": "address"
        }
      ],
      "name": "deployEntryBridgePortal",
      "outputs": [],
      "stateMutability": "nonpayable",
      "type": "function"
    },
    {
      "inputs": [
        {
          "internalType": "bytes",
          "name": "bridgeData",
          "type": "bytes"
        },
        {
          "internalType": "uint256",
          "name": "amount",
          "type": "uint256"
        },
        {
          "internalType": "address",
          "name": "exitAddress",
          "type": "address"
        },
        {
          "internalType": "uint256",
          "name": "exitChainId",
          "type": "uint256"
        },
        {
          "internalType": "address",
          "name": "recovery",
          "type": "address"
        }
      ],
      "name": "deployExitBridgePortal",
      "outputs": [],
      "stateMutability": "nonpayable",
      "type": "function"
    },
    {
      "inputs": [
        {
          "components": [
            {
              "internalType": "uint256",
              "name": "ownerHash",
              "type": "uint256"
            },
            {
              "internalType": "uint256",
              "name": "token",
              "type": "uint256"
            },
            {
              "internalType": "uint256",
              "name": "amount",
              "type": "uint256"
            }
          ],
          "internalType": "struct CurvyTypes.Note",
          "name": "note",
          "type": "tuple"
        },
        {
          "internalType": "address",
          "name": "recovery",
          "type": "address"
        }
      ],
      "name": "deployShieldPortal",
      "outputs": [],
      "stateMutability": "payable",
      "type": "function"
    },
    {
      "inputs": [
        {
          "internalType": "uint256",
          "name": "ownerHash",
          "type": "uint256"
        },
        {
          "internalType": "address",
          "name": "exitAddress",
          "type": "address"
        },
        {
          "internalType": "uint256",
          "name": "exitChainId",
          "type": "uint256"
        },
        {
          "internalType": "address",
          "name": "recovery",
          "type": "address"
        }
      ],
      "name": "getCreationCode",
      "outputs": [
        {
          "internalType": "bytes",
          "name": "",
          "type": "bytes"
        }
      ],
      "stateMutability": "pure",
      "type": "function"
    },
    {
      "inputs": [
        {
          "internalType": "uint256",
          "name": "ownerHash",
          "type": "uint256"
        },
        {
          "internalType": "address",
          "name": "recovery",
          "type": "address"
        }
      ],
      "name": "getEntryPortalAddress",
      "outputs": [
        {
          "internalType": "address",
          "name": "",
          "type": "address"
        }
      ],
      "stateMutability": "view",
      "type": "function"
    },
    {
      "inputs": [
        {
          "internalType": "address",
          "name": "exitAddress",
          "type": "address"
        },
        {
          "internalType": "uint256",
          "name": "exitChainId",
          "type": "uint256"
        },
        {
          "internalType": "address",
          "name": "recovery",
          "type": "address"
        }
      ],
      "name": "getExitPortalAddress",
      "outputs": [
        {
          "internalType": "address",
          "name": "",
          "type": "address"
        }
      ],
      "stateMutability": "view",
      "type": "function"
    },
    {
      "inputs": [],
      "name": "owner",
      "outputs": [
        {
          "internalType": "address",
          "name": "",
          "type": "address"
        }
      ],
      "stateMutability": "view",
      "type": "function"
    },
    {
      "inputs": [
        {
          "internalType": "address",
          "name": "portalAddress",
          "type": "address"
        }
      ],
      "name": "portalIsRegistered",
      "outputs": [
        {
          "internalType": "bool",
          "name": "",
          "type": "bool"
        }
      ],
      "stateMutability": "view",
      "type": "function"
    },
    {
      "inputs": [],
      "name": "renounceOwnership",
      "outputs": [],
      "stateMutability": "nonpayable",
      "type": "function"
    },
    {
      "inputs": [
        {
          "internalType": "address",
          "name": "newOwner",
          "type": "address"
        }
      ],
      "name": "transferOwnership",
      "outputs": [],
      "stateMutability": "nonpayable",
      "type": "function"
    },
    {
      "inputs": [
        {
          "internalType": "address",
          "name": "curvyVaultProxyAddress",
          "type": "address"
        },
        {
          "internalType": "address",
          "name": "curvyAggregatorAlphaProxyAddress",
          "type": "address"
        },
        {
          "internalType": "address",
          "name": "lifiDiamondAddress",
          "type": "address"
        }
      ],
      "name": "updateConfig",
      "outputs": [
        {
          "internalType": "bool",
          "name": "",
          "type": "bool"
        }
      ],
      "stateMutability": "nonpayable",
      "type": "function"
    }
  ],
  "bytecode": "0x7f63757276792d706f7274616c2d666163746f72792d73616c740000000000000060a052601960805260b96040527f0c1d487ad400ae94b5e3f681571516a683db363b3743ef8072d065745915e37e60015534801561005c575f5ffd5b50604051611ec7380380611ec783398101604081905261007b91610108565b806001600160a01b0381166100a957604051631e4fbdf760e01b81525f600482015260240160405180910390fd5b6100b2816100b9565b5050610135565b5f80546001600160a01b038381166001600160a01b0319831681178455604051919092169283917f8be0079c531659141344cd1fd0a4f28419497f9722a3daafe3b4186f6b6457e09190a35050565b5f60208284031215610118575f5ffd5b81516001600160a01b038116811461012e575f5ffd5b9392505050565b611d85806101425f395ff3fe60806040526004361061009a575f3560e01c8063715018a611610062578063715018a61461016d5780638da5cb5b14610181578063e16ca8951461019d578063eb2347fd146101bc578063f2fde38b146101f3578063f34cc1ad14610212575f5ffd5b80630188ab0f1461009e57806307922e19146100d357806311c9a94d146100e857806346bbadfb146101175780635e8b95d214610136575b5f5ffd5b3480156100a9575f5ffd5b506100bd6100b83660046107e6565b610231565b6040516100ca9190610829565b60405180910390f35b6100e66100e13660046108c1565b6102c0565b005b3480156100f3575f5ffd5b506101076101023660046108f3565b6103f0565b60405190151581526020016100ca565b348015610122575f5ffd5b506100e6610131366004610978565b610484565b348015610141575f5ffd5b506101556101503660046109cf565b610564565b6040516001600160a01b0390911681526020016100ca565b348015610178575f5ffd5b506100e66105ba565b34801561018c575f5ffd5b505f546001600160a01b0316610155565b3480156101a8575f5ffd5b506101556101b73660046109f0565b6105cd565b3480156101c7575f5ffd5b506101076101d6366004610a20565b6001600160a01b03165f9081526005602052604090205460ff1690565b3480156101fe575f5ffd5b506100e661020d366004610a20565b610624565b34801561021d575f5ffd5b506100e661022c366004610a40565b610666565b60605f60405180602001610244906107be565b601f1982820381018352601f909101166040818152602082018990526001600160a01b03888116828401526060830188905286166080808401919091528151808403909101815260a083019091529192506102a5908390839060c001610ac8565b60405160208183030381529060405292505050949350505050565b6102c8610743565b6002546001600160a01b031615806102e957506003546001600160a01b0316155b15610307576040516389da714f60e01b815260040160405180910390fd5b5f610317835f01515f5f85610231565b90505f5f60015490508083516020850134f591506001600160a01b03821661035257604051633011642560e01b815260040160405180910390fd5b6001600160a01b038281165f81815260056020908152604091829020805460ff191660011790556003546002548351631329a1a760e31b81528b516004820152928b01516024840152928a0151604483015284166064820152921660848301529063994d0d389060a4015f604051808303815f87803b1580156103d3575f5ffd5b505af11580156103e5573d5f5f3e3d5ffd5b505050505050505050565b5f6103f9610743565b6001600160a01b0384161561042457600280546001600160a01b0319166001600160a01b0386161790555b6001600160a01b0383161561044f57600380546001600160a01b0319166001600160a01b0385161790555b6001600160a01b0382161561047a57600480546001600160a01b0319166001600160a01b0384161790555b5060019392505050565b6004546001600160a01b03166104ad5760405163437f3ac360e01b815260040160405180910390fd5b5f6104bd835f01515f5f85610231565b90505f5f60015490508083516020850134f591506001600160a01b0382166104f857604051633011642560e01b815260040160405180910390fd5b60048054604051630146fbc760e21b81526001600160a01b038086169363051bef1c9361052e939216918c918c918c9101610b0c565b5f604051808303815f87803b158015610545575f5ffd5b505af1158015610557573d5f5f3e3d5ffd5b5050505050505050505050565b5f5f610572845f5f86610231565b90505f60ff60f81b3060015484805190602001206040516020016105999493929190610b5c565b60408051808303601f19018152919052805160209091012095945050505050565b6105c2610743565b6105cb5f61076f565b565b5f5f6105db5f868686610231565b90505f60ff60f81b3060015484805190602001206040516020016106029493929190610b5c565b60408051808303601f1901815291905280516020909101209695505050505050565b61062c610743565b6001600160a01b03811661065a57604051631e4fbdf760e01b81525f60048201526024015b60405180910390fd5b6106638161076f565b50565b6004546001600160a01b031661068f5760405163437f3ac360e01b815260040160405180910390fd5b5f61069c5f858585610231565b90505f5f60015490508083516020850134f591506001600160a01b0382166106d757604051633011642560e01b815260040160405180910390fd5b6004805460405162560ffb60e11b81526001600160a01b038086169362ac1ff69361070b939216918c918f918f9101610b95565b5f604051808303815f87803b158015610722575f5ffd5b505af1158015610734573d5f5f3e3d5ffd5b50505050505050505050505050565b5f546001600160a01b031633146105cb5760405163118cdaa760e01b8152336004820152602401610651565b5f80546001600160a01b038381166001600160a01b0319831681178455604051919092169283917f8be0079c531659141344cd1fd0a4f28419497f9722a3daafe3b4186f6b6457e09190a35050565b61118980610bc783390190565b80356001600160a01b03811681146107e1575f5ffd5b919050565b5f5f5f5f608085870312156107f9575f5ffd5b84359350610809602086016107cb565b92506040850135915061081e606086016107cb565b905092959194509250565b602081525f82518060208401528060208501604085015e5f604082850101526040601f19601f83011684010191505092915050565b5f6060828403121561086e575f5ffd5b6040516060810181811067ffffffffffffffff8211171561089d57634e487b7160e01b5f52604160045260245ffd5b60409081528335825260208085013590830152928301359281019290925250919050565b5f5f608083850312156108d2575f5ffd5b6108dc848461085e565b91506108ea606084016107cb565b90509250929050565b5f5f5f60608486031215610905575f5ffd5b61090e846107cb565b925061091c602085016107cb565b915061092a604085016107cb565b90509250925092565b5f5f83601f840112610943575f5ffd5b50813567ffffffffffffffff81111561095a575f5ffd5b602083019150836020828501011115610971575f5ffd5b9250929050565b5f5f5f5f60a0858703121561098b575f5ffd5b843567ffffffffffffffff8111156109a1575f5ffd5b6109ad87828801610933565b90955093506109c19050866020870161085e565b915061081e608086016107cb565b5f5f604083850312156109e0575f5ffd5b823591506108ea602084016107cb565b5f5f5f60608486031215610a02575f5ffd5b610a0b846107cb565b92506020840135915061092a604085016107cb565b5f60208284031215610a30575f5ffd5b610a39826107cb565b9392505050565b5f5f5f5f5f5f60a08789031215610a55575f5ffd5b863567ffffffffffffffff811115610a6b575f5ffd5b610a7789828a01610933565b90975095505060208701359350610a90604088016107cb565b925060608701359150610aa5608088016107cb565b90509295509295509295565b5f81518060208401855e5f93019283525090919050565b5f610adc610ad68386610ab1565b84610ab1565b949350505050565b81835281816020850137505f828201602090810191909152601f909101601f19169091010190565b6001600160a01b038516815260a0602082018190525f90610b309083018587610ae4565b9050610b5360408301848051825260208082015190830152604090810151910152565b95945050505050565b6001600160f81b031994909416845260609290921b6bffffffffffffffffffffffff191660018401526015830152603582015260550190565b60018060a01b0385168152836020820152606060408201525f610bbc606083018486610ae4565b969550505050505056fe608060405234801561000f575f5ffd5b5060405161118938038061118983398101604081905261002e916100e5565b6001600160a01b0381166100555760405163530a10d160e11b815260040160405180910390fd5b83156001600160a01b03841615148061006f575083158215145b1561008d57604051631d4deb8b60e31b815260040160405180910390fd5b600193909355600280546001600160a01b039384166001600160a01b03199182161790915560039190915560068054929093169116179055610129565b80516001600160a01b03811681146100e0575f5ffd5b919050565b5f5f5f5f608085870312156100f8575f5ffd5b84519350610108602086016100ca565b6040860151909350915061011e606086016100ca565b905092959194509250565b611053806101365f395ff3fe608060405234801561000f575f5ffd5b5060043610610079575f3560e01c80635dc24ee3116100585780635dc24ee3146100d4578063648bf774146100e7578063994d0d38146100fa578063ddceafa91461010d575f5ffd5b8062ac1ff61461007d578063051bef1c146100925780633fb07027146100a5575b5f5ffd5b61009061008b366004610c06565b610120565b005b6100906100a0366004610cf3565b6101d6565b6005546100b8906001600160a01b031681565b6040516001600160a01b03909116815260200160405180910390f35b6004546100b8906001600160a01b031681565b6100906100f5366004610d57565b6102b9565b610090610108366004610d8e565b610456565b6006546100b8906001600160a01b031681565b5f5460ff161561014b5760405162461bcd60e51b815260040161014290610dd5565b60405180910390fd5b5f6101568383610721565b60025460a08201519192506001600160a01b0391821691161461018c5760405163523660f760e01b815260040160405180910390fd5b6003548160e00151146101b2576040516397c91b6960e01b815260040160405180910390fd5b6101c385848484608001518861073c565b50505f805460ff19166001179055505050565b5f5460ff16156101f85760405162461bcd60e51b815260040161014290610dd5565b60015481511461021a5760405162cb7dff60e81b815260040160405180910390fd5b5f610225848461096a565b60a08101519091506001600160a01b031630146102555760405163523660f760e01b815260040160405180910390fd5b61a4b18160e001511461027b576040516397c91b6960e01b815260040160405180910390fd5b81604001518160c0015111156102a457604051632a8d68fb60e11b815260040160405180910390fd5b6101c38585858460800151866040015161073c565b6006546001600160a01b0316331461030b5760405162461bcd60e51b8152602060048201526015602482015274506f7274616c3a204f6e6c79207265636f7665727960581b6044820152606401610142565b73eeeeeeeeeeeeeeeeeeeeeeeeeeeeeeeeeeeeeeed196001600160a01b038316016103d65760405147905f906001600160a01b0384169083908381818185875af1925050503d805f811461037a576040519150601f19603f3d011682016040523d82523d5f602084013e61037f565b606091505b50509050806103d05760405162461bcd60e51b815260206004820152601b60248201527f506f7274616c3a20455448207472616e73666572206661696c656400000000006044820152606401610142565b50505050565b6040516370a0823160e01b815230600482015282905f906001600160a01b038316906370a0823190602401602060405180830381865afa15801561041c573d5f5f3e3d5ffd5b505050506040513d601f19601f820116820180604052508101906104409190610e0c565b90506103d06001600160a01b038316848361098c565b5f5460ff16156104785760405162461bcd60e51b815260040161014290610dd5565b60015483511461049a5760405162cb7dff60e81b815260040160405180910390fd5b600480546001600160a01b038481166001600160a01b0319928316178355600580549185169190921681179091556020850151604051630cf99be760e31b8152928301525f916367ccdf3890602401602060405180830381865afa925050508015610522575060408051601f3d908101601f1916820190925261051f91810190610e23565b60015b6105bb57806001600160a01b0316845f01517ffc1e38218583f70caa9a6f4085fafbac0d535b341b12a5a3e96bfe421121b0b886604001516040516105ad9181526040602082018190526026908201527f4661696c656420746f2067657420746f6b656e20616464726573732066726f6d606082015265081d985d5b1d60d21b608082015260a00190565b60405180910390a350610710565b90506001600160a01b038116158015906105f257506001600160a01b03811673eeeeeeeeeeeeeeeeeeeeeeeeeeeeeeeeeeeeeeee14155b15610691576004546040850151610617916001600160a01b03848116929116906109f0565b60048054604080516347107fdb60e01b81528751938101939093526020870151602484015286015160448301526001600160a01b03838116606484015216906347107fdb906084015f604051808303815f87803b158015610676575f5ffd5b505af1158015610688573d5f5f3e3d5ffd5b5050505061070e565b600480546040868101805191516347107fdb60e01b8152885194810194909452602088015160248501525160448401526001600160a01b038481166064850152909116916347107fdb91906084015f604051808303818588803b1580156106f6575f5ffd5b505af1158015610708573d5f5f3e3d5ffd5b50505050505b505b50505f805460ff1916600117905550565b610729610b30565b61073582840184610ed8565b9392505050565b6001600160a01b0385166107635760405163149633f360e31b815260040160405180910390fd5b6001600160a01b0382161580159061079857506001600160a01b03821673eeeeeeeeeeeeeeeeeeeeeeeeeeeeeeeeeeeeeeee14155b156108c1576040516370a0823160e01b815230600482015282905f906001600160a01b038316906370a0823190602401602060405180830381865afa1580156107e3573d5f5f3e3d5ffd5b505050506040513d601f19601f820116820180604052508101906108079190610e0c565b90508281101561082a57604051637bdd7ae760e01b815260040160405180910390fd5b61083e6001600160a01b03831688856109f0565b5f876001600160a01b03168787604051610859929190610fe7565b5f604051808303815f865af19150503d805f8114610892576040519150601f19603f3d011682016040523d82523d5f602084013e610897565b606091505b50509050806108b957604051631bb7daad60e11b815260040160405180910390fd5b505050610963565b47818110156108e357604051637bdd7ae760e01b815260040160405180910390fd5b5f866001600160a01b03168387876040516108ff929190610fe7565b5f6040518083038185875af1925050503d805f8114610939576040519150601f19603f3d011682016040523d82523d5f602084013e61093e565b606091505b505090508061096057604051631bb7daad60e11b815260040160405180910390fd5b50505b5050505050565b610972610b30565b61097f8260048186610ff6565b8101906107359190610ed8565b6040516001600160a01b038381166024830152604482018390526109eb91859182169063a9059cbb906064015b604051602081830303815290604052915060e01b6020820180516001600160e01b038381831617835250505050610a7b565b505050565b604080516001600160a01b038416602482015260448082018490528251808303909101815260649091019091526020810180516001600160e01b031663095ea7b360e01b179052610a418482610ae7565b6103d0576040516001600160a01b0384811660248301525f6044830152610a7591869182169063095ea7b3906064016109b9565b6103d084825b5f5f60205f8451602086015f885af180610a9a576040513d5f823e3d81fd5b50505f513d91508115610ab1578060011415610abe565b6001600160a01b0384163b155b156103d057604051635274afe760e01b81526001600160a01b0385166004820152602401610142565b5f5f5f5f60205f8651602088015f8a5af192503d91505f519050828015610b2657508115610b185780600114610b26565b5f866001600160a01b03163b115b9695505050505050565b6040518061014001604052805f815260200160608152602001606081526020015f6001600160a01b031681526020015f6001600160a01b031681526020015f6001600160a01b031681526020015f81526020015f81526020015f151581526020015f151581525090565b6001600160a01b0381168114610bae575f5ffd5b50565b8035610bbc81610b9a565b919050565b5f5f83601f840112610bd1575f5ffd5b50813567ffffffffffffffff811115610be8575f5ffd5b602083019150836020828501011115610bff575f5ffd5b9250929050565b5f5f5f5f60608587031215610c19575f5ffd5b8435610c2481610b9a565b935060208501359250604085013567ffffffffffffffff811115610c46575f5ffd5b610c5287828801610bc1565b95989497509550505050565b634e487b7160e01b5f52604160045260245ffd5b604051610140810167ffffffffffffffff81118282101715610c9657610c96610c5e565b60405290565b5f60608284031215610cac575f5ffd5b6040516060810167ffffffffffffffff81118282101715610ccf57610ccf610c5e565b60409081528335825260208085013590830152928301359281019290925250919050565b5f5f5f5f60a08587031215610d06575f5ffd5b8435610d1181610b9a565b9350602085013567ffffffffffffffff811115610d2c575f5ffd5b610d3887828801610bc1565b9094509250610d4c90508660408701610c9c565b905092959194509250565b5f5f60408385031215610d68575f5ffd5b8235610d7381610b9a565b91506020830135610d8381610b9a565b809150509250929050565b5f5f5f60a08486031215610da0575f5ffd5b610daa8585610c9c565b92506060840135610dba81610b9a565b91506080840135610dca81610b9a565b809150509250925092565b60208082526017908201527f53696e676c655573653a20416c72656164792075736564000000000000000000604082015260600190565b5f60208284031215610e1c575f5ffd5b5051919050565b5f60208284031215610e33575f5ffd5b815161073581610b9a565b5f82601f830112610e4d575f5ffd5b813567ffffffffffffffff811115610e6757610e67610c5e565b604051601f8201601f19908116603f0116810167ffffffffffffffff81118282101715610e9657610e96610c5e565b604052818152838201602001851015610ead575f5ffd5b816020850160208301375f918101602001919091529392505050565b80358015158114610bbc575f5ffd5b5f60208284031215610ee8575f5ffd5b813567ffffffffffffffff811115610efe575f5ffd5b82016101408185031215610f10575f5ffd5b610f18610c72565b81358152602082013567ffffffffffffffff811115610f35575f5ffd5b610f4186828501610e3e565b602083015250604082013567ffffffffffffffff811115610f60575f5ffd5b610f6c86828501610e3e565b604083015250610f7e60608301610bb1565b6060820152610f8f60808301610bb1565b6080820152610fa060a08301610bb1565b60a082015260c0828101359082015260e08083013590820152610fc66101008301610ec9565b610100820152610fd96101208301610ec9565b610120820152949350505050565b818382375f9101908152919050565b5f5f85851115611004575f5ffd5b83861115611010575f5ffd5b505082019391909203915056fea26469706673582212205e44ba295ffbce9aa4a4b77bfaf2c6691aeb28ab1eacb97e24557951bb64a88264736f6c634300081c0033a26469706673582212206c4eaf508249dc883dfae40d3ac750684b4f5b1a662f0f7ca9edfc5ddaf827c064736f6c634300081c0033",
  "linkReferences": {},
  "deployedLinkReferences": {},
  "immutableReferences": {},
  "inputSourceName": "project/contracts/portal/PortalFactory.sol",
  "buildInfoId": "solc-0_8_28-cadf447022ab6c9108f8bf7a75fbe0851f9cd6a1"
}