{
  "_format": "hh3-artifact-1",
  "contractName": "NoteDeployerFactory",
  "sourceName": "contracts/smart-account/NoteDeployerFactory.sol",
  "abi": [
    {
      "inputs": [
        {
          "internalType": "address",
          "name": "initialOwner",
          "type": "address"
        }
      ],
      "stateMutability": "nonpayable",
      "type": "constructor"
    },
    {
      "inputs": [
        {
          "internalType": "address",
          "name": "owner",
          "type": "address"
        }
      ],
      "name": "OwnableInvalidOwner",
      "type": "error"
    },
    {
      "inputs": [
        {
          "internalType": "address",
          "name": "account",
          "type": "address"
        }
      ],
      "name": "OwnableUnauthorizedAccount",
      "type": "error"
    },
    {
      "anonymous": false,
      "inputs": [
        {
          "indexed": true,
          "internalType": "address",
          "name": "previousOwner",
          "type": "address"
        },
        {
          "indexed": true,
          "internalType": "address",
          "name": "newOwner",
          "type": "address"
        }
      ],
      "name": "OwnershipTransferred",
      "type": "event"
    },
    {
      "inputs": [
        {
          "internalType": "bytes",
          "name": "_bridgeData",
          "type": "bytes"
        },
        {
          "components": [
            {
              "internalType": "uint256",
              "name": "ownerHash",
              "type": "uint256"
            },
            {
              "internalType": "uint256",
              "name": "token",
              "type": "uint256"
            },
            {
              "internalType": "uint256",
              "name": "amount",
              "type": "uint256"
            }
          ],
          "internalType": "struct CurvyTypes.Note",
          "name": "note",
          "type": "tuple"
        }
      ],
      "name": "deployAndBridge",
      "outputs": [],
      "stateMutability": "payable",
      "type": "function"
    },
    {
      "inputs": [
        {
          "components": [
            {
              "internalType": "uint256",
              "name": "ownerHash",
              "type": "uint256"
            },
            {
              "internalType": "uint256",
              "name": "token",
              "type": "uint256"
            },
            {
              "internalType": "uint256",
              "name": "amount",
              "type": "uint256"
            }
          ],
          "internalType": "struct CurvyTypes.Note",
          "name": "note",
          "type": "tuple"
        }
      ],
      "name": "deployAndShield",
      "outputs": [],
      "stateMutability": "payable",
      "type": "function"
    },
    {
      "inputs": [
        {
          "internalType": "uint256",
          "name": "ownerHash",
          "type": "uint256"
        }
      ],
      "name": "getContractAddress",
      "outputs": [
        {
          "internalType": "address",
          "name": "",
          "type": "address"
        }
      ],
      "stateMutability": "view",
      "type": "function"
    },
    {
      "inputs": [
        {
          "internalType": "uint256",
          "name": "ownerHash",
          "type": "uint256"
        }
      ],
      "name": "getCreationCode",
      "outputs": [
        {
          "internalType": "bytes",
          "name": "",
          "type": "bytes"
        }
      ],
      "stateMutability": "pure",
      "type": "function"
    },
    {
      "inputs": [],
      "name": "noteDeployer",
      "outputs": [
        {
          "internalType": "contract INoteDeployer",
          "name": "",
          "type": "address"
        }
      ],
      "stateMutability": "view",
      "type": "function"
    },
    {
      "inputs": [],
      "name": "owner",
      "outputs": [
        {
          "internalType": "address",
          "name": "",
          "type": "address"
        }
      ],
      "stateMutability": "view",
      "type": "function"
    },
    {
      "inputs": [],
      "name": "renounceOwnership",
      "outputs": [],
      "stateMutability": "nonpayable",
      "type": "function"
    },
    {
      "inputs": [
        {
          "internalType": "address",
          "name": "newOwner",
          "type": "address"
        }
      ],
      "name": "transferOwnership",
      "outputs": [],
      "stateMutability": "nonpayable",
      "type": "function"
    },
    {
      "inputs": [
        {
          "components": [
            {
              "internalType": "address",
              "name": "curvyVaultProxyAddress",
              "type": "address"
            },
            {
              "internalType": "address",
              "name": "curvyAggregatorAlphaProxyAddress",
              "type": "address"
            },
            {
              "internalType": "address",
              "name": "lifiDiamondAddress",
              "type": "address"
            }
          ],
          "internalType": "struct CurvyTypes.NoteDeployerFactoryConfigurationUpdate",
          "name": "_update",
          "type": "tuple"
        }
      ],
      "name": "updateConfig",
      "outputs": [
        {
          "internalType": "bool",
          "name": "",
          "type": "bool"
        }
      ],
      "stateMutability": "nonpayable",
      "type": "function"
    }
  ],
  "bytecode": "0x7f63757276792d6e6f74652d6465706c6f7965722d666163746f72792d73616c7460a052602060805260c06040527f0474ce058b75227b7221ed7620b851a44a104328e39b4e04edd36d684cc859dd60015534801561005c575f5ffd5b5060405161186738038061186783398101604081905261007b91610108565b806001600160a01b0381166100a957604051631e4fbdf760e01b81525f600482015260240160405180910390fd5b6100b2816100b9565b5050610135565b5f80546001600160a01b038381166001600160a01b0319831681178455604051919092169283917f8be0079c531659141344cd1fd0a4f28419497f9722a3daafe3b4186f6b6457e09190a35050565b5f60208284031215610118575f5ffd5b81516001600160a01b038116811461012e575f5ffd5b9392505050565b611725806101425f395ff3fe608060405260043610610084575f3560e01c80637377bbb4116100575780637377bbb4146101005780638da5cb5b1461012c578063aefa7d9814610148578063bc482b6c14610167578063f2fde38b14610196575f5ffd5b8063265251cb1461008857806347ade1731461009d578063715018a6146100d9578063735f399d146100ed575b5f5ffd5b61009b610096366004610761565b6101b5565b005b3480156100a8575f5ffd5b506002546100bc906001600160a01b031681565b6040516001600160a01b0390911681526020015b60405180910390f35b3480156100e4575f5ffd5b5061009b61030b565b61009b6100fb3660046107df565b61031e565b34801561010b575f5ffd5b5061011f61011a366004610800565b6104a1565b6040516100d09190610817565b348015610137575f5ffd5b505f546001600160a01b03166100bc565b348015610153575f5ffd5b506100bc610162366004610800565b61050c565b348015610172575f5ffd5b50610186610181366004610862565b61057a565b60405190151581526020016100d0565b3480156101a1575f5ffd5b5061009b6101b03660046108b0565b61062e565b6005546001600160a01b031661021e5760405162461bcd60e51b8152602060048201526024808201527f4272696467696e67206e6f7420737570706f72746564206f6e207468697320636044820152633430b4b760e11b60648201526084015b60405180910390fd5b5f61022b825f01516104a1565b90505f5f60015490508083516020850134f591506001600160a01b0382166102895760405162461bcd60e51b815260206004820152601160248201527011195c1b1bde5b595b9d0819985a5b1959607a1b6044820152606401610215565b600280546001600160a01b0319166001600160a01b03848116918217909255600554604051631f26baa960e11b81529192633e4d7552926102d692909116908a908a908a906004016108c9565b5f604051808303815f87803b1580156102ed575f5ffd5b505af11580156102ff573d5f5f3e3d5ffd5b50505050505050505050565b61031361066b565b61031c5f610697565b565b6003546001600160a01b0316158061033f57506004546001600160a01b0316155b1561039a5760405162461bcd60e51b815260206004820152602560248201527f536869656c64696e67206e6f7420737570706f72746564206f6e20746869732060448201526431b430b4b760d91b6064820152608401610215565b5f6103a7825f01516104a1565b90505f5f60015490508083516020850134f591506001600160a01b0382166104055760405162461bcd60e51b815260206004820152601160248201527011195c1b1bde5b595b9d0819985a5b1959607a1b6044820152606401610215565b600280546001600160a01b0319166001600160a01b038481169182179092556004805460035460408051631329a1a760e31b81528a519481019490945260208a015160248501528901516044840152908416606483015290921660848301529063994d0d389060a4015f604051808303815f87803b158015610485575f5ffd5b505af1158015610497573d5f5f3e3d5ffd5b5050505050505050565b60605f604051806020016104b4906106e6565b601f1982820381018352601f9091011660408181526020808301879052815180840390910181528183019091529192506104f49083908390606001610943565b60405160208183030381529060405292505050919050565b5f5f610517836104a1565b6001548151602092830120604080516001600160f81b0319818601523060601b6bffffffffffffffffffffffff19166021820152603581019390935260558084019290925280518084039092018252607590920190915280519101209392505050565b5f61058361066b565b81516001600160a01b0316156105b5578151600380546001600160a01b0319166001600160a01b039092169190911790555b60208201516001600160a01b0316156105ed576020820151600480546001600160a01b0319166001600160a01b039092169190911790555b60408201516001600160a01b031615610625576040820151600580546001600160a01b0319166001600160a01b039092169190911790555b5060015b919050565b61063661066b565b6001600160a01b03811661065f57604051631e4fbdf760e01b81525f6004820152602401610215565b61066881610697565b50565b5f546001600160a01b0316331461031c5760405163118cdaa760e01b8152336004820152602401610215565b5f80546001600160a01b038381166001600160a01b0319831681178455604051919092169283917f8be0079c531659141344cd1fd0a4f28419497f9722a3daafe3b4186f6b6457e09190a35050565b610d908061096083390190565b6040516060810167ffffffffffffffff8111828210171561072257634e487b7160e01b5f52604160045260245ffd5b60405290565b5f60608284031215610738575f5ffd5b6107406106f3565b82358152602080840135908201526040928301359281019290925250919050565b5f5f5f60808486031215610773575f5ffd5b833567ffffffffffffffff811115610789575f5ffd5b8401601f81018613610799575f5ffd5b803567ffffffffffffffff8111156107af575f5ffd5b8660208284010111156107c0575f5ffd5b6020918201945092506107d69086908601610728565b90509250925092565b5f606082840312156107ef575f5ffd5b6107f98383610728565b9392505050565b5f60208284031215610810575f5ffd5b5035919050565b602081525f82518060208401528060208501604085015e5f604082850101526040601f19601f83011684010191505092915050565b80356001600160a01b0381168114610629575f5ffd5b5f6060828403128015610873575f5ffd5b5061087c6106f3565b6108858361084c565b81526108936020840161084c565b60208201526108a46040840161084c565b60408201529392505050565b5f602082840312156108c0575f5ffd5b6107f98261084c565b6001600160a01b038516815260a0602082018190528101839052828460c08301375f60c084830101525f60c0601f19601f860116830101905061092360408301848051825260208082015190830152604090810151910152565b95945050505050565b5f81518060208401855e5f93019283525090919050565b5f610957610951838661092c565b8461092c565b94935050505056fe608060405261a4b160015562aa36a7600255348015601b575f5ffd5b50604051610d90380380610d90833981016040819052603891603e565b5f556054565b5f60208284031215604d575f5ffd5b5051919050565b610d2f806100615f395ff3fe608060405260043610610049575f3560e01c80633e4d75521461004d5780633fb07027146100625780635dc24ee31461009e578063994d0d38146100bd578063e229cd76146100dc575b5f5ffd5b61006061005b3660046109c2565b6100fe565b005b34801561006d575f5ffd5b50600454610081906001600160a01b031681565b6040516001600160a01b0390911681526020015b60405180910390f35b3480156100a9575f5ffd5b50600354610081906001600160a01b031681565b3480156100c8575f5ffd5b506100606100d7366004610a54565b610570565b3480156100e7575f5ffd5b506100f0606481565b604051908152602001610095565b600480546020830151604051630cf99be760e31b8152928301525f916001600160a01b03909116906367ccdf3890602401602060405180830381865afa15801561014a573d5f5f3e3d5ffd5b505050506040513d601f19601f8201168201806040525081019061016e9190610a9b565b90506001600160a01b0385166101d75760405162461bcd60e51b815260206004820152602360248201527f4e6f74654465706c6f7965723a20496e76616c6964204c492e4649206164647260448201526265737360e81b60648201526084015b60405180910390fd5b60048310156102325760405162461bcd60e51b815260206004820152602160248201527f4e6f74654465706c6f7965723a20496e76616c696420627269646765206461746044820152606160f81b60648201526084016101ce565b5f6102408460048188610abd565b81019061024d9190610b7e565b9050806101000151156102b35760405162461bcd60e51b815260206004820152602860248201527f4e6f74654465706c6f7965723a20536f75726365207377617073206e6f7420736044820152671d5c1c1bdc9d195960c21b60648201526084016101ce565b60a08101516001600160a01b0316301461030f5760405162461bcd60e51b815260206004820152601e60248201527f4e6f74654465706c6f7965723a20496e76616c6964207265636569766572000060448201526064016101ce565b816001600160a01b031681608001516001600160a01b0316146103745760405162461bcd60e51b815260206004820152601c60248201527f4e6f74654465706c6f7965723a20546f6b656e206d69736d617463680000000060448201526064016101ce565b6001600160a01b038216156104155782604001518160c00151101561041557604083015160c08201515f91906103aa9082610ca1565b6103b690612710610cb4565b6103c09190610ccb565b905060648111156104135760405162461bcd60e51b815260206004820152601f60248201527f4e6f74654465706c6f7965723a20536c69707061676520746f6f20686967680060448201526064016101ce565b505b6001600160a01b0382161580159061044a57506001600160a01b03821673eeeeeeeeeeeeeeeeeeeeeeeeeeeeeeeeeeeeeeee14155b1561046f57604083015161046a906001600160a01b03841690889061079c565b6104bb565b82604001513410156104bb5760405162461bcd60e51b8152602060048201526015602482015274125b9cdd59999a58da595b9d08115512081cd95b9d605a1b60448201526064016101ce565b5f866001600160a01b03163487876040516104d7929190610cea565b5f6040518083038185875af1925050503d805f8114610511576040519150601f19603f3d011682016040523d82523d5f602084013e610516565b606091505b50509050806105675760405162461bcd60e51b815260206004820181905260248201527f4e6f74654465706c6f7965723a204272696467652063616c6c206661696c656460448201526064016101ce565b50505050505050565b5f548351146105b65760405162461bcd60e51b8152602060048201526012602482015271092dcecc2d8d2c840deeedccae440d0c2e6d60731b60448201526064016101ce565b600380546001600160a01b038481166001600160a01b0319928316179092556004805492841692909116821781556020850151604051630cf99be760e31b8152918201525f91906367ccdf3890602401602060405180830381865afa158015610621573d5f5f3e3d5ffd5b505050506040513d601f19601f820116820180604052508101906106459190610a9b565b90506001600160a01b0381161580159061067c57506001600160a01b03811673eeeeeeeeeeeeeeeeeeeeeeeeeeeeeeeeeeeeeeee14155b1561071b5760035460408501516106a1916001600160a01b038481169291169061079c565b600354604080516347107fdb60e01b815286516004820152602087015160248201529086015160448201526001600160a01b038381166064830152909116906347107fdb906084015f604051808303815f87803b158015610700575f5ffd5b505af1158015610712573d5f5f3e3d5ffd5b50505050610796565b6003546040858101805191516347107fdb60e01b81528751600482015260208801516024820152905160448201526001600160a01b038481166064830152909216916347107fdb91906084015f604051808303818588803b15801561077e575f5ffd5b505af1158015610790573d5f5f3e3d5ffd5b50505050505b50505050565b604080516001600160a01b038416602482015260448082018490528251808303909101815260649091019091526020810180516001600160e01b031663095ea7b360e01b1790526107ed848261084f565b61079657604080516001600160a01b03851660248201525f6044808301919091528251808303909101815260649091019091526020810180516001600160e01b031663095ea7b360e01b17905261084590859061089a565b610796848261089a565b5f5f5f5f60205f8651602088015f8a5af192503d91505f51905082801561088e57508115610880578060011461088e565b5f866001600160a01b03163b115b93505050505b92915050565b5f5f60205f8451602086015f885af1806108b9576040513d5f823e3d81fd5b50505f513d915081156108d05780600114156108dd565b6001600160a01b0384163b155b1561079657604051635274afe760e01b81526001600160a01b03851660048201526024016101ce565b6001600160a01b038116811461091a575f5ffd5b50565b803561092881610906565b919050565b634e487b7160e01b5f52604160045260245ffd5b604051610140810167ffffffffffffffff811182821017156109655761096561092d565b60405290565b5f6060828403121561097b575f5ffd5b6040516060810167ffffffffffffffff8111828210171561099e5761099e61092d565b60409081528335825260208085013590830152928301359281019290925250919050565b5f5f5f5f60a085870312156109d5575f5ffd5b84356109e081610906565b9350602085013567ffffffffffffffff8111156109fb575f5ffd5b8501601f81018713610a0b575f5ffd5b803567ffffffffffffffff811115610a21575f5ffd5b876020828401011115610a32575f5ffd5b60209190910193509150610a49866040870161096b565b905092959194509250565b5f5f5f60a08486031215610a66575f5ffd5b610a70858561096b565b92506060840135610a8081610906565b91506080840135610a9081610906565b809150509250925092565b5f60208284031215610aab575f5ffd5b8151610ab681610906565b9392505050565b5f5f85851115610acb575f5ffd5b83861115610ad7575f5ffd5b5050820193919092039150565b5f82601f830112610af3575f5ffd5b813567ffffffffffffffff811115610b0d57610b0d61092d565b604051601f8201601f19908116603f0116810167ffffffffffffffff81118282101715610b3c57610b3c61092d565b604052818152838201602001851015610b53575f5ffd5b816020850160208301375f918101602001919091529392505050565b80358015158114610928575f5ffd5b5f60208284031215610b8e575f5ffd5b813567ffffffffffffffff811115610ba4575f5ffd5b82016101408185031215610bb6575f5ffd5b610bbe610941565b81358152602082013567ffffffffffffffff811115610bdb575f5ffd5b610be786828501610ae4565b602083015250604082013567ffffffffffffffff811115610c06575f5ffd5b610c1286828501610ae4565b604083015250610c246060830161091d565b6060820152610c356080830161091d565b6080820152610c4660a0830161091d565b60a082015260c0828101359082015260e08083013590820152610c6c6101008301610b6f565b610100820152610c7f6101208301610b6f565b610120820152949350505050565b634e487b7160e01b5f52601160045260245ffd5b8181038181111561089457610894610c8d565b808202811582820484141761089457610894610c8d565b5f82610ce557634e487b7160e01b5f52601260045260245ffd5b500490565b818382375f910190815291905056fea264697066735822122033615a8160fb22c33535bde895dd60c2cb158f51449559f7b317fa30866e756a64736f6c634300081c0033a26469706673582212207b3af9e292418210d7d22db0cc821d20c95718ea124177ab165d657631813ae764736f6c634300081c0033",
  "linkReferences": {},
  "deployedLinkReferences": {},
  "immutableReferences": {},
  "inputSourceName": "project/contracts/smart-account/NoteDeployerFactory.sol",
  "buildInfoId": "solc-0_8_28-476bb37382190414e0808b6ef2f1e971a5204abf"
}