{
  "_format": "hh3-artifact-1",
  "contractName": "CurvyAggregatorAlphaV2",
  "sourceName": "contracts/aggregator-alpha/CurvyAggregatorAlphaV2.sol",
  "abi": [
    {
      "inputs": [],
      "stateMutability": "nonpayable",
      "type": "constructor"
    },
    {
      "inputs": [
        {
          "internalType": "address",
          "name": "target",
          "type": "address"
        }
      ],
      "name": "AddressEmptyCode",
      "type": "error"
    },
    {
      "inputs": [
        {
          "internalType": "address",
          "name": "implementation",
          "type": "address"
        }
      ],
      "name": "ERC1967InvalidImplementation",
      "type": "error"
    },
    {
      "inputs": [],
      "name": "ERC1967NonPayable",
      "type": "error"
    },
    {
      "inputs": [],
      "name": "FailedCall",
      "type": "error"
    },
    {
      "inputs": [],
      "name": "InvalidInitialization",
      "type": "error"
    },
    {
      "inputs": [],
      "name": "NotInitializing",
      "type": "error"
    },
    {
      "inputs": [
        {
          "internalType": "address",
          "name": "owner",
          "type": "address"
        }
      ],
      "name": "OwnableInvalidOwner",
      "type": "error"
    },
    {
      "inputs": [
        {
          "internalType": "address",
          "name": "account",
          "type": "address"
        }
      ],
      "name": "OwnableUnauthorizedAccount",
      "type": "error"
    },
    {
      "inputs": [
        {
          "internalType": "address",
          "name": "token",
          "type": "address"
        }
      ],
      "name": "SafeERC20FailedOperation",
      "type": "error"
    },
    {
      "inputs": [],
      "name": "UUPSUnauthorizedCallContext",
      "type": "error"
    },
    {
      "inputs": [
        {
          "internalType": "bytes32",
          "name": "slot",
          "type": "bytes32"
        }
      ],
      "name": "UUPSUnsupportedProxiableUUID",
      "type": "error"
    },
    {
      "anonymous": false,
      "inputs": [
        {
          "indexed": false,
          "internalType": "uint256",
          "name": "noteId",
          "type": "uint256"
        }
      ],
      "name": "DepositedNote",
      "type": "event"
    },
    {
      "anonymous": false,
      "inputs": [
        {
          "indexed": false,
          "internalType": "uint64",
          "name": "version",
          "type": "uint64"
        }
      ],
      "name": "Initialized",
      "type": "event"
    },
    {
      "anonymous": false,
      "inputs": [
        {
          "indexed": true,
          "internalType": "address",
          "name": "previousOwner",
          "type": "address"
        },
        {
          "indexed": true,
          "internalType": "address",
          "name": "newOwner",
          "type": "address"
        }
      ],
      "name": "OwnershipTransferred",
      "type": "event"
    },
    {
      "anonymous": false,
      "inputs": [
        {
          "indexed": true,
          "internalType": "address",
          "name": "implementation",
          "type": "address"
        }
      ],
      "name": "Upgraded",
      "type": "event"
    },
    {
      "inputs": [],
      "name": "UPGRADE_INTERFACE_VERSION",
      "outputs": [
        {
          "internalType": "string",
          "name": "",
          "type": "string"
        }
      ],
      "stateMutability": "view",
      "type": "function"
    },
    {
      "inputs": [],
      "name": "aggregationVerifier",
      "outputs": [
        {
          "internalType": "contract ICurvyAggregationVerifier",
          "name": "",
          "type": "address"
        }
      ],
      "stateMutability": "view",
      "type": "function"
    },
    {
      "inputs": [
        {
          "components": [
            {
              "internalType": "uint256",
              "name": "ownerHash",
              "type": "uint256"
            },
            {
              "internalType": "uint256",
              "name": "token",
              "type": "uint256"
            },
            {
              "internalType": "uint256",
              "name": "amount",
              "type": "uint256"
            }
          ],
          "internalType": "struct CurvyTypes.Note",
          "name": "note",
          "type": "tuple"
        },
        {
          "internalType": "address",
          "name": "tokenAddress",
          "type": "address"
        }
      ],
      "name": "autoShield",
      "outputs": [],
      "stateMutability": "payable",
      "type": "function"
    },
    {
      "inputs": [
        {
          "internalType": "uint256[2]",
          "name": "proof_a",
          "type": "uint256[2]"
        },
        {
          "internalType": "uint256[2][2]",
          "name": "proof_b",
          "type": "uint256[2][2]"
        },
        {
          "internalType": "uint256[2]",
          "name": "proof_c",
          "type": "uint256[2]"
        },
        {
          "internalType": "uint256[14]",
          "name": "publicInputs",
          "type": "uint256[14]"
        }
      ],
      "name": "commitAggregationBatch",
      "outputs": [
        {
          "internalType": "bool",
          "name": "",
          "type": "bool"
        }
      ],
      "stateMutability": "nonpayable",
      "type": "function"
    },
    {
      "inputs": [
        {
          "internalType": "uint256[2]",
          "name": "proof_a",
          "type": "uint256[2]"
        },
        {
          "internalType": "uint256[2][2]",
          "name": "proof_b",
          "type": "uint256[2][2]"
        },
        {
          "internalType": "uint256[2]",
          "name": "proof_c",
          "type": "uint256[2]"
        },
        {
          "internalType": "uint256[4]",
          "name": "publicInputs",
          "type": "uint256[4]"
        }
      ],
      "name": "commitDepositBatch",
      "outputs": [
        {
          "internalType": "bool",
          "name": "success",
          "type": "bool"
        }
      ],
      "stateMutability": "nonpayable",
      "type": "function"
    },
    {
      "inputs": [
        {
          "internalType": "uint256[2]",
          "name": "proof_a",
          "type": "uint256[2]"
        },
        {
          "internalType": "uint256[2][2]",
          "name": "proof_b",
          "type": "uint256[2][2]"
        },
        {
          "internalType": "uint256[2]",
          "name": "proof_c",
          "type": "uint256[2]"
        },
        {
          "internalType": "uint256[10]",
          "name": "publicInputs",
          "type": "uint256[10]"
        }
      ],
      "name": "commitWithdrawalBatch",
      "outputs": [
        {
          "internalType": "bool",
          "name": "",
          "type": "bool"
        }
      ],
      "stateMutability": "nonpayable",
      "type": "function"
    },
    {
      "inputs": [],
      "name": "curvyVault",
      "outputs": [
        {
          "internalType": "contract ICurvyVault",
          "name": "",
          "type": "address"
        }
      ],
      "stateMutability": "view",
      "type": "function"
    },
    {
      "inputs": [
        {
          "internalType": "address",
          "name": "from",
          "type": "address"
        },
        {
          "components": [
            {
              "internalType": "uint256",
              "name": "ownerHash",
              "type": "uint256"
            },
            {
              "internalType": "uint256",
              "name": "token",
              "type": "uint256"
            },
            {
              "internalType": "uint256",
              "name": "amount",
              "type": "uint256"
            }
          ],
          "internalType": "struct CurvyTypes.Note",
          "name": "note",
          "type": "tuple"
        },
        {
          "internalType": "bytes",
          "name": "signature",
          "type": "bytes"
        }
      ],
      "name": "depositNote",
      "outputs": [],
      "stateMutability": "nonpayable",
      "type": "function"
    },
    {
      "inputs": [],
      "name": "getNoteTreeRoot",
      "outputs": [
        {
          "internalType": "uint256",
          "name": "",
          "type": "uint256"
        }
      ],
      "stateMutability": "view",
      "type": "function"
    },
    {
      "inputs": [],
      "name": "getNullifierTreeRoot",
      "outputs": [
        {
          "internalType": "uint256",
          "name": "",
          "type": "uint256"
        }
      ],
      "stateMutability": "view",
      "type": "function"
    },
    {
      "inputs": [
        {
          "internalType": "address",
          "name": "initialOwner",
          "type": "address"
        },
        {
          "internalType": "address",
          "name": "curvyVaultProxyAddress",
          "type": "address"
        }
      ],
      "name": "initialize",
      "outputs": [],
      "stateMutability": "nonpayable",
      "type": "function"
    },
    {
      "inputs": [],
      "name": "insertionVerifier",
      "outputs": [
        {
          "internalType": "contract ICurvyInsertionVerifier",
          "name": "",
          "type": "address"
        }
      ],
      "stateMutability": "view",
      "type": "function"
    },
    {
      "inputs": [],
      "name": "maxAggregations",
      "outputs": [
        {
          "internalType": "uint256",
          "name": "",
          "type": "uint256"
        }
      ],
      "stateMutability": "view",
      "type": "function"
    },
    {
      "inputs": [],
      "name": "maxDeposits",
      "outputs": [
        {
          "internalType": "uint256",
          "name": "",
          "type": "uint256"
        }
      ],
      "stateMutability": "view",
      "type": "function"
    },
    {
      "inputs": [],
      "name": "maxWithdrawals",
      "outputs": [
        {
          "internalType": "uint256",
          "name": "",
          "type": "uint256"
        }
      ],
      "stateMutability": "view",
      "type": "function"
    },
    {
      "inputs": [
        {
          "internalType": "uint256",
          "name": "noteId",
          "type": "uint256"
        }
      ],
      "name": "noteInQueue",
      "outputs": [
        {
          "internalType": "bool",
          "name": "",
          "type": "bool"
        }
      ],
      "stateMutability": "view",
      "type": "function"
    },
    {
      "inputs": [],
      "name": "owner",
      "outputs": [
        {
          "internalType": "address",
          "name": "",
          "type": "address"
        }
      ],
      "stateMutability": "view",
      "type": "function"
    },
    {
      "inputs": [],
      "name": "proxiableUUID",
      "outputs": [
        {
          "internalType": "bytes32",
          "name": "",
          "type": "bytes32"
        }
      ],
      "stateMutability": "view",
      "type": "function"
    },
    {
      "inputs": [],
      "name": "renounceOwnership",
      "outputs": [],
      "stateMutability": "nonpayable",
      "type": "function"
    },
    {
      "inputs": [
        {
          "internalType": "uint256",
          "name": "newNotesTreeRoot",
          "type": "uint256"
        },
        {
          "internalType": "uint256",
          "name": "newNullifiersTreeRoot",
          "type": "uint256"
        }
      ],
      "name": "reset",
      "outputs": [],
      "stateMutability": "nonpayable",
      "type": "function"
    },
    {
      "inputs": [
        {
          "internalType": "address",
          "name": "newOwner",
          "type": "address"
        }
      ],
      "name": "transferOwnership",
      "outputs": [],
      "stateMutability": "nonpayable",
      "type": "function"
    },
    {
      "inputs": [
        {
          "components": [
            {
              "internalType": "address",
              "name": "insertionVerifier",
              "type": "address"
            },
            {
              "internalType": "address",
              "name": "aggregationVerifier",
              "type": "address"
            },
            {
              "internalType": "address",
              "name": "withdrawVerifier",
              "type": "address"
            },
            {
              "internalType": "address",
              "name": "curvyVault",
              "type": "address"
            },
            {
              "internalType": "uint256",
              "name": "maxDeposits",
              "type": "uint256"
            },
            {
              "internalType": "uint256",
              "name": "maxWithdrawals",
              "type": "uint256"
            },
            {
              "internalType": "uint256",
              "name": "maxAggregations",
              "type": "uint256"
            }
          ],
          "internalType": "struct CurvyTypes.AggregatorConfigurationUpdate",
          "name": "_update",
          "type": "tuple"
        }
      ],
      "name": "updateConfig",
      "outputs": [
        {
          "internalType": "bool",
          "name": "",
          "type": "bool"
        }
      ],
      "stateMutability": "nonpayable",
      "type": "function"
    },
    {
      "inputs": [
        {
          "internalType": "address",
          "name": "newImplementation",
          "type": "address"
        },
        {
          "internalType": "bytes",
          "name": "data",
          "type": "bytes"
        }
      ],
      "name": "upgradeToAndCall",
      "outputs": [],
      "stateMutability": "payable",
      "type": "function"
    },
    {
      "inputs": [],
      "name": "withdrawVerifier",
      "outputs": [
        {
          "internalType": "contract ICurvyWithdrawVerifier",
          "name": "",
          "type": "address"
        }
      ],
      "stateMutability": "view",
      "type": "function"
    }
  ],
  "bytecode": "0x60a060405230608052348015610013575f5ffd5b5061001c610021565b6100d3565b7ff0c57e16840df040f15088dc2f81fe391c3923bec73e23a9662efc9c229c6a00805468010000000000000000900460ff16156100715760405163f92ee8a960e01b815260040160405180910390fd5b80546001600160401b03908116146100d05780546001600160401b0319166001600160401b0390811782556040519081527fc7f505b2f371ae2175ee4913f4499e1f2633a7b5936321eed1cdaeb6115181d29060200160405180910390a15b50565b6080516123496100f95f395f81816115b4015281816115dd015261172101526123495ff3fe608060405260043610610147575f3560e01c806375849383116100b3578063abed77901161006d578063abed779014610362578063ad3cb1cc14610381578063b4da7173146103be578063b974158a146103dd578063f1576394146103fc578063f2fde38b14610410575f5ffd5b806375849383146102c357806376775ce1146102d8578063864eb164146103065780638ae11770146103255780638da5cb5b1461033a57806395b7f22a1461034e575f5ffd5b806347107fdb1161010457806347107fdb14610237578063485cc9551461024a5780634f1ef2861461026957806352d1902d1461027c5780636a085b5014610290578063715018a6146102af575f5ffd5b806308e484961461014b5780631a82739b1461016c5780631dc43637146101a0578063354d594b146101bf5780633fb07027146101e1578063456aa4f414610218575b5f5ffd5b348015610156575f5ffd5b5061016a610165366004611bb8565b61042f565b005b348015610177575f5ffd5b5061018b610186366004611cbf565b6105b5565b60405190151581526020015b60405180910390f35b3480156101ab575f5ffd5b5061016a6101ba366004611d61565b61088f565b3480156101ca575f5ffd5b506101d35f5481565b604051908152602001610197565b3480156101ec575f5ffd5b50600654610200906001600160a01b031681565b6040516001600160a01b039091168152602001610197565b348015610223575f5ffd5b5061018b610232366004611d81565b6108a2565b61016a610245366004611df5565b610cdb565b348015610255575f5ffd5b5061016a610264366004611e27565b610eb9565b61016a610277366004611e4f565b610fda565b348015610287575f5ffd5b506101d3610ff9565b34801561029b575f5ffd5b5061018b6102aa366004611e9a565b611014565b3480156102ba575f5ffd5b5061016a61129e565b3480156102ce575f5ffd5b506101d360015481565b3480156102e3575f5ffd5b5061018b6102f2366004611f0b565b5f9081526003602052604090205460ff1690565b348015610311575f5ffd5b50600954610200906001600160a01b031681565b348015610330575f5ffd5b506101d360025481565b348015610345575f5ffd5b506102006112b1565b348015610359575f5ffd5b506005546101d3565b34801561036d575f5ffd5b50600854610200906001600160a01b031681565b34801561038c575f5ffd5b506103b1604051806040016040528060058152602001640352e302e360dc1b81525081565b6040516101979190611f50565b3480156103c9575f5ffd5b5061018b6103d8366004611f62565b6112df565b3480156103e8575f5ffd5b50600754610200906001600160a01b031681565b348015610407575f5ffd5b506004546101d3565b34801561041b575f5ffd5b5061016a61042a366004611fff565b611403565b6006546040805160c0810182526001600160a01b03868116825230602080840191909152860151828401528583015160608301525f6080830152600160a08301529151630c776f7760e21b815291909216916331ddbddc9161049691908590600401612092565b5f604051808303815f87803b1580156104ad575f5ffd5b505af11580156104bf573d5f5f3e3d5ffd5b50506040805160608101825285518152858201516020808301919091528601518183015290516320cf0a3760e01b81525f935073__$759bf5a5ad889f3dc71fc353c9ae5c518b$__92506320cf0a379161051b916004016120b9565b602060405180830381865af4158015610536573d5f5f3e3d5ffd5b505050506040513d601f19601f8201168201806040525081019061055a91906120e9565b5f8181526003602052604090819020805460ff19166001179055519091507f085eb711e9033934898875f6926d3a98c49bae62c73a015160bc22993aae4bee906105a79083815260200190565b60405180910390a150505050565b5f5f8260015460026105c79190612114565b6105d290600161212b565b600e81106105e2576105e261213e565b602002015190505f8360015460026105fa9190612114565b61060590600261212b565b600e81106106155761061561213e565b602002015190505f84600154600261062d9190612114565b61063890600361212b565b600e81106106485761064861213e565b602002015190505f8560015460026106609190612114565b61066b90600461212b565b600e811061067b5761067b61213e565b60200201519050816004541461070f5760405162461bcd60e51b815260206004820152604860248201527f437572767941676772656761746f7223636f6d6d69744167677265676174696f60448201527f6e42617463683a2043757272656e74206e6f7465207472656520726f6f74206d60648201526769736d617463682160c01b608482015260a4015b60405180910390fd5b836005541461079c5760405162461bcd60e51b815260206004820152604d60248201527f437572767941676772656761746f7223636f6d6d69744167677265676174696f60448201527f6e42617463683a2043757272656e74206e756c6c69666965722074726565207260648201526c6f6f74206d69736d617463682160981b608482015260a401610706565b600854604051638d15f88f60e01b81526001600160a01b0390911690638d15f88f906107d2908c908c908c908c906004016121a1565b602060405180830381865afa1580156107ed573d5f5f3e3d5ffd5b505050506040513d601f19601f8201168201806040525081019061081191906121fd565b61087c5760405162461bcd60e51b815260206004820152603660248201527f437572767941676772656761746f7223636f6d6d69744167677265676174696f6044820152756e42617463683a20496e76616c69642070726f6f662160501b6064820152608401610706565b6004555060055550600195945050505050565b610897611440565b600491909155600555565b60055460608201515f91146109345760405162461bcd60e51b815260206004820152604c60248201527f437572767941676772656761746f7223636f6d6d69745769746864726177616c60448201527f42617463683a2043757272656e74206e756c6c6966696572207472656520726f60648201526b6f74206d69736d617463682160a01b608482015260a401610706565b6004546040830151146109bf5760405162461bcd60e51b815260206004820152604760248201527f437572767941676772656761746f7223636f6d6d69745769746864726177616c60448201527f42617463683a2043757272656e74206e6f7465207472656520726f6f74206d69606482015266736d617463682160c81b608482015260a401610706565b6009546040516379ddb87b60e11b81526001600160a01b039091169063f3bb70f6906109f590889088908890889060040161221c565b602060405180830381865afa158015610a10573d5f5f3e3d5ffd5b505050506040513d601f19601f82011682018060405250810190610a3491906121fd565b610aa65760405162461bcd60e51b815260206004820152603e60248201527f437572767941676772656761746f7223636f6d6d69745769746864726177616c60448201527f42617463683a20496e76616c69642077697468647261772070726f6f662100006064820152608401610706565b8151600555600a5f5b600254811015610be9575f84610ac683600461212b565b600a8110610ad657610ad661213e565b602002015190505f85836002546004610aef919061212b565b610af9919061212b565b600a8110610b0957610b0961213e565b602002015190508115610bd4576006546040805160c0810182523081526001600160a01b0384811660208301529092169163de1a272091810189610b4e60018a61226c565b600a8110610b5e57610b5e61213e565b602002015181526020018581526020015f815260200160016002811115610b8757610b87612018565b8152506040518263ffffffff1660e01b8152600401610ba6919061227f565b5f604051808303815f87803b158015610bbd575f5ffd5b505af1158015610bcf573d5f5f3e3d5ffd5b505050505b50610be2905060018261212b565b9050610aaf565b506006546040805160c081019091523081526001600160a01b039091169063de1a27209060208101610c196112b1565b6001600160a01b0316815260200186610c3360018761226c565b600a8110610c4357610c4361213e565b60200201518152602001866001600a8110610c6057610c6061213e565b602002015181526020015f815260200160016002811115610c8357610c83612018565b8152506040518263ffffffff1660e01b8152600401610ca2919061227f565b5f604051808303815f87803b158015610cb9575f5ffd5b505af1158015610ccb573d5f5f3e3d5ffd5b5060019998505050505050505050565b6001600160a01b03811615801590610d1057506001600160a01b03811673eeeeeeeeeeeeeeeeeeeeeeeeeeeeeeeeeeeeeeee14155b15610d52576040820151610d32906001600160a01b0383169033903090611472565b6006546040830151610d52916001600160a01b03848116929116906114df565b60065460408381015190516320e8c56560e01b81526001600160a01b03848116600483015230602483015260448201929092525f60648201529116906320e8c5659034906084015f604051808303818588803b158015610db0575f5ffd5b505af1158015610dc2573d5f5f3e3d5ffd5b50506040805160608101825286518152868201516020808301919091528701518183015290516320cf0a3760e01b81525f945073__$759bf5a5ad889f3dc71fc353c9ae5c518b$__93506320cf0a379250610e2091906004016120b9565b602060405180830381865af4158015610e3b573d5f5f3e3d5ffd5b505050506040513d601f19601f82011682018060405250810190610e5f91906120e9565b5f8181526003602052604090819020805460ff19166001179055519091507f085eb711e9033934898875f6926d3a98c49bae62c73a015160bc22993aae4bee90610eac9083815260200190565b60405180910390a1505050565b5f610ec261156e565b805490915060ff600160401b820416159067ffffffffffffffff165f81158015610ee95750825b90505f8267ffffffffffffffff166001148015610f055750303b155b905081158015610f13575080155b15610f315760405163f92ee8a960e01b815260040160405180910390fd5b845467ffffffffffffffff191660011785558315610f5b57845460ff60401b1916600160401b1785555b60025f819055808055600155610f7087611598565b600680546001600160a01b0319166001600160a01b0388161790558315610fd157845460ff60401b19168555604051600181527fc7f505b2f371ae2175ee4913f4499e1f2633a7b5936321eed1cdaeb6115181d29060200160405180910390a15b50505050505050565b610fe26115a9565b610feb8261164d565b610ff58282611655565b5050565b5f611002611716565b505f5160206122f45f395f51905f5290565b5f805b5f548110156110f8575f8382600481106110335761103361213e565b6020020151905080156110e5575f8181526003602052604090205460ff166110cf5760405162461bcd60e51b815260206004820152604360248201527f437572767941676772656761746f7223636f6d6d69744465706f73697442617460448201527f63683a204e6f7465206e6f74207363686564756c656420666f72206465706f7360648201526269742160e81b608482015260a401610706565b5f818152600360205260409020805460ff191690555b506110f160018261212b565b9050611017565b5060048261110760028361226c565b600481106111175761111761213e565b6020020151600454146111925760405162461bcd60e51b815260206004820152603760248201527f437572767941676772656761746f7223636f6d6d69744465706f73697442617460448201527f63683a20496e76616c6964206e6f74657320726f6f74210000000000000000006064820152608401610706565b600754604051635fe8c13b60e01b81526001600160a01b0390911690635fe8c13b906111c890899089908990899060040161228d565b602060405180830381865afa1580156111e3573d5f5f3e3d5ffd5b505050506040513d601f19601f8201168201806040525081019061120791906121fd565b61126e5760405162461bcd60e51b815260206004820152603260248201527f437572767941676772656761746f7223636f6d6d69744465706f73697442617460448201527163683a20496e76616c69642070726f6f662160701b6064820152608401610706565b8261127a60018361226c565b6004811061128a5761128a61213e565b602002015160045550600195945050505050565b6112a6611440565b6112af5f61175f565b565b7f9016d09d72d40fdae2fd8ceac6b6234c7706214fd39c1cd1e609a0528c199300546001600160a01b031690565b5f6112e8611440565b81516001600160a01b03161561131a578151600780546001600160a01b0319166001600160a01b039092169190911790555b60208201516001600160a01b031615611352576020820151600880546001600160a01b0319166001600160a01b039092169190911790555b60408201516001600160a01b03161561138a576040820151600980546001600160a01b0319166001600160a01b039092169190911790555b60608201516001600160a01b0316156113c2576060820151600680546001600160a01b0319166001600160a01b039092169190911790555b6080820151156113d45760808201515f555b60c0820151156113e75760c08201516001555b60a0820151156113fa5760a08201516002555b5060015b919050565b61140b611440565b6001600160a01b03811661143457604051631e4fbdf760e01b81525f6004820152602401610706565b61143d8161175f565b50565b336114496112b1565b6001600160a01b0316146112af5760405163118cdaa760e01b8152336004820152602401610706565b6040516001600160a01b0384811660248301528381166044830152606482018390526114d99186918216906323b872dd906084015b604051602081830303815290604052915060e01b6020820180516001600160e01b0383818316178352505050506117cf565b50505050565b604080516001600160a01b038416602482015260448082018490528251808303909101815260649091019091526020810180516001600160e01b031663095ea7b360e01b179052611530848261183b565b6114d9576040516001600160a01b0384811660248301525f604483015261156491869182169063095ea7b3906064016114a7565b6114d984826117cf565b5f807ff0c57e16840df040f15088dc2f81fe391c3923bec73e23a9662efc9c229c6a005b92915050565b6115a0611884565b61143d816118a9565b306001600160a01b037f000000000000000000000000000000000000000000000000000000000000000016148061162f57507f00000000000000000000000000000000000000000000000000000000000000006001600160a01b03166116235f5160206122f45f395f51905f52546001600160a01b031690565b6001600160a01b031614155b156112af5760405163703e46dd60e11b815260040160405180910390fd5b61143d611440565b816001600160a01b03166352d1902d6040518163ffffffff1660e01b8152600401602060405180830381865afa9250505080156116af575060408051601f3d908101601f191682019092526116ac918101906120e9565b60015b6116d757604051634c9c8ce360e01b81526001600160a01b0383166004820152602401610706565b5f5160206122f45f395f51905f52811461170757604051632a87526960e21b815260048101829052602401610706565b61171183836118b1565b505050565b306001600160a01b037f000000000000000000000000000000000000000000000000000000000000000016146112af5760405163703e46dd60e11b815260040160405180910390fd5b7f9016d09d72d40fdae2fd8ceac6b6234c7706214fd39c1cd1e609a0528c19930080546001600160a01b031981166001600160a01b03848116918217845560405192169182907f8be0079c531659141344cd1fd0a4f28419497f9722a3daafe3b4186f6b6457e0905f90a3505050565b5f5f60205f8451602086015f885af1806117ee576040513d5f823e3d81fd5b50505f513d91508115611805578060011415611812565b6001600160a01b0384163b155b156114d957604051635274afe760e01b81526001600160a01b0385166004820152602401610706565b5f5f5f5f60205f8651602088015f8a5af192503d91505f51905082801561187a5750811561186c578060011461187a565b5f866001600160a01b03163b115b9695505050505050565b61188c611906565b6112af57604051631afcd79f60e31b815260040160405180910390fd5b61140b611884565b6118ba8261191f565b6040516001600160a01b038316907fbc7cd75a20ee27fd9adebab32041f755214dbc6bffa90cc0225b39da2e5c2d3b905f90a28051156118fe576117118282611982565b610ff56119f4565b5f61190f61156e565b54600160401b900460ff16919050565b806001600160a01b03163b5f0361195457604051634c9c8ce360e01b81526001600160a01b0382166004820152602401610706565b5f5160206122f45f395f51905f5280546001600160a01b0319166001600160a01b0392909216919091179055565b60605f5f846001600160a01b03168460405161199e91906122dd565b5f60405180830381855af49150503d805f81146119d6576040519150601f19603f3d011682016040523d82523d5f602084013e6119db565b606091505b50915091506119eb858383611a13565b95945050505050565b34156112af5760405163b398979f60e01b815260040160405180910390fd5b606082611a2857611a2382611a72565b611a6b565b8151158015611a3f57506001600160a01b0384163b155b15611a6857604051639996b31560e01b81526001600160a01b0385166004820152602401610706565b50805b9392505050565b805115611a8157805160208201fd5b60405163d6bda27560e01b815260040160405180910390fd5b80356001600160a01b03811681146113fe575f5ffd5b634e487b7160e01b5f52604160045260245ffd5b604051601f8201601f1916810167ffffffffffffffff81118282101715611aed57611aed611ab0565b604052919050565b5f60608284031215611b05575f5ffd5b6040516060810167ffffffffffffffff81118282101715611b2857611b28611ab0565b60409081528335825260208085013590830152928301359281019290925250919050565b5f82601f830112611b5b575f5ffd5b813567ffffffffffffffff811115611b7557611b75611ab0565b611b88601f8201601f1916602001611ac4565b818152846020838601011115611b9c575f5ffd5b816020850160208301375f918101602001919091529392505050565b5f5f5f60a08486031215611bca575f5ffd5b611bd384611a9a565b9250611be28560208601611af5565b9150608084013567ffffffffffffffff811115611bfd575f5ffd5b611c0986828701611b4c565b9150509250925092565b5f82601f830112611c22575f5ffd5b5f611c2d6040611ac4565b9050806040840185811115611c40575f5ffd5b845b81811015611c5a578035835260209283019201611c42565b509195945050505050565b5f82601f830112611c74575f5ffd5b6040611c7f81611ac4565b806080850186811115611c90575f5ffd5b855b81811015611cb357611ca48882611c13565b84526020909301928401611c92565b50909695505050505050565b5f5f5f5f6102c08587031215611cd3575f5ffd5b611cdd8686611c13565b9350611cec8660408701611c65565b9250611cfb8660c08701611c13565b91505f8661011f870112611d0d575f5ffd5b505f806101c0611d1c81611ac4565b9150508091506102c0870188811115611d33575f5ffd5b61010088015b81811015611d51578035845260209384019301611d39565b5050809250505092959194509250565b5f5f60408385031215611d72575f5ffd5b50508035926020909101359150565b5f5f5f5f6102408587031215611d95575f5ffd5b611d9f8686611c13565b9350611dae8660408701611c65565b9250611dbd8660c08701611c13565b91505f8661011f870112611dcf575f5ffd5b505f80610140611dde81611ac4565b915050809150610240870188811115611d33575f5ffd5b5f5f60808385031215611e06575f5ffd5b611e108484611af5565b9150611e1e60608401611a9a565b90509250929050565b5f5f60408385031215611e38575f5ffd5b611e4183611a9a565b9150611e1e60208401611a9a565b5f5f60408385031215611e60575f5ffd5b611e6983611a9a565b9150602083013567ffffffffffffffff811115611e84575f5ffd5b611e9085828601611b4c565b9150509250929050565b5f5f5f5f6101808587031215611eae575f5ffd5b611eb88686611c13565b9350611ec78660408701611c65565b9250611ed68660c08701611c13565b91505f8661011f870112611ee8575f5ffd5b505f80611ef56080611ac4565b9050809150610180870188811115611d33575f5ffd5b5f60208284031215611f1b575f5ffd5b5035919050565b5f81518084528060208401602086015e5f602082860101526020601f19601f83011685010191505092915050565b602081525f611a6b6020830184611f22565b5f60e0828403128015611f73575f5ffd5b5060405160e0810167ffffffffffffffff81118282101715611f9757611f97611ab0565b604052611fa383611a9a565b8152611fb160208401611a9a565b6020820152611fc260408401611a9a565b6040820152611fd360608401611a9a565b60608201526080838101359082015260a0808401359082015260c0928301359281019290925250919050565b5f6020828403121561200f575f5ffd5b611a6b82611a9a565b634e487b7160e01b5f52602160045260245ffd5b80516001600160a01b0390811683526020808301519091169083015260408082015190830152606080820151908301526080808201519083015260a08101516003811061208757634e487b7160e01b5f52602160045260245ffd5b8060a0840152505050565b61209c818461202c565b60e060c08201525f6120b160e0830184611f22565b949350505050565b6060810181835f5b60038110156120e05781518352602092830192909101906001016120c1565b50505092915050565b5f602082840312156120f9575f5ffd5b5051919050565b634e487b7160e01b5f52601160045260245ffd5b808202811582820484141761159257611592612100565b8082018082111561159257611592612100565b634e487b7160e01b5f52603260045260245ffd5b805f5b60028110156114d9578151845260209384019390910190600101612155565b805f5b60028110156114d95761218b848351612152565b6040939093019260209190910190600101612177565b6102c081016121b08287612152565b6121bd6040830186612174565b6121ca60c0830185612152565b6101008201835f5b600e8110156121f15781518352602092830192909101906001016121d2565b50505095945050505050565b5f6020828403121561220d575f5ffd5b81518015158114611a6b575f5ffd5b610240810161222b8287612152565b6122386040830186612174565b61224560c0830185612152565b6101008201835f5b600a8110156121f157815183526020928301929091019060010161224d565b8181038181111561159257611592612100565b60c08101611592828461202c565b610180810161229c8287612152565b6122a96040830186612174565b6122b660c0830185612152565b6101008201835f5b60048110156121f15781518352602092830192909101906001016122be565b5f82518060208501845e5f92019182525091905056fe360894a13ba1a3210667c828492db98dca3e2076cc3735a920a3ca505d382bbca2646970667358221220aedcde494d2ddc6618214f3c3fedf6f87d81e4af37b412f7e8154d593e66638164736f6c634300081c0033",
  "linkReferences": {
    "project/contracts/aggregator-alpha/utils/PoseidonT4.sol": {
      "PoseidonT4": [
        {
          "length": 20,
          "start": 1517
        },
        {
          "length": 20,
          "start": 3824
        }
      ]
    }
  },
  "deployedLinkReferences": {
    "project/contracts/aggregator-alpha/utils/PoseidonT4.sol": {
      "PoseidonT4": [
        {
          "length": 20,
          "start": 1268
        },
        {
          "length": 20,
          "start": 3575
        }
      ]
    }
  },
  "immutableReferences": {
    "482": [
      {
        "length": 32,
        "start": 5556
      },
      {
        "length": 32,
        "start": 5597
      },
      {
        "length": 32,
        "start": 5921
      }
    ]
  },
  "inputSourceName": "project/contracts/aggregator-alpha/CurvyAggregatorAlphaV2.sol",
  "buildInfoId": "solc-0_8_28-7a2a10e7a9dc5ff8c509c64f1bf012399107187a"
}