{
  "_format": "hh3-artifact-1",
  "contractName": "CurvyVaultV1",
  "sourceName": "contracts/vault/CurvyVaultV1.sol",
  "abi": [
    {
      "inputs": [],
      "stateMutability": "nonpayable",
      "type": "constructor"
    },
    {
      "inputs": [
        {
          "internalType": "address",
          "name": "target",
          "type": "address"
        }
      ],
      "name": "AddressEmptyCode",
      "type": "error"
    },
    {
      "inputs": [],
      "name": "ECDSAInvalidSignature",
      "type": "error"
    },
    {
      "inputs": [
        {
          "internalType": "uint256",
          "name": "length",
          "type": "uint256"
        }
      ],
      "name": "ECDSAInvalidSignatureLength",
      "type": "error"
    },
    {
      "inputs": [
        {
          "internalType": "bytes32",
          "name": "s",
          "type": "bytes32"
        }
      ],
      "name": "ECDSAInvalidSignatureS",
      "type": "error"
    },
    {
      "inputs": [
        {
          "internalType": "address",
          "name": "implementation",
          "type": "address"
        }
      ],
      "name": "ERC1967InvalidImplementation",
      "type": "error"
    },
    {
      "inputs": [],
      "name": "ERC1967NonPayable",
      "type": "error"
    },
    {
      "inputs": [],
      "name": "ETHTransferFailed",
      "type": "error"
    },
    {
      "inputs": [],
      "name": "FailedCall",
      "type": "error"
    },
    {
      "inputs": [],
      "name": "InsufficientAmountForGas",
      "type": "error"
    },
    {
      "inputs": [
        {
          "internalType": "uint256",
          "name": "balance",
          "type": "uint256"
        },
        {
          "internalType": "uint256",
          "name": "required",
          "type": "uint256"
        }
      ],
      "name": "InsufficientBalance",
      "type": "error"
    },
    {
      "inputs": [],
      "name": "InvalidGasSponsorship",
      "type": "error"
    },
    {
      "inputs": [],
      "name": "InvalidInitialization",
      "type": "error"
    },
    {
      "inputs": [],
      "name": "InvalidRecipient",
      "type": "error"
    },
    {
      "inputs": [],
      "name": "InvalidSender",
      "type": "error"
    },
    {
      "inputs": [],
      "name": "InvalidTransactionType",
      "type": "error"
    },
    {
      "inputs": [],
      "name": "NotInitializing",
      "type": "error"
    },
    {
      "inputs": [
        {
          "internalType": "address",
          "name": "owner",
          "type": "address"
        }
      ],
      "name": "OwnableInvalidOwner",
      "type": "error"
    },
    {
      "inputs": [
        {
          "internalType": "address",
          "name": "account",
          "type": "address"
        }
      ],
      "name": "OwnableUnauthorizedAccount",
      "type": "error"
    },
    {
      "inputs": [
        {
          "internalType": "address",
          "name": "token",
          "type": "address"
        }
      ],
      "name": "SafeERC20FailedOperation",
      "type": "error"
    },
    {
      "inputs": [],
      "name": "TokenNotRegistered",
      "type": "error"
    },
    {
      "inputs": [],
      "name": "UUPSUnauthorizedCallContext",
      "type": "error"
    },
    {
      "inputs": [
        {
          "internalType": "bytes32",
          "name": "slot",
          "type": "bytes32"
        }
      ],
      "name": "UUPSUnsupportedProxiableUUID",
      "type": "error"
    },
    {
      "anonymous": false,
      "inputs": [],
      "name": "EIP712DomainChanged",
      "type": "event"
    },
    {
      "anonymous": false,
      "inputs": [
        {
          "indexed": false,
          "internalType": "enum CurvyTypes.MetaTransactionType",
          "name": "metaTransactionType",
          "type": "uint8"
        },
        {
          "indexed": false,
          "internalType": "uint96",
          "name": "fee",
          "type": "uint96"
        }
      ],
      "name": "FeeChange",
      "type": "event"
    },
    {
      "anonymous": false,
      "inputs": [
        {
          "indexed": false,
          "internalType": "uint64",
          "name": "version",
          "type": "uint64"
        }
      ],
      "name": "Initialized",
      "type": "event"
    },
    {
      "anonymous": false,
      "inputs": [
        {
          "indexed": true,
          "internalType": "address",
          "name": "signer",
          "type": "address"
        },
        {
          "indexed": false,
          "internalType": "uint256",
          "name": "newNonce",
          "type": "uint256"
        }
      ],
      "name": "NonceChange",
      "type": "event"
    },
    {
      "anonymous": false,
      "inputs": [
        {
          "indexed": true,
          "internalType": "address",
          "name": "previousOwner",
          "type": "address"
        },
        {
          "indexed": true,
          "internalType": "address",
          "name": "newOwner",
          "type": "address"
        }
      ],
      "name": "OwnershipTransferred",
      "type": "event"
    },
    {
      "anonymous": false,
      "inputs": [
        {
          "indexed": false,
          "internalType": "address",
          "name": "token_address",
          "type": "address"
        },
        {
          "indexed": false,
          "internalType": "uint256",
          "name": "token_id",
          "type": "uint256"
        }
      ],
      "name": "TokenRegistration",
      "type": "event"
    },
    {
      "anonymous": false,
      "inputs": [
        {
          "indexed": true,
          "internalType": "address",
          "name": "from",
          "type": "address"
        },
        {
          "indexed": true,
          "internalType": "address",
          "name": "to",
          "type": "address"
        },
        {
          "indexed": false,
          "internalType": "uint256",
          "name": "token_id",
          "type": "uint256"
        },
        {
          "indexed": false,
          "internalType": "uint256",
          "name": "amount",
          "type": "uint256"
        }
      ],
      "name": "Transfer",
      "type": "event"
    },
    {
      "anonymous": false,
      "inputs": [
        {
          "indexed": true,
          "internalType": "address",
          "name": "implementation",
          "type": "address"
        }
      ],
      "name": "Upgraded",
      "type": "event"
    },
    {
      "inputs": [],
      "name": "UPGRADE_INTERFACE_VERSION",
      "outputs": [
        {
          "internalType": "string",
          "name": "",
          "type": "string"
        }
      ],
      "stateMutability": "view",
      "type": "function"
    },
    {
      "inputs": [
        {
          "internalType": "address",
          "name": "owner",
          "type": "address"
        },
        {
          "internalType": "uint256",
          "name": "tokenId",
          "type": "uint256"
        }
      ],
      "name": "balanceOf",
      "outputs": [
        {
          "internalType": "uint256",
          "name": "",
          "type": "uint256"
        }
      ],
      "stateMutability": "view",
      "type": "function"
    },
    {
      "inputs": [
        {
          "internalType": "address[]",
          "name": "owners",
          "type": "address[]"
        },
        {
          "internalType": "uint256[]",
          "name": "tokenIds",
          "type": "uint256[]"
        }
      ],
      "name": "balanceOfBatch",
      "outputs": [
        {
          "internalType": "uint256[]",
          "name": "",
          "type": "uint256[]"
        }
      ],
      "stateMutability": "view",
      "type": "function"
    },
    {
      "inputs": [
        {
          "internalType": "address",
          "name": "tokenAddress",
          "type": "address"
        },
        {
          "internalType": "address",
          "name": "to",
          "type": "address"
        },
        {
          "internalType": "uint256",
          "name": "amount",
          "type": "uint256"
        },
        {
          "internalType": "uint256",
          "name": "gasSponsorshipAmount",
          "type": "uint256"
        }
      ],
      "name": "deposit",
      "outputs": [],
      "stateMutability": "payable",
      "type": "function"
    },
    {
      "inputs": [],
      "name": "depositFee",
      "outputs": [
        {
          "internalType": "uint96",
          "name": "",
          "type": "uint96"
        }
      ],
      "stateMutability": "view",
      "type": "function"
    },
    {
      "inputs": [],
      "name": "eip712Domain",
      "outputs": [
        {
          "internalType": "bytes1",
          "name": "fields",
          "type": "bytes1"
        },
        {
          "internalType": "string",
          "name": "name",
          "type": "string"
        },
        {
          "internalType": "string",
          "name": "version",
          "type": "string"
        },
        {
          "internalType": "uint256",
          "name": "chainId",
          "type": "uint256"
        },
        {
          "internalType": "address",
          "name": "verifyingContract",
          "type": "address"
        },
        {
          "internalType": "bytes32",
          "name": "salt",
          "type": "bytes32"
        },
        {
          "internalType": "uint256[]",
          "name": "extensions",
          "type": "uint256[]"
        }
      ],
      "stateMutability": "view",
      "type": "function"
    },
    {
      "inputs": [],
      "name": "getDepositFee",
      "outputs": [
        {
          "internalType": "uint96",
          "name": "",
          "type": "uint96"
        }
      ],
      "stateMutability": "view",
      "type": "function"
    },
    {
      "inputs": [
        {
          "internalType": "address",
          "name": "_signer",
          "type": "address"
        }
      ],
      "name": "getNonce",
      "outputs": [
        {
          "internalType": "uint256",
          "name": "nonce",
          "type": "uint256"
        }
      ],
      "stateMutability": "view",
      "type": "function"
    },
    {
      "inputs": [],
      "name": "getNumberOfTokens",
      "outputs": [
        {
          "internalType": "uint256",
          "name": "",
          "type": "uint256"
        }
      ],
      "stateMutability": "view",
      "type": "function"
    },
    {
      "inputs": [
        {
          "internalType": "uint256",
          "name": "tokenId",
          "type": "uint256"
        }
      ],
      "name": "getTokenAddress",
      "outputs": [
        {
          "internalType": "address",
          "name": "tokenAddress",
          "type": "address"
        }
      ],
      "stateMutability": "view",
      "type": "function"
    },
    {
      "inputs": [
        {
          "internalType": "address",
          "name": "tokenAddress",
          "type": "address"
        }
      ],
      "name": "getTokenId",
      "outputs": [
        {
          "internalType": "uint256",
          "name": "tokenId",
          "type": "uint256"
        }
      ],
      "stateMutability": "view",
      "type": "function"
    },
    {
      "inputs": [
        {
          "internalType": "address",
          "name": "initialOwner",
          "type": "address"
        }
      ],
      "name": "initialize",
      "outputs": [],
      "stateMutability": "nonpayable",
      "type": "function"
    },
    {
      "inputs": [],
      "name": "owner",
      "outputs": [
        {
          "internalType": "address",
          "name": "",
          "type": "address"
        }
      ],
      "stateMutability": "view",
      "type": "function"
    },
    {
      "inputs": [],
      "name": "proxiableUUID",
      "outputs": [
        {
          "internalType": "bytes32",
          "name": "",
          "type": "bytes32"
        }
      ],
      "stateMutability": "view",
      "type": "function"
    },
    {
      "inputs": [
        {
          "internalType": "address",
          "name": "tokenAddress",
          "type": "address"
        }
      ],
      "name": "registerToken",
      "outputs": [],
      "stateMutability": "nonpayable",
      "type": "function"
    },
    {
      "inputs": [],
      "name": "renounceOwnership",
      "outputs": [],
      "stateMutability": "nonpayable",
      "type": "function"
    },
    {
      "inputs": [
        {
          "internalType": "enum CurvyTypes.MetaTransactionType",
          "name": "metaTransactionType",
          "type": "uint8"
        },
        {
          "internalType": "uint96",
          "name": "fee",
          "type": "uint96"
        }
      ],
      "name": "setFeeAmount",
      "outputs": [],
      "stateMutability": "nonpayable",
      "type": "function"
    },
    {
      "inputs": [
        {
          "components": [
            {
              "internalType": "address",
              "name": "from",
              "type": "address"
            },
            {
              "internalType": "address",
              "name": "to",
              "type": "address"
            },
            {
              "internalType": "uint256",
              "name": "tokenId",
              "type": "uint256"
            },
            {
              "internalType": "uint256",
              "name": "amount",
              "type": "uint256"
            },
            {
              "internalType": "uint256",
              "name": "gasFee",
              "type": "uint256"
            },
            {
              "internalType": "enum CurvyTypes.MetaTransactionType",
              "name": "metaTransactionType",
              "type": "uint8"
            }
          ],
          "internalType": "struct CurvyTypes.MetaTransaction",
          "name": "metaTransaction",
          "type": "tuple"
        },
        {
          "internalType": "bytes",
          "name": "signature",
          "type": "bytes"
        }
      ],
      "name": "transfer",
      "outputs": [],
      "stateMutability": "nonpayable",
      "type": "function"
    },
    {
      "inputs": [
        {
          "components": [
            {
              "internalType": "address",
              "name": "from",
              "type": "address"
            },
            {
              "internalType": "address",
              "name": "to",
              "type": "address"
            },
            {
              "internalType": "uint256",
              "name": "tokenId",
              "type": "uint256"
            },
            {
              "internalType": "uint256",
              "name": "amount",
              "type": "uint256"
            },
            {
              "internalType": "uint256",
              "name": "gasFee",
              "type": "uint256"
            },
            {
              "internalType": "enum CurvyTypes.MetaTransactionType",
              "name": "metaTransactionType",
              "type": "uint8"
            }
          ],
          "internalType": "struct CurvyTypes.MetaTransaction",
          "name": "metaTransaction",
          "type": "tuple"
        }
      ],
      "name": "transfer",
      "outputs": [],
      "stateMutability": "nonpayable",
      "type": "function"
    },
    {
      "inputs": [],
      "name": "transferFee",
      "outputs": [
        {
          "internalType": "uint96",
          "name": "",
          "type": "uint96"
        }
      ],
      "stateMutability": "view",
      "type": "function"
    },
    {
      "inputs": [
        {
          "internalType": "address",
          "name": "newOwner",
          "type": "address"
        }
      ],
      "name": "transferOwnership",
      "outputs": [],
      "stateMutability": "nonpayable",
      "type": "function"
    },
    {
      "inputs": [
        {
          "internalType": "address",
          "name": "newImplementation",
          "type": "address"
        },
        {
          "internalType": "bytes",
          "name": "data",
          "type": "bytes"
        }
      ],
      "name": "upgradeToAndCall",
      "outputs": [],
      "stateMutability": "payable",
      "type": "function"
    },
    {
      "inputs": [
        {
          "components": [
            {
              "internalType": "address",
              "name": "from",
              "type": "address"
            },
            {
              "internalType": "address",
              "name": "to",
              "type": "address"
            },
            {
              "internalType": "uint256",
              "name": "tokenId",
              "type": "uint256"
            },
            {
              "internalType": "uint256",
              "name": "amount",
              "type": "uint256"
            },
            {
              "internalType": "uint256",
              "name": "gasFee",
              "type": "uint256"
            },
            {
              "internalType": "enum CurvyTypes.MetaTransactionType",
              "name": "metaTransactionType",
              "type": "uint8"
            }
          ],
          "internalType": "struct CurvyTypes.MetaTransaction",
          "name": "metaTransaction",
          "type": "tuple"
        }
      ],
      "name": "withdraw",
      "outputs": [],
      "stateMutability": "nonpayable",
      "type": "function"
    },
    {
      "inputs": [
        {
          "components": [
            {
              "internalType": "address",
              "name": "from",
              "type": "address"
            },
            {
              "internalType": "address",
              "name": "to",
              "type": "address"
            },
            {
              "internalType": "uint256",
              "name": "tokenId",
              "type": "uint256"
            },
            {
              "internalType": "uint256",
              "name": "amount",
              "type": "uint256"
            },
            {
              "internalType": "uint256",
              "name": "gasFee",
              "type": "uint256"
            },
            {
              "internalType": "enum CurvyTypes.MetaTransactionType",
              "name": "metaTransactionType",
              "type": "uint8"
            }
          ],
          "internalType": "struct CurvyTypes.MetaTransaction",
          "name": "metaTransaction",
          "type": "tuple"
        },
        {
          "internalType": "bytes",
          "name": "signature",
          "type": "bytes"
        }
      ],
      "name": "withdraw",
      "outputs": [],
      "stateMutability": "nonpayable",
      "type": "function"
    },
    {
      "inputs": [],
      "name": "withdrawalFee",
      "outputs": [
        {
          "internalType": "uint96",
          "name": "",
          "type": "uint96"
        }
      ],
      "stateMutability": "view",
      "type": "function"
    },
    {
      "stateMutability": "payable",
      "type": "receive"
    }
  ],
  "bytecode": "0x60a060405230608052348015610013575f5ffd5b5061001c610021565b6100d3565b7ff0c57e16840df040f15088dc2f81fe391c3923bec73e23a9662efc9c229c6a00805468010000000000000000900460ff16156100715760405163f92ee8a960e01b815260040160405180910390fd5b80546001600160401b03908116146100d05780546001600160401b0319166001600160401b0390811782556040519081527fc7f505b2f371ae2175ee4913f4499e1f2633a7b5936321eed1cdaeb6115181d29060200160405180910390a15b50565b608051612c656100f95f395f81816116f80152818161172101526118650152612c655ff3fe608060405260043610610163575f3560e01c806384b0196e116100cd578063b86c4d7211610087578063efeecb5111610062578063efeecb511461046c578063f153768614610480578063f2fde38b1461049f578063fe54fd6a146104be575f5ffd5b8063b86c4d721461040f578063c4d66de81461042e578063de1a27201461044d575f5ffd5b806384b0196e146103335780638bc7e8c41461035a5780638da5cb5b14610379578063acb2ad6f1461038d578063ad3cb1cc146103b3578063ad8623cc146103f0575f5ffd5b80634e1273f41161011e5780634e1273f4146102765780634f1ef286146102a257806352d1902d146102b557806367a52793146102c957806367ccdf38146102e8578063715018a61461031f575f5ffd5b8062fdd58e1461018e57806309824a80146101c05780630de705b5146101df57806320e8c565146102105780632d0335ab1461022357806331ddbddc14610257575f5ffd5b3661018a5761018873eeeeeeeeeeeeeeeeeeeeeeeeeeeeeeeeeeeeeeee33345f6104dd565b005b5f5ffd5b348015610199575f5ffd5b506101ad6101a83660046124a0565b610822565b6040519081526020015b60405180910390f35b3480156101cb575f5ffd5b506101886101da3660046124c8565b61084a565b3480156101ea575f5ffd5b506005546001600160601b03165b6040516001600160601b0390911681526020016101b7565b61018861021e3660046124e1565b6104dd565b34801561022e575f5ffd5b506101ad61023d3660046124c8565b6001600160a01b03165f9081526001602052604090205490565b348015610262575f5ffd5b506101886102713660046125e7565b610961565b348015610281575f5ffd5b506102956102903660046126c0565b610978565b6040516101b791906127b3565b6101886102b03660046127c5565b610ac7565b3480156102c0575f5ffd5b506101ad610ae2565b3480156102d4575f5ffd5b506005546101f8906001600160601b031681565b3480156102f3575f5ffd5b506103076103023660046127fa565b610afd565b6040516001600160a01b0390911681526020016101b7565b34801561032a575f5ffd5b50610188610b7c565b34801561033e575f5ffd5b50610347610b8f565b6040516101b7979695949392919061283f565b348015610365575f5ffd5b506006546101f8906001600160601b031681565b348015610384575f5ffd5b50610307610c38565b348015610398575f5ffd5b506005546101f890600160601b90046001600160601b031681565b3480156103be575f5ffd5b506103e3604051806040016040528060058152602001640352e302e360dc1b81525081565b6040516101b791906128ae565b3480156103fb575f5ffd5b5061018861040a3660046128c0565b610c66565b34801561041a575f5ffd5b506101886104293660046128e8565b610cd3565b348015610439575f5ffd5b506101886104483660046124c8565b610e2b565b348015610458575f5ffd5b506101886104673660046128c0565b611012565b348015610477575f5ffd5b506002546101ad565b34801561048b575f5ffd5b506101ad61049a3660046124c8565b61107c565b3480156104aa575f5ffd5b506101886104b93660046124c8565b6110f8565b3480156104c9575f5ffd5b506101886104d83660046125e7565b611132565b6001600160a01b03831661050457604051634e46966960e11b815260040160405180910390fd5b5f6001600160a01b03851673eeeeeeeeeeeeeeeeeeeeeeeeeeeeeeeeeeeeeeee146105ef57341561059b5760405162461bcd60e51b815260206004820152603660248201527f43757276795661756c74236465706f7369743a20446f6e27742073656e64204560448201527554482077697468204552433230206465706f7369742160501b60648201526084015b60405180910390fd5b6105b06001600160a01b038616333086611145565b506001600160a01b0384165f90815260036020526040812054908190036105ea5760405163259ba1ad60e01b815260040160405180910390fd5b610657565b3483146106535760405162461bcd60e51b815260206004820152602c60248201527f43757276795661756c74236465706f7369743a20496e636f727265637420646560448201526b706f7369742076616c75652160a01b6064820152608401610592565b5060015b6001600160a01b0384165f908152602081815260408083208484529091528120805485929061068790849061293c565b90915550506005546001600160601b03161561074c576005545f90612710906106b9906001600160601b03168661294f565b6106c39190612966565b6001600160a01b0386165f908152602081815260408083208684529091528120805492935083929091906106f8908490612985565b909155508190505f80610709610c38565b6001600160a01b03166001600160a01b031681526020019081526020015f205f8481526020019081526020015f205f828254610745919061293c565b9091555050505b81156107d5576001600160a01b0384165f9081526020818152604080832084845290915281208054849290610782908490612985565b909155508290505f80610793610c38565b6001600160a01b03166001600160a01b031681526020019081526020015f205f8381526020019081526020015f205f8282546107cf919061293c565b90915550505b60408051828152602081018590526001600160a01b038616915f917f9ed053bb818ff08b8353cd46f78db1f0799f31c9e4458fdb425c10eccd2efc44910160405180910390a35050505050565b6001600160a01b0382165f908152602081815260408083208484529091529020545b92915050565b6108526111b2565b6001600160a01b0381165f90815260036020526040902054156108d35760405162461bcd60e51b815260206004820152603360248201527f43757276795661756c74237265676973746572546f6b656e3a20546f6b656e20604482015272616c726561647920726567697374657265642160681b6064820152608401610592565b60028054905f6108e283612998565b9091555050600280545f90815260046020908152604080832080546001600160a01b0319166001600160a01b038716908117909155935484845260038352928190208390558051938452908301919091527ff977d54986414fc91816901629d1d788ad95448ab4198dcb9b6dc5ed2b930c1f910160405180910390a150565b61096b82826111e4565b610974826113b6565b5050565b606081518351146109e45760405162461bcd60e51b815260206004820152603060248201527f43757276795661756c742362616c616e63654f6642617463683a20496e76616c60448201526f6964206172726179206c656e6774682160801b6064820152608401610592565b5f835167ffffffffffffffff8111156109ff576109ff612536565b604051908082528060200260200182016040528015610a28578160200160208202803683370190505b5090505f5b8451811015610abf575f5f868381518110610a4a57610a4a6129b0565b60200260200101516001600160a01b03166001600160a01b031681526020019081526020015f205f858381518110610a8457610a846129b0565b602002602001015181526020019081526020015f2054828281518110610aac57610aac6129b0565b6020908102919091010152600101610a2d565b509392505050565b610acf6116ed565b610ad882611791565b6109748282611799565b5f610aeb61185a565b505f516020612c105f395f51905f5290565b5f818152600460205260409020546001600160a01b031680610b775760405162461bcd60e51b815260206004820152602d60248201527f43757276795661756c743a236765744964416464726573733a20556e7265676960448201526c73746572656420746f6b656e2160981b6064820152608401610592565b919050565b610b846111b2565b610b8d5f6118a3565b565b5f60608082808083815f516020612bf05f395f51905f528054909150158015610bba57506001810154155b610bfe5760405162461bcd60e51b81526020600482015260156024820152741152540dcc4c8e88155b9a5b9a5d1a585b1a5e9959605a1b6044820152606401610592565b610c06611913565b610c0e6119d3565b604080515f80825260208201909252600f60f81b9c939b5091995046985030975095509350915050565b7f9016d09d72d40fdae2fd8ceac6b6234c7706214fd39c1cd1e609a0528c199300546001600160a01b031690565b610c7360208201826124c8565b6001600160a01b0316336001600160a01b031614610ca457604051636edaef2f60e11b815260040160405180910390fd5b608081013515610cc75760405163094816b760e41b815260040160405180910390fd5b610cd081611a11565b50565b610cdb6111b2565b6002826002811115610cef57610cef6129c4565b03610d1457600580546001600160601b0319166001600160601b038316179055610dee565b6001826002811115610d2857610d286129c4565b03610d5b57600580546bffffffffffffffffffffffff60601b1916600160601b6001600160601b03841602179055610dee565b5f826002811115610d6e57610d6e6129c4565b03610d9357600680546001600160601b0319166001600160601b038316179055610dee565b60405162461bcd60e51b815260206004820152602a60248201527f43757276795661756c7423736574466565416d6f756e743a20556e6b6e6f776e6044820152692066656520747970652160b01b6064820152608401610592565b7f5f70d5d3c1200aea00f3b75c7a1b38bcfc5455bd0863e6fcd4f097304b859d9c8282604051610e1f9291906129f8565b60405180910390a15050565b5f610e34611de5565b805490915060ff600160401b820416159067ffffffffffffffff165f81158015610e5b5750825b90505f8267ffffffffffffffff166001148015610e775750303b155b905081158015610e85575080155b15610ea35760405163f92ee8a960e01b815260040160405180910390fd5b845467ffffffffffffffff191660011785558315610ecd57845460ff60401b1916600160401b1785555b60017f40c35f83c179e47de306c9fe55fdc60064f11dd52adb51ab61b5643ee626f98d8190555f819052600460209081527fabd6e7cb50984ff9c2f3e18a2660c3353dadf4e3291deeb275dae2cd1e44fe0580546001600160a01b03191673eeeeeeeeeeeeeeeeeeeeeeeeeeeeeeeeeeeeeeee179055600291909155604080518082018252601381527210dd5c9d9e48141c9a5d9858de4815985d5b1d606a1b81840152815180830190925260038252620312e360ec1b92820192909252610f959190611e0d565b610f9e86611e1f565b600580546001600160c01b031916600a179055600680546001600160601b0319166014179055831561100a57845460ff60401b19168555604051600181527fc7f505b2f371ae2175ee4913f4499e1f2633a7b5936321eed1cdaeb6115181d29060200160405180910390a15b505050505050565b61101f60208201826124c8565b6001600160a01b0316336001600160a01b03161461105057604051636edaef2f60e11b815260040160405180910390fd5b6080810135156110735760405163094816b760e41b815260040160405180910390fd5b610cd0816113b6565b6001600160a01b0381165f9081526003602052604081205490819003610b775760405162461bcd60e51b815260206004820152602b60248201527f43757276795661756c743a23676574546f6b656e49443a20556e72656769737460448201526a6572656420746f6b656e2160a81b6064820152608401610592565b6111006111b2565b6001600160a01b03811661112957604051631e4fbdf760e01b81525f6004820152602401610592565b610cd0816118a3565b61113c82826111e4565b61097482611a11565b6040516001600160a01b0384811660248301528381166044830152606482018390526111ac9186918216906323b872dd906084015b604051602081830303815290604052915060e01b6020820180516001600160e01b038381831617835250505050611e30565b50505050565b336111bb610c38565b6001600160a01b031614610b8d5760405163118cdaa760e01b8152336004820152602401610592565b5f7fb208091ed952365f02c7667b3695159d6ab560ae0ba382eea4872477552b281e60018261121660208701876124c8565b6001600160a01b031681526020808201929092526040015f20549061123d908601866124c8565b61124d60408701602088016124c8565b60408701356060880135608089013561126c60c08b0160a08c01612a1c565b604051602001611283989796959493929190612a35565b6040516020818303038152906040528051906020012090505f6112a582611e9c565b90505f6112b28285611ec8565b90506112c160208601866124c8565b6001600160a01b0316816001600160a01b03161461133b5760405162461bcd60e51b815260206004820152603160248201527f43757276795661756c74235f76616c69646174655369676e61747572653a20496044820152706e76616c6964207369676e61747572652160781b6064820152608401610592565b6001600160a01b0381165f90815260016020526040812080549161135e83612998565b90915550506001600160a01b0381165f818152600160209081526040918290205491519182527fb861b7bdbe611a846ab271b8d2810391bc8b5a968f390c322438ecab66bccf59910160405180910390a25050505050565b5f6113c760408301602084016124c8565b6001600160a01b0316036113ee57604051634e46966960e11b815260040160405180910390fd5b600161140060c0830160a08401612a1c565b6002811115611411576114116129c4565b1461142f57604051637513b90360e01b815260040160405180910390fd5b60608101355f8061144360208501856124c8565b6001600160a01b03166001600160a01b031681526020019081526020015f205f836040013581526020019081526020015f205f8282546114839190612985565b909155505060608101355f8061149f60408501602086016124c8565b6001600160a01b03166001600160a01b031681526020019081526020015f205f836040013581526020019081526020015f205f8282546114df919061293c565b909155505060808101351561157e5760808101355f8061150560408501602086016124c8565b6001600160a01b03166001600160a01b031681526020019081526020015f205f836040013581526020019081526020015f205f8282546115459190612985565b9091555050325f90815260208181526040808320818501358452909152812080546080840135929061157890849061293c565b90915550505b600554600160601b90046001600160601b031615611671576005545f90612710906115bd90600160601b90046001600160601b0316606085013561294f565b6115c79190612966565b9050805f806115d960208601866124c8565b6001600160a01b03166001600160a01b031681526020019081526020015f205f846040013581526020019081526020015f205f8282546116199190612985565b909155508190505f8061162a610c38565b6001600160a01b03166001600160a01b031681526020019081526020015f205f846040013581526020019081526020015f205f82825461166a919061293c565b9091555050505b61168160408201602083016124c8565b6001600160a01b031661169760208301836124c8565b6001600160a01b03167f9ed053bb818ff08b8353cd46f78db1f0799f31c9e4458fdb425c10eccd2efc44836040013584606001356040516116e2929190918252602082015260400190565b60405180910390a350565b306001600160a01b037f000000000000000000000000000000000000000000000000000000000000000016148061177357507f00000000000000000000000000000000000000000000000000000000000000006001600160a01b03166117675f516020612c105f395f51905f52546001600160a01b031690565b6001600160a01b031614155b15610b8d5760405163703e46dd60e11b815260040160405180910390fd5b610cd06111b2565b816001600160a01b03166352d1902d6040518163ffffffff1660e01b8152600401602060405180830381865afa9250505080156117f3575060408051601f3d908101601f191682019092526117f091810190612a8a565b60015b61181b57604051634c9c8ce360e01b81526001600160a01b0383166004820152602401610592565b5f516020612c105f395f51905f52811461184b57604051632a87526960e21b815260048101829052602401610592565b6118558383611ef0565b505050565b306001600160a01b037f00000000000000000000000000000000000000000000000000000000000000001614610b8d5760405163703e46dd60e11b815260040160405180910390fd5b7f9016d09d72d40fdae2fd8ceac6b6234c7706214fd39c1cd1e609a0528c19930080546001600160a01b031981166001600160a01b03848116918217845560405192169182907f8be0079c531659141344cd1fd0a4f28419497f9722a3daafe3b4186f6b6457e0905f90a3505050565b7fa16a46d94261c7517cc8ff89f61c0ce93598e3c849801011dee649a6a557d10280546060915f516020612bf05f395f51905f529161195190612aa1565b80601f016020809104026020016040519081016040528092919081815260200182805461197d90612aa1565b80156119c85780601f1061199f576101008083540402835291602001916119c8565b820191905f5260205f20905b8154815290600101906020018083116119ab57829003601f168201915b505050505091505090565b7fa16a46d94261c7517cc8ff89f61c0ce93598e3c849801011dee649a6a557d10380546060915f516020612bf05f395f51905f529161195190612aa1565b5f611a2260408301602084016124c8565b6001600160a01b031603611a925760405162461bcd60e51b815260206004820152603160248201527f43757276795661756c74235f77697468647261773a20496e76616c696420776960448201527074686472617720726563697069656e742160781b6064820152608401610592565b5f611aa360c0830160a08401612a1c565b6002811115611ab457611ab46129c4565b14611b1f5760405162461bcd60e51b815260206004820152603560248201527f43757276795661756c742377697468647261773a2057726f6e67207479706520604482015274666f72206d657461207472616e73616374696f6e2160581b6064820152608401610592565b60608101355f80611b3360208501856124c8565b6001600160a01b03166001600160a01b031681526020019081526020015f205f836040013581526020019081526020015f205f828254611b739190612985565b90915550506060810135608082013515611bce57611b95608083013582612985565b325f9081526020818152604080832081870135845290915281208054929350608085013592909190611bc890849061293c565b90915550505b6006546001600160601b031615611c69576006545f9061271090611bff906001600160601b0316606086013561294f565b611c099190612966565b9050611c158183612985565b9150805f5f611c22610c38565b6001600160a01b03166001600160a01b031681526020019081526020015f205f856040013581526020019081526020015f205f828254611c62919061293c565b9091555050505b6001826040013514611cbb57604080830180355f90815260046020908152929020546001600160a01b031691611cb591611ca49186016124c8565b6001600160a01b0383169084611f45565b50611d80565b5f611ccc60408401602085016124c8565b6001600160a01b0316826040515f6040518083038185875af1925050503d805f8114611d13576040519150601f19603f3d011682016040523d82523d5f602084013e611d18565b606091505b5050905080611d7e5760405162461bcd60e51b815260206004820152602c60248201527f43757276795661756c74235f77697468647261773a204554482077697468647260448201526b6177616c206661696c65642160a01b6064820152608401610592565b505b5f611d8e60208401846124c8565b6001600160a01b03167f9ed053bb818ff08b8353cd46f78db1f0799f31c9e4458fdb425c10eccd2efc4484604001358560600135604051611dd9929190918252602082015260400190565b60405180910390a35050565b5f807ff0c57e16840df040f15088dc2f81fe391c3923bec73e23a9662efc9c229c6a00610844565b611e15611f76565b6109748282611f9b565b611e27611f76565b610cd081611ffa565b5f5f60205f8451602086015f885af180611e4f576040513d5f823e3d81fd5b50505f513d91508115611e66578060011415611e73565b6001600160a01b0384163b155b156111ac57604051635274afe760e01b81526001600160a01b0385166004820152602401610592565b5f610844611ea8612002565b8360405161190160f01b8152600281019290925260228201526042902090565b5f5f5f5f611ed68686612010565b925092509250611ee68282612059565b5090949350505050565b611ef982612111565b6040516001600160a01b038316907fbc7cd75a20ee27fd9adebab32041f755214dbc6bffa90cc0225b39da2e5c2d3b905f90a2805115611f3d576118558282612174565b6109746121e6565b6040516001600160a01b0383811660248301526044820183905261185591859182169063a9059cbb9060640161117a565b611f7e612205565b610b8d57604051631afcd79f60e31b815260040160405180910390fd5b611fa3611f76565b5f516020612bf05f395f51905f527fa16a46d94261c7517cc8ff89f61c0ce93598e3c849801011dee649a6a557d102611fdc8482612b1e565b5060038101611feb8382612b1e565b505f8082556001909101555050565b611100611f76565b5f61200b61221e565b905090565b5f5f5f8351604103612047576020840151604085015160608601515f1a61203988828585612291565b955095509550505050612052565b505081515f91506002905b9250925092565b5f82600381111561206c5761206c6129c4565b03612075575050565b6001826003811115612089576120896129c4565b036120a75760405163f645eedf60e01b815260040160405180910390fd5b60028260038111156120bb576120bb6129c4565b036120dc5760405163fce698f760e01b815260048101829052602401610592565b60038260038111156120f0576120f06129c4565b03610974576040516335e2f38360e21b815260048101829052602401610592565b806001600160a01b03163b5f0361214657604051634c9c8ce360e01b81526001600160a01b0382166004820152602401610592565b5f516020612c105f395f51905f5280546001600160a01b0319166001600160a01b0392909216919091179055565b60605f5f846001600160a01b0316846040516121909190612bd9565b5f60405180830381855af49150503d805f81146121c8576040519150601f19603f3d011682016040523d82523d5f602084013e6121cd565b606091505b50915091506121dd858383612359565b95945050505050565b3415610b8d5760405163b398979f60e01b815260040160405180910390fd5b5f61220e611de5565b54600160401b900460ff16919050565b5f7f8b73c3c69bb8fe3d512ecc4cf759cc79239f7b179b0ffacaa9a75d522b39400f6122486123b8565b612250612420565b60408051602081019490945283019190915260608201524660808201523060a082015260c00160405160208183030381529060405280519060200120905090565b5f80807f7fffffffffffffffffffffffffffffff5d576e7357a4501ddfe92f46681b20a08411156122ca57505f9150600390508261234f565b604080515f808252602082018084528a905260ff891692820192909252606081018790526080810186905260019060a0016020604051602081039080840390855afa15801561231b573d5f5f3e3d5ffd5b5050604051601f1901519150506001600160a01b03811661234657505f92506001915082905061234f565b92505f91508190505b9450945094915050565b60608261236e5761236982612462565b6123b1565b815115801561238557506001600160a01b0384163b155b156123ae57604051639996b31560e01b81526001600160a01b0385166004820152602401610592565b50805b9392505050565b5f5f516020612bf05f395f51905f52816123d0611913565b8051909150156123e857805160209091012092915050565b815480156123f7579392505050565b7fc5d2460186f7233c927e7db2dcc703c0e500b653ca82273b7bfad8045d85a470935050505090565b5f5f516020612bf05f395f51905f52816124386119d3565b80519091501561245057805160209091012092915050565b600182015480156123f7579392505050565b80511561247157805160208201fd5b60405163d6bda27560e01b815260040160405180910390fd5b80356001600160a01b0381168114610b77575f5ffd5b5f5f604083850312156124b1575f5ffd5b6124ba8361248a565b946020939093013593505050565b5f602082840312156124d8575f5ffd5b6123b18261248a565b5f5f5f5f608085870312156124f4575f5ffd5b6124fd8561248a565b935061250b6020860161248a565b93969395505050506040820135916060013590565b5f60c08284031215612530575f5ffd5b50919050565b634e487b7160e01b5f52604160045260245ffd5b604051601f8201601f1916810167ffffffffffffffff8111828210171561257357612573612536565b604052919050565b5f82601f83011261258a575f5ffd5b813567ffffffffffffffff8111156125a4576125a4612536565b6125b7601f8201601f191660200161254a565b8181528460208386010111156125cb575f5ffd5b816020850160208301375f918101602001919091529392505050565b5f5f60e083850312156125f8575f5ffd5b6126028484612520565b915060c083013567ffffffffffffffff81111561261d575f5ffd5b6126298582860161257b565b9150509250929050565b5f67ffffffffffffffff82111561264c5761264c612536565b5060051b60200190565b5f82601f830112612665575f5ffd5b813561267861267382612633565b61254a565b8082825260208201915060208360051b860101925085831115612699575f5ffd5b602085015b838110156126b657803583526020928301920161269e565b5095945050505050565b5f5f604083850312156126d1575f5ffd5b823567ffffffffffffffff8111156126e7575f5ffd5b8301601f810185136126f7575f5ffd5b803561270561267382612633565b8082825260208201915060208360051b850101925087831115612726575f5ffd5b6020840193505b8284101561274f5761273e8461248a565b82526020938401939091019061272d565b9450505050602083013567ffffffffffffffff81111561276d575f5ffd5b61262985828601612656565b5f8151808452602084019350602083015f5b828110156127a957815186526020958601959091019060010161278b565b5093949350505050565b602081525f6123b16020830184612779565b5f5f604083850312156127d6575f5ffd5b6127df8361248a565b9150602083013567ffffffffffffffff81111561261d575f5ffd5b5f6020828403121561280a575f5ffd5b5035919050565b5f81518084528060208401602086015e5f602082860101526020601f19601f83011685010191505092915050565b60ff60f81b8816815260e060208201525f61285d60e0830189612811565b828103604084015261286f8189612811565b606084018890526001600160a01b038716608085015260a0840186905283810360c085015290506128a08185612779565b9a9950505050505050505050565b602081525f6123b16020830184612811565b5f60c082840312156128d0575f5ffd5b6123b18383612520565b803560038110610b77575f5ffd5b5f5f604083850312156128f9575f5ffd5b612902836128da565b915060208301356001600160601b038116811461291d575f5ffd5b809150509250929050565b634e487b7160e01b5f52601160045260245ffd5b8082018082111561084457610844612928565b808202811582820484141761084457610844612928565b5f8261298057634e487b7160e01b5f52601260045260245ffd5b500490565b8181038181111561084457610844612928565b5f600182016129a9576129a9612928565b5060010190565b634e487b7160e01b5f52603260045260245ffd5b634e487b7160e01b5f52602160045260245ffd5b600381106129f457634e487b7160e01b5f52602160045260245ffd5b9052565b60408101612a0682856129d8565b6001600160601b03831660208301529392505050565b5f60208284031215612a2c575f5ffd5b6123b1826128da565b888152602081018890526001600160a01b038781166040830152861660608201526080810185905260a0810184905260c081018390526101008101612a7d60e08301846129d8565b9998505050505050505050565b5f60208284031215612a9a575f5ffd5b5051919050565b600181811c90821680612ab557607f821691505b60208210810361253057634e487b7160e01b5f52602260045260245ffd5b601f82111561185557805f5260205f20601f840160051c81016020851015612af85750805b601f840160051c820191505b81811015612b17575f8155600101612b04565b5050505050565b815167ffffffffffffffff811115612b3857612b38612536565b612b4c81612b468454612aa1565b84612ad3565b6020601f821160018114612b7e575f8315612b675750848201515b5f19600385901b1c1916600184901b178455612b17565b5f84815260208120601f198516915b82811015612bad5787850151825560209485019460019092019101612b8d565b5084821015612bca57868401515f19600387901b60f8161c191681555b50505050600190811b01905550565b5f82518060208501845e5f92019182525091905056fea16a46d94261c7517cc8ff89f61c0ce93598e3c849801011dee649a6a557d100360894a13ba1a3210667c828492db98dca3e2076cc3735a920a3ca505d382bbca2646970667358221220abe2678650327fed8d3eae8107f48ccae2e9b57d6359a80c760258fcf7efbfb464736f6c634300081c0033",
  "linkReferences": {},
  "deployedLinkReferences": {},
  "immutableReferences": {
    "482": [
      {
        "length": 32,
        "start": 5880
      },
      {
        "length": 32,
        "start": 5921
      },
      {
        "length": 32,
        "start": 6245
      }
    ]
  },
  "inputSourceName": "project/contracts/vault/CurvyVaultV1.sol",
  "buildInfoId": "solc-0_8_28-1977cd8e3be5dea747e3c03b926ad50cbf3fb64b"
}