{
  "_format": "hh3-artifact-1",
  "contractName": "CurvyAggregatorAlphaV4",
  "sourceName": "contracts/aggregator-alpha/CurvyAggregatorAlphaV4.sol",
  "abi": [
    {
      "inputs": [],
      "stateMutability": "nonpayable",
      "type": "constructor"
    },
    {
      "inputs": [
        {
          "internalType": "address",
          "name": "target",
          "type": "address"
        }
      ],
      "name": "AddressEmptyCode",
      "type": "error"
    },
    {
      "inputs": [
        {
          "internalType": "address",
          "name": "implementation",
          "type": "address"
        }
      ],
      "name": "ERC1967InvalidImplementation",
      "type": "error"
    },
    {
      "inputs": [],
      "name": "ERC1967NonPayable",
      "type": "error"
    },
    {
      "inputs": [],
      "name": "FailedCall",
      "type": "error"
    },
    {
      "inputs": [],
      "name": "InvalidInitialization",
      "type": "error"
    },
    {
      "inputs": [],
      "name": "NotInitializing",
      "type": "error"
    },
    {
      "inputs": [
        {
          "internalType": "address",
          "name": "owner",
          "type": "address"
        }
      ],
      "name": "OwnableInvalidOwner",
      "type": "error"
    },
    {
      "inputs": [
        {
          "internalType": "address",
          "name": "account",
          "type": "address"
        }
      ],
      "name": "OwnableUnauthorizedAccount",
      "type": "error"
    },
    {
      "inputs": [
        {
          "internalType": "address",
          "name": "token",
          "type": "address"
        }
      ],
      "name": "SafeERC20FailedOperation",
      "type": "error"
    },
    {
      "inputs": [],
      "name": "UUPSUnauthorizedCallContext",
      "type": "error"
    },
    {
      "inputs": [
        {
          "internalType": "bytes32",
          "name": "slot",
          "type": "bytes32"
        }
      ],
      "name": "UUPSUnsupportedProxiableUUID",
      "type": "error"
    },
    {
      "anonymous": false,
      "inputs": [
        {
          "indexed": false,
          "internalType": "uint256",
          "name": "noteId",
          "type": "uint256"
        }
      ],
      "name": "DepositedNote",
      "type": "event"
    },
    {
      "anonymous": false,
      "inputs": [
        {
          "indexed": false,
          "internalType": "uint64",
          "name": "version",
          "type": "uint64"
        }
      ],
      "name": "Initialized",
      "type": "event"
    },
    {
      "anonymous": false,
      "inputs": [
        {
          "indexed": true,
          "internalType": "address",
          "name": "previousOwner",
          "type": "address"
        },
        {
          "indexed": true,
          "internalType": "address",
          "name": "newOwner",
          "type": "address"
        }
      ],
      "name": "OwnershipTransferred",
      "type": "event"
    },
    {
      "anonymous": false,
      "inputs": [
        {
          "indexed": true,
          "internalType": "address",
          "name": "implementation",
          "type": "address"
        }
      ],
      "name": "Upgraded",
      "type": "event"
    },
    {
      "inputs": [],
      "name": "UPGRADE_INTERFACE_VERSION",
      "outputs": [
        {
          "internalType": "string",
          "name": "",
          "type": "string"
        }
      ],
      "stateMutability": "view",
      "type": "function"
    },
    {
      "inputs": [],
      "name": "aggregationVerifier",
      "outputs": [
        {
          "internalType": "contract ICurvyAggregationVerifier",
          "name": "",
          "type": "address"
        }
      ],
      "stateMutability": "view",
      "type": "function"
    },
    {
      "inputs": [
        {
          "components": [
            {
              "internalType": "uint256",
              "name": "ownerHash",
              "type": "uint256"
            },
            {
              "internalType": "uint256",
              "name": "token",
              "type": "uint256"
            },
            {
              "internalType": "uint256",
              "name": "amount",
              "type": "uint256"
            }
          ],
          "internalType": "struct CurvyTypes.Note",
          "name": "note",
          "type": "tuple"
        },
        {
          "internalType": "address",
          "name": "tokenAddress",
          "type": "address"
        }
      ],
      "name": "autoShield",
      "outputs": [],
      "stateMutability": "payable",
      "type": "function"
    },
    {
      "inputs": [
        {
          "internalType": "uint256[2]",
          "name": "proof_a",
          "type": "uint256[2]"
        },
        {
          "internalType": "uint256[2][2]",
          "name": "proof_b",
          "type": "uint256[2][2]"
        },
        {
          "internalType": "uint256[2]",
          "name": "proof_c",
          "type": "uint256[2]"
        },
        {
          "internalType": "uint256[14]",
          "name": "publicInputs",
          "type": "uint256[14]"
        }
      ],
      "name": "commitAggregationBatch",
      "outputs": [
        {
          "internalType": "bool",
          "name": "",
          "type": "bool"
        }
      ],
      "stateMutability": "nonpayable",
      "type": "function"
    },
    {
      "inputs": [
        {
          "internalType": "uint256[2]",
          "name": "proof_a",
          "type": "uint256[2]"
        },
        {
          "internalType": "uint256[2][2]",
          "name": "proof_b",
          "type": "uint256[2][2]"
        },
        {
          "internalType": "uint256[2]",
          "name": "proof_c",
          "type": "uint256[2]"
        },
        {
          "internalType": "uint256[4]",
          "name": "publicInputs",
          "type": "uint256[4]"
        }
      ],
      "name": "commitDepositBatch",
      "outputs": [
        {
          "internalType": "bool",
          "name": "success",
          "type": "bool"
        }
      ],
      "stateMutability": "nonpayable",
      "type": "function"
    },
    {
      "inputs": [
        {
          "internalType": "uint256[2]",
          "name": "proof_a",
          "type": "uint256[2]"
        },
        {
          "internalType": "uint256[2][2]",
          "name": "proof_b",
          "type": "uint256[2][2]"
        },
        {
          "internalType": "uint256[2]",
          "name": "proof_c",
          "type": "uint256[2]"
        },
        {
          "internalType": "uint256[10]",
          "name": "publicInputs",
          "type": "uint256[10]"
        }
      ],
      "name": "commitWithdrawalBatch",
      "outputs": [
        {
          "internalType": "bool",
          "name": "",
          "type": "bool"
        }
      ],
      "stateMutability": "nonpayable",
      "type": "function"
    },
    {
      "inputs": [],
      "name": "curvyVault",
      "outputs": [
        {
          "internalType": "contract ICurvyVault",
          "name": "",
          "type": "address"
        }
      ],
      "stateMutability": "view",
      "type": "function"
    },
    {
      "inputs": [
        {
          "internalType": "address",
          "name": "from",
          "type": "address"
        },
        {
          "components": [
            {
              "internalType": "uint256",
              "name": "ownerHash",
              "type": "uint256"
            },
            {
              "internalType": "uint256",
              "name": "token",
              "type": "uint256"
            },
            {
              "internalType": "uint256",
              "name": "amount",
              "type": "uint256"
            }
          ],
          "internalType": "struct CurvyTypes.Note",
          "name": "note",
          "type": "tuple"
        },
        {
          "internalType": "bytes",
          "name": "signature",
          "type": "bytes"
        }
      ],
      "name": "depositNote",
      "outputs": [],
      "stateMutability": "nonpayable",
      "type": "function"
    },
    {
      "inputs": [],
      "name": "getNoteTreeRoot",
      "outputs": [
        {
          "internalType": "uint256",
          "name": "",
          "type": "uint256"
        }
      ],
      "stateMutability": "view",
      "type": "function"
    },
    {
      "inputs": [],
      "name": "getNullifierTreeRoot",
      "outputs": [
        {
          "internalType": "uint256",
          "name": "",
          "type": "uint256"
        }
      ],
      "stateMutability": "view",
      "type": "function"
    },
    {
      "inputs": [
        {
          "internalType": "address",
          "name": "initialOwner",
          "type": "address"
        }
      ],
      "name": "initialize",
      "outputs": [],
      "stateMutability": "nonpayable",
      "type": "function"
    },
    {
      "inputs": [],
      "name": "insertionVerifier",
      "outputs": [
        {
          "internalType": "contract ICurvyInsertionVerifier",
          "name": "",
          "type": "address"
        }
      ],
      "stateMutability": "view",
      "type": "function"
    },
    {
      "inputs": [],
      "name": "maxAggregations",
      "outputs": [
        {
          "internalType": "uint256",
          "name": "",
          "type": "uint256"
        }
      ],
      "stateMutability": "view",
      "type": "function"
    },
    {
      "inputs": [],
      "name": "maxDeposits",
      "outputs": [
        {
          "internalType": "uint256",
          "name": "",
          "type": "uint256"
        }
      ],
      "stateMutability": "view",
      "type": "function"
    },
    {
      "inputs": [],
      "name": "maxWithdrawals",
      "outputs": [
        {
          "internalType": "uint256",
          "name": "",
          "type": "uint256"
        }
      ],
      "stateMutability": "view",
      "type": "function"
    },
    {
      "inputs": [
        {
          "internalType": "uint256",
          "name": "noteId",
          "type": "uint256"
        }
      ],
      "name": "noteInQueue",
      "outputs": [
        {
          "internalType": "bool",
          "name": "",
          "type": "bool"
        }
      ],
      "stateMutability": "view",
      "type": "function"
    },
    {
      "inputs": [],
      "name": "owner",
      "outputs": [
        {
          "internalType": "address",
          "name": "",
          "type": "address"
        }
      ],
      "stateMutability": "view",
      "type": "function"
    },
    {
      "inputs": [],
      "name": "portalFactory",
      "outputs": [
        {
          "internalType": "contract IPortalFactory",
          "name": "",
          "type": "address"
        }
      ],
      "stateMutability": "view",
      "type": "function"
    },
    {
      "inputs": [],
      "name": "proxiableUUID",
      "outputs": [
        {
          "internalType": "bytes32",
          "name": "",
          "type": "bytes32"
        }
      ],
      "stateMutability": "view",
      "type": "function"
    },
    {
      "inputs": [],
      "name": "renounceOwnership",
      "outputs": [],
      "stateMutability": "nonpayable",
      "type": "function"
    },
    {
      "inputs": [
        {
          "internalType": "uint256",
          "name": "newNotesTreeRoot",
          "type": "uint256"
        },
        {
          "internalType": "uint256",
          "name": "newNullifiersTreeRoot",
          "type": "uint256"
        }
      ],
      "name": "reset",
      "outputs": [],
      "stateMutability": "nonpayable",
      "type": "function"
    },
    {
      "inputs": [
        {
          "internalType": "address",
          "name": "newOwner",
          "type": "address"
        }
      ],
      "name": "transferOwnership",
      "outputs": [],
      "stateMutability": "nonpayable",
      "type": "function"
    },
    {
      "inputs": [
        {
          "components": [
            {
              "internalType": "address",
              "name": "insertionVerifier",
              "type": "address"
            },
            {
              "internalType": "address",
              "name": "aggregationVerifier",
              "type": "address"
            },
            {
              "internalType": "address",
              "name": "withdrawVerifier",
              "type": "address"
            },
            {
              "internalType": "address",
              "name": "curvyVault",
              "type": "address"
            },
            {
              "internalType": "address",
              "name": "portalFactory",
              "type": "address"
            },
            {
              "internalType": "uint256",
              "name": "maxDeposits",
              "type": "uint256"
            },
            {
              "internalType": "uint256",
              "name": "maxWithdrawals",
              "type": "uint256"
            },
            {
              "internalType": "uint256",
              "name": "maxAggregations",
              "type": "uint256"
            }
          ],
          "internalType": "struct CurvyTypes.AggregatorConfigurationUpdateV2",
          "name": "_update",
          "type": "tuple"
        }
      ],
      "name": "updateConfig",
      "outputs": [
        {
          "internalType": "bool",
          "name": "",
          "type": "bool"
        }
      ],
      "stateMutability": "nonpayable",
      "type": "function"
    },
    {
      "inputs": [
        {
          "internalType": "address",
          "name": "newImplementation",
          "type": "address"
        },
        {
          "internalType": "bytes",
          "name": "data",
          "type": "bytes"
        }
      ],
      "name": "upgradeToAndCall",
      "outputs": [],
      "stateMutability": "payable",
      "type": "function"
    },
    {
      "inputs": [],
      "name": "withdrawVerifier",
      "outputs": [
        {
          "internalType": "contract ICurvyWithdrawVerifier",
          "name": "",
          "type": "address"
        }
      ],
      "stateMutability": "view",
      "type": "function"
    }
  ],
  "bytecode": "0x60a060405230608052348015610013575f5ffd5b5061001c610021565b6100d3565b7ff0c57e16840df040f15088dc2f81fe391c3923bec73e23a9662efc9c229c6a00805468010000000000000000900460ff16156100715760405163f92ee8a960e01b815260040160405180910390fd5b80546001600160401b03908116146100d05780546001600160401b0319166001600160401b0390811782556040519081527fc7f505b2f371ae2175ee4913f4499e1f2633a7b5936321eed1cdaeb6115181d29060200160405180910390a15b50565b6080516124506100f95f395f818161168a015281816116b301526117f701526124505ff3fe608060405260043610610161575f3560e01c806375849383116100cd578063abed779011610087578063c4d66de811610062578063c4d66de8146103f7578063cf101a4914610416578063f157639414610435578063f2fde38b14610449575f5ffd5b8063abed77901461037c578063ad3cb1cc1461039b578063b974158a146103d8575f5ffd5b806375849383146102dd57806376775ce1146102f2578063864eb164146103205780638ae117701461033f5780638da5cb5b1461035457806395b7f22a14610368575f5ffd5b8063456aa4f41161011e578063456aa4f41461025157806347107fdb146102705780634f1ef2861461028357806352d1902d146102965780636a085b50146102aa578063715018a6146102c9575f5ffd5b806308e48496146101655780631a82739b146101865780631dc43637146101ba5780632654a8e6146101d9578063354d594b146102105780633fb0702714610232575b5f5ffd5b348015610170575f5ffd5b5061018461017f366004611cf3565b610468565b005b348015610191575f5ffd5b506101a56101a0366004611dfa565b6105ee565b60405190151581526020015b60405180910390f35b3480156101c5575f5ffd5b506101846101d4366004611e9c565b6108c8565b3480156101e4575f5ffd5b50600a546101f8906001600160a01b031681565b6040516001600160a01b0390911681526020016101b1565b34801561021b575f5ffd5b506102245f5481565b6040519081526020016101b1565b34801561023d575f5ffd5b506006546101f8906001600160a01b031681565b34801561025c575f5ffd5b506101a561026b366004611ebc565b6108db565b61018461027e366004611f30565b610d14565b610184610291366004611f62565b610fba565b3480156102a1575f5ffd5b50610224610fd9565b3480156102b5575f5ffd5b506101a56102c4366004611fad565b610ff4565b3480156102d4575f5ffd5b5061018461127e565b3480156102e8575f5ffd5b5061022460015481565b3480156102fd575f5ffd5b506101a561030c36600461201e565b5f9081526003602052604090205460ff1690565b34801561032b575f5ffd5b506009546101f8906001600160a01b031681565b34801561034a575f5ffd5b5061022460025481565b34801561035f575f5ffd5b506101f8611291565b348015610373575f5ffd5b50600554610224565b348015610387575f5ffd5b506008546101f8906001600160a01b031681565b3480156103a6575f5ffd5b506103cb604051806040016040528060058152602001640352e302e360dc1b81525081565b6040516101b19190612063565b3480156103e3575f5ffd5b506007546101f8906001600160a01b031681565b348015610402575f5ffd5b50610184610411366004612075565b6112bf565b348015610421575f5ffd5b506101a561043036600461208e565b6113b8565b348015610440575f5ffd5b50600454610224565b348015610454575f5ffd5b50610184610463366004612075565b611514565b6006546040805160c0810182526001600160a01b03868116825230602080840191909152860151828401528583015160608301525f6080830152600160a08301529151630c776f7760e21b815291909216916331ddbddc916104cf91908590600401612199565b5f604051808303815f87803b1580156104e6575f5ffd5b505af11580156104f8573d5f5f3e3d5ffd5b50506040805160608101825285518152858201516020808301919091528601518183015290516320cf0a3760e01b81525f935073__$759bf5a5ad889f3dc71fc353c9ae5c518b$__92506320cf0a3791610554916004016121c0565b602060405180830381865af415801561056f573d5f5f3e3d5ffd5b505050506040513d601f19601f8201168201806040525081019061059391906121f0565b5f8181526003602052604090819020805460ff19166001179055519091507f085eb711e9033934898875f6926d3a98c49bae62c73a015160bc22993aae4bee906105e09083815260200190565b60405180910390a150505050565b5f5f826001546002610600919061221b565b61060b906001612232565b600e811061061b5761061b612245565b602002015190505f836001546002610633919061221b565b61063e906002612232565b600e811061064e5761064e612245565b602002015190505f846001546002610666919061221b565b610671906003612232565b600e811061068157610681612245565b602002015190505f856001546002610699919061221b565b6106a4906004612232565b600e81106106b4576106b4612245565b6020020151905081600454146107485760405162461bcd60e51b815260206004820152604860248201527f437572767941676772656761746f7223636f6d6d69744167677265676174696f60448201527f6e42617463683a2043757272656e74206e6f7465207472656520726f6f74206d60648201526769736d617463682160c01b608482015260a4015b60405180910390fd5b83600554146107d55760405162461bcd60e51b815260206004820152604d60248201527f437572767941676772656761746f7223636f6d6d69744167677265676174696f60448201527f6e42617463683a2043757272656e74206e756c6c69666965722074726565207260648201526c6f6f74206d69736d617463682160981b608482015260a40161073f565b600854604051638d15f88f60e01b81526001600160a01b0390911690638d15f88f9061080b908c908c908c908c906004016122a8565b602060405180830381865afa158015610826573d5f5f3e3d5ffd5b505050506040513d601f19601f8201168201806040525081019061084a9190612304565b6108b55760405162461bcd60e51b815260206004820152603660248201527f437572767941676772656761746f7223636f6d6d69744167677265676174696f6044820152756e42617463683a20496e76616c69642070726f6f662160501b606482015260840161073f565b6004555060055550600195945050505050565b6108d0611551565b600491909155600555565b60055460608201515f911461096d5760405162461bcd60e51b815260206004820152604c60248201527f437572767941676772656761746f7223636f6d6d69745769746864726177616c60448201527f42617463683a2043757272656e74206e756c6c6966696572207472656520726f60648201526b6f74206d69736d617463682160a01b608482015260a40161073f565b6004546040830151146109f85760405162461bcd60e51b815260206004820152604760248201527f437572767941676772656761746f7223636f6d6d69745769746864726177616c60448201527f42617463683a2043757272656e74206e6f7465207472656520726f6f74206d69606482015266736d617463682160c81b608482015260a40161073f565b6009546040516379ddb87b60e11b81526001600160a01b039091169063f3bb70f690610a2e908890889088908890600401612323565b602060405180830381865afa158015610a49573d5f5f3e3d5ffd5b505050506040513d601f19601f82011682018060405250810190610a6d9190612304565b610adf5760405162461bcd60e51b815260206004820152603e60248201527f437572767941676772656761746f7223636f6d6d69745769746864726177616c60448201527f42617463683a20496e76616c69642077697468647261772070726f6f66210000606482015260840161073f565b8151600555600a5f5b600254811015610c22575f84610aff836004612232565b600a8110610b0f57610b0f612245565b602002015190505f85836002546004610b289190612232565b610b329190612232565b600a8110610b4257610b42612245565b602002015190508115610c0d576006546040805160c0810182523081526001600160a01b0384811660208301529092169163de1a272091810189610b8760018a612373565b600a8110610b9757610b97612245565b602002015181526020018581526020015f815260200160016002811115610bc057610bc061211f565b8152506040518263ffffffff1660e01b8152600401610bdf9190612386565b5f604051808303815f87803b158015610bf6575f5ffd5b505af1158015610c08573d5f5f3e3d5ffd5b505050505b50610c1b9050600182612232565b9050610ae8565b506006546040805160c081019091523081526001600160a01b039091169063de1a27209060208101610c52611291565b6001600160a01b0316815260200186610c6c600187612373565b600a8110610c7c57610c7c612245565b60200201518152602001866001600a8110610c9957610c99612245565b602002015181526020015f815260200160016002811115610cbc57610cbc61211f565b8152506040518263ffffffff1660e01b8152600401610cdb9190612386565b5f604051808303815f87803b158015610cf2575f5ffd5b505af1158015610d04573d5f5f3e3d5ffd5b5060019998505050505050505050565b600a5460405163eb2347fd60e01b81523360048201526001600160a01b039091169063eb2347fd90602401602060405180830381865afa158015610d5a573d5f5f3e3d5ffd5b505050506040513d601f19601f82011682018060405250810190610d7e9190612304565b610ddc5760405162461bcd60e51b815260206004820152602960248201527f437572767941676772656761746f723a20706f7274616c206973206e6f7420726044820152681959da5cdd195c995960ba1b606482015260840161073f565b6001600160a01b03811615801590610e1157506001600160a01b03811673eeeeeeeeeeeeeeeeeeeeeeeeeeeeeeeeeeeeeeee14155b15610e53576040820151610e33906001600160a01b0383169033903090611583565b6006546040830151610e53916001600160a01b03848116929116906115f0565b60065460408381015190516320e8c56560e01b81526001600160a01b03848116600483015230602483015260448201929092525f60648201529116906320e8c5659034906084015f604051808303818588803b158015610eb1575f5ffd5b505af1158015610ec3573d5f5f3e3d5ffd5b50506040805160608101825286518152868201516020808301919091528701518183015290516320cf0a3760e01b81525f945073__$759bf5a5ad889f3dc71fc353c9ae5c518b$__93506320cf0a379250610f2191906004016121c0565b602060405180830381865af4158015610f3c573d5f5f3e3d5ffd5b505050506040513d601f19601f82011682018060405250810190610f6091906121f0565b5f8181526003602052604090819020805460ff19166001179055519091507f085eb711e9033934898875f6926d3a98c49bae62c73a015160bc22993aae4bee90610fad9083815260200190565b60405180910390a1505050565b610fc261167f565b610fcb82611723565b610fd5828261172b565b5050565b5f610fe26117ec565b505f5160206123fb5f395f51905f5290565b5f805b5f548110156110d8575f83826004811061101357611013612245565b6020020151905080156110c5575f8181526003602052604090205460ff166110af5760405162461bcd60e51b815260206004820152604360248201527f437572767941676772656761746f7223636f6d6d69744465706f73697442617460448201527f63683a204e6f7465206e6f74207363686564756c656420666f72206465706f7360648201526269742160e81b608482015260a40161073f565b5f818152600360205260409020805460ff191690555b506110d1600182612232565b9050610ff7565b506004826110e7600283612373565b600481106110f7576110f7612245565b6020020151600454146111725760405162461bcd60e51b815260206004820152603760248201527f437572767941676772656761746f7223636f6d6d69744465706f73697442617460448201527f63683a20496e76616c6964206e6f74657320726f6f7421000000000000000000606482015260840161073f565b600754604051635fe8c13b60e01b81526001600160a01b0390911690635fe8c13b906111a8908990899089908990600401612394565b602060405180830381865afa1580156111c3573d5f5f3e3d5ffd5b505050506040513d601f19601f820116820180604052508101906111e79190612304565b61124e5760405162461bcd60e51b815260206004820152603260248201527f437572767941676772656761746f7223636f6d6d69744465706f73697442617460448201527163683a20496e76616c69642070726f6f662160701b606482015260840161073f565b8261125a600183612373565b6004811061126a5761126a612245565b602002015160045550600195945050505050565b611286611551565b61128f5f611835565b565b7f9016d09d72d40fdae2fd8ceac6b6234c7706214fd39c1cd1e609a0528c199300546001600160a01b031690565b5f6112c86118a5565b805490915060ff600160401b820416159067ffffffffffffffff165f811580156112ef5750825b90505f8267ffffffffffffffff16600114801561130b5750303b155b905081158015611319575080155b156113375760405163f92ee8a960e01b815260040160405180910390fd5b845467ffffffffffffffff19166001178555831561136157845460ff60401b1916600160401b1785555b61136a866118cf565b83156113b057845460ff60401b19168555604051600181527fc7f505b2f371ae2175ee4913f4499e1f2633a7b5936321eed1cdaeb6115181d29060200160405180910390a15b505050505050565b5f6113c1611551565b81516001600160a01b0316156113f3578151600780546001600160a01b0319166001600160a01b039092169190911790555b60208201516001600160a01b03161561142b576020820151600880546001600160a01b0319166001600160a01b039092169190911790555b60408201516001600160a01b031615611463576040820151600980546001600160a01b0319166001600160a01b039092169190911790555b60608201516001600160a01b03161561149b576060820151600680546001600160a01b0319166001600160a01b039092169190911790555b60808201516001600160a01b0316156114d3576080820151600a80546001600160a01b0319166001600160a01b039092169190911790555b60a0820151156114e55760a08201515f555b60e0820151156114f85760e08201516001555b60c08201511561150b5760c08201516002555b5060015b919050565b61151c611551565b6001600160a01b03811661154557604051631e4fbdf760e01b81525f600482015260240161073f565b61154e81611835565b50565b3361155a611291565b6001600160a01b03161461128f5760405163118cdaa760e01b815233600482015260240161073f565b6040516001600160a01b0384811660248301528381166044830152606482018390526115ea9186918216906323b872dd906084015b604051602081830303815290604052915060e01b6020820180516001600160e01b0383818316178352505050506118e0565b50505050565b604080516001600160a01b038416602482015260448082018490528251808303909101815260649091019091526020810180516001600160e01b031663095ea7b360e01b179052611641848261194c565b6115ea576040516001600160a01b0384811660248301525f604483015261167591869182169063095ea7b3906064016115b8565b6115ea84826118e0565b306001600160a01b037f000000000000000000000000000000000000000000000000000000000000000016148061170557507f00000000000000000000000000000000000000000000000000000000000000006001600160a01b03166116f95f5160206123fb5f395f51905f52546001600160a01b031690565b6001600160a01b031614155b1561128f5760405163703e46dd60e11b815260040160405180910390fd5b61154e611551565b816001600160a01b03166352d1902d6040518163ffffffff1660e01b8152600401602060405180830381865afa925050508015611785575060408051601f3d908101601f19168201909252611782918101906121f0565b60015b6117ad57604051634c9c8ce360e01b81526001600160a01b038316600482015260240161073f565b5f5160206123fb5f395f51905f5281146117dd57604051632a87526960e21b81526004810182905260240161073f565b6117e78383611995565b505050565b306001600160a01b037f0000000000000000000000000000000000000000000000000000000000000000161461128f5760405163703e46dd60e11b815260040160405180910390fd5b7f9016d09d72d40fdae2fd8ceac6b6234c7706214fd39c1cd1e609a0528c19930080546001600160a01b031981166001600160a01b03848116918217845560405192169182907f8be0079c531659141344cd1fd0a4f28419497f9722a3daafe3b4186f6b6457e0905f90a3505050565b5f807ff0c57e16840df040f15088dc2f81fe391c3923bec73e23a9662efc9c229c6a005b92915050565b6118d76119ea565b61154e81611a0f565b5f5f60205f8451602086015f885af1806118ff576040513d5f823e3d81fd5b50505f513d91508115611916578060011415611923565b6001600160a01b0384163b155b156115ea57604051635274afe760e01b81526001600160a01b038516600482015260240161073f565b5f5f5f5f60205f8651602088015f8a5af192503d91505f51905082801561198b5750811561197d578060011461198b565b5f866001600160a01b03163b115b9695505050505050565b61199e82611a17565b6040516001600160a01b038316907fbc7cd75a20ee27fd9adebab32041f755214dbc6bffa90cc0225b39da2e5c2d3b905f90a28051156119e2576117e78282611a7a565b610fd5611aec565b6119f2611b0b565b61128f57604051631afcd79f60e31b815260040160405180910390fd5b61151c6119ea565b806001600160a01b03163b5f03611a4c57604051634c9c8ce360e01b81526001600160a01b038216600482015260240161073f565b5f5160206123fb5f395f51905f5280546001600160a01b0319166001600160a01b0392909216919091179055565b60605f5f846001600160a01b031684604051611a9691906123e4565b5f60405180830381855af49150503d805f8114611ace576040519150601f19603f3d011682016040523d82523d5f602084013e611ad3565b606091505b5091509150611ae3858383611b24565b95945050505050565b341561128f5760405163b398979f60e01b815260040160405180910390fd5b5f611b146118a5565b54600160401b900460ff16919050565b606082611b3957611b3482611b83565b611b7c565b8151158015611b5057506001600160a01b0384163b155b15611b7957604051639996b31560e01b81526001600160a01b038516600482015260240161073f565b50805b9392505050565b805115611b9257805160208201fd5b60405163d6bda27560e01b815260040160405180910390fd5b80356001600160a01b038116811461150f575f5ffd5b634e487b7160e01b5f52604160045260245ffd5b604051610100810167ffffffffffffffff81118282101715611bf957611bf9611bc1565b60405290565b604051601f8201601f1916810167ffffffffffffffff81118282101715611c2857611c28611bc1565b604052919050565b5f60608284031215611c40575f5ffd5b6040516060810167ffffffffffffffff81118282101715611c6357611c63611bc1565b60409081528335825260208085013590830152928301359281019290925250919050565b5f82601f830112611c96575f5ffd5b813567ffffffffffffffff811115611cb057611cb0611bc1565b611cc3601f8201601f1916602001611bff565b818152846020838601011115611cd7575f5ffd5b816020850160208301375f918101602001919091529392505050565b5f5f5f60a08486031215611d05575f5ffd5b611d0e84611bab565b9250611d1d8560208601611c30565b9150608084013567ffffffffffffffff811115611d38575f5ffd5b611d4486828701611c87565b9150509250925092565b5f82601f830112611d5d575f5ffd5b5f611d686040611bff565b9050806040840185811115611d7b575f5ffd5b845b81811015611d95578035835260209283019201611d7d565b509195945050505050565b5f82601f830112611daf575f5ffd5b6040611dba81611bff565b806080850186811115611dcb575f5ffd5b855b81811015611dee57611ddf8882611d4e565b84526020909301928401611dcd565b50909695505050505050565b5f5f5f5f6102c08587031215611e0e575f5ffd5b611e188686611d4e565b9350611e278660408701611da0565b9250611e368660c08701611d4e565b91505f8661011f870112611e48575f5ffd5b505f806101c0611e5781611bff565b9150508091506102c0870188811115611e6e575f5ffd5b61010088015b81811015611e8c578035845260209384019301611e74565b5050809250505092959194509250565b5f5f60408385031215611ead575f5ffd5b50508035926020909101359150565b5f5f5f5f6102408587031215611ed0575f5ffd5b611eda8686611d4e565b9350611ee98660408701611da0565b9250611ef88660c08701611d4e565b91505f8661011f870112611f0a575f5ffd5b505f80610140611f1981611bff565b915050809150610240870188811115611e6e575f5ffd5b5f5f60808385031215611f41575f5ffd5b611f4b8484611c30565b9150611f5960608401611bab565b90509250929050565b5f5f60408385031215611f73575f5ffd5b611f7c83611bab565b9150602083013567ffffffffffffffff811115611f97575f5ffd5b611fa385828601611c87565b9150509250929050565b5f5f5f5f6101808587031215611fc1575f5ffd5b611fcb8686611d4e565b9350611fda8660408701611da0565b9250611fe98660c08701611d4e565b91505f8661011f870112611ffb575f5ffd5b505f806120086080611bff565b9050809150610180870188811115611e6e575f5ffd5b5f6020828403121561202e575f5ffd5b5035919050565b5f81518084528060208401602086015e5f602082860101526020601f19601f83011685010191505092915050565b602081525f611b7c6020830184612035565b5f60208284031215612085575f5ffd5b611b7c82611bab565b5f6101008284031280156120a0575f5ffd5b506120a9611bd5565b6120b283611bab565b81526120c060208401611bab565b60208201526120d160408401611bab565b60408201526120e260608401611bab565b60608201526120f360808401611bab565b608082015260a0838101359082015260c0808401359082015260e0928301359281019290925250919050565b634e487b7160e01b5f52602160045260245ffd5b80516001600160a01b0390811683526020808301519091169083015260408082015190830152606080820151908301526080808201519083015260a08101516003811061218e57634e487b7160e01b5f52602160045260245ffd5b8060a0840152505050565b6121a38184612133565b60e060c08201525f6121b860e0830184612035565b949350505050565b6060810181835f5b60038110156121e75781518352602092830192909101906001016121c8565b50505092915050565b5f60208284031215612200575f5ffd5b5051919050565b634e487b7160e01b5f52601160045260245ffd5b80820281158282048414176118c9576118c9612207565b808201808211156118c9576118c9612207565b634e487b7160e01b5f52603260045260245ffd5b805f5b60028110156115ea57815184526020938401939091019060010161225c565b805f5b60028110156115ea57612292848351612259565b604093909301926020919091019060010161227e565b6102c081016122b78287612259565b6122c4604083018661227b565b6122d160c0830185612259565b6101008201835f5b600e8110156122f85781518352602092830192909101906001016122d9565b50505095945050505050565b5f60208284031215612314575f5ffd5b81518015158114611b7c575f5ffd5b61024081016123328287612259565b61233f604083018661227b565b61234c60c0830185612259565b6101008201835f5b600a8110156122f8578151835260209283019290910190600101612354565b818103818111156118c9576118c9612207565b60c081016118c98284612133565b61018081016123a38287612259565b6123b0604083018661227b565b6123bd60c0830185612259565b6101008201835f5b60048110156122f85781518352602092830192909101906001016123c5565b5f82518060208501845e5f92019182525091905056fe360894a13ba1a3210667c828492db98dca3e2076cc3735a920a3ca505d382bbca264697066735822122092025b772178ba3614273ca19c3c258f9eba2fee5292f2551df7e66ffb9532fa64736f6c634300081c0033",
  "linkReferences": {
    "project/contracts/aggregator-alpha/utils/PoseidonT4.sol": {
      "PoseidonT4": [
        {
          "length": 20,
          "start": 1574
        },
        {
          "length": 20,
          "start": 4081
        }
      ]
    }
  },
  "deployedLinkReferences": {
    "project/contracts/aggregator-alpha/utils/PoseidonT4.sol": {
      "PoseidonT4": [
        {
          "length": 20,
          "start": 1325
        },
        {
          "length": 20,
          "start": 3832
        }
      ]
    }
  },
  "immutableReferences": {
    "482": [
      {
        "length": 32,
        "start": 5770
      },
      {
        "length": 32,
        "start": 5811
      },
      {
        "length": 32,
        "start": 6135
      }
    ]
  },
  "inputSourceName": "project/contracts/aggregator-alpha/CurvyAggregatorAlphaV4.sol",
  "buildInfoId": "solc-0_8_28-ffce441fffd7e29eb732f3ee471a608738832edd"
}